{
	"contracts/ERC721/WXRApe.sol": {
		"WXRApe": {
			"abi": [
				{
					"inputs": [
						{
							"internalType": "string",
							"name": "name_",
							"type": "string"
						},
						{
							"internalType": "string",
							"name": "symbol_",
							"type": "string"
						}
					],
					"stateMutability": "nonpayable",
					"type": "constructor"
				},
				{
					"anonymous": false,
					"inputs": [
						{
							"indexed": true,
							"internalType": "address",
							"name": "owner",
							"type": "address"
						},
						{
							"indexed": true,
							"internalType": "address",
							"name": "approved",
							"type": "address"
						},
						{
							"indexed": true,
							"internalType": "uint256",
							"name": "tokenId",
							"type": "uint256"
						}
					],
					"name": "Approval",
					"type": "event"
				},
				{
					"anonymous": false,
					"inputs": [
						{
							"indexed": true,
							"internalType": "address",
							"name": "owner",
							"type": "address"
						},
						{
							"indexed": true,
							"internalType": "address",
							"name": "operator",
							"type": "address"
						},
						{
							"indexed": false,
							"internalType": "bool",
							"name": "approved",
							"type": "bool"
						}
					],
					"name": "ApprovalForAll",
					"type": "event"
				},
				{
					"anonymous": false,
					"inputs": [
						{
							"indexed": true,
							"internalType": "address",
							"name": "from",
							"type": "address"
						},
						{
							"indexed": true,
							"internalType": "address",
							"name": "to",
							"type": "address"
						},
						{
							"indexed": true,
							"internalType": "uint256",
							"name": "tokenId",
							"type": "uint256"
						}
					],
					"name": "Transfer",
					"type": "event"
				},
				{
					"inputs": [],
					"name": "MAX_APES",
					"outputs": [
						{
							"internalType": "uint256",
							"name": "",
							"type": "uint256"
						}
					],
					"stateMutability": "view",
					"type": "function"
				},
				{
					"inputs": [
						{
							"internalType": "address",
							"name": "to",
							"type": "address"
						},
						{
							"internalType": "uint256",
							"name": "tokenId",
							"type": "uint256"
						}
					],
					"name": "approve",
					"outputs": [],
					"stateMutability": "nonpayable",
					"type": "function"
				},
				{
					"inputs": [
						{
							"internalType": "address",
							"name": "owner",
							"type": "address"
						}
					],
					"name": "balanceOf",
					"outputs": [
						{
							"internalType": "uint256",
							"name": "",
							"type": "uint256"
						}
					],
					"stateMutability": "view",
					"type": "function"
				},
				{
					"inputs": [
						{
							"internalType": "uint256",
							"name": "tokenId",
							"type": "uint256"
						}
					],
					"name": "getApproved",
					"outputs": [
						{
							"internalType": "address",
							"name": "",
							"type": "address"
						}
					],
					"stateMutability": "view",
					"type": "function"
				},
				{
					"inputs": [
						{
							"internalType": "address",
							"name": "owner",
							"type": "address"
						},
						{
							"internalType": "address",
							"name": "operator",
							"type": "address"
						}
					],
					"name": "isApprovedForAll",
					"outputs": [
						{
							"internalType": "bool",
							"name": "",
							"type": "bool"
						}
					],
					"stateMutability": "view",
					"type": "function"
				},
				{
					"inputs": [
						{
							"internalType": "address",
							"name": "to",
							"type": "address"
						},
						{
							"internalType": "uint256",
							"name": "tokenId",
							"type": "uint256"
						}
					],
					"name": "mint",
					"outputs": [],
					"stateMutability": "nonpayable",
					"type": "function"
				},
				{
					"inputs": [],
					"name": "name",
					"outputs": [
						{
							"internalType": "string",
							"name": "",
							"type": "string"
						}
					],
					"stateMutability": "view",
					"type": "function"
				},
				{
					"inputs": [
						{
							"internalType": "uint256",
							"name": "tokenId",
							"type": "uint256"
						}
					],
					"name": "ownerOf",
					"outputs": [
						{
							"internalType": "address",
							"name": "owner",
							"type": "address"
						}
					],
					"stateMutability": "view",
					"type": "function"
				},
				{
					"inputs": [
						{
							"internalType": "address",
							"name": "from",
							"type": "address"
						},
						{
							"internalType": "address",
							"name": "to",
							"type": "address"
						},
						{
							"internalType": "uint256",
							"name": "tokenId",
							"type": "uint256"
						}
					],
					"name": "safeTransferFrom",
					"outputs": [],
					"stateMutability": "nonpayable",
					"type": "function"
				},
				{
					"inputs": [
						{
							"internalType": "address",
							"name": "from",
							"type": "address"
						},
						{
							"internalType": "address",
							"name": "to",
							"type": "address"
						},
						{
							"internalType": "uint256",
							"name": "tokenId",
							"type": "uint256"
						},
						{
							"internalType": "bytes",
							"name": "_data",
							"type": "bytes"
						}
					],
					"name": "safeTransferFrom",
					"outputs": [],
					"stateMutability": "nonpayable",
					"type": "function"
				},
				{
					"inputs": [
						{
							"internalType": "address",
							"name": "operator",
							"type": "address"
						},
						{
							"internalType": "bool",
							"name": "approved",
							"type": "bool"
						}
					],
					"name": "setApprovalForAll",
					"outputs": [],
					"stateMutability": "nonpayable",
					"type": "function"
				},
				{
					"inputs": [
						{
							"internalType": "bytes4",
							"name": "interfaceId",
							"type": "bytes4"
						}
					],
					"name": "supportsInterface",
					"outputs": [
						{
							"internalType": "bool",
							"name": "",
							"type": "bool"
						}
					],
					"stateMutability": "pure",
					"type": "function"
				},
				{
					"inputs": [],
					"name": "symbol",
					"outputs": [
						{
							"internalType": "string",
							"name": "",
							"type": "string"
						}
					],
					"stateMutability": "view",
					"type": "function"
				},
				{
					"inputs": [
						{
							"internalType": "uint256",
							"name": "tokenId",
							"type": "uint256"
						}
					],
					"name": "tokenURI",
					"outputs": [
						{
							"internalType": "string",
							"name": "",
							"type": "string"
						}
					],
					"stateMutability": "view",
					"type": "function"
				},
				{
					"inputs": [
						{
							"internalType": "address",
							"name": "from",
							"type": "address"
						},
						{
							"internalType": "address",
							"name": "to",
							"type": "address"
						},
						{
							"internalType": "uint256",
							"name": "tokenId",
							"type": "uint256"
						}
					],
					"name": "transferFrom",
					"outputs": [],
					"stateMutability": "nonpayable",
					"type": "function"
				}
			],
			"devdoc": {
				"kind": "dev",
				"methods": {
					"supportsInterface(bytes4)": {
						"details": "如果合约实现了查询的`interfaceId`，则返回true 规则详见：https://eips.ethereum.org/EIPS/eip-165#how-interfaces-are-identified[EIP section]"
					}
				},
				"version": 1
			},
			"evm": {
				"assembly": "    /* \"contracts/ERC721/WXRApe.sol\":98:721  contract WXRApe is ERC721{\r... */\n  mstore(0x40, 0x80)\n    /* \"contracts/ERC721/WXRApe.sol\":153:158  10000 */\n  0x2710\n    /* \"contracts/ERC721/WXRApe.sol\":130:158  uint public MAX_APES = 10000 */\n  0x06\n  sstore\n    /* \"contracts/ERC721/WXRApe.sol\":198:284  constructor(string memory name_, string memory symbol_) ERC721(name_, symbol_){\r... */\n  callvalue\n  dup1\n  iszero\n  tag_1\n  jumpi\n  0x00\n  dup1\n  revert\ntag_1:\n  pop\n  mload(0x40)\n  sub(codesize, bytecodeSize)\n  dup1\n  bytecodeSize\n  dup4\n  codecopy\n  dup2\n  dup2\n  add\n  0x40\n  mstore\n  dup2\n  add\n  swap1\n  tag_2\n  swap2\n  swap1\n  tag_3\n  jump\t// in\ntag_2:\n    /* \"contracts/ERC721/WXRApe.sol\":261:266  name_ */\n  dup2\n    /* \"contracts/ERC721/WXRApe.sol\":268:275  symbol_ */\n  dup2\n    /* \"contracts/ERC721/ERC721.sol\":1203:1208  name_ */\n  dup2\n    /* \"contracts/ERC721/ERC721.sol\":1196:1200  name */\n  0x00\n    /* \"contracts/ERC721/ERC721.sol\":1196:1208  name = name_ */\n  swap1\n  dup1\n  mload\n  swap1\n  0x20\n  add\n  swap1\n  tag_7\n  swap3\n  swap2\n  swap1\n  tag_8\n  jump\t// in\ntag_7:\n  pop\n    /* \"contracts/ERC721/ERC721.sol\":1228:1235  symbol_ */\n  dup1\n    /* \"contracts/ERC721/ERC721.sol\":1219:1225  symbol */\n  0x01\n    /* \"contracts/ERC721/ERC721.sol\":1219:1235  symbol = symbol_ */\n  swap1\n  dup1\n  mload\n  swap1\n  0x20\n  add\n  swap1\n  tag_9\n  swap3\n  swap2\n  swap1\n  tag_8\n  jump\t// in\ntag_9:\n  pop\n    /* \"contracts/ERC721/ERC721.sol\":1129:1243  constructor(string memory name_, string memory symbol_) {\r... */\n  pop\n  pop\n    /* \"contracts/ERC721/WXRApe.sol\":198:284  constructor(string memory name_, string memory symbol_) ERC721(name_, symbol_){\r... */\n  pop\n  pop\n    /* \"contracts/ERC721/WXRApe.sol\":98:721  contract WXRApe is ERC721{\r... */\n  jump(tag_11)\ntag_8:\n  dup3\n  dup1\n  sload\n  tag_12\n  swap1\n  tag_13\n  jump\t// in\ntag_12:\n  swap1\n  0x00\n  mstore\n  keccak256(0x00, 0x20)\n  swap1\n  0x1f\n  add\n  0x20\n  swap1\n  div\n  dup2\n  add\n  swap3\n  dup3\n  tag_15\n  jumpi\n  0x00\n  dup6\n  sstore\n  jump(tag_14)\ntag_15:\n  dup3\n  0x1f\n  lt\n  tag_16\n  jumpi\n  dup1\n  mload\n  not(0xff)\n  and\n  dup4\n  dup1\n  add\n  or\n  dup6\n  sstore\n  jump(tag_14)\ntag_16:\n  dup3\n  dup1\n  add\n  0x01\n  add\n  dup6\n  sstore\n  dup3\n  iszero\n  tag_14\n  jumpi\n  swap2\n  dup3\n  add\ntag_17:\n  dup3\n  dup2\n  gt\n  iszero\n  tag_18\n  jumpi\n  dup3\n  mload\n  dup3\n  sstore\n  swap2\n  0x20\n  add\n  swap2\n  swap1\n  0x01\n  add\n  swap1\n  jump(tag_17)\ntag_18:\ntag_14:\n  pop\n  swap1\n  pop\n  tag_19\n  swap2\n  swap1\n  tag_20\n  jump\t// in\ntag_19:\n  pop\n  swap1\n  jump\t// out\ntag_20:\ntag_21:\n  dup1\n  dup3\n  gt\n  iszero\n  tag_22\n  jumpi\n  0x00\n  dup2\n  0x00\n  swap1\n  sstore\n  pop\n  0x01\n  add\n  jump(tag_21)\ntag_22:\n  pop\n  swap1\n  jump\t// out\n    /* \"#utility.yul\":7:428   */\ntag_24:\n    /* \"#utility.yul\":96:101   */\n  0x00\n    /* \"#utility.yul\":121:187   */\n  tag_26\n    /* \"#utility.yul\":137:186   */\n  tag_27\n    /* \"#utility.yul\":179:185   */\n  dup5\n    /* \"#utility.yul\":137:186   */\n  tag_28\n  jump\t// in\ntag_27:\n    /* \"#utility.yul\":121:187   */\n  tag_29\n  jump\t// in\ntag_26:\n    /* \"#utility.yul\":112:187   */\n  swap1\n  pop\n    /* \"#utility.yul\":210:216   */\n  dup3\n    /* \"#utility.yul\":203:208   */\n  dup2\n    /* \"#utility.yul\":196:217   */\n  mstore\n    /* \"#utility.yul\":248:252   */\n  0x20\n    /* \"#utility.yul\":241:246   */\n  dup2\n    /* \"#utility.yul\":237:253   */\n  add\n    /* \"#utility.yul\":286:289   */\n  dup5\n    /* \"#utility.yul\":277:283   */\n  dup5\n    /* \"#utility.yul\":272:275   */\n  dup5\n    /* \"#utility.yul\":268:284   */\n  add\n    /* \"#utility.yul\":265:290   */\n  gt\n    /* \"#utility.yul\":262:374   */\n  iszero\n  tag_30\n  jumpi\n    /* \"#utility.yul\":293:372   */\n  tag_31\n  tag_32\n  jump\t// in\ntag_31:\n    /* \"#utility.yul\":262:374   */\ntag_30:\n    /* \"#utility.yul\":383:422   */\n  tag_33\n    /* \"#utility.yul\":415:421   */\n  dup5\n    /* \"#utility.yul\":410:413   */\n  dup3\n    /* \"#utility.yul\":405:408   */\n  dup6\n    /* \"#utility.yul\":383:422   */\n  tag_34\n  jump\t// in\ntag_33:\n    /* \"#utility.yul\":102:428   */\n  pop\n    /* \"#utility.yul\":7:428   */\n  swap4\n  swap3\n  pop\n  pop\n  pop\n  jump\t// out\n    /* \"#utility.yul\":448:803   */\ntag_35:\n    /* \"#utility.yul\":515:520   */\n  0x00\n    /* \"#utility.yul\":564:567   */\n  dup3\n    /* \"#utility.yul\":557:561   */\n  0x1f\n    /* \"#utility.yul\":549:555   */\n  dup4\n    /* \"#utility.yul\":545:562   */\n  add\n    /* \"#utility.yul\":541:568   */\n  slt\n    /* \"#utility.yul\":531:653   */\n  tag_37\n  jumpi\n    /* \"#utility.yul\":572:651   */\n  tag_38\n  tag_39\n  jump\t// in\ntag_38:\n    /* \"#utility.yul\":531:653   */\ntag_37:\n    /* \"#utility.yul\":682:688   */\n  dup2\n    /* \"#utility.yul\":676:689   */\n  mload\n    /* \"#utility.yul\":707:797   */\n  tag_40\n    /* \"#utility.yul\":793:796   */\n  dup5\n    /* \"#utility.yul\":785:791   */\n  dup3\n    /* \"#utility.yul\":778:782   */\n  0x20\n    /* \"#utility.yul\":770:776   */\n  dup7\n    /* \"#utility.yul\":766:783   */\n  add\n    /* \"#utility.yul\":707:797   */\n  tag_24\n  jump\t// in\ntag_40:\n    /* \"#utility.yul\":698:797   */\n  swap2\n  pop\n    /* \"#utility.yul\":521:803   */\n  pop\n    /* \"#utility.yul\":448:803   */\n  swap3\n  swap2\n  pop\n  pop\n  jump\t// out\n    /* \"#utility.yul\":809:1662   */\ntag_3:\n    /* \"#utility.yul\":908:914   */\n  0x00\n    /* \"#utility.yul\":916:922   */\n  dup1\n    /* \"#utility.yul\":965:967   */\n  0x40\n    /* \"#utility.yul\":953:962   */\n  dup4\n    /* \"#utility.yul\":944:951   */\n  dup6\n    /* \"#utility.yul\":940:963   */\n  sub\n    /* \"#utility.yul\":936:968   */\n  slt\n    /* \"#utility.yul\":933:1052   */\n  iszero\n  tag_42\n  jumpi\n    /* \"#utility.yul\":971:1050   */\n  tag_43\n  tag_44\n  jump\t// in\ntag_43:\n    /* \"#utility.yul\":933:1052   */\ntag_42:\n    /* \"#utility.yul\":1112:1113   */\n  0x00\n    /* \"#utility.yul\":1101:1110   */\n  dup4\n    /* \"#utility.yul\":1097:1114   */\n  add\n    /* \"#utility.yul\":1091:1115   */\n  mload\n    /* \"#utility.yul\":1142:1160   */\n  0xffffffffffffffff\n    /* \"#utility.yul\":1134:1140   */\n  dup2\n    /* \"#utility.yul\":1131:1161   */\n  gt\n    /* \"#utility.yul\":1128:1245   */\n  iszero\n  tag_45\n  jumpi\n    /* \"#utility.yul\":1164:1243   */\n  tag_46\n  tag_47\n  jump\t// in\ntag_46:\n    /* \"#utility.yul\":1128:1245   */\ntag_45:\n    /* \"#utility.yul\":1269:1343   */\n  tag_48\n    /* \"#utility.yul\":1335:1342   */\n  dup6\n    /* \"#utility.yul\":1326:1332   */\n  dup3\n    /* \"#utility.yul\":1315:1324   */\n  dup7\n    /* \"#utility.yul\":1311:1333   */\n  add\n    /* \"#utility.yul\":1269:1343   */\n  tag_35\n  jump\t// in\ntag_48:\n    /* \"#utility.yul\":1259:1343   */\n  swap3\n  pop\n    /* \"#utility.yul\":1062:1353   */\n  pop\n    /* \"#utility.yul\":1413:1415   */\n  0x20\n    /* \"#utility.yul\":1402:1411   */\n  dup4\n    /* \"#utility.yul\":1398:1416   */\n  add\n    /* \"#utility.yul\":1392:1417   */\n  mload\n    /* \"#utility.yul\":1444:1462   */\n  0xffffffffffffffff\n    /* \"#utility.yul\":1436:1442   */\n  dup2\n    /* \"#utility.yul\":1433:1463   */\n  gt\n    /* \"#utility.yul\":1430:1547   */\n  iszero\n  tag_49\n  jumpi\n    /* \"#utility.yul\":1466:1545   */\n  tag_50\n  tag_47\n  jump\t// in\ntag_50:\n    /* \"#utility.yul\":1430:1547   */\ntag_49:\n    /* \"#utility.yul\":1571:1645   */\n  tag_51\n    /* \"#utility.yul\":1637:1644   */\n  dup6\n    /* \"#utility.yul\":1628:1634   */\n  dup3\n    /* \"#utility.yul\":1617:1626   */\n  dup7\n    /* \"#utility.yul\":1613:1635   */\n  add\n    /* \"#utility.yul\":1571:1645   */\n  tag_35\n  jump\t// in\ntag_51:\n    /* \"#utility.yul\":1561:1645   */\n  swap2\n  pop\n    /* \"#utility.yul\":1363:1655   */\n  pop\n    /* \"#utility.yul\":809:1662   */\n  swap3\n  pop\n  swap3\n  swap1\n  pop\n  jump\t// out\n    /* \"#utility.yul\":1668:1797   */\ntag_29:\n    /* \"#utility.yul\":1702:1708   */\n  0x00\n    /* \"#utility.yul\":1729:1749   */\n  tag_53\n  tag_54\n  jump\t// in\ntag_53:\n    /* \"#utility.yul\":1719:1749   */\n  swap1\n  pop\n    /* \"#utility.yul\":1758:1791   */\n  tag_55\n    /* \"#utility.yul\":1786:1790   */\n  dup3\n    /* \"#utility.yul\":1778:1784   */\n  dup3\n    /* \"#utility.yul\":1758:1791   */\n  tag_56\n  jump\t// in\ntag_55:\n    /* \"#utility.yul\":1668:1797   */\n  swap2\n  swap1\n  pop\n  jump\t// out\n    /* \"#utility.yul\":1803:1878   */\ntag_54:\n    /* \"#utility.yul\":1836:1842   */\n  0x00\n    /* \"#utility.yul\":1869:1871   */\n  0x40\n    /* \"#utility.yul\":1863:1872   */\n  mload\n    /* \"#utility.yul\":1853:1872   */\n  swap1\n  pop\n    /* \"#utility.yul\":1803:1878   */\n  swap1\n  jump\t// out\n    /* \"#utility.yul\":1884:2192   */\ntag_28:\n    /* \"#utility.yul\":1946:1950   */\n  0x00\n    /* \"#utility.yul\":2036:2054   */\n  0xffffffffffffffff\n    /* \"#utility.yul\":2028:2034   */\n  dup3\n    /* \"#utility.yul\":2025:2055   */\n  gt\n    /* \"#utility.yul\":2022:2078   */\n  iszero\n  tag_59\n  jumpi\n    /* \"#utility.yul\":2058:2076   */\n  tag_60\n  tag_61\n  jump\t// in\ntag_60:\n    /* \"#utility.yul\":2022:2078   */\ntag_59:\n    /* \"#utility.yul\":2096:2125   */\n  tag_62\n    /* \"#utility.yul\":2118:2124   */\n  dup3\n    /* \"#utility.yul\":2096:2125   */\n  tag_63\n  jump\t// in\ntag_62:\n    /* \"#utility.yul\":2088:2125   */\n  swap1\n  pop\n    /* \"#utility.yul\":2180:2184   */\n  0x20\n    /* \"#utility.yul\":2174:2178   */\n  dup2\n    /* \"#utility.yul\":2170:2185   */\n  add\n    /* \"#utility.yul\":2162:2185   */\n  swap1\n  pop\n    /* \"#utility.yul\":1884:2192   */\n  swap2\n  swap1\n  pop\n  jump\t// out\n    /* \"#utility.yul\":2198:2505   */\ntag_34:\n    /* \"#utility.yul\":2266:2267   */\n  0x00\n    /* \"#utility.yul\":2276:2389   */\ntag_65:\n    /* \"#utility.yul\":2290:2296   */\n  dup4\n    /* \"#utility.yul\":2287:2288   */\n  dup2\n    /* \"#utility.yul\":2284:2297   */\n  lt\n    /* \"#utility.yul\":2276:2389   */\n  iszero\n  tag_67\n  jumpi\n    /* \"#utility.yul\":2375:2376   */\n  dup1\n    /* \"#utility.yul\":2370:2373   */\n  dup3\n    /* \"#utility.yul\":2366:2377   */\n  add\n    /* \"#utility.yul\":2360:2378   */\n  mload\n    /* \"#utility.yul\":2356:2357   */\n  dup2\n    /* \"#utility.yul\":2351:2354   */\n  dup5\n    /* \"#utility.yul\":2347:2358   */\n  add\n    /* \"#utility.yul\":2340:2379   */\n  mstore\n    /* \"#utility.yul\":2312:2314   */\n  0x20\n    /* \"#utility.yul\":2309:2310   */\n  dup2\n    /* \"#utility.yul\":2305:2315   */\n  add\n    /* \"#utility.yul\":2300:2315   */\n  swap1\n  pop\n    /* \"#utility.yul\":2276:2389   */\n  jump(tag_65)\ntag_67:\n    /* \"#utility.yul\":2407:2413   */\n  dup4\n    /* \"#utility.yul\":2404:2405   */\n  dup2\n    /* \"#utility.yul\":2401:2414   */\n  gt\n    /* \"#utility.yul\":2398:2499   */\n  iszero\n  tag_68\n  jumpi\n    /* \"#utility.yul\":2487:2488   */\n  0x00\n    /* \"#utility.yul\":2478:2484   */\n  dup5\n    /* \"#utility.yul\":2473:2476   */\n  dup5\n    /* \"#utility.yul\":2469:2485   */\n  add\n    /* \"#utility.yul\":2462:2489   */\n  mstore\n    /* \"#utility.yul\":2398:2499   */\ntag_68:\n    /* \"#utility.yul\":2247:2505   */\n  pop\n    /* \"#utility.yul\":2198:2505   */\n  pop\n  pop\n  pop\n  jump\t// out\n    /* \"#utility.yul\":2511:2831   */\ntag_13:\n    /* \"#utility.yul\":2555:2561   */\n  0x00\n    /* \"#utility.yul\":2592:2593   */\n  0x02\n    /* \"#utility.yul\":2586:2590   */\n  dup3\n    /* \"#utility.yul\":2582:2594   */\n  div\n    /* \"#utility.yul\":2572:2594   */\n  swap1\n  pop\n    /* \"#utility.yul\":2639:2640   */\n  0x01\n    /* \"#utility.yul\":2633:2637   */\n  dup3\n    /* \"#utility.yul\":2629:2641   */\n  and\n    /* \"#utility.yul\":2660:2678   */\n  dup1\n    /* \"#utility.yul\":2650:2731   */\n  tag_70\n  jumpi\n    /* \"#utility.yul\":2716:2720   */\n  0x7f\n    /* \"#utility.yul\":2708:2714   */\n  dup3\n    /* \"#utility.yul\":2704:2721   */\n  and\n    /* \"#utility.yul\":2694:2721   */\n  swap2\n  pop\n    /* \"#utility.yul\":2650:2731   */\ntag_70:\n    /* \"#utility.yul\":2778:2780   */\n  0x20\n    /* \"#utility.yul\":2770:2776   */\n  dup3\n    /* \"#utility.yul\":2767:2781   */\n  lt\n    /* \"#utility.yul\":2747:2765   */\n  dup2\n    /* \"#utility.yul\":2744:2782   */\n  eq\n    /* \"#utility.yul\":2741:2825   */\n  iszero\n  tag_71\n  jumpi\n    /* \"#utility.yul\":2797:2815   */\n  tag_72\n  tag_73\n  jump\t// in\ntag_72:\n    /* \"#utility.yul\":2741:2825   */\ntag_71:\n    /* \"#utility.yul\":2562:2831   */\n  pop\n    /* \"#utility.yul\":2511:2831   */\n  swap2\n  swap1\n  pop\n  jump\t// out\n    /* \"#utility.yul\":2837:3118   */\ntag_56:\n    /* \"#utility.yul\":2920:2947   */\n  tag_75\n    /* \"#utility.yul\":2942:2946   */\n  dup3\n    /* \"#utility.yul\":2920:2947   */\n  tag_63\n  jump\t// in\ntag_75:\n    /* \"#utility.yul\":2912:2918   */\n  dup2\n    /* \"#utility.yul\":2908:2948   */\n  add\n    /* \"#utility.yul\":3050:3056   */\n  dup2\n    /* \"#utility.yul\":3038:3048   */\n  dup2\n    /* \"#utility.yul\":3035:3057   */\n  lt\n    /* \"#utility.yul\":3014:3032   */\n  0xffffffffffffffff\n    /* \"#utility.yul\":3002:3012   */\n  dup3\n    /* \"#utility.yul\":2999:3033   */\n  gt\n    /* \"#utility.yul\":2996:3058   */\n  or\n    /* \"#utility.yul\":2993:3081   */\n  iszero\n  tag_76\n  jumpi\n    /* \"#utility.yul\":3061:3079   */\n  tag_77\n  tag_61\n  jump\t// in\ntag_77:\n    /* \"#utility.yul\":2993:3081   */\ntag_76:\n    /* \"#utility.yul\":3101:3111   */\n  dup1\n    /* \"#utility.yul\":3097:3099   */\n  0x40\n    /* \"#utility.yul\":3090:3112   */\n  mstore\n    /* \"#utility.yul\":2880:3118   */\n  pop\n    /* \"#utility.yul\":2837:3118   */\n  pop\n  pop\n  jump\t// out\n    /* \"#utility.yul\":3124:3304   */\ntag_73:\n    /* \"#utility.yul\":3172:3249   */\n  0x4e487b7100000000000000000000000000000000000000000000000000000000\n    /* \"#utility.yul\":3169:3170   */\n  0x00\n    /* \"#utility.yul\":3162:3250   */\n  mstore\n    /* \"#utility.yul\":3269:3273   */\n  0x22\n    /* \"#utility.yul\":3266:3267   */\n  0x04\n    /* \"#utility.yul\":3259:3274   */\n  mstore\n    /* \"#utility.yul\":3293:3297   */\n  0x24\n    /* \"#utility.yul\":3290:3291   */\n  0x00\n    /* \"#utility.yul\":3283:3298   */\n  revert\n    /* \"#utility.yul\":3310:3490   */\ntag_61:\n    /* \"#utility.yul\":3358:3435   */\n  0x4e487b7100000000000000000000000000000000000000000000000000000000\n    /* \"#utility.yul\":3355:3356   */\n  0x00\n    /* \"#utility.yul\":3348:3436   */\n  mstore\n    /* \"#utility.yul\":3455:3459   */\n  0x41\n    /* \"#utility.yul\":3452:3453   */\n  0x04\n    /* \"#utility.yul\":3445:3460   */\n  mstore\n    /* \"#utility.yul\":3479:3483   */\n  0x24\n    /* \"#utility.yul\":3476:3477   */\n  0x00\n    /* \"#utility.yul\":3469:3484   */\n  revert\n    /* \"#utility.yul\":3496:3613   */\ntag_39:\n    /* \"#utility.yul\":3605:3606   */\n  0x00\n    /* \"#utility.yul\":3602:3603   */\n  dup1\n    /* \"#utility.yul\":3595:3607   */\n  revert\n    /* \"#utility.yul\":3619:3736   */\ntag_32:\n    /* \"#utility.yul\":3728:3729   */\n  0x00\n    /* \"#utility.yul\":3725:3726   */\n  dup1\n    /* \"#utility.yul\":3718:3730   */\n  revert\n    /* \"#utility.yul\":3742:3859   */\ntag_47:\n    /* \"#utility.yul\":3851:3852   */\n  0x00\n    /* \"#utility.yul\":3848:3849   */\n  dup1\n    /* \"#utility.yul\":3841:3853   */\n  revert\n    /* \"#utility.yul\":3865:3982   */\ntag_44:\n    /* \"#utility.yul\":3974:3975   */\n  0x00\n    /* \"#utility.yul\":3971:3972   */\n  dup1\n    /* \"#utility.yul\":3964:3976   */\n  revert\n    /* \"#utility.yul\":3988:4090   */\ntag_63:\n    /* \"#utility.yul\":4029:4035   */\n  0x00\n    /* \"#utility.yul\":4080:4082   */\n  0x1f\n    /* \"#utility.yul\":4076:4083   */\n  not\n    /* \"#utility.yul\":4071:4073   */\n  0x1f\n    /* \"#utility.yul\":4064:4069   */\n  dup4\n    /* \"#utility.yul\":4060:4074   */\n  add\n    /* \"#utility.yul\":4056:4084   */\n  and\n    /* \"#utility.yul\":4046:4084   */\n  swap1\n  pop\n    /* \"#utility.yul\":3988:4090   */\n  swap2\n  swap1\n  pop\n  jump\t// out\n    /* \"contracts/ERC721/WXRApe.sol\":98:721  contract WXRApe is ERC721{\r... */\ntag_11:\n  dataSize(sub_0)\n  dup1\n  dataOffset(sub_0)\n  0x00\n  codecopy\n  0x00\n  return\nstop\n\nsub_0: assembly {\n        /* \"contracts/ERC721/WXRApe.sol\":98:721  contract WXRApe is ERC721{\r... */\n      mstore(0x40, 0x80)\n      callvalue\n      dup1\n      iszero\n      tag_1\n      jumpi\n      0x00\n      dup1\n      revert\n    tag_1:\n      pop\n      jumpi(tag_2, lt(calldatasize, 0x04))\n      shr(0xe0, calldataload(0x00))\n      dup1\n      0x6352211e\n      gt\n      tag_18\n      jumpi\n      dup1\n      0xb88d4fde\n      gt\n      tag_19\n      jumpi\n      dup1\n      0xb88d4fde\n      eq\n      tag_14\n      jumpi\n      dup1\n      0xbb8a16bd\n      eq\n      tag_15\n      jumpi\n      dup1\n      0xc87b56dd\n      eq\n      tag_16\n      jumpi\n      dup1\n      0xe985e9c5\n      eq\n      tag_17\n      jumpi\n      jump(tag_2)\n    tag_19:\n      dup1\n      0x6352211e\n      eq\n      tag_10\n      jumpi\n      dup1\n      0x70a08231\n      eq\n      tag_11\n      jumpi\n      dup1\n      0x95d89b41\n      eq\n      tag_12\n      jumpi\n      dup1\n      0xa22cb465\n      eq\n      tag_13\n      jumpi\n      jump(tag_2)\n    tag_18:\n      dup1\n      0x095ea7b3\n      gt\n      tag_20\n      jumpi\n      dup1\n      0x095ea7b3\n      eq\n      tag_6\n      jumpi\n      dup1\n      0x23b872dd\n      eq\n      tag_7\n      jumpi\n      dup1\n      0x40c10f19\n      eq\n      tag_8\n      jumpi\n      dup1\n      0x42842e0e\n      eq\n      tag_9\n      jumpi\n      jump(tag_2)\n    tag_20:\n      dup1\n      0x01ffc9a7\n      eq\n      tag_3\n      jumpi\n      dup1\n      0x06fdde03\n      eq\n      tag_4\n      jumpi\n      dup1\n      0x081812fc\n      eq\n      tag_5\n      jumpi\n    tag_2:\n      0x00\n      dup1\n      revert\n        /* \"contracts/ERC721/ERC721.sol\":1296:1623  function supportsInterface(bytes4 interfaceId)\r... */\n    tag_3:\n      tag_21\n      0x04\n      dup1\n      calldatasize\n      sub\n      dup2\n      add\n      swap1\n      tag_22\n      swap2\n      swap1\n      tag_23\n      jump\t// in\n    tag_22:\n      tag_24\n      jump\t// in\n    tag_21:\n      mload(0x40)\n      tag_25\n      swap2\n      swap1\n      tag_26\n      jump\t// in\n    tag_25:\n      mload(0x40)\n      dup1\n      swap2\n      sub\n      swap1\n      return\n        /* \"contracts/ERC721/ERC721.sol\":520:547  string public override name */\n    tag_4:\n      tag_27\n      tag_28\n      jump\t// in\n    tag_27:\n      mload(0x40)\n      tag_29\n      swap2\n      swap1\n      tag_30\n      jump\t// in\n    tag_29:\n      mload(0x40)\n      dup1\n      swap2\n      sub\n      swap1\n      return\n        /* \"contracts/ERC721/ERC721.sol\":2962:3161  function getApproved(uint tokenId) external view override returns (address) {\r... */\n    tag_5:\n      tag_31\n      0x04\n      dup1\n      calldatasize\n      sub\n      dup2\n      add\n      swap1\n      tag_32\n      swap2\n      swap1\n      tag_33\n      jump\t// in\n    tag_32:\n      tag_34\n      jump\t// in\n    tag_31:\n      mload(0x40)\n      tag_35\n      swap2\n      swap1\n      tag_36\n      jump\t// in\n    tag_35:\n      mload(0x40)\n      dup1\n      swap2\n      sub\n      swap1\n      return\n        /* \"contracts/ERC721/ERC721.sol\":3648:3950  function approve(address to, uint tokenId) external override {\r... */\n    tag_6:\n      tag_37\n      0x04\n      dup1\n      calldatasize\n      sub\n      dup2\n      add\n      swap1\n      tag_38\n      swap2\n      swap1\n      tag_39\n      jump\t// in\n    tag_38:\n      tag_40\n      jump\t// in\n    tag_37:\n      stop\n        /* \"contracts/ERC721/ERC721.sol\":5106:5446  function transferFrom(\r... */\n    tag_7:\n      tag_41\n      0x04\n      dup1\n      calldatasize\n      sub\n      dup2\n      add\n      swap1\n      tag_42\n      swap2\n      swap1\n      tag_43\n      jump\t// in\n    tag_42:\n      tag_44\n      jump\t// in\n    tag_41:\n      stop\n        /* \"contracts/ERC721/WXRApe.sol\":554:718  function mint(address to, uint tokenId) external {\r... */\n    tag_8:\n      tag_45\n      0x04\n      dup1\n      calldatasize\n      sub\n      dup2\n      add\n      swap1\n      tag_46\n      swap2\n      swap1\n      tag_39\n      jump\t// in\n    tag_46:\n      tag_47\n      jump\t// in\n    tag_45:\n      stop\n        /* \"contracts/ERC721/ERC721.sol\":6749:6925  function safeTransferFrom(\r... */\n    tag_9:\n      tag_48\n      0x04\n      dup1\n      calldatasize\n      sub\n      dup2\n      add\n      swap1\n      tag_49\n      swap2\n      swap1\n      tag_43\n      jump\t// in\n    tag_49:\n      tag_50\n      jump\t// in\n    tag_48:\n      stop\n        /* \"contracts/ERC721/ERC721.sol\":1982:2163  function ownerOf(uint tokenId) public view override returns (address owner) {\r... */\n    tag_10:\n      tag_51\n      0x04\n      dup1\n      calldatasize\n      sub\n      dup2\n      add\n      swap1\n      tag_52\n      swap2\n      swap1\n      tag_33\n      jump\t// in\n    tag_52:\n      tag_53\n      jump\t// in\n    tag_51:\n      mload(0x40)\n      tag_54\n      swap2\n      swap1\n      tag_36\n      jump\t// in\n    tag_54:\n      mload(0x40)\n      dup1\n      swap2\n      sub\n      swap1\n      return\n        /* \"contracts/ERC721/ERC721.sol\":1719:1896  function balanceOf(address owner) external view override returns (uint) {\r... */\n    tag_11:\n      tag_55\n      0x04\n      dup1\n      calldatasize\n      sub\n      dup2\n      add\n      swap1\n      tag_56\n      swap2\n      swap1\n      tag_57\n      jump\t// in\n    tag_56:\n      tag_58\n      jump\t// in\n    tag_55:\n      mload(0x40)\n      tag_59\n      swap2\n      swap1\n      tag_60\n      jump\t// in\n    tag_59:\n      mload(0x40)\n      dup1\n      swap2\n      sub\n      swap1\n      return\n        /* \"contracts/ERC721/ERC721.sol\":574:603  string public override symbol */\n    tag_12:\n      tag_61\n      tag_62\n      jump\t// in\n    tag_61:\n      mload(0x40)\n      tag_63\n      swap2\n      swap1\n      tag_30\n      jump\t// in\n    tag_63:\n      mload(0x40)\n      dup1\n      swap2\n      sub\n      swap1\n      return\n        /* \"contracts/ERC721/ERC721.sol\":2647:2857  function setApprovalForAll(address operator, bool approved) external override {\r... */\n    tag_13:\n      tag_64\n      0x04\n      dup1\n      calldatasize\n      sub\n      dup2\n      add\n      swap1\n      tag_65\n      swap2\n      swap1\n      tag_66\n      jump\t// in\n    tag_65:\n      tag_67\n      jump\t// in\n    tag_64:\n      stop\n        /* \"contracts/ERC721/ERC721.sol\":6322:6704  function safeTransferFrom(\r... */\n    tag_14:\n      tag_68\n      0x04\n      dup1\n      calldatasize\n      sub\n      dup2\n      add\n      swap1\n      tag_69\n      swap2\n      swap1\n      tag_70\n      jump\t// in\n    tag_69:\n      tag_71\n      jump\t// in\n    tag_68:\n      stop\n        /* \"contracts/ERC721/WXRApe.sol\":130:158  uint public MAX_APES = 10000 */\n    tag_15:\n      tag_72\n      tag_73\n      jump\t// in\n    tag_72:\n      mload(0x40)\n      tag_74\n      swap2\n      swap1\n      tag_60\n      jump\t// in\n    tag_74:\n      mload(0x40)\n      dup1\n      swap2\n      sub\n      swap1\n      return\n        /* \"contracts/ERC721/ERC721.sol\":8930:9246  function tokenURI(uint256 tokenId) public view virtual override returns (string memory) {\r... */\n    tag_16:\n      tag_75\n      0x04\n      dup1\n      calldatasize\n      sub\n      dup2\n      add\n      swap1\n      tag_76\n      swap2\n      swap1\n      tag_33\n      jump\t// in\n    tag_76:\n      tag_77\n      jump\t// in\n    tag_75:\n      mload(0x40)\n      tag_78\n      swap2\n      swap1\n      tag_30\n      jump\t// in\n    tag_78:\n      mload(0x40)\n      dup1\n      swap2\n      sub\n      swap1\n      return\n        /* \"contracts/ERC721/ERC721.sol\":2315:2514  function isApprovedForAll(address owner, address operator)\r... */\n    tag_17:\n      tag_79\n      0x04\n      dup1\n      calldatasize\n      sub\n      dup2\n      add\n      swap1\n      tag_80\n      swap2\n      swap1\n      tag_81\n      jump\t// in\n    tag_80:\n      tag_82\n      jump\t// in\n    tag_79:\n      mload(0x40)\n      tag_83\n      swap2\n      swap1\n      tag_26\n      jump\t// in\n    tag_83:\n      mload(0x40)\n      dup1\n      swap2\n      sub\n      swap1\n      return\n        /* \"contracts/ERC721/ERC721.sol\":1296:1623  function supportsInterface(bytes4 interfaceId)\r... */\n    tag_24:\n        /* \"contracts/ERC721/ERC721.sol\":1411:1415  bool */\n      0x00\n        /* \"contracts/ERC721/ERC721.sol\":1468:1493  type(IERC721).interfaceId */\n      0x80ac58cd00000000000000000000000000000000000000000000000000000000\n        /* \"contracts/ERC721/ERC721.sol\":1453:1493  interfaceId == type(IERC721).interfaceId */\n      not(0xffffffffffffffffffffffffffffffffffffffffffffffffffffffff)\n      and\n        /* \"contracts/ERC721/ERC721.sol\":1453:1464  interfaceId */\n      dup3\n        /* \"contracts/ERC721/ERC721.sol\":1453:1493  interfaceId == type(IERC721).interfaceId */\n      not(0xffffffffffffffffffffffffffffffffffffffffffffffffffffffff)\n      and\n      eq\n        /* \"contracts/ERC721/ERC721.sol\":1453:1550  interfaceId == type(IERC721).interfaceId ||\r... */\n      dup1\n      tag_85\n      jumpi\n      pop\n        /* \"contracts/ERC721/ERC721.sol\":1525:1550  type(IERC165).interfaceId */\n      0x01ffc9a700000000000000000000000000000000000000000000000000000000\n        /* \"contracts/ERC721/ERC721.sol\":1510:1550  interfaceId == type(IERC165).interfaceId */\n      not(0xffffffffffffffffffffffffffffffffffffffffffffffffffffffff)\n      and\n        /* \"contracts/ERC721/ERC721.sol\":1510:1521  interfaceId */\n      dup3\n        /* \"contracts/ERC721/ERC721.sol\":1510:1550  interfaceId == type(IERC165).interfaceId */\n      not(0xffffffffffffffffffffffffffffffffffffffffffffffffffffffff)\n      and\n      eq\n        /* \"contracts/ERC721/ERC721.sol\":1453:1550  interfaceId == type(IERC721).interfaceId ||\r... */\n    tag_85:\n        /* \"contracts/ERC721/ERC721.sol\":1453:1615  interfaceId == type(IERC721).interfaceId ||\r... */\n      dup1\n      tag_86\n      jumpi\n      pop\n        /* \"contracts/ERC721/ERC721.sol\":1582:1615  type(IERC721Metadata).interfaceId */\n      0x5b5e139f00000000000000000000000000000000000000000000000000000000\n        /* \"contracts/ERC721/ERC721.sol\":1567:1615  interfaceId == type(IERC721Metadata).interfaceId */\n      not(0xffffffffffffffffffffffffffffffffffffffffffffffffffffffff)\n      and\n        /* \"contracts/ERC721/ERC721.sol\":1567:1578  interfaceId */\n      dup3\n        /* \"contracts/ERC721/ERC721.sol\":1567:1615  interfaceId == type(IERC721Metadata).interfaceId */\n      not(0xffffffffffffffffffffffffffffffffffffffffffffffffffffffff)\n      and\n      eq\n        /* \"contracts/ERC721/ERC721.sol\":1453:1615  interfaceId == type(IERC721).interfaceId ||\r... */\n    tag_86:\n        /* \"contracts/ERC721/ERC721.sol\":1433:1615  return\r... */\n      swap1\n      pop\n        /* \"contracts/ERC721/ERC721.sol\":1296:1623  function supportsInterface(bytes4 interfaceId)\r... */\n      swap2\n      swap1\n      pop\n      jump\t// out\n        /* \"contracts/ERC721/ERC721.sol\":520:547  string public override name */\n    tag_28:\n      0x00\n      dup1\n      sload\n      tag_87\n      swap1\n      tag_88\n      jump\t// in\n    tag_87:\n      dup1\n      0x1f\n      add\n      0x20\n      dup1\n      swap2\n      div\n      mul\n      0x20\n      add\n      mload(0x40)\n      swap1\n      dup2\n      add\n      0x40\n      mstore\n      dup1\n      swap3\n      swap2\n      swap1\n      dup2\n      dup2\n      mstore\n      0x20\n      add\n      dup3\n      dup1\n      sload\n      tag_89\n      swap1\n      tag_88\n      jump\t// in\n    tag_89:\n      dup1\n      iszero\n      tag_90\n      jumpi\n      dup1\n      0x1f\n      lt\n      tag_91\n      jumpi\n      0x0100\n      dup1\n      dup4\n      sload\n      div\n      mul\n      dup4\n      mstore\n      swap2\n      0x20\n      add\n      swap2\n      jump(tag_90)\n    tag_91:\n      dup3\n      add\n      swap2\n      swap1\n      0x00\n      mstore\n      keccak256(0x00, 0x20)\n      swap1\n    tag_92:\n      dup2\n      sload\n      dup2\n      mstore\n      swap1\n      0x01\n      add\n      swap1\n      0x20\n      add\n      dup1\n      dup4\n      gt\n      tag_92\n      jumpi\n      dup3\n      swap1\n      sub\n      0x1f\n      and\n      dup3\n      add\n      swap2\n    tag_90:\n      pop\n      pop\n      pop\n      pop\n      pop\n      dup2\n      jump\t// out\n        /* \"contracts/ERC721/ERC721.sol\":2962:3161  function getApproved(uint tokenId) external view override returns (address) {\r... */\n    tag_34:\n        /* \"contracts/ERC721/ERC721.sol\":3029:3036  address */\n      0x00\n        /* \"contracts/ERC721/ERC721.sol\":3085:3086  0 */\n      dup1\n        /* \"contracts/ERC721/ERC721.sol\":3057:3087  _owners[tokenId] != address(0) */\n      0xffffffffffffffffffffffffffffffffffffffff\n      and\n        /* \"contracts/ERC721/ERC721.sol\":3057:3064  _owners */\n      0x02\n        /* \"contracts/ERC721/ERC721.sol\":3057:3073  _owners[tokenId] */\n      0x00\n        /* \"contracts/ERC721/ERC721.sol\":3065:3072  tokenId */\n      dup5\n        /* \"contracts/ERC721/ERC721.sol\":3057:3073  _owners[tokenId] */\n      dup2\n      mstore\n      0x20\n      add\n      swap1\n      dup2\n      mstore\n      0x20\n      add\n      0x00\n      keccak256\n      0x00\n      swap1\n      sload\n      swap1\n      0x0100\n      exp\n      swap1\n      div\n      0xffffffffffffffffffffffffffffffffffffffff\n      and\n        /* \"contracts/ERC721/ERC721.sol\":3057:3087  _owners[tokenId] != address(0) */\n      0xffffffffffffffffffffffffffffffffffffffff\n      and\n      eq\n      iszero\n        /* \"contracts/ERC721/ERC721.sol\":3049:3111  require(_owners[tokenId] != address(0), \"token doesn't exist\") */\n      tag_94\n      jumpi\n      mload(0x40)\n      0x08c379a000000000000000000000000000000000000000000000000000000000\n      dup2\n      mstore\n      0x04\n      add\n      tag_95\n      swap1\n      tag_96\n      jump\t// in\n    tag_95:\n      mload(0x40)\n      dup1\n      swap2\n      sub\n      swap1\n      revert\n    tag_94:\n        /* \"contracts/ERC721/ERC721.sol\":3129:3144  _tokenApprovals */\n      0x04\n        /* \"contracts/ERC721/ERC721.sol\":3129:3153  _tokenApprovals[tokenId] */\n      0x00\n        /* \"contracts/ERC721/ERC721.sol\":3145:3152  tokenId */\n      dup4\n        /* \"contracts/ERC721/ERC721.sol\":3129:3153  _tokenApprovals[tokenId] */\n      dup2\n      mstore\n      0x20\n      add\n      swap1\n      dup2\n      mstore\n      0x20\n      add\n      0x00\n      keccak256\n      0x00\n      swap1\n      sload\n      swap1\n      0x0100\n      exp\n      swap1\n      div\n      0xffffffffffffffffffffffffffffffffffffffff\n      and\n        /* \"contracts/ERC721/ERC721.sol\":3122:3153  return _tokenApprovals[tokenId] */\n      swap1\n      pop\n        /* \"contracts/ERC721/ERC721.sol\":2962:3161  function getApproved(uint tokenId) external view override returns (address) {\r... */\n      swap2\n      swap1\n      pop\n      jump\t// out\n        /* \"contracts/ERC721/ERC721.sol\":3648:3950  function approve(address to, uint tokenId) external override {\r... */\n    tag_40:\n        /* \"contracts/ERC721/ERC721.sol\":3720:3733  address owner */\n      0x00\n        /* \"contracts/ERC721/ERC721.sol\":3736:3743  _owners */\n      0x02\n        /* \"contracts/ERC721/ERC721.sol\":3736:3752  _owners[tokenId] */\n      0x00\n        /* \"contracts/ERC721/ERC721.sol\":3744:3751  tokenId */\n      dup4\n        /* \"contracts/ERC721/ERC721.sol\":3736:3752  _owners[tokenId] */\n      dup2\n      mstore\n      0x20\n      add\n      swap1\n      dup2\n      mstore\n      0x20\n      add\n      0x00\n      keccak256\n      0x00\n      swap1\n      sload\n      swap1\n      0x0100\n      exp\n      swap1\n      div\n      0xffffffffffffffffffffffffffffffffffffffff\n      and\n        /* \"contracts/ERC721/ERC721.sol\":3720:3752  address owner = _owners[tokenId] */\n      swap1\n      pop\n        /* \"contracts/ERC721/ERC721.sol\":3799:3804  owner */\n      dup1\n        /* \"contracts/ERC721/ERC721.sol\":3785:3804  msg.sender == owner */\n      0xffffffffffffffffffffffffffffffffffffffff\n      and\n        /* \"contracts/ERC721/ERC721.sol\":3785:3795  msg.sender */\n      caller\n        /* \"contracts/ERC721/ERC721.sol\":3785:3804  msg.sender == owner */\n      0xffffffffffffffffffffffffffffffffffffffff\n      and\n      eq\n        /* \"contracts/ERC721/ERC721.sol\":3785:3845  msg.sender == owner || _operatorApprovals[owner][msg.sender] */\n      dup1\n      tag_98\n      jumpi\n      pop\n        /* \"contracts/ERC721/ERC721.sol\":3808:3826  _operatorApprovals */\n      0x05\n        /* \"contracts/ERC721/ERC721.sol\":3808:3833  _operatorApprovals[owner] */\n      0x00\n        /* \"contracts/ERC721/ERC721.sol\":3827:3832  owner */\n      dup3\n        /* \"contracts/ERC721/ERC721.sol\":3808:3833  _operatorApprovals[owner] */\n      0xffffffffffffffffffffffffffffffffffffffff\n      and\n      0xffffffffffffffffffffffffffffffffffffffff\n      and\n      dup2\n      mstore\n      0x20\n      add\n      swap1\n      dup2\n      mstore\n      0x20\n      add\n      0x00\n      keccak256\n        /* \"contracts/ERC721/ERC721.sol\":3808:3845  _operatorApprovals[owner][msg.sender] */\n      0x00\n        /* \"contracts/ERC721/ERC721.sol\":3834:3844  msg.sender */\n      caller\n        /* \"contracts/ERC721/ERC721.sol\":3808:3845  _operatorApprovals[owner][msg.sender] */\n      0xffffffffffffffffffffffffffffffffffffffff\n      and\n      0xffffffffffffffffffffffffffffffffffffffff\n      and\n      dup2\n      mstore\n      0x20\n      add\n      swap1\n      dup2\n      mstore\n      0x20\n      add\n      0x00\n      keccak256\n      0x00\n      swap1\n      sload\n      swap1\n      0x0100\n      exp\n      swap1\n      div\n      0xff\n      and\n        /* \"contracts/ERC721/ERC721.sol\":3785:3845  msg.sender == owner || _operatorApprovals[owner][msg.sender] */\n    tag_98:\n        /* \"contracts/ERC721/ERC721.sol\":3763:3903  require(\r... */\n      tag_99\n      jumpi\n      mload(0x40)\n      0x08c379a000000000000000000000000000000000000000000000000000000000\n      dup2\n      mstore\n      0x04\n      add\n      tag_100\n      swap1\n      tag_101\n      jump\t// in\n    tag_100:\n      mload(0x40)\n      dup1\n      swap2\n      sub\n      swap1\n      revert\n    tag_99:\n        /* \"contracts/ERC721/ERC721.sol\":3914:3942  _approve(owner, to, tokenId) */\n      tag_102\n        /* \"contracts/ERC721/ERC721.sol\":3923:3928  owner */\n      dup2\n        /* \"contracts/ERC721/ERC721.sol\":3930:3932  to */\n      dup5\n        /* \"contracts/ERC721/ERC721.sol\":3934:3941  tokenId */\n      dup5\n        /* \"contracts/ERC721/ERC721.sol\":3914:3922  _approve */\n      tag_103\n        /* \"contracts/ERC721/ERC721.sol\":3914:3942  _approve(owner, to, tokenId) */\n      jump\t// in\n    tag_102:\n        /* \"contracts/ERC721/ERC721.sol\":3709:3950  {\r... */\n      pop\n        /* \"contracts/ERC721/ERC721.sol\":3648:3950  function approve(address to, uint tokenId) external override {\r... */\n      pop\n      pop\n      jump\t// out\n        /* \"contracts/ERC721/ERC721.sol\":5106:5446  function transferFrom(\r... */\n    tag_44:\n        /* \"contracts/ERC721/ERC721.sol\":5231:5244  address owner */\n      0x00\n        /* \"contracts/ERC721/ERC721.sol\":5247:5263  ownerOf(tokenId) */\n      tag_105\n        /* \"contracts/ERC721/ERC721.sol\":5255:5262  tokenId */\n      dup3\n        /* \"contracts/ERC721/ERC721.sol\":5247:5254  ownerOf */\n      tag_53\n        /* \"contracts/ERC721/ERC721.sol\":5247:5263  ownerOf(tokenId) */\n      jump\t// in\n    tag_105:\n        /* \"contracts/ERC721/ERC721.sol\":5231:5263  address owner = ownerOf(tokenId) */\n      swap1\n      pop\n        /* \"contracts/ERC721/ERC721.sol\":5296:5342  _isApprovedOrOwner(owner, msg.sender, tokenId) */\n      tag_106\n        /* \"contracts/ERC721/ERC721.sol\":5315:5320  owner */\n      dup2\n        /* \"contracts/ERC721/ERC721.sol\":5322:5332  msg.sender */\n      caller\n        /* \"contracts/ERC721/ERC721.sol\":5334:5341  tokenId */\n      dup5\n        /* \"contracts/ERC721/ERC721.sol\":5296:5314  _isApprovedOrOwner */\n      tag_107\n        /* \"contracts/ERC721/ERC721.sol\":5296:5342  _isApprovedOrOwner(owner, msg.sender, tokenId) */\n      jump\t// in\n    tag_106:\n        /* \"contracts/ERC721/ERC721.sol\":5274:5392  require(\r... */\n      tag_108\n      jumpi\n      mload(0x40)\n      0x08c379a000000000000000000000000000000000000000000000000000000000\n      dup2\n      mstore\n      0x04\n      add\n      tag_109\n      swap1\n      tag_110\n      jump\t// in\n    tag_109:\n      mload(0x40)\n      dup1\n      swap2\n      sub\n      swap1\n      revert\n    tag_108:\n        /* \"contracts/ERC721/ERC721.sol\":5403:5438  _transfer(owner, from, to, tokenId) */\n      tag_111\n        /* \"contracts/ERC721/ERC721.sol\":5413:5418  owner */\n      dup2\n        /* \"contracts/ERC721/ERC721.sol\":5420:5424  from */\n      dup6\n        /* \"contracts/ERC721/ERC721.sol\":5426:5428  to */\n      dup6\n        /* \"contracts/ERC721/ERC721.sol\":5430:5437  tokenId */\n      dup6\n        /* \"contracts/ERC721/ERC721.sol\":5403:5412  _transfer */\n      tag_112\n        /* \"contracts/ERC721/ERC721.sol\":5403:5438  _transfer(owner, from, to, tokenId) */\n      jump\t// in\n    tag_111:\n        /* \"contracts/ERC721/ERC721.sol\":5220:5446  {\r... */\n      pop\n        /* \"contracts/ERC721/ERC721.sol\":5106:5446  function transferFrom(\r... */\n      pop\n      pop\n      pop\n      jump\t// out\n        /* \"contracts/ERC721/WXRApe.sol\":554:718  function mint(address to, uint tokenId) external {\r... */\n    tag_47:\n        /* \"contracts/ERC721/WXRApe.sol\":633:634  0 */\n      0x00\n        /* \"contracts/ERC721/WXRApe.sol\":622:629  tokenId */\n      dup2\n        /* \"contracts/ERC721/WXRApe.sol\":622:634  tokenId >= 0 */\n      lt\n      iszero\n        /* \"contracts/ERC721/WXRApe.sol\":622:656  tokenId >= 0 && tokenId < MAX_APES */\n      dup1\n      iszero\n      tag_114\n      jumpi\n      pop\n        /* \"contracts/ERC721/WXRApe.sol\":648:656  MAX_APES */\n      sload(0x06)\n        /* \"contracts/ERC721/WXRApe.sol\":638:645  tokenId */\n      dup2\n        /* \"contracts/ERC721/WXRApe.sol\":638:656  tokenId < MAX_APES */\n      lt\n        /* \"contracts/ERC721/WXRApe.sol\":622:656  tokenId >= 0 && tokenId < MAX_APES */\n    tag_114:\n        /* \"contracts/ERC721/WXRApe.sol\":614:681  require(tokenId >= 0 && tokenId < MAX_APES, \"tokenId out of range\") */\n      tag_115\n      jumpi\n      mload(0x40)\n      0x08c379a000000000000000000000000000000000000000000000000000000000\n      dup2\n      mstore\n      0x04\n      add\n      tag_116\n      swap1\n      tag_117\n      jump\t// in\n    tag_116:\n      mload(0x40)\n      dup1\n      swap2\n      sub\n      swap1\n      revert\n    tag_115:\n        /* \"contracts/ERC721/WXRApe.sol\":692:710  _mint(to, tokenId) */\n      tag_118\n        /* \"contracts/ERC721/WXRApe.sol\":698:700  to */\n      dup3\n        /* \"contracts/ERC721/WXRApe.sol\":702:709  tokenId */\n      dup3\n        /* \"contracts/ERC721/WXRApe.sol\":692:697  _mint */\n      tag_119\n        /* \"contracts/ERC721/WXRApe.sol\":692:710  _mint(to, tokenId) */\n      jump\t// in\n    tag_118:\n        /* \"contracts/ERC721/WXRApe.sol\":554:718  function mint(address to, uint tokenId) external {\r... */\n      pop\n      pop\n      jump\t// out\n        /* \"contracts/ERC721/ERC721.sol\":6749:6925  function safeTransferFrom(\r... */\n    tag_50:\n        /* \"contracts/ERC721/ERC721.sol\":6878:6917  safeTransferFrom(from, to, tokenId, \"\") */\n      tag_121\n        /* \"contracts/ERC721/ERC721.sol\":6895:6899  from */\n      dup4\n        /* \"contracts/ERC721/ERC721.sol\":6901:6903  to */\n      dup4\n        /* \"contracts/ERC721/ERC721.sol\":6905:6912  tokenId */\n      dup4\n        /* \"contracts/ERC721/ERC721.sol\":6878:6917  safeTransferFrom(from, to, tokenId, \"\") */\n      mload(0x40)\n      dup1\n      0x20\n      add\n      0x40\n      mstore\n      dup1\n      0x00\n      dup2\n      mstore\n      pop\n        /* \"contracts/ERC721/ERC721.sol\":6878:6894  safeTransferFrom */\n      tag_71\n        /* \"contracts/ERC721/ERC721.sol\":6878:6917  safeTransferFrom(from, to, tokenId, \"\") */\n      jump\t// in\n    tag_121:\n        /* \"contracts/ERC721/ERC721.sol\":6749:6925  function safeTransferFrom(\r... */\n      pop\n      pop\n      pop\n      jump\t// out\n        /* \"contracts/ERC721/ERC721.sol\":1982:2163  function ownerOf(uint tokenId) public view override returns (address owner) {\r... */\n    tag_53:\n        /* \"contracts/ERC721/ERC721.sol\":2043:2056  address owner */\n      0x00\n        /* \"contracts/ERC721/ERC721.sol\":2077:2084  _owners */\n      0x02\n        /* \"contracts/ERC721/ERC721.sol\":2077:2093  _owners[tokenId] */\n      0x00\n        /* \"contracts/ERC721/ERC721.sol\":2085:2092  tokenId */\n      dup4\n        /* \"contracts/ERC721/ERC721.sol\":2077:2093  _owners[tokenId] */\n      dup2\n      mstore\n      0x20\n      add\n      swap1\n      dup2\n      mstore\n      0x20\n      add\n      0x00\n      keccak256\n      0x00\n      swap1\n      sload\n      swap1\n      0x0100\n      exp\n      swap1\n      div\n      0xffffffffffffffffffffffffffffffffffffffff\n      and\n        /* \"contracts/ERC721/ERC721.sol\":2069:2093  owner = _owners[tokenId] */\n      swap1\n      pop\n        /* \"contracts/ERC721/ERC721.sol\":2129:2130  0 */\n      0x00\n        /* \"contracts/ERC721/ERC721.sol\":2112:2131  owner != address(0) */\n      0xffffffffffffffffffffffffffffffffffffffff\n      and\n        /* \"contracts/ERC721/ERC721.sol\":2112:2117  owner */\n      dup2\n        /* \"contracts/ERC721/ERC721.sol\":2112:2131  owner != address(0) */\n      0xffffffffffffffffffffffffffffffffffffffff\n      and\n      eq\n      iszero\n        /* \"contracts/ERC721/ERC721.sol\":2104:2155  require(owner != address(0), \"token doesn't exist\") */\n      tag_123\n      jumpi\n      mload(0x40)\n      0x08c379a000000000000000000000000000000000000000000000000000000000\n      dup2\n      mstore\n      0x04\n      add\n      tag_124\n      swap1\n      tag_96\n      jump\t// in\n    tag_124:\n      mload(0x40)\n      dup1\n      swap2\n      sub\n      swap1\n      revert\n    tag_123:\n        /* \"contracts/ERC721/ERC721.sol\":1982:2163  function ownerOf(uint tokenId) public view override returns (address owner) {\r... */\n      swap2\n      swap1\n      pop\n      jump\t// out\n        /* \"contracts/ERC721/ERC721.sol\":1719:1896  function balanceOf(address owner) external view override returns (uint) {\r... */\n    tag_58:\n        /* \"contracts/ERC721/ERC721.sol\":1785:1789  uint */\n      0x00\n        /* \"contracts/ERC721/ERC721.sol\":1827:1828  0 */\n      dup1\n        /* \"contracts/ERC721/ERC721.sol\":1810:1829  owner != address(0) */\n      0xffffffffffffffffffffffffffffffffffffffff\n      and\n        /* \"contracts/ERC721/ERC721.sol\":1810:1815  owner */\n      dup3\n        /* \"contracts/ERC721/ERC721.sol\":1810:1829  owner != address(0) */\n      0xffffffffffffffffffffffffffffffffffffffff\n      and\n      eq\n      iszero\n        /* \"contracts/ERC721/ERC721.sol\":1802:1854  require(owner != address(0), \"owner = zero address\") */\n      tag_126\n      jumpi\n      mload(0x40)\n      0x08c379a000000000000000000000000000000000000000000000000000000000\n      dup2\n      mstore\n      0x04\n      add\n      tag_127\n      swap1\n      tag_128\n      jump\t// in\n    tag_127:\n      mload(0x40)\n      dup1\n      swap2\n      sub\n      swap1\n      revert\n    tag_126:\n        /* \"contracts/ERC721/ERC721.sol\":1872:1881  _balances */\n      0x03\n        /* \"contracts/ERC721/ERC721.sol\":1872:1888  _balances[owner] */\n      0x00\n        /* \"contracts/ERC721/ERC721.sol\":1882:1887  owner */\n      dup4\n        /* \"contracts/ERC721/ERC721.sol\":1872:1888  _balances[owner] */\n      0xffffffffffffffffffffffffffffffffffffffff\n      and\n      0xffffffffffffffffffffffffffffffffffffffff\n      and\n      dup2\n      mstore\n      0x20\n      add\n      swap1\n      dup2\n      mstore\n      0x20\n      add\n      0x00\n      keccak256\n      sload\n        /* \"contracts/ERC721/ERC721.sol\":1865:1888  return _balances[owner] */\n      swap1\n      pop\n        /* \"contracts/ERC721/ERC721.sol\":1719:1896  function balanceOf(address owner) external view override returns (uint) {\r... */\n      swap2\n      swap1\n      pop\n      jump\t// out\n        /* \"contracts/ERC721/ERC721.sol\":574:603  string public override symbol */\n    tag_62:\n      0x01\n      dup1\n      sload\n      tag_129\n      swap1\n      tag_88\n      jump\t// in\n    tag_129:\n      dup1\n      0x1f\n      add\n      0x20\n      dup1\n      swap2\n      div\n      mul\n      0x20\n      add\n      mload(0x40)\n      swap1\n      dup2\n      add\n      0x40\n      mstore\n      dup1\n      swap3\n      swap2\n      swap1\n      dup2\n      dup2\n      mstore\n      0x20\n      add\n      dup3\n      dup1\n      sload\n      tag_130\n      swap1\n      tag_88\n      jump\t// in\n    tag_130:\n      dup1\n      iszero\n      tag_131\n      jumpi\n      dup1\n      0x1f\n      lt\n      tag_132\n      jumpi\n      0x0100\n      dup1\n      dup4\n      sload\n      div\n      mul\n      dup4\n      mstore\n      swap2\n      0x20\n      add\n      swap2\n      jump(tag_131)\n    tag_132:\n      dup3\n      add\n      swap2\n      swap1\n      0x00\n      mstore\n      keccak256(0x00, 0x20)\n      swap1\n    tag_133:\n      dup2\n      sload\n      dup2\n      mstore\n      swap1\n      0x01\n      add\n      swap1\n      0x20\n      add\n      dup1\n      dup4\n      gt\n      tag_133\n      jumpi\n      dup3\n      swap1\n      sub\n      0x1f\n      and\n      dup3\n      add\n      swap2\n    tag_131:\n      pop\n      pop\n      pop\n      pop\n      pop\n      dup2\n      jump\t// out\n        /* \"contracts/ERC721/ERC721.sol\":2647:2857  function setApprovalForAll(address operator, bool approved) external override {\r... */\n    tag_67:\n        /* \"contracts/ERC721/ERC721.sol\":2779:2787  approved */\n      dup1\n        /* \"contracts/ERC721/ERC721.sol\":2736:2754  _operatorApprovals */\n      0x05\n        /* \"contracts/ERC721/ERC721.sol\":2736:2766  _operatorApprovals[msg.sender] */\n      0x00\n        /* \"contracts/ERC721/ERC721.sol\":2755:2765  msg.sender */\n      caller\n        /* \"contracts/ERC721/ERC721.sol\":2736:2766  _operatorApprovals[msg.sender] */\n      0xffffffffffffffffffffffffffffffffffffffff\n      and\n      0xffffffffffffffffffffffffffffffffffffffff\n      and\n      dup2\n      mstore\n      0x20\n      add\n      swap1\n      dup2\n      mstore\n      0x20\n      add\n      0x00\n      keccak256\n        /* \"contracts/ERC721/ERC721.sol\":2736:2776  _operatorApprovals[msg.sender][operator] */\n      0x00\n        /* \"contracts/ERC721/ERC721.sol\":2767:2775  operator */\n      dup5\n        /* \"contracts/ERC721/ERC721.sol\":2736:2776  _operatorApprovals[msg.sender][operator] */\n      0xffffffffffffffffffffffffffffffffffffffff\n      and\n      0xffffffffffffffffffffffffffffffffffffffff\n      and\n      dup2\n      mstore\n      0x20\n      add\n      swap1\n      dup2\n      mstore\n      0x20\n      add\n      0x00\n      keccak256\n      0x00\n        /* \"contracts/ERC721/ERC721.sol\":2736:2787  _operatorApprovals[msg.sender][operator] = approved */\n      0x0100\n      exp\n      dup2\n      sload\n      dup2\n      0xff\n      mul\n      not\n      and\n      swap1\n      dup4\n      iszero\n      iszero\n      mul\n      or\n      swap1\n      sstore\n      pop\n        /* \"contracts/ERC721/ERC721.sol\":2830:2838  operator */\n      dup2\n        /* \"contracts/ERC721/ERC721.sol\":2803:2849  ApprovalForAll(msg.sender, operator, approved) */\n      0xffffffffffffffffffffffffffffffffffffffff\n      and\n        /* \"contracts/ERC721/ERC721.sol\":2818:2828  msg.sender */\n      caller\n        /* \"contracts/ERC721/ERC721.sol\":2803:2849  ApprovalForAll(msg.sender, operator, approved) */\n      0xffffffffffffffffffffffffffffffffffffffff\n      and\n      0x17307eab39ab6107e8899845ad3d59bd9653f200f220920489ca2b5937696c31\n        /* \"contracts/ERC721/ERC721.sol\":2840:2848  approved */\n      dup4\n        /* \"contracts/ERC721/ERC721.sol\":2803:2849  ApprovalForAll(msg.sender, operator, approved) */\n      mload(0x40)\n      tag_135\n      swap2\n      swap1\n      tag_26\n      jump\t// in\n    tag_135:\n      mload(0x40)\n      dup1\n      swap2\n      sub\n      swap1\n      log3\n        /* \"contracts/ERC721/ERC721.sol\":2647:2857  function setApprovalForAll(address operator, bool approved) external override {\r... */\n      pop\n      pop\n      jump\t// out\n        /* \"contracts/ERC721/ERC721.sol\":6322:6704  function safeTransferFrom(\r... */\n    tag_71:\n        /* \"contracts/ERC721/ERC721.sol\":6478:6491  address owner */\n      0x00\n        /* \"contracts/ERC721/ERC721.sol\":6494:6510  ownerOf(tokenId) */\n      tag_137\n        /* \"contracts/ERC721/ERC721.sol\":6502:6509  tokenId */\n      dup4\n        /* \"contracts/ERC721/ERC721.sol\":6494:6501  ownerOf */\n      tag_53\n        /* \"contracts/ERC721/ERC721.sol\":6494:6510  ownerOf(tokenId) */\n      jump\t// in\n    tag_137:\n        /* \"contracts/ERC721/ERC721.sol\":6478:6510  address owner = ownerOf(tokenId) */\n      swap1\n      pop\n        /* \"contracts/ERC721/ERC721.sol\":6543:6589  _isApprovedOrOwner(owner, msg.sender, tokenId) */\n      tag_138\n        /* \"contracts/ERC721/ERC721.sol\":6562:6567  owner */\n      dup2\n        /* \"contracts/ERC721/ERC721.sol\":6569:6579  msg.sender */\n      caller\n        /* \"contracts/ERC721/ERC721.sol\":6581:6588  tokenId */\n      dup6\n        /* \"contracts/ERC721/ERC721.sol\":6543:6561  _isApprovedOrOwner */\n      tag_107\n        /* \"contracts/ERC721/ERC721.sol\":6543:6589  _isApprovedOrOwner(owner, msg.sender, tokenId) */\n      jump\t// in\n    tag_138:\n        /* \"contracts/ERC721/ERC721.sol\":6521:6639  require(\r... */\n      tag_139\n      jumpi\n      mload(0x40)\n      0x08c379a000000000000000000000000000000000000000000000000000000000\n      dup2\n      mstore\n      0x04\n      add\n      tag_140\n      swap1\n      tag_110\n      jump\t// in\n    tag_140:\n      mload(0x40)\n      dup1\n      swap2\n      sub\n      swap1\n      revert\n    tag_139:\n        /* \"contracts/ERC721/ERC721.sol\":6650:6696  _safeTransfer(owner, from, to, tokenId, _data) */\n      tag_141\n        /* \"contracts/ERC721/ERC721.sol\":6664:6669  owner */\n      dup2\n        /* \"contracts/ERC721/ERC721.sol\":6671:6675  from */\n      dup7\n        /* \"contracts/ERC721/ERC721.sol\":6677:6679  to */\n      dup7\n        /* \"contracts/ERC721/ERC721.sol\":6681:6688  tokenId */\n      dup7\n        /* \"contracts/ERC721/ERC721.sol\":6690:6695  _data */\n      dup7\n        /* \"contracts/ERC721/ERC721.sol\":6650:6663  _safeTransfer */\n      tag_142\n        /* \"contracts/ERC721/ERC721.sol\":6650:6696  _safeTransfer(owner, from, to, tokenId, _data) */\n      jump\t// in\n    tag_141:\n        /* \"contracts/ERC721/ERC721.sol\":6467:6704  {\r... */\n      pop\n        /* \"contracts/ERC721/ERC721.sol\":6322:6704  function safeTransferFrom(\r... */\n      pop\n      pop\n      pop\n      pop\n      jump\t// out\n        /* \"contracts/ERC721/WXRApe.sol\":130:158  uint public MAX_APES = 10000 */\n    tag_73:\n      sload(0x06)\n      dup2\n      jump\t// out\n        /* \"contracts/ERC721/ERC721.sol\":8930:9246  function tokenURI(uint256 tokenId) public view virtual override returns (string memory) {\r... */\n    tag_77:\n        /* \"contracts/ERC721/ERC721.sol\":9003:9016  string memory */\n      0x60\n        /* \"contracts/ERC721/ERC721.sol\":9065:9066  0 */\n      0x00\n        /* \"contracts/ERC721/ERC721.sol\":9037:9067  _owners[tokenId] != address(0) */\n      0xffffffffffffffffffffffffffffffffffffffff\n      and\n        /* \"contracts/ERC721/ERC721.sol\":9037:9044  _owners */\n      0x02\n        /* \"contracts/ERC721/ERC721.sol\":9037:9053  _owners[tokenId] */\n      0x00\n        /* \"contracts/ERC721/ERC721.sol\":9045:9052  tokenId */\n      dup5\n        /* \"contracts/ERC721/ERC721.sol\":9037:9053  _owners[tokenId] */\n      dup2\n      mstore\n      0x20\n      add\n      swap1\n      dup2\n      mstore\n      0x20\n      add\n      0x00\n      keccak256\n      0x00\n      swap1\n      sload\n      swap1\n      0x0100\n      exp\n      swap1\n      div\n      0xffffffffffffffffffffffffffffffffffffffff\n      and\n        /* \"contracts/ERC721/ERC721.sol\":9037:9067  _owners[tokenId] != address(0) */\n      0xffffffffffffffffffffffffffffffffffffffff\n      and\n      eq\n      iszero\n        /* \"contracts/ERC721/ERC721.sol\":9029:9087  require(_owners[tokenId] != address(0), \"Token Not Exist\") */\n      tag_144\n      jumpi\n      mload(0x40)\n      0x08c379a000000000000000000000000000000000000000000000000000000000\n      dup2\n      mstore\n      0x04\n      add\n      tag_145\n      swap1\n      tag_146\n      jump\t// in\n    tag_145:\n      mload(0x40)\n      dup1\n      swap2\n      sub\n      swap1\n      revert\n    tag_144:\n        /* \"contracts/ERC721/ERC721.sol\":9100:9121  string memory baseURI */\n      0x00\n        /* \"contracts/ERC721/ERC721.sol\":9124:9134  _baseURI() */\n      tag_147\n        /* \"contracts/ERC721/ERC721.sol\":9124:9132  _baseURI */\n      tag_148\n        /* \"contracts/ERC721/ERC721.sol\":9124:9134  _baseURI() */\n      jump\t// in\n    tag_147:\n        /* \"contracts/ERC721/ERC721.sol\":9100:9134  string memory baseURI = _baseURI() */\n      swap1\n      pop\n        /* \"contracts/ERC721/ERC721.sol\":9176:9177  0 */\n      0x00\n        /* \"contracts/ERC721/ERC721.sol\":9158:9165  baseURI */\n      dup2\n        /* \"contracts/ERC721/ERC721.sol\":9152:9173  bytes(baseURI).length */\n      mload\n        /* \"contracts/ERC721/ERC721.sol\":9152:9177  bytes(baseURI).length > 0 */\n      gt\n        /* \"contracts/ERC721/ERC721.sol\":9152:9238  bytes(baseURI).length > 0 ? string(abi.encodePacked(baseURI, tokenId.toString())) : \"\" */\n      tag_149\n      jumpi\n      mload(0x40)\n      dup1\n      0x20\n      add\n      0x40\n      mstore\n      dup1\n      0x00\n      dup2\n      mstore\n      pop\n      jump(tag_150)\n    tag_149:\n        /* \"contracts/ERC721/ERC721.sol\":9204:9211  baseURI */\n      dup1\n        /* \"contracts/ERC721/ERC721.sol\":9213:9231  tokenId.toString() */\n      tag_151\n        /* \"contracts/ERC721/ERC721.sol\":9213:9220  tokenId */\n      dup5\n        /* \"contracts/ERC721/ERC721.sol\":9213:9229  tokenId.toString */\n      tag_152\n        /* \"contracts/ERC721/ERC721.sol\":9213:9231  tokenId.toString() */\n      jump\t// in\n    tag_151:\n        /* \"contracts/ERC721/ERC721.sol\":9187:9232  abi.encodePacked(baseURI, tokenId.toString()) */\n      add(0x20, mload(0x40))\n      tag_153\n      swap3\n      swap2\n      swap1\n      tag_154\n      jump\t// in\n    tag_153:\n      mload(0x40)\n      0x20\n      dup2\n      dup4\n      sub\n      sub\n      dup2\n      mstore\n      swap1\n      0x40\n      mstore\n        /* \"contracts/ERC721/ERC721.sol\":9152:9238  bytes(baseURI).length > 0 ? string(abi.encodePacked(baseURI, tokenId.toString())) : \"\" */\n    tag_150:\n        /* \"contracts/ERC721/ERC721.sol\":9145:9238  return bytes(baseURI).length > 0 ? string(abi.encodePacked(baseURI, tokenId.toString())) : \"\" */\n      swap2\n      pop\n      pop\n        /* \"contracts/ERC721/ERC721.sol\":8930:9246  function tokenURI(uint256 tokenId) public view virtual override returns (string memory) {\r... */\n      swap2\n      swap1\n      pop\n      jump\t// out\n        /* \"contracts/ERC721/ERC721.sol\":2315:2514  function isApprovedForAll(address owner, address operator)\r... */\n    tag_82:\n        /* \"contracts/ERC721/ERC721.sol\":2442:2446  bool */\n      0x00\n        /* \"contracts/ERC721/ERC721.sol\":2471:2489  _operatorApprovals */\n      0x05\n        /* \"contracts/ERC721/ERC721.sol\":2471:2496  _operatorApprovals[owner] */\n      0x00\n        /* \"contracts/ERC721/ERC721.sol\":2490:2495  owner */\n      dup5\n        /* \"contracts/ERC721/ERC721.sol\":2471:2496  _operatorApprovals[owner] */\n      0xffffffffffffffffffffffffffffffffffffffff\n      and\n      0xffffffffffffffffffffffffffffffffffffffff\n      and\n      dup2\n      mstore\n      0x20\n      add\n      swap1\n      dup2\n      mstore\n      0x20\n      add\n      0x00\n      keccak256\n        /* \"contracts/ERC721/ERC721.sol\":2471:2506  _operatorApprovals[owner][operator] */\n      0x00\n        /* \"contracts/ERC721/ERC721.sol\":2497:2505  operator */\n      dup4\n        /* \"contracts/ERC721/ERC721.sol\":2471:2506  _operatorApprovals[owner][operator] */\n      0xffffffffffffffffffffffffffffffffffffffff\n      and\n      0xffffffffffffffffffffffffffffffffffffffff\n      and\n      dup2\n      mstore\n      0x20\n      add\n      swap1\n      dup2\n      mstore\n      0x20\n      add\n      0x00\n      keccak256\n      0x00\n      swap1\n      sload\n      swap1\n      0x0100\n      exp\n      swap1\n      div\n      0xff\n      and\n        /* \"contracts/ERC721/ERC721.sol\":2464:2506  return _operatorApprovals[owner][operator] */\n      swap1\n      pop\n        /* \"contracts/ERC721/ERC721.sol\":2315:2514  function isApprovedForAll(address owner, address operator)\r... */\n      swap3\n      swap2\n      pop\n      pop\n      jump\t// out\n        /* \"contracts/ERC721/ERC721.sol\":3293:3486  function _approve(\r... */\n    tag_103:\n        /* \"contracts/ERC721/ERC721.sol\":3432:3434  to */\n      dup2\n        /* \"contracts/ERC721/ERC721.sol\":3405:3420  _tokenApprovals */\n      0x04\n        /* \"contracts/ERC721/ERC721.sol\":3405:3429  _tokenApprovals[tokenId] */\n      0x00\n        /* \"contracts/ERC721/ERC721.sol\":3421:3428  tokenId */\n      dup4\n        /* \"contracts/ERC721/ERC721.sol\":3405:3429  _tokenApprovals[tokenId] */\n      dup2\n      mstore\n      0x20\n      add\n      swap1\n      dup2\n      mstore\n      0x20\n      add\n      0x00\n      keccak256\n      0x00\n        /* \"contracts/ERC721/ERC721.sol\":3405:3434  _tokenApprovals[tokenId] = to */\n      0x0100\n      exp\n      dup2\n      sload\n      dup2\n      0xffffffffffffffffffffffffffffffffffffffff\n      mul\n      not\n      and\n      swap1\n      dup4\n      0xffffffffffffffffffffffffffffffffffffffff\n      and\n      mul\n      or\n      swap1\n      sstore\n      pop\n        /* \"contracts/ERC721/ERC721.sol\":3470:3477  tokenId */\n      dup1\n        /* \"contracts/ERC721/ERC721.sol\":3466:3468  to */\n      dup3\n        /* \"contracts/ERC721/ERC721.sol\":3450:3478  Approval(owner, to, tokenId) */\n      0xffffffffffffffffffffffffffffffffffffffff\n      and\n        /* \"contracts/ERC721/ERC721.sol\":3459:3464  owner */\n      dup5\n        /* \"contracts/ERC721/ERC721.sol\":3450:3478  Approval(owner, to, tokenId) */\n      0xffffffffffffffffffffffffffffffffffffffff\n      and\n      0x8c5be1e5ebec7d5bd14f71427d1e84f3dd0314c0f7b2291e5b200ac8c7c3b925\n      mload(0x40)\n      mload(0x40)\n      dup1\n      swap2\n      sub\n      swap1\n      log4\n        /* \"contracts/ERC721/ERC721.sol\":3293:3486  function _approve(\r... */\n      pop\n      pop\n      pop\n      jump\t// out\n        /* \"contracts/ERC721/ERC721.sol\":4050:4333  function _isApprovedOrOwner(\r... */\n    tag_107:\n        /* \"contracts/ERC721/ERC721.sol\":4180:4184  bool */\n      0x00\n        /* \"contracts/ERC721/ERC721.sol\":4216:4221  owner */\n      dup4\n        /* \"contracts/ERC721/ERC721.sol\":4205:4221  spender == owner */\n      0xffffffffffffffffffffffffffffffffffffffff\n      and\n        /* \"contracts/ERC721/ERC721.sol\":4205:4212  spender */\n      dup4\n        /* \"contracts/ERC721/ERC721.sol\":4205:4221  spender == owner */\n      0xffffffffffffffffffffffffffffffffffffffff\n      and\n      eq\n        /* \"contracts/ERC721/ERC721.sol\":4205:4273  spender == owner ||\r... */\n      dup1\n      tag_158\n      jumpi\n      pop\n        /* \"contracts/ERC721/ERC721.sol\":4266:4273  spender */\n      dup3\n        /* \"contracts/ERC721/ERC721.sol\":4238:4273  _tokenApprovals[tokenId] == spender */\n      0xffffffffffffffffffffffffffffffffffffffff\n      and\n        /* \"contracts/ERC721/ERC721.sol\":4238:4253  _tokenApprovals */\n      0x04\n        /* \"contracts/ERC721/ERC721.sol\":4238:4262  _tokenApprovals[tokenId] */\n      0x00\n        /* \"contracts/ERC721/ERC721.sol\":4254:4261  tokenId */\n      dup5\n        /* \"contracts/ERC721/ERC721.sol\":4238:4262  _tokenApprovals[tokenId] */\n      dup2\n      mstore\n      0x20\n      add\n      swap1\n      dup2\n      mstore\n      0x20\n      add\n      0x00\n      keccak256\n      0x00\n      swap1\n      sload\n      swap1\n      0x0100\n      exp\n      swap1\n      div\n      0xffffffffffffffffffffffffffffffffffffffff\n      and\n        /* \"contracts/ERC721/ERC721.sol\":4238:4273  _tokenApprovals[tokenId] == spender */\n      0xffffffffffffffffffffffffffffffffffffffff\n      and\n      eq\n        /* \"contracts/ERC721/ERC721.sol\":4205:4273  spender == owner ||\r... */\n    tag_158:\n        /* \"contracts/ERC721/ERC721.sol\":4205:4324  spender == owner ||\r... */\n      dup1\n      tag_159\n      jumpi\n      pop\n        /* \"contracts/ERC721/ERC721.sol\":4290:4308  _operatorApprovals */\n      0x05\n        /* \"contracts/ERC721/ERC721.sol\":4290:4315  _operatorApprovals[owner] */\n      0x00\n        /* \"contracts/ERC721/ERC721.sol\":4309:4314  owner */\n      dup6\n        /* \"contracts/ERC721/ERC721.sol\":4290:4315  _operatorApprovals[owner] */\n      0xffffffffffffffffffffffffffffffffffffffff\n      and\n      0xffffffffffffffffffffffffffffffffffffffff\n      and\n      dup2\n      mstore\n      0x20\n      add\n      swap1\n      dup2\n      mstore\n      0x20\n      add\n      0x00\n      keccak256\n        /* \"contracts/ERC721/ERC721.sol\":4290:4324  _operatorApprovals[owner][spender] */\n      0x00\n        /* \"contracts/ERC721/ERC721.sol\":4316:4323  spender */\n      dup5\n        /* \"contracts/ERC721/ERC721.sol\":4290:4324  _operatorApprovals[owner][spender] */\n      0xffffffffffffffffffffffffffffffffffffffff\n      and\n      0xffffffffffffffffffffffffffffffffffffffff\n      and\n      dup2\n      mstore\n      0x20\n      add\n      swap1\n      dup2\n      mstore\n      0x20\n      add\n      0x00\n      keccak256\n      0x00\n      swap1\n      sload\n      swap1\n      0x0100\n      exp\n      swap1\n      div\n      0xff\n      and\n        /* \"contracts/ERC721/ERC721.sol\":4205:4324  spender == owner ||\r... */\n    tag_159:\n        /* \"contracts/ERC721/ERC721.sol\":4197:4325  return (spender == owner ||\r... */\n      swap1\n      pop\n        /* \"contracts/ERC721/ERC721.sol\":4050:4333  function _isApprovedOrOwner(\r... */\n      swap4\n      swap3\n      pop\n      pop\n      pop\n      jump\t// out\n        /* \"contracts/ERC721/ERC721.sol\":4562:4997  function _transfer(\r... */\n    tag_112:\n        /* \"contracts/ERC721/ERC721.sol\":4714:4719  owner */\n      dup4\n        /* \"contracts/ERC721/ERC721.sol\":4706:4719  from == owner */\n      0xffffffffffffffffffffffffffffffffffffffff\n      and\n        /* \"contracts/ERC721/ERC721.sol\":4706:4710  from */\n      dup4\n        /* \"contracts/ERC721/ERC721.sol\":4706:4719  from == owner */\n      0xffffffffffffffffffffffffffffffffffffffff\n      and\n      eq\n        /* \"contracts/ERC721/ERC721.sol\":4698:4733  require(from == owner, \"not owner\") */\n      tag_161\n      jumpi\n      mload(0x40)\n      0x08c379a000000000000000000000000000000000000000000000000000000000\n      dup2\n      mstore\n      0x04\n      add\n      tag_162\n      swap1\n      tag_163\n      jump\t// in\n    tag_162:\n      mload(0x40)\n      dup1\n      swap2\n      sub\n      swap1\n      revert\n    tag_161:\n        /* \"contracts/ERC721/ERC721.sol\":4766:4767  0 */\n      0x00\n        /* \"contracts/ERC721/ERC721.sol\":4752:4768  to != address(0) */\n      0xffffffffffffffffffffffffffffffffffffffff\n      and\n        /* \"contracts/ERC721/ERC721.sol\":4752:4754  to */\n      dup3\n        /* \"contracts/ERC721/ERC721.sol\":4752:4768  to != address(0) */\n      0xffffffffffffffffffffffffffffffffffffffff\n      and\n      eq\n      iszero\n        /* \"contracts/ERC721/ERC721.sol\":4744:4801  require(to != address(0), \"transfer to the zero address\") */\n      tag_164\n      jumpi\n      mload(0x40)\n      0x08c379a000000000000000000000000000000000000000000000000000000000\n      dup2\n      mstore\n      0x04\n      add\n      tag_165\n      swap1\n      tag_166\n      jump\t// in\n    tag_165:\n      mload(0x40)\n      dup1\n      swap2\n      sub\n      swap1\n      revert\n    tag_164:\n        /* \"contracts/ERC721/ERC721.sol\":4814:4850  _approve(owner, address(0), tokenId) */\n      tag_167\n        /* \"contracts/ERC721/ERC721.sol\":4823:4828  owner */\n      dup5\n        /* \"contracts/ERC721/ERC721.sol\":4838:4839  0 */\n      0x00\n        /* \"contracts/ERC721/ERC721.sol\":4842:4849  tokenId */\n      dup4\n        /* \"contracts/ERC721/ERC721.sol\":4814:4822  _approve */\n      tag_103\n        /* \"contracts/ERC721/ERC721.sol\":4814:4850  _approve(owner, address(0), tokenId) */\n      jump\t// in\n    tag_167:\n        /* \"contracts/ERC721/ERC721.sol\":4882:4883  1 */\n      0x01\n        /* \"contracts/ERC721/ERC721.sol\":4863:4872  _balances */\n      0x03\n        /* \"contracts/ERC721/ERC721.sol\":4863:4878  _balances[from] */\n      0x00\n        /* \"contracts/ERC721/ERC721.sol\":4873:4877  from */\n      dup6\n        /* \"contracts/ERC721/ERC721.sol\":4863:4878  _balances[from] */\n      0xffffffffffffffffffffffffffffffffffffffff\n      and\n      0xffffffffffffffffffffffffffffffffffffffff\n      and\n      dup2\n      mstore\n      0x20\n      add\n      swap1\n      dup2\n      mstore\n      0x20\n      add\n      0x00\n      keccak256\n      0x00\n        /* \"contracts/ERC721/ERC721.sol\":4863:4883  _balances[from] -= 1 */\n      dup3\n      dup3\n      sload\n      tag_168\n      swap2\n      swap1\n      tag_169\n      jump\t// in\n    tag_168:\n      swap3\n      pop\n      pop\n      dup2\n      swap1\n      sstore\n      pop\n        /* \"contracts/ERC721/ERC721.sol\":4911:4912  1 */\n      0x01\n        /* \"contracts/ERC721/ERC721.sol\":4894:4903  _balances */\n      0x03\n        /* \"contracts/ERC721/ERC721.sol\":4894:4907  _balances[to] */\n      0x00\n        /* \"contracts/ERC721/ERC721.sol\":4904:4906  to */\n      dup5\n        /* \"contracts/ERC721/ERC721.sol\":4894:4907  _balances[to] */\n      0xffffffffffffffffffffffffffffffffffffffff\n      and\n      0xffffffffffffffffffffffffffffffffffffffff\n      and\n      dup2\n      mstore\n      0x20\n      add\n      swap1\n      dup2\n      mstore\n      0x20\n      add\n      0x00\n      keccak256\n      0x00\n        /* \"contracts/ERC721/ERC721.sol\":4894:4912  _balances[to] += 1 */\n      dup3\n      dup3\n      sload\n      tag_170\n      swap2\n      swap1\n      tag_171\n      jump\t// in\n    tag_170:\n      swap3\n      pop\n      pop\n      dup2\n      swap1\n      sstore\n      pop\n        /* \"contracts/ERC721/ERC721.sol\":4942:4944  to */\n      dup2\n        /* \"contracts/ERC721/ERC721.sol\":4923:4930  _owners */\n      0x02\n        /* \"contracts/ERC721/ERC721.sol\":4923:4939  _owners[tokenId] */\n      0x00\n        /* \"contracts/ERC721/ERC721.sol\":4931:4938  tokenId */\n      dup4\n        /* \"contracts/ERC721/ERC721.sol\":4923:4939  _owners[tokenId] */\n      dup2\n      mstore\n      0x20\n      add\n      swap1\n      dup2\n      mstore\n      0x20\n      add\n      0x00\n      keccak256\n      0x00\n        /* \"contracts/ERC721/ERC721.sol\":4923:4944  _owners[tokenId] = to */\n      0x0100\n      exp\n      dup2\n      sload\n      dup2\n      0xffffffffffffffffffffffffffffffffffffffff\n      mul\n      not\n      and\n      swap1\n      dup4\n      0xffffffffffffffffffffffffffffffffffffffff\n      and\n      mul\n      or\n      swap1\n      sstore\n      pop\n        /* \"contracts/ERC721/ERC721.sol\":4981:4988  tokenId */\n      dup1\n        /* \"contracts/ERC721/ERC721.sol\":4977:4979  to */\n      dup3\n        /* \"contracts/ERC721/ERC721.sol\":4962:4989  Transfer(from, to, tokenId) */\n      0xffffffffffffffffffffffffffffffffffffffff\n      and\n        /* \"contracts/ERC721/ERC721.sol\":4971:4975  from */\n      dup5\n        /* \"contracts/ERC721/ERC721.sol\":4962:4989  Transfer(from, to, tokenId) */\n      0xffffffffffffffffffffffffffffffffffffffff\n      and\n      0xddf252ad1be2c89b69c2b068fc378daa952ba7f163c4a11628f55a4df523b3ef\n      mload(0x40)\n      mload(0x40)\n      dup1\n      swap2\n      sub\n      swap1\n      log4\n        /* \"contracts/ERC721/ERC721.sol\":4562:4997  function _transfer(\r... */\n      pop\n      pop\n      pop\n      pop\n      jump\t// out\n        /* \"contracts/ERC721/ERC721.sol\":7378:7692  function _mint(address to, uint tokenId) internal virtual {\r... */\n    tag_119:\n        /* \"contracts/ERC721/ERC721.sol\":7469:7470  0 */\n      0x00\n        /* \"contracts/ERC721/ERC721.sol\":7455:7471  to != address(0) */\n      0xffffffffffffffffffffffffffffffffffffffff\n      and\n        /* \"contracts/ERC721/ERC721.sol\":7455:7457  to */\n      dup3\n        /* \"contracts/ERC721/ERC721.sol\":7455:7471  to != address(0) */\n      0xffffffffffffffffffffffffffffffffffffffff\n      and\n      eq\n      iszero\n        /* \"contracts/ERC721/ERC721.sol\":7447:7496  require(to != address(0), \"mint to zero address\") */\n      tag_173\n      jumpi\n      mload(0x40)\n      0x08c379a000000000000000000000000000000000000000000000000000000000\n      dup2\n      mstore\n      0x04\n      add\n      tag_174\n      swap1\n      tag_175\n      jump\t// in\n    tag_174:\n      mload(0x40)\n      dup1\n      swap2\n      sub\n      swap1\n      revert\n    tag_173:\n        /* \"contracts/ERC721/ERC721.sol\":7543:7544  0 */\n      0x00\n        /* \"contracts/ERC721/ERC721.sol\":7515:7545  _owners[tokenId] == address(0) */\n      0xffffffffffffffffffffffffffffffffffffffff\n      and\n        /* \"contracts/ERC721/ERC721.sol\":7515:7522  _owners */\n      0x02\n        /* \"contracts/ERC721/ERC721.sol\":7515:7531  _owners[tokenId] */\n      0x00\n        /* \"contracts/ERC721/ERC721.sol\":7523:7530  tokenId */\n      dup4\n        /* \"contracts/ERC721/ERC721.sol\":7515:7531  _owners[tokenId] */\n      dup2\n      mstore\n      0x20\n      add\n      swap1\n      dup2\n      mstore\n      0x20\n      add\n      0x00\n      keccak256\n      0x00\n      swap1\n      sload\n      swap1\n      0x0100\n      exp\n      swap1\n      div\n      0xffffffffffffffffffffffffffffffffffffffff\n      and\n        /* \"contracts/ERC721/ERC721.sol\":7515:7545  _owners[tokenId] == address(0) */\n      0xffffffffffffffffffffffffffffffffffffffff\n      and\n      eq\n        /* \"contracts/ERC721/ERC721.sol\":7507:7570  require(_owners[tokenId] == address(0), \"token already minted\") */\n      tag_176\n      jumpi\n      mload(0x40)\n      0x08c379a000000000000000000000000000000000000000000000000000000000\n      dup2\n      mstore\n      0x04\n      add\n      tag_177\n      swap1\n      tag_178\n      jump\t// in\n    tag_177:\n      mload(0x40)\n      dup1\n      swap2\n      sub\n      swap1\n      revert\n    tag_176:\n        /* \"contracts/ERC721/ERC721.sol\":7600:7601  1 */\n      0x01\n        /* \"contracts/ERC721/ERC721.sol\":7583:7592  _balances */\n      0x03\n        /* \"contracts/ERC721/ERC721.sol\":7583:7596  _balances[to] */\n      0x00\n        /* \"contracts/ERC721/ERC721.sol\":7593:7595  to */\n      dup5\n        /* \"contracts/ERC721/ERC721.sol\":7583:7596  _balances[to] */\n      0xffffffffffffffffffffffffffffffffffffffff\n      and\n      0xffffffffffffffffffffffffffffffffffffffff\n      and\n      dup2\n      mstore\n      0x20\n      add\n      swap1\n      dup2\n      mstore\n      0x20\n      add\n      0x00\n      keccak256\n      0x00\n        /* \"contracts/ERC721/ERC721.sol\":7583:7601  _balances[to] += 1 */\n      dup3\n      dup3\n      sload\n      tag_179\n      swap2\n      swap1\n      tag_171\n      jump\t// in\n    tag_179:\n      swap3\n      pop\n      pop\n      dup2\n      swap1\n      sstore\n      pop\n        /* \"contracts/ERC721/ERC721.sol\":7631:7633  to */\n      dup2\n        /* \"contracts/ERC721/ERC721.sol\":7612:7619  _owners */\n      0x02\n        /* \"contracts/ERC721/ERC721.sol\":7612:7628  _owners[tokenId] */\n      0x00\n        /* \"contracts/ERC721/ERC721.sol\":7620:7627  tokenId */\n      dup4\n        /* \"contracts/ERC721/ERC721.sol\":7612:7628  _owners[tokenId] */\n      dup2\n      mstore\n      0x20\n      add\n      swap1\n      dup2\n      mstore\n      0x20\n      add\n      0x00\n      keccak256\n      0x00\n        /* \"contracts/ERC721/ERC721.sol\":7612:7633  _owners[tokenId] = to */\n      0x0100\n      exp\n      dup2\n      sload\n      dup2\n      0xffffffffffffffffffffffffffffffffffffffff\n      mul\n      not\n      and\n      swap1\n      dup4\n      0xffffffffffffffffffffffffffffffffffffffff\n      and\n      mul\n      or\n      swap1\n      sstore\n      pop\n        /* \"contracts/ERC721/ERC721.sol\":7676:7683  tokenId */\n      dup1\n        /* \"contracts/ERC721/ERC721.sol\":7672:7674  to */\n      dup3\n        /* \"contracts/ERC721/ERC721.sol\":7651:7684  Transfer(address(0), to, tokenId) */\n      0xffffffffffffffffffffffffffffffffffffffff\n      and\n        /* \"contracts/ERC721/ERC721.sol\":7668:7669  0 */\n      0x00\n        /* \"contracts/ERC721/ERC721.sol\":7651:7684  Transfer(address(0), to, tokenId) */\n      0xffffffffffffffffffffffffffffffffffffffff\n      and\n      0xddf252ad1be2c89b69c2b068fc378daa952ba7f163c4a11628f55a4df523b3ef\n      mload(0x40)\n      mload(0x40)\n      dup1\n      swap2\n      sub\n      swap1\n      log4\n        /* \"contracts/ERC721/ERC721.sol\":7378:7692  function _mint(address to, uint tokenId) internal virtual {\r... */\n      pop\n      pop\n      jump\t// out\n        /* \"contracts/ERC721/ERC721.sol\":5904:6206  function _safeTransfer(\r... */\n    tag_142:\n        /* \"contracts/ERC721/ERC721.sol\":6073:6108  _transfer(owner, from, to, tokenId) */\n      tag_181\n        /* \"contracts/ERC721/ERC721.sol\":6083:6088  owner */\n      dup6\n        /* \"contracts/ERC721/ERC721.sol\":6090:6094  from */\n      dup6\n        /* \"contracts/ERC721/ERC721.sol\":6096:6098  to */\n      dup6\n        /* \"contracts/ERC721/ERC721.sol\":6100:6107  tokenId */\n      dup6\n        /* \"contracts/ERC721/ERC721.sol\":6073:6082  _transfer */\n      tag_112\n        /* \"contracts/ERC721/ERC721.sol\":6073:6108  _transfer(owner, from, to, tokenId) */\n      jump\t// in\n    tag_181:\n        /* \"contracts/ERC721/ERC721.sol\":6127:6175  _checkOnERC721Received(from, to, tokenId, _data) */\n      tag_182\n        /* \"contracts/ERC721/ERC721.sol\":6150:6154  from */\n      dup5\n        /* \"contracts/ERC721/ERC721.sol\":6156:6158  to */\n      dup5\n        /* \"contracts/ERC721/ERC721.sol\":6160:6167  tokenId */\n      dup5\n        /* \"contracts/ERC721/ERC721.sol\":6169:6174  _data */\n      dup5\n        /* \"contracts/ERC721/ERC721.sol\":6127:6149  _checkOnERC721Received */\n      tag_183\n        /* \"contracts/ERC721/ERC721.sol\":6127:6175  _checkOnERC721Received(from, to, tokenId, _data) */\n      jump\t// in\n    tag_182:\n        /* \"contracts/ERC721/ERC721.sol\":6119:6198  require(_checkOnERC721Received(from, to, tokenId, _data), \"not ERC721Receiver\") */\n      tag_184\n      jumpi\n      mload(0x40)\n      0x08c379a000000000000000000000000000000000000000000000000000000000\n      dup2\n      mstore\n      0x04\n      add\n      tag_185\n      swap1\n      tag_186\n      jump\t// in\n    tag_185:\n      mload(0x40)\n      dup1\n      swap2\n      sub\n      swap1\n      revert\n    tag_184:\n        /* \"contracts/ERC721/ERC721.sol\":5904:6206  function _safeTransfer(\r... */\n      pop\n      pop\n      pop\n      pop\n      pop\n      jump\t// out\n        /* \"contracts/ERC721/WXRApe.sol\":372:521  function _baseURI() internal pure override returns (string memory) {\r... */\n    tag_148:\n        /* \"contracts/ERC721/WXRApe.sol\":424:437  string memory */\n      0x60\n        /* \"contracts/ERC721/WXRApe.sol\":450:513  return \"ipfs://QmeSjSinHpPnmXmspMjwiXyN6zS4E9zccariGR3jxcaWtq/\" */\n      mload(0x40)\n      dup1\n      0x60\n      add\n      0x40\n      mstore\n      dup1\n      0x36\n      dup2\n      mstore\n      0x20\n      add\n      data_8382b382247cd07401a2ef2f394137c3f3b0972798bae0a9c78b0c261acbb56b\n      0x36\n      swap2\n      codecopy\n      swap1\n      pop\n        /* \"contracts/ERC721/WXRApe.sol\":372:521  function _baseURI() internal pure override returns (string memory) {\r... */\n      swap1\n      jump\t// out\n        /* \"@openzeppelin/contracts/utils/Strings.sol\":415:1111  function toString(uint256 value) internal pure returns (string memory) {... */\n    tag_152:\n        /* \"@openzeppelin/contracts/utils/Strings.sol\":471:484  string memory */\n      0x60\n        /* \"@openzeppelin/contracts/utils/Strings.sol\":520:534  uint256 length */\n      0x00\n        /* \"@openzeppelin/contracts/utils/Strings.sol\":557:558  1 */\n      0x01\n        /* \"@openzeppelin/contracts/utils/Strings.sol\":537:554  Math.log10(value) */\n      tag_189\n        /* \"@openzeppelin/contracts/utils/Strings.sol\":548:553  value */\n      dup5\n        /* \"@openzeppelin/contracts/utils/Strings.sol\":537:547  Math.log10 */\n      tag_190\n        /* \"@openzeppelin/contracts/utils/Strings.sol\":537:554  Math.log10(value) */\n      jump\t// in\n    tag_189:\n        /* \"@openzeppelin/contracts/utils/Strings.sol\":537:558  Math.log10(value) + 1 */\n      add\n        /* \"@openzeppelin/contracts/utils/Strings.sol\":520:558  uint256 length = Math.log10(value) + 1 */\n      swap1\n      pop\n        /* \"@openzeppelin/contracts/utils/Strings.sol\":572:592  string memory buffer */\n      0x00\n        /* \"@openzeppelin/contracts/utils/Strings.sol\":606:612  length */\n      dup2\n        /* \"@openzeppelin/contracts/utils/Strings.sol\":595:613  new string(length) */\n      0xffffffffffffffff\n      dup2\n      gt\n      iszero\n      tag_191\n      jumpi\n      tag_192\n      tag_193\n      jump\t// in\n    tag_192:\n    tag_191:\n      mload(0x40)\n      swap1\n      dup1\n      dup3\n      mstore\n      dup1\n      0x1f\n      add\n      not(0x1f)\n      and\n      0x20\n      add\n      dup3\n      add\n      0x40\n      mstore\n      dup1\n      iszero\n      tag_194\n      jumpi\n      dup2\n      0x20\n      add\n      0x01\n      dup3\n      mul\n      dup1\n      calldatasize\n      dup4\n      calldatacopy\n      dup1\n      dup3\n      add\n      swap2\n      pop\n      pop\n      swap1\n      pop\n    tag_194:\n      pop\n        /* \"@openzeppelin/contracts/utils/Strings.sol\":572:613  string memory buffer = new string(length) */\n      swap1\n      pop\n        /* \"@openzeppelin/contracts/utils/Strings.sol\":627:638  uint256 ptr */\n      0x00\n        /* \"@openzeppelin/contracts/utils/Strings.sol\":753:759  length */\n      dup3\n        /* \"@openzeppelin/contracts/utils/Strings.sol\":749:751  32 */\n      0x20\n        /* \"@openzeppelin/contracts/utils/Strings.sol\":745:760  add(32, length) */\n      add\n        /* \"@openzeppelin/contracts/utils/Strings.sol\":737:743  buffer */\n      dup3\n        /* \"@openzeppelin/contracts/utils/Strings.sol\":733:761  add(buffer, add(32, length)) */\n      add\n        /* \"@openzeppelin/contracts/utils/Strings.sol\":726:761  ptr := add(buffer, add(32, length)) */\n      swap1\n      pop\n        /* \"@openzeppelin/contracts/utils/Strings.sol\":788:1068  while (true) {... */\n    tag_195:\n        /* \"@openzeppelin/contracts/utils/Strings.sol\":795:799  true */\n      0x01\n        /* \"@openzeppelin/contracts/utils/Strings.sol\":788:1068  while (true) {... */\n      iszero\n      tag_196\n      jumpi\n        /* \"@openzeppelin/contracts/utils/Strings.sol\":819:824  ptr-- */\n      dup1\n      dup1\n      0x01\n      swap1\n      sub\n      swap2\n      pop\n      pop\n        /* \"@openzeppelin/contracts/utils/Strings.sol\":958:966  _SYMBOLS */\n      0x3031323334353637383961626364656600000000000000000000000000000000\n        /* \"@openzeppelin/contracts/utils/Strings.sol\":953:955  10 */\n      0x0a\n        /* \"@openzeppelin/contracts/utils/Strings.sol\":946:951  value */\n      dup7\n        /* \"@openzeppelin/contracts/utils/Strings.sol\":942:956  mod(value, 10) */\n      mod\n        /* \"@openzeppelin/contracts/utils/Strings.sol\":937:967  byte(mod(value, 10), _SYMBOLS) */\n      byte\n        /* \"@openzeppelin/contracts/utils/Strings.sol\":932:935  ptr */\n      dup2\n        /* \"@openzeppelin/contracts/utils/Strings.sol\":924:968  mstore8(ptr, byte(mod(value, 10), _SYMBOLS)) */\n      mstore8\n        /* \"@openzeppelin/contracts/utils/Strings.sol\":1012:1014  10 */\n      0x0a\n        /* \"@openzeppelin/contracts/utils/Strings.sol\":1003:1014  value /= 10 */\n      dup6\n      dup2\n      tag_197\n      jumpi\n      tag_198\n      tag_199\n      jump\t// in\n    tag_198:\n    tag_197:\n      div\n      swap5\n      pop\n        /* \"@openzeppelin/contracts/utils/Strings.sol\":1045:1046  0 */\n      0x00\n        /* \"@openzeppelin/contracts/utils/Strings.sol\":1036:1041  value */\n      dup6\n        /* \"@openzeppelin/contracts/utils/Strings.sol\":1036:1046  value == 0 */\n      eq\n        /* \"@openzeppelin/contracts/utils/Strings.sol\":1032:1053  if (value == 0) break */\n      iszero\n      tag_200\n      jumpi\n        /* \"@openzeppelin/contracts/utils/Strings.sol\":1048:1053  break */\n      jump(tag_196)\n        /* \"@openzeppelin/contracts/utils/Strings.sol\":1032:1053  if (value == 0) break */\n    tag_200:\n        /* \"@openzeppelin/contracts/utils/Strings.sol\":788:1068  while (true) {... */\n      jump(tag_195)\n    tag_196:\n        /* \"@openzeppelin/contracts/utils/Strings.sol\":1088:1094  buffer */\n      dup2\n        /* \"@openzeppelin/contracts/utils/Strings.sol\":1081:1094  return buffer */\n      swap4\n      pop\n      pop\n      pop\n      pop\n        /* \"@openzeppelin/contracts/utils/Strings.sol\":415:1111  function toString(uint256 value) internal pure returns (string memory) {... */\n      swap2\n      swap1\n      pop\n      jump\t// out\n        /* \"contracts/ERC721/ERC721.sol\":8327:8837  function _checkOnERC721Received(\r... */\n    tag_183:\n        /* \"contracts/ERC721/ERC721.sol\":8479:8483  bool */\n      0x00\n        /* \"contracts/ERC721/ERC721.sol\":8500:8515  to.isContract() */\n      tag_202\n        /* \"contracts/ERC721/ERC721.sol\":8500:8502  to */\n      dup5\n        /* \"contracts/ERC721/ERC721.sol\":8500:8513  to.isContract */\n      0xffffffffffffffffffffffffffffffffffffffff\n      and\n      tag_203\n        /* \"contracts/ERC721/ERC721.sol\":8500:8515  to.isContract() */\n      jump\t// in\n    tag_202:\n        /* \"contracts/ERC721/ERC721.sol\":8496:8830  if (to.isContract()) {\r... */\n      iszero\n      tag_204\n      jumpi\n        /* \"contracts/ERC721/ERC721.sol\":8733:8774  IERC721Receiver.onERC721Received.selector */\n      shl(0xe0, 0x150b7a02)\n        /* \"contracts/ERC721/ERC721.sol\":8556:8774  IERC721Receiver(to).onERC721Received(\r... */\n      not(0xffffffffffffffffffffffffffffffffffffffffffffffffffffffff)\n      and\n        /* \"contracts/ERC721/ERC721.sol\":8572:8574  to */\n      dup5\n        /* \"contracts/ERC721/ERC721.sol\":8556:8592  IERC721Receiver(to).onERC721Received */\n      0xffffffffffffffffffffffffffffffffffffffff\n      and\n      0x150b7a02\n        /* \"contracts/ERC721/ERC721.sol\":8615:8625  msg.sender */\n      caller\n        /* \"contracts/ERC721/ERC721.sol\":8648:8652  from */\n      dup9\n        /* \"contracts/ERC721/ERC721.sol\":8675:8682  tokenId */\n      dup8\n        /* \"contracts/ERC721/ERC721.sol\":8705:8710  _data */\n      dup8\n        /* \"contracts/ERC721/ERC721.sol\":8556:8729  IERC721Receiver(to).onERC721Received(\r... */\n      mload(0x40)\n      dup6\n      0xffffffff\n      and\n      0xe0\n      shl\n      dup2\n      mstore\n      0x04\n      add\n      tag_205\n      swap5\n      swap4\n      swap3\n      swap2\n      swap1\n      tag_206\n      jump\t// in\n    tag_205:\n      0x20\n      mload(0x40)\n      dup1\n      dup4\n      sub\n      dup2\n      0x00\n      dup8\n      dup1\n      extcodesize\n      iszero\n      dup1\n      iszero\n      tag_207\n      jumpi\n      0x00\n      dup1\n      revert\n    tag_207:\n      pop\n      gas\n      call\n      iszero\n      dup1\n      iszero\n      tag_209\n      jumpi\n      returndatasize\n      0x00\n      dup1\n      returndatacopy\n      revert(0x00, returndatasize)\n    tag_209:\n      pop\n      pop\n      pop\n      pop\n      mload(0x40)\n      returndatasize\n      not(0x1f)\n      0x1f\n      dup3\n      add\n      and\n      dup3\n      add\n      dup1\n      0x40\n      mstore\n      pop\n      dup2\n      add\n      swap1\n      tag_210\n      swap2\n      swap1\n      tag_211\n      jump\t// in\n    tag_210:\n        /* \"contracts/ERC721/ERC721.sol\":8556:8774  IERC721Receiver(to).onERC721Received(\r... */\n      not(0xffffffffffffffffffffffffffffffffffffffffffffffffffffffff)\n      and\n      eq\n        /* \"contracts/ERC721/ERC721.sol\":8532:8774  return\r... */\n      swap1\n      pop\n      jump(tag_201)\n        /* \"contracts/ERC721/ERC721.sol\":8496:8830  if (to.isContract()) {\r... */\n    tag_204:\n        /* \"contracts/ERC721/ERC721.sol\":8814:8818  true */\n      0x01\n        /* \"contracts/ERC721/ERC721.sol\":8807:8818  return true */\n      swap1\n      pop\n        /* \"contracts/ERC721/ERC721.sol\":8327:8837  function _checkOnERC721Received(\r... */\n    tag_201:\n      swap5\n      swap4\n      pop\n      pop\n      pop\n      pop\n      jump\t// out\n        /* \"@openzeppelin/contracts/utils/math/Math.sol\":9889:10779  function log10(uint256 value) internal pure returns (uint256) {... */\n    tag_190:\n        /* \"@openzeppelin/contracts/utils/math/Math.sol\":9942:9949  uint256 */\n      0x00\n        /* \"@openzeppelin/contracts/utils/math/Math.sol\":9961:9975  uint256 result */\n      dup1\n        /* \"@openzeppelin/contracts/utils/math/Math.sol\":9978:9979  0 */\n      0x00\n        /* \"@openzeppelin/contracts/utils/math/Math.sol\":9961:9979  uint256 result = 0 */\n      swap1\n      pop\n        /* \"@openzeppelin/contracts/utils/math/Math.sol\":10026:10032  10**64 */\n      0x184f03e93ff9f4daa797ed6e38ed64bf6a1f010000000000000000\n        /* \"@openzeppelin/contracts/utils/math/Math.sol\":10017:10022  value */\n      dup4\n        /* \"@openzeppelin/contracts/utils/math/Math.sol\":10017:10032  value >= 10**64 */\n      lt\n        /* \"@openzeppelin/contracts/utils/math/Math.sol\":10013:10112  if (value >= 10**64) {... */\n      tag_214\n      jumpi\n        /* \"@openzeppelin/contracts/utils/math/Math.sol\":10061:10067  10**64 */\n      0x184f03e93ff9f4daa797ed6e38ed64bf6a1f010000000000000000\n        /* \"@openzeppelin/contracts/utils/math/Math.sol\":10052:10067  value /= 10**64 */\n      dup4\n      dup2\n      tag_215\n      jumpi\n      tag_216\n      tag_199\n      jump\t// in\n    tag_216:\n    tag_215:\n      div\n      swap3\n      pop\n        /* \"@openzeppelin/contracts/utils/math/Math.sol\":10095:10097  64 */\n      0x40\n        /* \"@openzeppelin/contracts/utils/math/Math.sol\":10085:10097  result += 64 */\n      dup2\n      add\n      swap1\n      pop\n        /* \"@openzeppelin/contracts/utils/math/Math.sol\":10013:10112  if (value >= 10**64) {... */\n    tag_214:\n        /* \"@openzeppelin/contracts/utils/math/Math.sol\":10138:10144  10**32 */\n      0x04ee2d6d415b85acef8100000000\n        /* \"@openzeppelin/contracts/utils/math/Math.sol\":10129:10134  value */\n      dup4\n        /* \"@openzeppelin/contracts/utils/math/Math.sol\":10129:10144  value >= 10**32 */\n      lt\n        /* \"@openzeppelin/contracts/utils/math/Math.sol\":10125:10224  if (value >= 10**32) {... */\n      tag_217\n      jumpi\n        /* \"@openzeppelin/contracts/utils/math/Math.sol\":10173:10179  10**32 */\n      0x04ee2d6d415b85acef8100000000\n        /* \"@openzeppelin/contracts/utils/math/Math.sol\":10164:10179  value /= 10**32 */\n      dup4\n      dup2\n      tag_218\n      jumpi\n      tag_219\n      tag_199\n      jump\t// in\n    tag_219:\n    tag_218:\n      div\n      swap3\n      pop\n        /* \"@openzeppelin/contracts/utils/math/Math.sol\":10207:10209  32 */\n      0x20\n        /* \"@openzeppelin/contracts/utils/math/Math.sol\":10197:10209  result += 32 */\n      dup2\n      add\n      swap1\n      pop\n        /* \"@openzeppelin/contracts/utils/math/Math.sol\":10125:10224  if (value >= 10**32) {... */\n    tag_217:\n        /* \"@openzeppelin/contracts/utils/math/Math.sol\":10250:10256  10**16 */\n      0x2386f26fc10000\n        /* \"@openzeppelin/contracts/utils/math/Math.sol\":10241:10246  value */\n      dup4\n        /* \"@openzeppelin/contracts/utils/math/Math.sol\":10241:10256  value >= 10**16 */\n      lt\n        /* \"@openzeppelin/contracts/utils/math/Math.sol\":10237:10336  if (value >= 10**16) {... */\n      tag_220\n      jumpi\n        /* \"@openzeppelin/contracts/utils/math/Math.sol\":10285:10291  10**16 */\n      0x2386f26fc10000\n        /* \"@openzeppelin/contracts/utils/math/Math.sol\":10276:10291  value /= 10**16 */\n      dup4\n      dup2\n      tag_221\n      jumpi\n      tag_222\n      tag_199\n      jump\t// in\n    tag_222:\n    tag_221:\n      div\n      swap3\n      pop\n        /* \"@openzeppelin/contracts/utils/math/Math.sol\":10319:10321  16 */\n      0x10\n        /* \"@openzeppelin/contracts/utils/math/Math.sol\":10309:10321  result += 16 */\n      dup2\n      add\n      swap1\n      pop\n        /* \"@openzeppelin/contracts/utils/math/Math.sol\":10237:10336  if (value >= 10**16) {... */\n    tag_220:\n        /* \"@openzeppelin/contracts/utils/math/Math.sol\":10362:10367  10**8 */\n      0x05f5e100\n        /* \"@openzeppelin/contracts/utils/math/Math.sol\":10353:10358  value */\n      dup4\n        /* \"@openzeppelin/contracts/utils/math/Math.sol\":10353:10367  value >= 10**8 */\n      lt\n        /* \"@openzeppelin/contracts/utils/math/Math.sol\":10349:10445  if (value >= 10**8) {... */\n      tag_223\n      jumpi\n        /* \"@openzeppelin/contracts/utils/math/Math.sol\":10396:10401  10**8 */\n      0x05f5e100\n        /* \"@openzeppelin/contracts/utils/math/Math.sol\":10387:10401  value /= 10**8 */\n      dup4\n      dup2\n      tag_224\n      jumpi\n      tag_225\n      tag_199\n      jump\t// in\n    tag_225:\n    tag_224:\n      div\n      swap3\n      pop\n        /* \"@openzeppelin/contracts/utils/math/Math.sol\":10429:10430  8 */\n      0x08\n        /* \"@openzeppelin/contracts/utils/math/Math.sol\":10419:10430  result += 8 */\n      dup2\n      add\n      swap1\n      pop\n        /* \"@openzeppelin/contracts/utils/math/Math.sol\":10349:10445  if (value >= 10**8) {... */\n    tag_223:\n        /* \"@openzeppelin/contracts/utils/math/Math.sol\":10471:10476  10**4 */\n      0x2710\n        /* \"@openzeppelin/contracts/utils/math/Math.sol\":10462:10467  value */\n      dup4\n        /* \"@openzeppelin/contracts/utils/math/Math.sol\":10462:10476  value >= 10**4 */\n      lt\n        /* \"@openzeppelin/contracts/utils/math/Math.sol\":10458:10554  if (value >= 10**4) {... */\n      tag_226\n      jumpi\n        /* \"@openzeppelin/contracts/utils/math/Math.sol\":10505:10510  10**4 */\n      0x2710\n        /* \"@openzeppelin/contracts/utils/math/Math.sol\":10496:10510  value /= 10**4 */\n      dup4\n      dup2\n      tag_227\n      jumpi\n      tag_228\n      tag_199\n      jump\t// in\n    tag_228:\n    tag_227:\n      div\n      swap3\n      pop\n        /* \"@openzeppelin/contracts/utils/math/Math.sol\":10538:10539  4 */\n      0x04\n        /* \"@openzeppelin/contracts/utils/math/Math.sol\":10528:10539  result += 4 */\n      dup2\n      add\n      swap1\n      pop\n        /* \"@openzeppelin/contracts/utils/math/Math.sol\":10458:10554  if (value >= 10**4) {... */\n    tag_226:\n        /* \"@openzeppelin/contracts/utils/math/Math.sol\":10580:10585  10**2 */\n      0x64\n        /* \"@openzeppelin/contracts/utils/math/Math.sol\":10571:10576  value */\n      dup4\n        /* \"@openzeppelin/contracts/utils/math/Math.sol\":10571:10585  value >= 10**2 */\n      lt\n        /* \"@openzeppelin/contracts/utils/math/Math.sol\":10567:10663  if (value >= 10**2) {... */\n      tag_229\n      jumpi\n        /* \"@openzeppelin/contracts/utils/math/Math.sol\":10614:10619  10**2 */\n      0x64\n        /* \"@openzeppelin/contracts/utils/math/Math.sol\":10605:10619  value /= 10**2 */\n      dup4\n      dup2\n      tag_230\n      jumpi\n      tag_231\n      tag_199\n      jump\t// in\n    tag_231:\n    tag_230:\n      div\n      swap3\n      pop\n        /* \"@openzeppelin/contracts/utils/math/Math.sol\":10647:10648  2 */\n      0x02\n        /* \"@openzeppelin/contracts/utils/math/Math.sol\":10637:10648  result += 2 */\n      dup2\n      add\n      swap1\n      pop\n        /* \"@openzeppelin/contracts/utils/math/Math.sol\":10567:10663  if (value >= 10**2) {... */\n    tag_229:\n        /* \"@openzeppelin/contracts/utils/math/Math.sol\":10689:10694  10**1 */\n      0x0a\n        /* \"@openzeppelin/contracts/utils/math/Math.sol\":10680:10685  value */\n      dup4\n        /* \"@openzeppelin/contracts/utils/math/Math.sol\":10680:10694  value >= 10**1 */\n      lt\n        /* \"@openzeppelin/contracts/utils/math/Math.sol\":10676:10740  if (value >= 10**1) {... */\n      tag_232\n      jumpi\n        /* \"@openzeppelin/contracts/utils/math/Math.sol\":10724:10725  1 */\n      0x01\n        /* \"@openzeppelin/contracts/utils/math/Math.sol\":10714:10725  result += 1 */\n      dup2\n      add\n      swap1\n      pop\n        /* \"@openzeppelin/contracts/utils/math/Math.sol\":10676:10740  if (value >= 10**1) {... */\n    tag_232:\n        /* \"@openzeppelin/contracts/utils/math/Math.sol\":10766:10772  result */\n      dup1\n        /* \"@openzeppelin/contracts/utils/math/Math.sol\":10759:10772  return result */\n      swap2\n      pop\n      pop\n        /* \"@openzeppelin/contracts/utils/math/Math.sol\":9889:10779  function log10(uint256 value) internal pure returns (uint256) {... */\n      swap2\n      swap1\n      pop\n      jump\t// out\n        /* \"@openzeppelin/contracts/utils/Address.sol\":1175:1495  function isContract(address account) internal view returns (bool) {... */\n    tag_203:\n        /* \"@openzeppelin/contracts/utils/Address.sol\":1235:1239  bool */\n      0x00\n        /* \"@openzeppelin/contracts/utils/Address.sol\":1487:1488  0 */\n      dup1\n        /* \"@openzeppelin/contracts/utils/Address.sol\":1465:1472  account */\n      dup3\n        /* \"@openzeppelin/contracts/utils/Address.sol\":1465:1484  account.code.length */\n      0xffffffffffffffffffffffffffffffffffffffff\n      and\n      extcodesize\n        /* \"@openzeppelin/contracts/utils/Address.sol\":1465:1488  account.code.length > 0 */\n      gt\n        /* \"@openzeppelin/contracts/utils/Address.sol\":1458:1488  return account.code.length > 0 */\n      swap1\n      pop\n        /* \"@openzeppelin/contracts/utils/Address.sol\":1175:1495  function isContract(address account) internal view returns (bool) {... */\n      swap2\n      swap1\n      pop\n      jump\t// out\n        /* \"#utility.yul\":7:417   */\n    tag_235:\n        /* \"#utility.yul\":84:89   */\n      0x00\n        /* \"#utility.yul\":109:174   */\n      tag_237\n        /* \"#utility.yul\":125:173   */\n      tag_238\n        /* \"#utility.yul\":166:172   */\n      dup5\n        /* \"#utility.yul\":125:173   */\n      tag_239\n      jump\t// in\n    tag_238:\n        /* \"#utility.yul\":109:174   */\n      tag_240\n      jump\t// in\n    tag_237:\n        /* \"#utility.yul\":100:174   */\n      swap1\n      pop\n        /* \"#utility.yul\":197:203   */\n      dup3\n        /* \"#utility.yul\":190:195   */\n      dup2\n        /* \"#utility.yul\":183:204   */\n      mstore\n        /* \"#utility.yul\":235:239   */\n      0x20\n        /* \"#utility.yul\":228:233   */\n      dup2\n        /* \"#utility.yul\":224:240   */\n      add\n        /* \"#utility.yul\":273:276   */\n      dup5\n        /* \"#utility.yul\":264:270   */\n      dup5\n        /* \"#utility.yul\":259:262   */\n      dup5\n        /* \"#utility.yul\":255:271   */\n      add\n        /* \"#utility.yul\":252:277   */\n      gt\n        /* \"#utility.yul\":249:361   */\n      iszero\n      tag_241\n      jumpi\n        /* \"#utility.yul\":280:359   */\n      tag_242\n      tag_243\n      jump\t// in\n    tag_242:\n        /* \"#utility.yul\":249:361   */\n    tag_241:\n        /* \"#utility.yul\":370:411   */\n      tag_244\n        /* \"#utility.yul\":404:410   */\n      dup5\n        /* \"#utility.yul\":399:402   */\n      dup3\n        /* \"#utility.yul\":394:397   */\n      dup6\n        /* \"#utility.yul\":370:411   */\n      tag_245\n      jump\t// in\n    tag_244:\n        /* \"#utility.yul\":90:417   */\n      pop\n        /* \"#utility.yul\":7:417   */\n      swap4\n      swap3\n      pop\n      pop\n      pop\n      jump\t// out\n        /* \"#utility.yul\":423:562   */\n    tag_246:\n        /* \"#utility.yul\":469:474   */\n      0x00\n        /* \"#utility.yul\":507:513   */\n      dup2\n        /* \"#utility.yul\":494:514   */\n      calldataload\n        /* \"#utility.yul\":485:514   */\n      swap1\n      pop\n        /* \"#utility.yul\":523:556   */\n      tag_248\n        /* \"#utility.yul\":550:555   */\n      dup2\n        /* \"#utility.yul\":523:556   */\n      tag_249\n      jump\t// in\n    tag_248:\n        /* \"#utility.yul\":423:562   */\n      swap3\n      swap2\n      pop\n      pop\n      jump\t// out\n        /* \"#utility.yul\":568:701   */\n    tag_250:\n        /* \"#utility.yul\":611:616   */\n      0x00\n        /* \"#utility.yul\":649:655   */\n      dup2\n        /* \"#utility.yul\":636:656   */\n      calldataload\n        /* \"#utility.yul\":627:656   */\n      swap1\n      pop\n        /* \"#utility.yul\":665:695   */\n      tag_252\n        /* \"#utility.yul\":689:694   */\n      dup2\n        /* \"#utility.yul\":665:695   */\n      tag_253\n      jump\t// in\n    tag_252:\n        /* \"#utility.yul\":568:701   */\n      swap3\n      swap2\n      pop\n      pop\n      jump\t// out\n        /* \"#utility.yul\":707:844   */\n    tag_254:\n        /* \"#utility.yul\":752:757   */\n      0x00\n        /* \"#utility.yul\":790:796   */\n      dup2\n        /* \"#utility.yul\":777:797   */\n      calldataload\n        /* \"#utility.yul\":768:797   */\n      swap1\n      pop\n        /* \"#utility.yul\":806:838   */\n      tag_256\n        /* \"#utility.yul\":832:837   */\n      dup2\n        /* \"#utility.yul\":806:838   */\n      tag_257\n      jump\t// in\n    tag_256:\n        /* \"#utility.yul\":707:844   */\n      swap3\n      swap2\n      pop\n      pop\n      jump\t// out\n        /* \"#utility.yul\":850:991   */\n    tag_258:\n        /* \"#utility.yul\":906:911   */\n      0x00\n        /* \"#utility.yul\":937:943   */\n      dup2\n        /* \"#utility.yul\":931:944   */\n      mload\n        /* \"#utility.yul\":922:944   */\n      swap1\n      pop\n        /* \"#utility.yul\":953:985   */\n      tag_260\n        /* \"#utility.yul\":979:984   */\n      dup2\n        /* \"#utility.yul\":953:985   */\n      tag_257\n      jump\t// in\n    tag_260:\n        /* \"#utility.yul\":850:991   */\n      swap3\n      swap2\n      pop\n      pop\n      jump\t// out\n        /* \"#utility.yul\":1010:1348   */\n    tag_261:\n        /* \"#utility.yul\":1065:1070   */\n      0x00\n        /* \"#utility.yul\":1114:1117   */\n      dup3\n        /* \"#utility.yul\":1107:1111   */\n      0x1f\n        /* \"#utility.yul\":1099:1105   */\n      dup4\n        /* \"#utility.yul\":1095:1112   */\n      add\n        /* \"#utility.yul\":1091:1118   */\n      slt\n        /* \"#utility.yul\":1081:1203   */\n      tag_263\n      jumpi\n        /* \"#utility.yul\":1122:1201   */\n      tag_264\n      tag_265\n      jump\t// in\n    tag_264:\n        /* \"#utility.yul\":1081:1203   */\n    tag_263:\n        /* \"#utility.yul\":1239:1245   */\n      dup2\n        /* \"#utility.yul\":1226:1246   */\n      calldataload\n        /* \"#utility.yul\":1264:1342   */\n      tag_266\n        /* \"#utility.yul\":1338:1341   */\n      dup5\n        /* \"#utility.yul\":1330:1336   */\n      dup3\n        /* \"#utility.yul\":1323:1327   */\n      0x20\n        /* \"#utility.yul\":1315:1321   */\n      dup7\n        /* \"#utility.yul\":1311:1328   */\n      add\n        /* \"#utility.yul\":1264:1342   */\n      tag_235\n      jump\t// in\n    tag_266:\n        /* \"#utility.yul\":1255:1342   */\n      swap2\n      pop\n        /* \"#utility.yul\":1071:1348   */\n      pop\n        /* \"#utility.yul\":1010:1348   */\n      swap3\n      swap2\n      pop\n      pop\n      jump\t// out\n        /* \"#utility.yul\":1354:1493   */\n    tag_267:\n        /* \"#utility.yul\":1400:1405   */\n      0x00\n        /* \"#utility.yul\":1438:1444   */\n      dup2\n        /* \"#utility.yul\":1425:1445   */\n      calldataload\n        /* \"#utility.yul\":1416:1445   */\n      swap1\n      pop\n        /* \"#utility.yul\":1454:1487   */\n      tag_269\n        /* \"#utility.yul\":1481:1486   */\n      dup2\n        /* \"#utility.yul\":1454:1487   */\n      tag_270\n      jump\t// in\n    tag_269:\n        /* \"#utility.yul\":1354:1493   */\n      swap3\n      swap2\n      pop\n      pop\n      jump\t// out\n        /* \"#utility.yul\":1499:1828   */\n    tag_57:\n        /* \"#utility.yul\":1558:1564   */\n      0x00\n        /* \"#utility.yul\":1607:1609   */\n      0x20\n        /* \"#utility.yul\":1595:1604   */\n      dup3\n        /* \"#utility.yul\":1586:1593   */\n      dup5\n        /* \"#utility.yul\":1582:1605   */\n      sub\n        /* \"#utility.yul\":1578:1610   */\n      slt\n        /* \"#utility.yul\":1575:1694   */\n      iszero\n      tag_272\n      jumpi\n        /* \"#utility.yul\":1613:1692   */\n      tag_273\n      tag_274\n      jump\t// in\n    tag_273:\n        /* \"#utility.yul\":1575:1694   */\n    tag_272:\n        /* \"#utility.yul\":1733:1734   */\n      0x00\n        /* \"#utility.yul\":1758:1811   */\n      tag_275\n        /* \"#utility.yul\":1803:1810   */\n      dup5\n        /* \"#utility.yul\":1794:1800   */\n      dup3\n        /* \"#utility.yul\":1783:1792   */\n      dup6\n        /* \"#utility.yul\":1779:1801   */\n      add\n        /* \"#utility.yul\":1758:1811   */\n      tag_246\n      jump\t// in\n    tag_275:\n        /* \"#utility.yul\":1748:1811   */\n      swap2\n      pop\n        /* \"#utility.yul\":1704:1821   */\n      pop\n        /* \"#utility.yul\":1499:1828   */\n      swap3\n      swap2\n      pop\n      pop\n      jump\t// out\n        /* \"#utility.yul\":1834:2308   */\n    tag_81:\n        /* \"#utility.yul\":1902:1908   */\n      0x00\n        /* \"#utility.yul\":1910:1916   */\n      dup1\n        /* \"#utility.yul\":1959:1961   */\n      0x40\n        /* \"#utility.yul\":1947:1956   */\n      dup4\n        /* \"#utility.yul\":1938:1945   */\n      dup6\n        /* \"#utility.yul\":1934:1957   */\n      sub\n        /* \"#utility.yul\":1930:1962   */\n      slt\n        /* \"#utility.yul\":1927:2046   */\n      iszero\n      tag_277\n      jumpi\n        /* \"#utility.yul\":1965:2044   */\n      tag_278\n      tag_274\n      jump\t// in\n    tag_278:\n        /* \"#utility.yul\":1927:2046   */\n    tag_277:\n        /* \"#utility.yul\":2085:2086   */\n      0x00\n        /* \"#utility.yul\":2110:2163   */\n      tag_279\n        /* \"#utility.yul\":2155:2162   */\n      dup6\n        /* \"#utility.yul\":2146:2152   */\n      dup3\n        /* \"#utility.yul\":2135:2144   */\n      dup7\n        /* \"#utility.yul\":2131:2153   */\n      add\n        /* \"#utility.yul\":2110:2163   */\n      tag_246\n      jump\t// in\n    tag_279:\n        /* \"#utility.yul\":2100:2163   */\n      swap3\n      pop\n        /* \"#utility.yul\":2056:2173   */\n      pop\n        /* \"#utility.yul\":2212:2214   */\n      0x20\n        /* \"#utility.yul\":2238:2291   */\n      tag_280\n        /* \"#utility.yul\":2283:2290   */\n      dup6\n        /* \"#utility.yul\":2274:2280   */\n      dup3\n        /* \"#utility.yul\":2263:2272   */\n      dup7\n        /* \"#utility.yul\":2259:2281   */\n      add\n        /* \"#utility.yul\":2238:2291   */\n      tag_246\n      jump\t// in\n    tag_280:\n        /* \"#utility.yul\":2228:2291   */\n      swap2\n      pop\n        /* \"#utility.yul\":2183:2301   */\n      pop\n        /* \"#utility.yul\":1834:2308   */\n      swap3\n      pop\n      swap3\n      swap1\n      pop\n      jump\t// out\n        /* \"#utility.yul\":2314:2933   */\n    tag_43:\n        /* \"#utility.yul\":2391:2397   */\n      0x00\n        /* \"#utility.yul\":2399:2405   */\n      dup1\n        /* \"#utility.yul\":2407:2413   */\n      0x00\n        /* \"#utility.yul\":2456:2458   */\n      0x60\n        /* \"#utility.yul\":2444:2453   */\n      dup5\n        /* \"#utility.yul\":2435:2442   */\n      dup7\n        /* \"#utility.yul\":2431:2454   */\n      sub\n        /* \"#utility.yul\":2427:2459   */\n      slt\n        /* \"#utility.yul\":2424:2543   */\n      iszero\n      tag_282\n      jumpi\n        /* \"#utility.yul\":2462:2541   */\n      tag_283\n      tag_274\n      jump\t// in\n    tag_283:\n        /* \"#utility.yul\":2424:2543   */\n    tag_282:\n        /* \"#utility.yul\":2582:2583   */\n      0x00\n        /* \"#utility.yul\":2607:2660   */\n      tag_284\n        /* \"#utility.yul\":2652:2659   */\n      dup7\n        /* \"#utility.yul\":2643:2649   */\n      dup3\n        /* \"#utility.yul\":2632:2641   */\n      dup8\n        /* \"#utility.yul\":2628:2650   */\n      add\n        /* \"#utility.yul\":2607:2660   */\n      tag_246\n      jump\t// in\n    tag_284:\n        /* \"#utility.yul\":2597:2660   */\n      swap4\n      pop\n        /* \"#utility.yul\":2553:2670   */\n      pop\n        /* \"#utility.yul\":2709:2711   */\n      0x20\n        /* \"#utility.yul\":2735:2788   */\n      tag_285\n        /* \"#utility.yul\":2780:2787   */\n      dup7\n        /* \"#utility.yul\":2771:2777   */\n      dup3\n        /* \"#utility.yul\":2760:2769   */\n      dup8\n        /* \"#utility.yul\":2756:2778   */\n      add\n        /* \"#utility.yul\":2735:2788   */\n      tag_246\n      jump\t// in\n    tag_285:\n        /* \"#utility.yul\":2725:2788   */\n      swap3\n      pop\n        /* \"#utility.yul\":2680:2798   */\n      pop\n        /* \"#utility.yul\":2837:2839   */\n      0x40\n        /* \"#utility.yul\":2863:2916   */\n      tag_286\n        /* \"#utility.yul\":2908:2915   */\n      dup7\n        /* \"#utility.yul\":2899:2905   */\n      dup3\n        /* \"#utility.yul\":2888:2897   */\n      dup8\n        /* \"#utility.yul\":2884:2906   */\n      add\n        /* \"#utility.yul\":2863:2916   */\n      tag_267\n      jump\t// in\n    tag_286:\n        /* \"#utility.yul\":2853:2916   */\n      swap2\n      pop\n        /* \"#utility.yul\":2808:2926   */\n      pop\n        /* \"#utility.yul\":2314:2933   */\n      swap3\n      pop\n      swap3\n      pop\n      swap3\n      jump\t// out\n        /* \"#utility.yul\":2939:3882   */\n    tag_70:\n        /* \"#utility.yul\":3034:3040   */\n      0x00\n        /* \"#utility.yul\":3042:3048   */\n      dup1\n        /* \"#utility.yul\":3050:3056   */\n      0x00\n        /* \"#utility.yul\":3058:3064   */\n      dup1\n        /* \"#utility.yul\":3107:3110   */\n      0x80\n        /* \"#utility.yul\":3095:3104   */\n      dup6\n        /* \"#utility.yul\":3086:3093   */\n      dup8\n        /* \"#utility.yul\":3082:3105   */\n      sub\n        /* \"#utility.yul\":3078:3111   */\n      slt\n        /* \"#utility.yul\":3075:3195   */\n      iszero\n      tag_288\n      jumpi\n        /* \"#utility.yul\":3114:3193   */\n      tag_289\n      tag_274\n      jump\t// in\n    tag_289:\n        /* \"#utility.yul\":3075:3195   */\n    tag_288:\n        /* \"#utility.yul\":3234:3235   */\n      0x00\n        /* \"#utility.yul\":3259:3312   */\n      tag_290\n        /* \"#utility.yul\":3304:3311   */\n      dup8\n        /* \"#utility.yul\":3295:3301   */\n      dup3\n        /* \"#utility.yul\":3284:3293   */\n      dup9\n        /* \"#utility.yul\":3280:3302   */\n      add\n        /* \"#utility.yul\":3259:3312   */\n      tag_246\n      jump\t// in\n    tag_290:\n        /* \"#utility.yul\":3249:3312   */\n      swap5\n      pop\n        /* \"#utility.yul\":3205:3322   */\n      pop\n        /* \"#utility.yul\":3361:3363   */\n      0x20\n        /* \"#utility.yul\":3387:3440   */\n      tag_291\n        /* \"#utility.yul\":3432:3439   */\n      dup8\n        /* \"#utility.yul\":3423:3429   */\n      dup3\n        /* \"#utility.yul\":3412:3421   */\n      dup9\n        /* \"#utility.yul\":3408:3430   */\n      add\n        /* \"#utility.yul\":3387:3440   */\n      tag_246\n      jump\t// in\n    tag_291:\n        /* \"#utility.yul\":3377:3440   */\n      swap4\n      pop\n        /* \"#utility.yul\":3332:3450   */\n      pop\n        /* \"#utility.yul\":3489:3491   */\n      0x40\n        /* \"#utility.yul\":3515:3568   */\n      tag_292\n        /* \"#utility.yul\":3560:3567   */\n      dup8\n        /* \"#utility.yul\":3551:3557   */\n      dup3\n        /* \"#utility.yul\":3540:3549   */\n      dup9\n        /* \"#utility.yul\":3536:3558   */\n      add\n        /* \"#utility.yul\":3515:3568   */\n      tag_267\n      jump\t// in\n    tag_292:\n        /* \"#utility.yul\":3505:3568   */\n      swap3\n      pop\n        /* \"#utility.yul\":3460:3578   */\n      pop\n        /* \"#utility.yul\":3645:3647   */\n      0x60\n        /* \"#utility.yul\":3634:3643   */\n      dup6\n        /* \"#utility.yul\":3630:3648   */\n      add\n        /* \"#utility.yul\":3617:3649   */\n      calldataload\n        /* \"#utility.yul\":3676:3694   */\n      0xffffffffffffffff\n        /* \"#utility.yul\":3668:3674   */\n      dup2\n        /* \"#utility.yul\":3665:3695   */\n      gt\n        /* \"#utility.yul\":3662:3779   */\n      iszero\n      tag_293\n      jumpi\n        /* \"#utility.yul\":3698:3777   */\n      tag_294\n      tag_295\n      jump\t// in\n    tag_294:\n        /* \"#utility.yul\":3662:3779   */\n    tag_293:\n        /* \"#utility.yul\":3803:3865   */\n      tag_296\n        /* \"#utility.yul\":3857:3864   */\n      dup8\n        /* \"#utility.yul\":3848:3854   */\n      dup3\n        /* \"#utility.yul\":3837:3846   */\n      dup9\n        /* \"#utility.yul\":3833:3855   */\n      add\n        /* \"#utility.yul\":3803:3865   */\n      tag_261\n      jump\t// in\n    tag_296:\n        /* \"#utility.yul\":3793:3865   */\n      swap2\n      pop\n        /* \"#utility.yul\":3588:3875   */\n      pop\n        /* \"#utility.yul\":2939:3882   */\n      swap3\n      swap6\n      swap2\n      swap5\n      pop\n      swap3\n      pop\n      jump\t// out\n        /* \"#utility.yul\":3888:4356   */\n    tag_66:\n        /* \"#utility.yul\":3953:3959   */\n      0x00\n        /* \"#utility.yul\":3961:3967   */\n      dup1\n        /* \"#utility.yul\":4010:4012   */\n      0x40\n        /* \"#utility.yul\":3998:4007   */\n      dup4\n        /* \"#utility.yul\":3989:3996   */\n      dup6\n        /* \"#utility.yul\":3985:4008   */\n      sub\n        /* \"#utility.yul\":3981:4013   */\n      slt\n        /* \"#utility.yul\":3978:4097   */\n      iszero\n      tag_298\n      jumpi\n        /* \"#utility.yul\":4016:4095   */\n      tag_299\n      tag_274\n      jump\t// in\n    tag_299:\n        /* \"#utility.yul\":3978:4097   */\n    tag_298:\n        /* \"#utility.yul\":4136:4137   */\n      0x00\n        /* \"#utility.yul\":4161:4214   */\n      tag_300\n        /* \"#utility.yul\":4206:4213   */\n      dup6\n        /* \"#utility.yul\":4197:4203   */\n      dup3\n        /* \"#utility.yul\":4186:4195   */\n      dup7\n        /* \"#utility.yul\":4182:4204   */\n      add\n        /* \"#utility.yul\":4161:4214   */\n      tag_246\n      jump\t// in\n    tag_300:\n        /* \"#utility.yul\":4151:4214   */\n      swap3\n      pop\n        /* \"#utility.yul\":4107:4224   */\n      pop\n        /* \"#utility.yul\":4263:4265   */\n      0x20\n        /* \"#utility.yul\":4289:4339   */\n      tag_301\n        /* \"#utility.yul\":4331:4338   */\n      dup6\n        /* \"#utility.yul\":4322:4328   */\n      dup3\n        /* \"#utility.yul\":4311:4320   */\n      dup7\n        /* \"#utility.yul\":4307:4329   */\n      add\n        /* \"#utility.yul\":4289:4339   */\n      tag_250\n      jump\t// in\n    tag_301:\n        /* \"#utility.yul\":4279:4339   */\n      swap2\n      pop\n        /* \"#utility.yul\":4234:4349   */\n      pop\n        /* \"#utility.yul\":3888:4356   */\n      swap3\n      pop\n      swap3\n      swap1\n      pop\n      jump\t// out\n        /* \"#utility.yul\":4362:4836   */\n    tag_39:\n        /* \"#utility.yul\":4430:4436   */\n      0x00\n        /* \"#utility.yul\":4438:4444   */\n      dup1\n        /* \"#utility.yul\":4487:4489   */\n      0x40\n        /* \"#utility.yul\":4475:4484   */\n      dup4\n        /* \"#utility.yul\":4466:4473   */\n      dup6\n        /* \"#utility.yul\":4462:4485   */\n      sub\n        /* \"#utility.yul\":4458:4490   */\n      slt\n        /* \"#utility.yul\":4455:4574   */\n      iszero\n      tag_303\n      jumpi\n        /* \"#utility.yul\":4493:4572   */\n      tag_304\n      tag_274\n      jump\t// in\n    tag_304:\n        /* \"#utility.yul\":4455:4574   */\n    tag_303:\n        /* \"#utility.yul\":4613:4614   */\n      0x00\n        /* \"#utility.yul\":4638:4691   */\n      tag_305\n        /* \"#utility.yul\":4683:4690   */\n      dup6\n        /* \"#utility.yul\":4674:4680   */\n      dup3\n        /* \"#utility.yul\":4663:4672   */\n      dup7\n        /* \"#utility.yul\":4659:4681   */\n      add\n        /* \"#utility.yul\":4638:4691   */\n      tag_246\n      jump\t// in\n    tag_305:\n        /* \"#utility.yul\":4628:4691   */\n      swap3\n      pop\n        /* \"#utility.yul\":4584:4701   */\n      pop\n        /* \"#utility.yul\":4740:4742   */\n      0x20\n        /* \"#utility.yul\":4766:4819   */\n      tag_306\n        /* \"#utility.yul\":4811:4818   */\n      dup6\n        /* \"#utility.yul\":4802:4808   */\n      dup3\n        /* \"#utility.yul\":4791:4800   */\n      dup7\n        /* \"#utility.yul\":4787:4809   */\n      add\n        /* \"#utility.yul\":4766:4819   */\n      tag_267\n      jump\t// in\n    tag_306:\n        /* \"#utility.yul\":4756:4819   */\n      swap2\n      pop\n        /* \"#utility.yul\":4711:4829   */\n      pop\n        /* \"#utility.yul\":4362:4836   */\n      swap3\n      pop\n      swap3\n      swap1\n      pop\n      jump\t// out\n        /* \"#utility.yul\":4842:5169   */\n    tag_23:\n        /* \"#utility.yul\":4900:4906   */\n      0x00\n        /* \"#utility.yul\":4949:4951   */\n      0x20\n        /* \"#utility.yul\":4937:4946   */\n      dup3\n        /* \"#utility.yul\":4928:4935   */\n      dup5\n        /* \"#utility.yul\":4924:4947   */\n      sub\n        /* \"#utility.yul\":4920:4952   */\n      slt\n        /* \"#utility.yul\":4917:5036   */\n      iszero\n      tag_308\n      jumpi\n        /* \"#utility.yul\":4955:5034   */\n      tag_309\n      tag_274\n      jump\t// in\n    tag_309:\n        /* \"#utility.yul\":4917:5036   */\n    tag_308:\n        /* \"#utility.yul\":5075:5076   */\n      0x00\n        /* \"#utility.yul\":5100:5152   */\n      tag_310\n        /* \"#utility.yul\":5144:5151   */\n      dup5\n        /* \"#utility.yul\":5135:5141   */\n      dup3\n        /* \"#utility.yul\":5124:5133   */\n      dup6\n        /* \"#utility.yul\":5120:5142   */\n      add\n        /* \"#utility.yul\":5100:5152   */\n      tag_254\n      jump\t// in\n    tag_310:\n        /* \"#utility.yul\":5090:5152   */\n      swap2\n      pop\n        /* \"#utility.yul\":5046:5162   */\n      pop\n        /* \"#utility.yul\":4842:5169   */\n      swap3\n      swap2\n      pop\n      pop\n      jump\t// out\n        /* \"#utility.yul\":5175:5524   */\n    tag_211:\n        /* \"#utility.yul\":5244:5250   */\n      0x00\n        /* \"#utility.yul\":5293:5295   */\n      0x20\n        /* \"#utility.yul\":5281:5290   */\n      dup3\n        /* \"#utility.yul\":5272:5279   */\n      dup5\n        /* \"#utility.yul\":5268:5291   */\n      sub\n        /* \"#utility.yul\":5264:5296   */\n      slt\n        /* \"#utility.yul\":5261:5380   */\n      iszero\n      tag_312\n      jumpi\n        /* \"#utility.yul\":5299:5378   */\n      tag_313\n      tag_274\n      jump\t// in\n    tag_313:\n        /* \"#utility.yul\":5261:5380   */\n    tag_312:\n        /* \"#utility.yul\":5419:5420   */\n      0x00\n        /* \"#utility.yul\":5444:5507   */\n      tag_314\n        /* \"#utility.yul\":5499:5506   */\n      dup5\n        /* \"#utility.yul\":5490:5496   */\n      dup3\n        /* \"#utility.yul\":5479:5488   */\n      dup6\n        /* \"#utility.yul\":5475:5497   */\n      add\n        /* \"#utility.yul\":5444:5507   */\n      tag_258\n      jump\t// in\n    tag_314:\n        /* \"#utility.yul\":5434:5507   */\n      swap2\n      pop\n        /* \"#utility.yul\":5390:5517   */\n      pop\n        /* \"#utility.yul\":5175:5524   */\n      swap3\n      swap2\n      pop\n      pop\n      jump\t// out\n        /* \"#utility.yul\":5530:5859   */\n    tag_33:\n        /* \"#utility.yul\":5589:5595   */\n      0x00\n        /* \"#utility.yul\":5638:5640   */\n      0x20\n        /* \"#utility.yul\":5626:5635   */\n      dup3\n        /* \"#utility.yul\":5617:5624   */\n      dup5\n        /* \"#utility.yul\":5613:5636   */\n      sub\n        /* \"#utility.yul\":5609:5641   */\n      slt\n        /* \"#utility.yul\":5606:5725   */\n      iszero\n      tag_316\n      jumpi\n        /* \"#utility.yul\":5644:5723   */\n      tag_317\n      tag_274\n      jump\t// in\n    tag_317:\n        /* \"#utility.yul\":5606:5725   */\n    tag_316:\n        /* \"#utility.yul\":5764:5765   */\n      0x00\n        /* \"#utility.yul\":5789:5842   */\n      tag_318\n        /* \"#utility.yul\":5834:5841   */\n      dup5\n        /* \"#utility.yul\":5825:5831   */\n      dup3\n        /* \"#utility.yul\":5814:5823   */\n      dup6\n        /* \"#utility.yul\":5810:5832   */\n      add\n        /* \"#utility.yul\":5789:5842   */\n      tag_267\n      jump\t// in\n    tag_318:\n        /* \"#utility.yul\":5779:5842   */\n      swap2\n      pop\n        /* \"#utility.yul\":5735:5852   */\n      pop\n        /* \"#utility.yul\":5530:5859   */\n      swap3\n      swap2\n      pop\n      pop\n      jump\t// out\n        /* \"#utility.yul\":5865:5983   */\n    tag_319:\n        /* \"#utility.yul\":5952:5976   */\n      tag_321\n        /* \"#utility.yul\":5970:5975   */\n      dup2\n        /* \"#utility.yul\":5952:5976   */\n      tag_322\n      jump\t// in\n    tag_321:\n        /* \"#utility.yul\":5947:5950   */\n      dup3\n        /* \"#utility.yul\":5940:5977   */\n      mstore\n        /* \"#utility.yul\":5865:5983   */\n      pop\n      pop\n      jump\t// out\n        /* \"#utility.yul\":5989:6098   */\n    tag_323:\n        /* \"#utility.yul\":6070:6091   */\n      tag_325\n        /* \"#utility.yul\":6085:6090   */\n      dup2\n        /* \"#utility.yul\":6070:6091   */\n      tag_326\n      jump\t// in\n    tag_325:\n        /* \"#utility.yul\":6065:6068   */\n      dup3\n        /* \"#utility.yul\":6058:6092   */\n      mstore\n        /* \"#utility.yul\":5989:6098   */\n      pop\n      pop\n      jump\t// out\n        /* \"#utility.yul\":6104:6464   */\n    tag_327:\n        /* \"#utility.yul\":6190:6193   */\n      0x00\n        /* \"#utility.yul\":6218:6256   */\n      tag_329\n        /* \"#utility.yul\":6250:6255   */\n      dup3\n        /* \"#utility.yul\":6218:6256   */\n      tag_330\n      jump\t// in\n    tag_329:\n        /* \"#utility.yul\":6272:6342   */\n      tag_331\n        /* \"#utility.yul\":6335:6341   */\n      dup2\n        /* \"#utility.yul\":6330:6333   */\n      dup6\n        /* \"#utility.yul\":6272:6342   */\n      tag_332\n      jump\t// in\n    tag_331:\n        /* \"#utility.yul\":6265:6342   */\n      swap4\n      pop\n        /* \"#utility.yul\":6351:6403   */\n      tag_333\n        /* \"#utility.yul\":6396:6402   */\n      dup2\n        /* \"#utility.yul\":6391:6394   */\n      dup6\n        /* \"#utility.yul\":6384:6388   */\n      0x20\n        /* \"#utility.yul\":6377:6382   */\n      dup7\n        /* \"#utility.yul\":6373:6389   */\n      add\n        /* \"#utility.yul\":6351:6403   */\n      tag_334\n      jump\t// in\n    tag_333:\n        /* \"#utility.yul\":6428:6457   */\n      tag_335\n        /* \"#utility.yul\":6450:6456   */\n      dup2\n        /* \"#utility.yul\":6428:6457   */\n      tag_336\n      jump\t// in\n    tag_335:\n        /* \"#utility.yul\":6423:6426   */\n      dup5\n        /* \"#utility.yul\":6419:6458   */\n      add\n        /* \"#utility.yul\":6412:6458   */\n      swap2\n      pop\n        /* \"#utility.yul\":6194:6464   */\n      pop\n        /* \"#utility.yul\":6104:6464   */\n      swap3\n      swap2\n      pop\n      pop\n      jump\t// out\n        /* \"#utility.yul\":6470:6834   */\n    tag_337:\n        /* \"#utility.yul\":6558:6561   */\n      0x00\n        /* \"#utility.yul\":6586:6625   */\n      tag_339\n        /* \"#utility.yul\":6619:6624   */\n      dup3\n        /* \"#utility.yul\":6586:6625   */\n      tag_340\n      jump\t// in\n    tag_339:\n        /* \"#utility.yul\":6641:6712   */\n      tag_341\n        /* \"#utility.yul\":6705:6711   */\n      dup2\n        /* \"#utility.yul\":6700:6703   */\n      dup6\n        /* \"#utility.yul\":6641:6712   */\n      tag_342\n      jump\t// in\n    tag_341:\n        /* \"#utility.yul\":6634:6712   */\n      swap4\n      pop\n        /* \"#utility.yul\":6721:6773   */\n      tag_343\n        /* \"#utility.yul\":6766:6772   */\n      dup2\n        /* \"#utility.yul\":6761:6764   */\n      dup6\n        /* \"#utility.yul\":6754:6758   */\n      0x20\n        /* \"#utility.yul\":6747:6752   */\n      dup7\n        /* \"#utility.yul\":6743:6759   */\n      add\n        /* \"#utility.yul\":6721:6773   */\n      tag_334\n      jump\t// in\n    tag_343:\n        /* \"#utility.yul\":6798:6827   */\n      tag_344\n        /* \"#utility.yul\":6820:6826   */\n      dup2\n        /* \"#utility.yul\":6798:6827   */\n      tag_336\n      jump\t// in\n    tag_344:\n        /* \"#utility.yul\":6793:6796   */\n      dup5\n        /* \"#utility.yul\":6789:6828   */\n      add\n        /* \"#utility.yul\":6782:6828   */\n      swap2\n      pop\n        /* \"#utility.yul\":6562:6834   */\n      pop\n        /* \"#utility.yul\":6470:6834   */\n      swap3\n      swap2\n      pop\n      pop\n      jump\t// out\n        /* \"#utility.yul\":6840:7217   */\n    tag_345:\n        /* \"#utility.yul\":6946:6949   */\n      0x00\n        /* \"#utility.yul\":6974:7013   */\n      tag_347\n        /* \"#utility.yul\":7007:7012   */\n      dup3\n        /* \"#utility.yul\":6974:7013   */\n      tag_340\n      jump\t// in\n    tag_347:\n        /* \"#utility.yul\":7029:7118   */\n      tag_348\n        /* \"#utility.yul\":7111:7117   */\n      dup2\n        /* \"#utility.yul\":7106:7109   */\n      dup6\n        /* \"#utility.yul\":7029:7118   */\n      tag_349\n      jump\t// in\n    tag_348:\n        /* \"#utility.yul\":7022:7118   */\n      swap4\n      pop\n        /* \"#utility.yul\":7127:7179   */\n      tag_350\n        /* \"#utility.yul\":7172:7178   */\n      dup2\n        /* \"#utility.yul\":7167:7170   */\n      dup6\n        /* \"#utility.yul\":7160:7164   */\n      0x20\n        /* \"#utility.yul\":7153:7158   */\n      dup7\n        /* \"#utility.yul\":7149:7165   */\n      add\n        /* \"#utility.yul\":7127:7179   */\n      tag_334\n      jump\t// in\n    tag_350:\n        /* \"#utility.yul\":7204:7210   */\n      dup1\n        /* \"#utility.yul\":7199:7202   */\n      dup5\n        /* \"#utility.yul\":7195:7211   */\n      add\n        /* \"#utility.yul\":7188:7211   */\n      swap2\n      pop\n        /* \"#utility.yul\":6950:7217   */\n      pop\n        /* \"#utility.yul\":6840:7217   */\n      swap3\n      swap2\n      pop\n      pop\n      jump\t// out\n        /* \"#utility.yul\":7223:7589   */\n    tag_351:\n        /* \"#utility.yul\":7365:7368   */\n      0x00\n        /* \"#utility.yul\":7386:7453   */\n      tag_353\n        /* \"#utility.yul\":7450:7452   */\n      0x14\n        /* \"#utility.yul\":7445:7448   */\n      dup4\n        /* \"#utility.yul\":7386:7453   */\n      tag_342\n      jump\t// in\n    tag_353:\n        /* \"#utility.yul\":7379:7453   */\n      swap2\n      pop\n        /* \"#utility.yul\":7462:7555   */\n      tag_354\n        /* \"#utility.yul\":7551:7554   */\n      dup3\n        /* \"#utility.yul\":7462:7555   */\n      tag_355\n      jump\t// in\n    tag_354:\n        /* \"#utility.yul\":7580:7582   */\n      0x20\n        /* \"#utility.yul\":7575:7578   */\n      dup3\n        /* \"#utility.yul\":7571:7583   */\n      add\n        /* \"#utility.yul\":7564:7583   */\n      swap1\n      pop\n        /* \"#utility.yul\":7223:7589   */\n      swap2\n      swap1\n      pop\n      jump\t// out\n        /* \"#utility.yul\":7595:7961   */\n    tag_356:\n        /* \"#utility.yul\":7737:7740   */\n      0x00\n        /* \"#utility.yul\":7758:7825   */\n      tag_358\n        /* \"#utility.yul\":7822:7824   */\n      0x16\n        /* \"#utility.yul\":7817:7820   */\n      dup4\n        /* \"#utility.yul\":7758:7825   */\n      tag_342\n      jump\t// in\n    tag_358:\n        /* \"#utility.yul\":7751:7825   */\n      swap2\n      pop\n        /* \"#utility.yul\":7834:7927   */\n      tag_359\n        /* \"#utility.yul\":7923:7926   */\n      dup3\n        /* \"#utility.yul\":7834:7927   */\n      tag_360\n      jump\t// in\n    tag_359:\n        /* \"#utility.yul\":7952:7954   */\n      0x20\n        /* \"#utility.yul\":7947:7950   */\n      dup3\n        /* \"#utility.yul\":7943:7955   */\n      add\n        /* \"#utility.yul\":7936:7955   */\n      swap1\n      pop\n        /* \"#utility.yul\":7595:7961   */\n      swap2\n      swap1\n      pop\n      jump\t// out\n        /* \"#utility.yul\":7967:8333   */\n    tag_361:\n        /* \"#utility.yul\":8109:8112   */\n      0x00\n        /* \"#utility.yul\":8130:8197   */\n      tag_363\n        /* \"#utility.yul\":8194:8196   */\n      0x1c\n        /* \"#utility.yul\":8189:8192   */\n      dup4\n        /* \"#utility.yul\":8130:8197   */\n      tag_342\n      jump\t// in\n    tag_363:\n        /* \"#utility.yul\":8123:8197   */\n      swap2\n      pop\n        /* \"#utility.yul\":8206:8299   */\n      tag_364\n        /* \"#utility.yul\":8295:8298   */\n      dup3\n        /* \"#utility.yul\":8206:8299   */\n      tag_365\n      jump\t// in\n    tag_364:\n        /* \"#utility.yul\":8324:8326   */\n      0x20\n        /* \"#utility.yul\":8319:8322   */\n      dup3\n        /* \"#utility.yul\":8315:8327   */\n      add\n        /* \"#utility.yul\":8308:8327   */\n      swap1\n      pop\n        /* \"#utility.yul\":7967:8333   */\n      swap2\n      swap1\n      pop\n      jump\t// out\n        /* \"#utility.yul\":8339:8705   */\n    tag_366:\n        /* \"#utility.yul\":8481:8484   */\n      0x00\n        /* \"#utility.yul\":8502:8569   */\n      tag_368\n        /* \"#utility.yul\":8566:8568   */\n      0x1e\n        /* \"#utility.yul\":8561:8564   */\n      dup4\n        /* \"#utility.yul\":8502:8569   */\n      tag_342\n      jump\t// in\n    tag_368:\n        /* \"#utility.yul\":8495:8569   */\n      swap2\n      pop\n        /* \"#utility.yul\":8578:8671   */\n      tag_369\n        /* \"#utility.yul\":8667:8670   */\n      dup3\n        /* \"#utility.yul\":8578:8671   */\n      tag_370\n      jump\t// in\n    tag_369:\n        /* \"#utility.yul\":8696:8698   */\n      0x20\n        /* \"#utility.yul\":8691:8694   */\n      dup3\n        /* \"#utility.yul\":8687:8699   */\n      add\n        /* \"#utility.yul\":8680:8699   */\n      swap1\n      pop\n        /* \"#utility.yul\":8339:8705   */\n      swap2\n      swap1\n      pop\n      jump\t// out\n        /* \"#utility.yul\":8711:9077   */\n    tag_371:\n        /* \"#utility.yul\":8853:8856   */\n      0x00\n        /* \"#utility.yul\":8874:8941   */\n      tag_373\n        /* \"#utility.yul\":8938:8940   */\n      0x14\n        /* \"#utility.yul\":8933:8936   */\n      dup4\n        /* \"#utility.yul\":8874:8941   */\n      tag_342\n      jump\t// in\n    tag_373:\n        /* \"#utility.yul\":8867:8941   */\n      swap2\n      pop\n        /* \"#utility.yul\":8950:9043   */\n      tag_374\n        /* \"#utility.yul\":9039:9042   */\n      dup3\n        /* \"#utility.yul\":8950:9043   */\n      tag_375\n      jump\t// in\n    tag_374:\n        /* \"#utility.yul\":9068:9070   */\n      0x20\n        /* \"#utility.yul\":9063:9066   */\n      dup3\n        /* \"#utility.yul\":9059:9071   */\n      add\n        /* \"#utility.yul\":9052:9071   */\n      swap1\n      pop\n        /* \"#utility.yul\":8711:9077   */\n      swap2\n      swap1\n      pop\n      jump\t// out\n        /* \"#utility.yul\":9083:9449   */\n    tag_376:\n        /* \"#utility.yul\":9225:9228   */\n      0x00\n        /* \"#utility.yul\":9246:9313   */\n      tag_378\n        /* \"#utility.yul\":9310:9312   */\n      0x13\n        /* \"#utility.yul\":9305:9308   */\n      dup4\n        /* \"#utility.yul\":9246:9313   */\n      tag_342\n      jump\t// in\n    tag_378:\n        /* \"#utility.yul\":9239:9313   */\n      swap2\n      pop\n        /* \"#utility.yul\":9322:9415   */\n      tag_379\n        /* \"#utility.yul\":9411:9414   */\n      dup3\n        /* \"#utility.yul\":9322:9415   */\n      tag_380\n      jump\t// in\n    tag_379:\n        /* \"#utility.yul\":9440:9442   */\n      0x20\n        /* \"#utility.yul\":9435:9438   */\n      dup3\n        /* \"#utility.yul\":9431:9443   */\n      add\n        /* \"#utility.yul\":9424:9443   */\n      swap1\n      pop\n        /* \"#utility.yul\":9083:9449   */\n      swap2\n      swap1\n      pop\n      jump\t// out\n        /* \"#utility.yul\":9455:9821   */\n    tag_381:\n        /* \"#utility.yul\":9597:9600   */\n      0x00\n        /* \"#utility.yul\":9618:9685   */\n      tag_383\n        /* \"#utility.yul\":9682:9684   */\n      0x14\n        /* \"#utility.yul\":9677:9680   */\n      dup4\n        /* \"#utility.yul\":9618:9685   */\n      tag_342\n      jump\t// in\n    tag_383:\n        /* \"#utility.yul\":9611:9685   */\n      swap2\n      pop\n        /* \"#utility.yul\":9694:9787   */\n      tag_384\n        /* \"#utility.yul\":9783:9786   */\n      dup3\n        /* \"#utility.yul\":9694:9787   */\n      tag_385\n      jump\t// in\n    tag_384:\n        /* \"#utility.yul\":9812:9814   */\n      0x20\n        /* \"#utility.yul\":9807:9810   */\n      dup3\n        /* \"#utility.yul\":9803:9815   */\n      add\n        /* \"#utility.yul\":9796:9815   */\n      swap1\n      pop\n        /* \"#utility.yul\":9455:9821   */\n      swap2\n      swap1\n      pop\n      jump\t// out\n        /* \"#utility.yul\":9827:10193   */\n    tag_386:\n        /* \"#utility.yul\":9969:9972   */\n      0x00\n        /* \"#utility.yul\":9990:10057   */\n      tag_388\n        /* \"#utility.yul\":10054:10056   */\n      0x0f\n        /* \"#utility.yul\":10049:10052   */\n      dup4\n        /* \"#utility.yul\":9990:10057   */\n      tag_342\n      jump\t// in\n    tag_388:\n        /* \"#utility.yul\":9983:10057   */\n      swap2\n      pop\n        /* \"#utility.yul\":10066:10159   */\n      tag_389\n        /* \"#utility.yul\":10155:10158   */\n      dup3\n        /* \"#utility.yul\":10066:10159   */\n      tag_390\n      jump\t// in\n    tag_389:\n        /* \"#utility.yul\":10184:10186   */\n      0x20\n        /* \"#utility.yul\":10179:10182   */\n      dup3\n        /* \"#utility.yul\":10175:10187   */\n      add\n        /* \"#utility.yul\":10168:10187   */\n      swap1\n      pop\n        /* \"#utility.yul\":9827:10193   */\n      swap2\n      swap1\n      pop\n      jump\t// out\n        /* \"#utility.yul\":10199:10565   */\n    tag_391:\n        /* \"#utility.yul\":10341:10344   */\n      0x00\n        /* \"#utility.yul\":10362:10429   */\n      tag_393\n        /* \"#utility.yul\":10426:10428   */\n      0x14\n        /* \"#utility.yul\":10421:10424   */\n      dup4\n        /* \"#utility.yul\":10362:10429   */\n      tag_342\n      jump\t// in\n    tag_393:\n        /* \"#utility.yul\":10355:10429   */\n      swap2\n      pop\n        /* \"#utility.yul\":10438:10531   */\n      tag_394\n        /* \"#utility.yul\":10527:10530   */\n      dup3\n        /* \"#utility.yul\":10438:10531   */\n      tag_395\n      jump\t// in\n    tag_394:\n        /* \"#utility.yul\":10556:10558   */\n      0x20\n        /* \"#utility.yul\":10551:10554   */\n      dup3\n        /* \"#utility.yul\":10547:10559   */\n      add\n        /* \"#utility.yul\":10540:10559   */\n      swap1\n      pop\n        /* \"#utility.yul\":10199:10565   */\n      swap2\n      swap1\n      pop\n      jump\t// out\n        /* \"#utility.yul\":10571:10937   */\n    tag_396:\n        /* \"#utility.yul\":10713:10716   */\n      0x00\n        /* \"#utility.yul\":10734:10801   */\n      tag_398\n        /* \"#utility.yul\":10798:10800   */\n      0x12\n        /* \"#utility.yul\":10793:10796   */\n      dup4\n        /* \"#utility.yul\":10734:10801   */\n      tag_342\n      jump\t// in\n    tag_398:\n        /* \"#utility.yul\":10727:10801   */\n      swap2\n      pop\n        /* \"#utility.yul\":10810:10903   */\n      tag_399\n        /* \"#utility.yul\":10899:10902   */\n      dup3\n        /* \"#utility.yul\":10810:10903   */\n      tag_400\n      jump\t// in\n    tag_399:\n        /* \"#utility.yul\":10928:10930   */\n      0x20\n        /* \"#utility.yul\":10923:10926   */\n      dup3\n        /* \"#utility.yul\":10919:10931   */\n      add\n        /* \"#utility.yul\":10912:10931   */\n      swap1\n      pop\n        /* \"#utility.yul\":10571:10937   */\n      swap2\n      swap1\n      pop\n      jump\t// out\n        /* \"#utility.yul\":10943:11308   */\n    tag_401:\n        /* \"#utility.yul\":11085:11088   */\n      0x00\n        /* \"#utility.yul\":11106:11172   */\n      tag_403\n        /* \"#utility.yul\":11170:11171   */\n      0x09\n        /* \"#utility.yul\":11165:11168   */\n      dup4\n        /* \"#utility.yul\":11106:11172   */\n      tag_342\n      jump\t// in\n    tag_403:\n        /* \"#utility.yul\":11099:11172   */\n      swap2\n      pop\n        /* \"#utility.yul\":11181:11274   */\n      tag_404\n        /* \"#utility.yul\":11270:11273   */\n      dup3\n        /* \"#utility.yul\":11181:11274   */\n      tag_405\n      jump\t// in\n    tag_404:\n        /* \"#utility.yul\":11299:11301   */\n      0x20\n        /* \"#utility.yul\":11294:11297   */\n      dup3\n        /* \"#utility.yul\":11290:11302   */\n      add\n        /* \"#utility.yul\":11283:11302   */\n      swap1\n      pop\n        /* \"#utility.yul\":10943:11308   */\n      swap2\n      swap1\n      pop\n      jump\t// out\n        /* \"#utility.yul\":11314:11432   */\n    tag_406:\n        /* \"#utility.yul\":11401:11425   */\n      tag_408\n        /* \"#utility.yul\":11419:11424   */\n      dup2\n        /* \"#utility.yul\":11401:11425   */\n      tag_409\n      jump\t// in\n    tag_408:\n        /* \"#utility.yul\":11396:11399   */\n      dup3\n        /* \"#utility.yul\":11389:11426   */\n      mstore\n        /* \"#utility.yul\":11314:11432   */\n      pop\n      pop\n      jump\t// out\n        /* \"#utility.yul\":11438:11873   */\n    tag_154:\n        /* \"#utility.yul\":11618:11621   */\n      0x00\n        /* \"#utility.yul\":11640:11735   */\n      tag_411\n        /* \"#utility.yul\":11731:11734   */\n      dup3\n        /* \"#utility.yul\":11722:11728   */\n      dup6\n        /* \"#utility.yul\":11640:11735   */\n      tag_345\n      jump\t// in\n    tag_411:\n        /* \"#utility.yul\":11633:11735   */\n      swap2\n      pop\n        /* \"#utility.yul\":11752:11847   */\n      tag_412\n        /* \"#utility.yul\":11843:11846   */\n      dup3\n        /* \"#utility.yul\":11834:11840   */\n      dup5\n        /* \"#utility.yul\":11752:11847   */\n      tag_345\n      jump\t// in\n    tag_412:\n        /* \"#utility.yul\":11745:11847   */\n      swap2\n      pop\n        /* \"#utility.yul\":11864:11867   */\n      dup2\n        /* \"#utility.yul\":11857:11867   */\n      swap1\n      pop\n        /* \"#utility.yul\":11438:11873   */\n      swap4\n      swap3\n      pop\n      pop\n      pop\n      jump\t// out\n        /* \"#utility.yul\":11879:12101   */\n    tag_36:\n        /* \"#utility.yul\":11972:11976   */\n      0x00\n        /* \"#utility.yul\":12010:12012   */\n      0x20\n        /* \"#utility.yul\":11999:12008   */\n      dup3\n        /* \"#utility.yul\":11995:12013   */\n      add\n        /* \"#utility.yul\":11987:12013   */\n      swap1\n      pop\n        /* \"#utility.yul\":12023:12094   */\n      tag_414\n        /* \"#utility.yul\":12091:12092   */\n      0x00\n        /* \"#utility.yul\":12080:12089   */\n      dup4\n        /* \"#utility.yul\":12076:12093   */\n      add\n        /* \"#utility.yul\":12067:12073   */\n      dup5\n        /* \"#utility.yul\":12023:12094   */\n      tag_319\n      jump\t// in\n    tag_414:\n        /* \"#utility.yul\":11879:12101   */\n      swap3\n      swap2\n      pop\n      pop\n      jump\t// out\n        /* \"#utility.yul\":12107:12747   */\n    tag_206:\n        /* \"#utility.yul\":12302:12306   */\n      0x00\n        /* \"#utility.yul\":12340:12343   */\n      0x80\n        /* \"#utility.yul\":12329:12338   */\n      dup3\n        /* \"#utility.yul\":12325:12344   */\n      add\n        /* \"#utility.yul\":12317:12344   */\n      swap1\n      pop\n        /* \"#utility.yul\":12354:12425   */\n      tag_416\n        /* \"#utility.yul\":12422:12423   */\n      0x00\n        /* \"#utility.yul\":12411:12420   */\n      dup4\n        /* \"#utility.yul\":12407:12424   */\n      add\n        /* \"#utility.yul\":12398:12404   */\n      dup8\n        /* \"#utility.yul\":12354:12425   */\n      tag_319\n      jump\t// in\n    tag_416:\n        /* \"#utility.yul\":12435:12507   */\n      tag_417\n        /* \"#utility.yul\":12503:12505   */\n      0x20\n        /* \"#utility.yul\":12492:12501   */\n      dup4\n        /* \"#utility.yul\":12488:12506   */\n      add\n        /* \"#utility.yul\":12479:12485   */\n      dup7\n        /* \"#utility.yul\":12435:12507   */\n      tag_319\n      jump\t// in\n    tag_417:\n        /* \"#utility.yul\":12517:12589   */\n      tag_418\n        /* \"#utility.yul\":12585:12587   */\n      0x40\n        /* \"#utility.yul\":12574:12583   */\n      dup4\n        /* \"#utility.yul\":12570:12588   */\n      add\n        /* \"#utility.yul\":12561:12567   */\n      dup6\n        /* \"#utility.yul\":12517:12589   */\n      tag_406\n      jump\t// in\n    tag_418:\n        /* \"#utility.yul\":12636:12645   */\n      dup2\n        /* \"#utility.yul\":12630:12634   */\n      dup2\n        /* \"#utility.yul\":12626:12646   */\n      sub\n        /* \"#utility.yul\":12621:12623   */\n      0x60\n        /* \"#utility.yul\":12610:12619   */\n      dup4\n        /* \"#utility.yul\":12606:12624   */\n      add\n        /* \"#utility.yul\":12599:12647   */\n      mstore\n        /* \"#utility.yul\":12664:12740   */\n      tag_419\n        /* \"#utility.yul\":12735:12739   */\n      dup2\n        /* \"#utility.yul\":12726:12732   */\n      dup5\n        /* \"#utility.yul\":12664:12740   */\n      tag_327\n      jump\t// in\n    tag_419:\n        /* \"#utility.yul\":12656:12740   */\n      swap1\n      pop\n        /* \"#utility.yul\":12107:12747   */\n      swap6\n      swap5\n      pop\n      pop\n      pop\n      pop\n      pop\n      jump\t// out\n        /* \"#utility.yul\":12753:12963   */\n    tag_26:\n        /* \"#utility.yul\":12840:12844   */\n      0x00\n        /* \"#utility.yul\":12878:12880   */\n      0x20\n        /* \"#utility.yul\":12867:12876   */\n      dup3\n        /* \"#utility.yul\":12863:12881   */\n      add\n        /* \"#utility.yul\":12855:12881   */\n      swap1\n      pop\n        /* \"#utility.yul\":12891:12956   */\n      tag_421\n        /* \"#utility.yul\":12953:12954   */\n      0x00\n        /* \"#utility.yul\":12942:12951   */\n      dup4\n        /* \"#utility.yul\":12938:12955   */\n      add\n        /* \"#utility.yul\":12929:12935   */\n      dup5\n        /* \"#utility.yul\":12891:12956   */\n      tag_323\n      jump\t// in\n    tag_421:\n        /* \"#utility.yul\":12753:12963   */\n      swap3\n      swap2\n      pop\n      pop\n      jump\t// out\n        /* \"#utility.yul\":12969:13282   */\n    tag_30:\n        /* \"#utility.yul\":13082:13086   */\n      0x00\n        /* \"#utility.yul\":13120:13122   */\n      0x20\n        /* \"#utility.yul\":13109:13118   */\n      dup3\n        /* \"#utility.yul\":13105:13123   */\n      add\n        /* \"#utility.yul\":13097:13123   */\n      swap1\n      pop\n        /* \"#utility.yul\":13169:13178   */\n      dup2\n        /* \"#utility.yul\":13163:13167   */\n      dup2\n        /* \"#utility.yul\":13159:13179   */\n      sub\n        /* \"#utility.yul\":13155:13156   */\n      0x00\n        /* \"#utility.yul\":13144:13153   */\n      dup4\n        /* \"#utility.yul\":13140:13157   */\n      add\n        /* \"#utility.yul\":13133:13180   */\n      mstore\n        /* \"#utility.yul\":13197:13275   */\n      tag_423\n        /* \"#utility.yul\":13270:13274   */\n      dup2\n        /* \"#utility.yul\":13261:13267   */\n      dup5\n        /* \"#utility.yul\":13197:13275   */\n      tag_337\n      jump\t// in\n    tag_423:\n        /* \"#utility.yul\":13189:13275   */\n      swap1\n      pop\n        /* \"#utility.yul\":12969:13282   */\n      swap3\n      swap2\n      pop\n      pop\n      jump\t// out\n        /* \"#utility.yul\":13288:13707   */\n    tag_117:\n        /* \"#utility.yul\":13454:13458   */\n      0x00\n        /* \"#utility.yul\":13492:13494   */\n      0x20\n        /* \"#utility.yul\":13481:13490   */\n      dup3\n        /* \"#utility.yul\":13477:13495   */\n      add\n        /* \"#utility.yul\":13469:13495   */\n      swap1\n      pop\n        /* \"#utility.yul\":13541:13550   */\n      dup2\n        /* \"#utility.yul\":13535:13539   */\n      dup2\n        /* \"#utility.yul\":13531:13551   */\n      sub\n        /* \"#utility.yul\":13527:13528   */\n      0x00\n        /* \"#utility.yul\":13516:13525   */\n      dup4\n        /* \"#utility.yul\":13512:13529   */\n      add\n        /* \"#utility.yul\":13505:13552   */\n      mstore\n        /* \"#utility.yul\":13569:13700   */\n      tag_425\n        /* \"#utility.yul\":13695:13699   */\n      dup2\n        /* \"#utility.yul\":13569:13700   */\n      tag_351\n      jump\t// in\n    tag_425:\n        /* \"#utility.yul\":13561:13700   */\n      swap1\n      pop\n        /* \"#utility.yul\":13288:13707   */\n      swap2\n      swap1\n      pop\n      jump\t// out\n        /* \"#utility.yul\":13713:14132   */\n    tag_110:\n        /* \"#utility.yul\":13879:13883   */\n      0x00\n        /* \"#utility.yul\":13917:13919   */\n      0x20\n        /* \"#utility.yul\":13906:13915   */\n      dup3\n        /* \"#utility.yul\":13902:13920   */\n      add\n        /* \"#utility.yul\":13894:13920   */\n      swap1\n      pop\n        /* \"#utility.yul\":13966:13975   */\n      dup2\n        /* \"#utility.yul\":13960:13964   */\n      dup2\n        /* \"#utility.yul\":13956:13976   */\n      sub\n        /* \"#utility.yul\":13952:13953   */\n      0x00\n        /* \"#utility.yul\":13941:13950   */\n      dup4\n        /* \"#utility.yul\":13937:13954   */\n      add\n        /* \"#utility.yul\":13930:13977   */\n      mstore\n        /* \"#utility.yul\":13994:14125   */\n      tag_427\n        /* \"#utility.yul\":14120:14124   */\n      dup2\n        /* \"#utility.yul\":13994:14125   */\n      tag_356\n      jump\t// in\n    tag_427:\n        /* \"#utility.yul\":13986:14125   */\n      swap1\n      pop\n        /* \"#utility.yul\":13713:14132   */\n      swap2\n      swap1\n      pop\n      jump\t// out\n        /* \"#utility.yul\":14138:14557   */\n    tag_166:\n        /* \"#utility.yul\":14304:14308   */\n      0x00\n        /* \"#utility.yul\":14342:14344   */\n      0x20\n        /* \"#utility.yul\":14331:14340   */\n      dup3\n        /* \"#utility.yul\":14327:14345   */\n      add\n        /* \"#utility.yul\":14319:14345   */\n      swap1\n      pop\n        /* \"#utility.yul\":14391:14400   */\n      dup2\n        /* \"#utility.yul\":14385:14389   */\n      dup2\n        /* \"#utility.yul\":14381:14401   */\n      sub\n        /* \"#utility.yul\":14377:14378   */\n      0x00\n        /* \"#utility.yul\":14366:14375   */\n      dup4\n        /* \"#utility.yul\":14362:14379   */\n      add\n        /* \"#utility.yul\":14355:14402   */\n      mstore\n        /* \"#utility.yul\":14419:14550   */\n      tag_429\n        /* \"#utility.yul\":14545:14549   */\n      dup2\n        /* \"#utility.yul\":14419:14550   */\n      tag_361\n      jump\t// in\n    tag_429:\n        /* \"#utility.yul\":14411:14550   */\n      swap1\n      pop\n        /* \"#utility.yul\":14138:14557   */\n      swap2\n      swap1\n      pop\n      jump\t// out\n        /* \"#utility.yul\":14563:14982   */\n    tag_101:\n        /* \"#utility.yul\":14729:14733   */\n      0x00\n        /* \"#utility.yul\":14767:14769   */\n      0x20\n        /* \"#utility.yul\":14756:14765   */\n      dup3\n        /* \"#utility.yul\":14752:14770   */\n      add\n        /* \"#utility.yul\":14744:14770   */\n      swap1\n      pop\n        /* \"#utility.yul\":14816:14825   */\n      dup2\n        /* \"#utility.yul\":14810:14814   */\n      dup2\n        /* \"#utility.yul\":14806:14826   */\n      sub\n        /* \"#utility.yul\":14802:14803   */\n      0x00\n        /* \"#utility.yul\":14791:14800   */\n      dup4\n        /* \"#utility.yul\":14787:14804   */\n      add\n        /* \"#utility.yul\":14780:14827   */\n      mstore\n        /* \"#utility.yul\":14844:14975   */\n      tag_431\n        /* \"#utility.yul\":14970:14974   */\n      dup2\n        /* \"#utility.yul\":14844:14975   */\n      tag_366\n      jump\t// in\n    tag_431:\n        /* \"#utility.yul\":14836:14975   */\n      swap1\n      pop\n        /* \"#utility.yul\":14563:14982   */\n      swap2\n      swap1\n      pop\n      jump\t// out\n        /* \"#utility.yul\":14988:15407   */\n    tag_175:\n        /* \"#utility.yul\":15154:15158   */\n      0x00\n        /* \"#utility.yul\":15192:15194   */\n      0x20\n        /* \"#utility.yul\":15181:15190   */\n      dup3\n        /* \"#utility.yul\":15177:15195   */\n      add\n        /* \"#utility.yul\":15169:15195   */\n      swap1\n      pop\n        /* \"#utility.yul\":15241:15250   */\n      dup2\n        /* \"#utility.yul\":15235:15239   */\n      dup2\n        /* \"#utility.yul\":15231:15251   */\n      sub\n        /* \"#utility.yul\":15227:15228   */\n      0x00\n        /* \"#utility.yul\":15216:15225   */\n      dup4\n        /* \"#utility.yul\":15212:15229   */\n      add\n        /* \"#utility.yul\":15205:15252   */\n      mstore\n        /* \"#utility.yul\":15269:15400   */\n      tag_433\n        /* \"#utility.yul\":15395:15399   */\n      dup2\n        /* \"#utility.yul\":15269:15400   */\n      tag_371\n      jump\t// in\n    tag_433:\n        /* \"#utility.yul\":15261:15400   */\n      swap1\n      pop\n        /* \"#utility.yul\":14988:15407   */\n      swap2\n      swap1\n      pop\n      jump\t// out\n        /* \"#utility.yul\":15413:15832   */\n    tag_96:\n        /* \"#utility.yul\":15579:15583   */\n      0x00\n        /* \"#utility.yul\":15617:15619   */\n      0x20\n        /* \"#utility.yul\":15606:15615   */\n      dup3\n        /* \"#utility.yul\":15602:15620   */\n      add\n        /* \"#utility.yul\":15594:15620   */\n      swap1\n      pop\n        /* \"#utility.yul\":15666:15675   */\n      dup2\n        /* \"#utility.yul\":15660:15664   */\n      dup2\n        /* \"#utility.yul\":15656:15676   */\n      sub\n        /* \"#utility.yul\":15652:15653   */\n      0x00\n        /* \"#utility.yul\":15641:15650   */\n      dup4\n        /* \"#utility.yul\":15637:15654   */\n      add\n        /* \"#utility.yul\":15630:15677   */\n      mstore\n        /* \"#utility.yul\":15694:15825   */\n      tag_435\n        /* \"#utility.yul\":15820:15824   */\n      dup2\n        /* \"#utility.yul\":15694:15825   */\n      tag_376\n      jump\t// in\n    tag_435:\n        /* \"#utility.yul\":15686:15825   */\n      swap1\n      pop\n        /* \"#utility.yul\":15413:15832   */\n      swap2\n      swap1\n      pop\n      jump\t// out\n        /* \"#utility.yul\":15838:16257   */\n    tag_128:\n        /* \"#utility.yul\":16004:16008   */\n      0x00\n        /* \"#utility.yul\":16042:16044   */\n      0x20\n        /* \"#utility.yul\":16031:16040   */\n      dup3\n        /* \"#utility.yul\":16027:16045   */\n      add\n        /* \"#utility.yul\":16019:16045   */\n      swap1\n      pop\n        /* \"#utility.yul\":16091:16100   */\n      dup2\n        /* \"#utility.yul\":16085:16089   */\n      dup2\n        /* \"#utility.yul\":16081:16101   */\n      sub\n        /* \"#utility.yul\":16077:16078   */\n      0x00\n        /* \"#utility.yul\":16066:16075   */\n      dup4\n        /* \"#utility.yul\":16062:16079   */\n      add\n        /* \"#utility.yul\":16055:16102   */\n      mstore\n        /* \"#utility.yul\":16119:16250   */\n      tag_437\n        /* \"#utility.yul\":16245:16249   */\n      dup2\n        /* \"#utility.yul\":16119:16250   */\n      tag_381\n      jump\t// in\n    tag_437:\n        /* \"#utility.yul\":16111:16250   */\n      swap1\n      pop\n        /* \"#utility.yul\":15838:16257   */\n      swap2\n      swap1\n      pop\n      jump\t// out\n        /* \"#utility.yul\":16263:16682   */\n    tag_146:\n        /* \"#utility.yul\":16429:16433   */\n      0x00\n        /* \"#utility.yul\":16467:16469   */\n      0x20\n        /* \"#utility.yul\":16456:16465   */\n      dup3\n        /* \"#utility.yul\":16452:16470   */\n      add\n        /* \"#utility.yul\":16444:16470   */\n      swap1\n      pop\n        /* \"#utility.yul\":16516:16525   */\n      dup2\n        /* \"#utility.yul\":16510:16514   */\n      dup2\n        /* \"#utility.yul\":16506:16526   */\n      sub\n        /* \"#utility.yul\":16502:16503   */\n      0x00\n        /* \"#utility.yul\":16491:16500   */\n      dup4\n        /* \"#utility.yul\":16487:16504   */\n      add\n        /* \"#utility.yul\":16480:16527   */\n      mstore\n        /* \"#utility.yul\":16544:16675   */\n      tag_439\n        /* \"#utility.yul\":16670:16674   */\n      dup2\n        /* \"#utility.yul\":16544:16675   */\n      tag_386\n      jump\t// in\n    tag_439:\n        /* \"#utility.yul\":16536:16675   */\n      swap1\n      pop\n        /* \"#utility.yul\":16263:16682   */\n      swap2\n      swap1\n      pop\n      jump\t// out\n        /* \"#utility.yul\":16688:17107   */\n    tag_178:\n        /* \"#utility.yul\":16854:16858   */\n      0x00\n        /* \"#utility.yul\":16892:16894   */\n      0x20\n        /* \"#utility.yul\":16881:16890   */\n      dup3\n        /* \"#utility.yul\":16877:16895   */\n      add\n        /* \"#utility.yul\":16869:16895   */\n      swap1\n      pop\n        /* \"#utility.yul\":16941:16950   */\n      dup2\n        /* \"#utility.yul\":16935:16939   */\n      dup2\n        /* \"#utility.yul\":16931:16951   */\n      sub\n        /* \"#utility.yul\":16927:16928   */\n      0x00\n        /* \"#utility.yul\":16916:16925   */\n      dup4\n        /* \"#utility.yul\":16912:16929   */\n      add\n        /* \"#utility.yul\":16905:16952   */\n      mstore\n        /* \"#utility.yul\":16969:17100   */\n      tag_441\n        /* \"#utility.yul\":17095:17099   */\n      dup2\n        /* \"#utility.yul\":16969:17100   */\n      tag_391\n      jump\t// in\n    tag_441:\n        /* \"#utility.yul\":16961:17100   */\n      swap1\n      pop\n        /* \"#utility.yul\":16688:17107   */\n      swap2\n      swap1\n      pop\n      jump\t// out\n        /* \"#utility.yul\":17113:17532   */\n    tag_186:\n        /* \"#utility.yul\":17279:17283   */\n      0x00\n        /* \"#utility.yul\":17317:17319   */\n      0x20\n        /* \"#utility.yul\":17306:17315   */\n      dup3\n        /* \"#utility.yul\":17302:17320   */\n      add\n        /* \"#utility.yul\":17294:17320   */\n      swap1\n      pop\n        /* \"#utility.yul\":17366:17375   */\n      dup2\n        /* \"#utility.yul\":17360:17364   */\n      dup2\n        /* \"#utility.yul\":17356:17376   */\n      sub\n        /* \"#utility.yul\":17352:17353   */\n      0x00\n        /* \"#utility.yul\":17341:17350   */\n      dup4\n        /* \"#utility.yul\":17337:17354   */\n      add\n        /* \"#utility.yul\":17330:17377   */\n      mstore\n        /* \"#utility.yul\":17394:17525   */\n      tag_443\n        /* \"#utility.yul\":17520:17524   */\n      dup2\n        /* \"#utility.yul\":17394:17525   */\n      tag_396\n      jump\t// in\n    tag_443:\n        /* \"#utility.yul\":17386:17525   */\n      swap1\n      pop\n        /* \"#utility.yul\":17113:17532   */\n      swap2\n      swap1\n      pop\n      jump\t// out\n        /* \"#utility.yul\":17538:17957   */\n    tag_163:\n        /* \"#utility.yul\":17704:17708   */\n      0x00\n        /* \"#utility.yul\":17742:17744   */\n      0x20\n        /* \"#utility.yul\":17731:17740   */\n      dup3\n        /* \"#utility.yul\":17727:17745   */\n      add\n        /* \"#utility.yul\":17719:17745   */\n      swap1\n      pop\n        /* \"#utility.yul\":17791:17800   */\n      dup2\n        /* \"#utility.yul\":17785:17789   */\n      dup2\n        /* \"#utility.yul\":17781:17801   */\n      sub\n        /* \"#utility.yul\":17777:17778   */\n      0x00\n        /* \"#utility.yul\":17766:17775   */\n      dup4\n        /* \"#utility.yul\":17762:17779   */\n      add\n        /* \"#utility.yul\":17755:17802   */\n      mstore\n        /* \"#utility.yul\":17819:17950   */\n      tag_445\n        /* \"#utility.yul\":17945:17949   */\n      dup2\n        /* \"#utility.yul\":17819:17950   */\n      tag_401\n      jump\t// in\n    tag_445:\n        /* \"#utility.yul\":17811:17950   */\n      swap1\n      pop\n        /* \"#utility.yul\":17538:17957   */\n      swap2\n      swap1\n      pop\n      jump\t// out\n        /* \"#utility.yul\":17963:18185   */\n    tag_60:\n        /* \"#utility.yul\":18056:18060   */\n      0x00\n        /* \"#utility.yul\":18094:18096   */\n      0x20\n        /* \"#utility.yul\":18083:18092   */\n      dup3\n        /* \"#utility.yul\":18079:18097   */\n      add\n        /* \"#utility.yul\":18071:18097   */\n      swap1\n      pop\n        /* \"#utility.yul\":18107:18178   */\n      tag_447\n        /* \"#utility.yul\":18175:18176   */\n      0x00\n        /* \"#utility.yul\":18164:18173   */\n      dup4\n        /* \"#utility.yul\":18160:18177   */\n      add\n        /* \"#utility.yul\":18151:18157   */\n      dup5\n        /* \"#utility.yul\":18107:18178   */\n      tag_406\n      jump\t// in\n    tag_447:\n        /* \"#utility.yul\":17963:18185   */\n      swap3\n      swap2\n      pop\n      pop\n      jump\t// out\n        /* \"#utility.yul\":18191:18320   */\n    tag_240:\n        /* \"#utility.yul\":18225:18231   */\n      0x00\n        /* \"#utility.yul\":18252:18272   */\n      tag_449\n      tag_450\n      jump\t// in\n    tag_449:\n        /* \"#utility.yul\":18242:18272   */\n      swap1\n      pop\n        /* \"#utility.yul\":18281:18314   */\n      tag_451\n        /* \"#utility.yul\":18309:18313   */\n      dup3\n        /* \"#utility.yul\":18301:18307   */\n      dup3\n        /* \"#utility.yul\":18281:18314   */\n      tag_452\n      jump\t// in\n    tag_451:\n        /* \"#utility.yul\":18191:18320   */\n      swap2\n      swap1\n      pop\n      jump\t// out\n        /* \"#utility.yul\":18326:18401   */\n    tag_450:\n        /* \"#utility.yul\":18359:18365   */\n      0x00\n        /* \"#utility.yul\":18392:18394   */\n      0x40\n        /* \"#utility.yul\":18386:18395   */\n      mload\n        /* \"#utility.yul\":18376:18395   */\n      swap1\n      pop\n        /* \"#utility.yul\":18326:18401   */\n      swap1\n      jump\t// out\n        /* \"#utility.yul\":18407:18714   */\n    tag_239:\n        /* \"#utility.yul\":18468:18472   */\n      0x00\n        /* \"#utility.yul\":18558:18576   */\n      0xffffffffffffffff\n        /* \"#utility.yul\":18550:18556   */\n      dup3\n        /* \"#utility.yul\":18547:18577   */\n      gt\n        /* \"#utility.yul\":18544:18600   */\n      iszero\n      tag_455\n      jumpi\n        /* \"#utility.yul\":18580:18598   */\n      tag_456\n      tag_193\n      jump\t// in\n    tag_456:\n        /* \"#utility.yul\":18544:18600   */\n    tag_455:\n        /* \"#utility.yul\":18618:18647   */\n      tag_457\n        /* \"#utility.yul\":18640:18646   */\n      dup3\n        /* \"#utility.yul\":18618:18647   */\n      tag_336\n      jump\t// in\n    tag_457:\n        /* \"#utility.yul\":18610:18647   */\n      swap1\n      pop\n        /* \"#utility.yul\":18702:18706   */\n      0x20\n        /* \"#utility.yul\":18696:18700   */\n      dup2\n        /* \"#utility.yul\":18692:18707   */\n      add\n        /* \"#utility.yul\":18684:18707   */\n      swap1\n      pop\n        /* \"#utility.yul\":18407:18714   */\n      swap2\n      swap1\n      pop\n      jump\t// out\n        /* \"#utility.yul\":18720:18818   */\n    tag_330:\n        /* \"#utility.yul\":18771:18777   */\n      0x00\n        /* \"#utility.yul\":18805:18810   */\n      dup2\n        /* \"#utility.yul\":18799:18811   */\n      mload\n        /* \"#utility.yul\":18789:18811   */\n      swap1\n      pop\n        /* \"#utility.yul\":18720:18818   */\n      swap2\n      swap1\n      pop\n      jump\t// out\n        /* \"#utility.yul\":18824:18923   */\n    tag_340:\n        /* \"#utility.yul\":18876:18882   */\n      0x00\n        /* \"#utility.yul\":18910:18915   */\n      dup2\n        /* \"#utility.yul\":18904:18916   */\n      mload\n        /* \"#utility.yul\":18894:18916   */\n      swap1\n      pop\n        /* \"#utility.yul\":18824:18923   */\n      swap2\n      swap1\n      pop\n      jump\t// out\n        /* \"#utility.yul\":18929:19097   */\n    tag_332:\n        /* \"#utility.yul\":19012:19023   */\n      0x00\n        /* \"#utility.yul\":19046:19052   */\n      dup3\n        /* \"#utility.yul\":19041:19044   */\n      dup3\n        /* \"#utility.yul\":19034:19053   */\n      mstore\n        /* \"#utility.yul\":19086:19090   */\n      0x20\n        /* \"#utility.yul\":19081:19084   */\n      dup3\n        /* \"#utility.yul\":19077:19091   */\n      add\n        /* \"#utility.yul\":19062:19091   */\n      swap1\n      pop\n        /* \"#utility.yul\":18929:19097   */\n      swap3\n      swap2\n      pop\n      pop\n      jump\t// out\n        /* \"#utility.yul\":19103:19272   */\n    tag_342:\n        /* \"#utility.yul\":19187:19198   */\n      0x00\n        /* \"#utility.yul\":19221:19227   */\n      dup3\n        /* \"#utility.yul\":19216:19219   */\n      dup3\n        /* \"#utility.yul\":19209:19228   */\n      mstore\n        /* \"#utility.yul\":19261:19265   */\n      0x20\n        /* \"#utility.yul\":19256:19259   */\n      dup3\n        /* \"#utility.yul\":19252:19266   */\n      add\n        /* \"#utility.yul\":19237:19266   */\n      swap1\n      pop\n        /* \"#utility.yul\":19103:19272   */\n      swap3\n      swap2\n      pop\n      pop\n      jump\t// out\n        /* \"#utility.yul\":19278:19426   */\n    tag_349:\n        /* \"#utility.yul\":19380:19391   */\n      0x00\n        /* \"#utility.yul\":19417:19420   */\n      dup2\n        /* \"#utility.yul\":19402:19420   */\n      swap1\n      pop\n        /* \"#utility.yul\":19278:19426   */\n      swap3\n      swap2\n      pop\n      pop\n      jump\t// out\n        /* \"#utility.yul\":19432:19737   */\n    tag_171:\n        /* \"#utility.yul\":19472:19475   */\n      0x00\n        /* \"#utility.yul\":19491:19511   */\n      tag_464\n        /* \"#utility.yul\":19509:19510   */\n      dup3\n        /* \"#utility.yul\":19491:19511   */\n      tag_409\n      jump\t// in\n    tag_464:\n        /* \"#utility.yul\":19486:19511   */\n      swap2\n      pop\n        /* \"#utility.yul\":19525:19545   */\n      tag_465\n        /* \"#utility.yul\":19543:19544   */\n      dup4\n        /* \"#utility.yul\":19525:19545   */\n      tag_409\n      jump\t// in\n    tag_465:\n        /* \"#utility.yul\":19520:19545   */\n      swap3\n      pop\n        /* \"#utility.yul\":19679:19680   */\n      dup3\n        /* \"#utility.yul\":19611:19677   */\n      0xffffffffffffffffffffffffffffffffffffffffffffffffffffffffffffffff\n        /* \"#utility.yul\":19607:19681   */\n      sub\n        /* \"#utility.yul\":19604:19605   */\n      dup3\n        /* \"#utility.yul\":19601:19682   */\n      gt\n        /* \"#utility.yul\":19598:19705   */\n      iszero\n      tag_466\n      jumpi\n        /* \"#utility.yul\":19685:19703   */\n      tag_467\n      tag_468\n      jump\t// in\n    tag_467:\n        /* \"#utility.yul\":19598:19705   */\n    tag_466:\n        /* \"#utility.yul\":19729:19730   */\n      dup3\n        /* \"#utility.yul\":19726:19727   */\n      dup3\n        /* \"#utility.yul\":19722:19731   */\n      add\n        /* \"#utility.yul\":19715:19731   */\n      swap1\n      pop\n        /* \"#utility.yul\":19432:19737   */\n      swap3\n      swap2\n      pop\n      pop\n      jump\t// out\n        /* \"#utility.yul\":19743:19934   */\n    tag_169:\n        /* \"#utility.yul\":19783:19787   */\n      0x00\n        /* \"#utility.yul\":19803:19823   */\n      tag_470\n        /* \"#utility.yul\":19821:19822   */\n      dup3\n        /* \"#utility.yul\":19803:19823   */\n      tag_409\n      jump\t// in\n    tag_470:\n        /* \"#utility.yul\":19798:19823   */\n      swap2\n      pop\n        /* \"#utility.yul\":19837:19857   */\n      tag_471\n        /* \"#utility.yul\":19855:19856   */\n      dup4\n        /* \"#utility.yul\":19837:19857   */\n      tag_409\n      jump\t// in\n    tag_471:\n        /* \"#utility.yul\":19832:19857   */\n      swap3\n      pop\n        /* \"#utility.yul\":19876:19877   */\n      dup3\n        /* \"#utility.yul\":19873:19874   */\n      dup3\n        /* \"#utility.yul\":19870:19878   */\n      lt\n        /* \"#utility.yul\":19867:19901   */\n      iszero\n      tag_472\n      jumpi\n        /* \"#utility.yul\":19881:19899   */\n      tag_473\n      tag_468\n      jump\t// in\n    tag_473:\n        /* \"#utility.yul\":19867:19901   */\n    tag_472:\n        /* \"#utility.yul\":19926:19927   */\n      dup3\n        /* \"#utility.yul\":19923:19924   */\n      dup3\n        /* \"#utility.yul\":19919:19928   */\n      sub\n        /* \"#utility.yul\":19911:19928   */\n      swap1\n      pop\n        /* \"#utility.yul\":19743:19934   */\n      swap3\n      swap2\n      pop\n      pop\n      jump\t// out\n        /* \"#utility.yul\":19940:20036   */\n    tag_322:\n        /* \"#utility.yul\":19977:19984   */\n      0x00\n        /* \"#utility.yul\":20006:20030   */\n      tag_475\n        /* \"#utility.yul\":20024:20029   */\n      dup3\n        /* \"#utility.yul\":20006:20030   */\n      tag_476\n      jump\t// in\n    tag_475:\n        /* \"#utility.yul\":19995:20030   */\n      swap1\n      pop\n        /* \"#utility.yul\":19940:20036   */\n      swap2\n      swap1\n      pop\n      jump\t// out\n        /* \"#utility.yul\":20042:20132   */\n    tag_326:\n        /* \"#utility.yul\":20076:20083   */\n      0x00\n        /* \"#utility.yul\":20119:20124   */\n      dup2\n        /* \"#utility.yul\":20112:20125   */\n      iszero\n        /* \"#utility.yul\":20105:20126   */\n      iszero\n        /* \"#utility.yul\":20094:20126   */\n      swap1\n      pop\n        /* \"#utility.yul\":20042:20132   */\n      swap2\n      swap1\n      pop\n      jump\t// out\n        /* \"#utility.yul\":20138:20287   */\n    tag_478:\n        /* \"#utility.yul\":20174:20181   */\n      0x00\n        /* \"#utility.yul\":20214:20280   */\n      0xffffffff00000000000000000000000000000000000000000000000000000000\n        /* \"#utility.yul\":20207:20212   */\n      dup3\n        /* \"#utility.yul\":20203:20281   */\n      and\n        /* \"#utility.yul\":20192:20281   */\n      swap1\n      pop\n        /* \"#utility.yul\":20138:20287   */\n      swap2\n      swap1\n      pop\n      jump\t// out\n        /* \"#utility.yul\":20293:20419   */\n    tag_476:\n        /* \"#utility.yul\":20330:20337   */\n      0x00\n        /* \"#utility.yul\":20370:20412   */\n      0xffffffffffffffffffffffffffffffffffffffff\n        /* \"#utility.yul\":20363:20368   */\n      dup3\n        /* \"#utility.yul\":20359:20413   */\n      and\n        /* \"#utility.yul\":20348:20413   */\n      swap1\n      pop\n        /* \"#utility.yul\":20293:20419   */\n      swap2\n      swap1\n      pop\n      jump\t// out\n        /* \"#utility.yul\":20425:20502   */\n    tag_409:\n        /* \"#utility.yul\":20462:20469   */\n      0x00\n        /* \"#utility.yul\":20491:20496   */\n      dup2\n        /* \"#utility.yul\":20480:20496   */\n      swap1\n      pop\n        /* \"#utility.yul\":20425:20502   */\n      swap2\n      swap1\n      pop\n      jump\t// out\n        /* \"#utility.yul\":20508:20662   */\n    tag_245:\n        /* \"#utility.yul\":20592:20598   */\n      dup3\n        /* \"#utility.yul\":20587:20590   */\n      dup2\n        /* \"#utility.yul\":20582:20585   */\n      dup4\n        /* \"#utility.yul\":20569:20599   */\n      calldatacopy\n        /* \"#utility.yul\":20654:20655   */\n      0x00\n        /* \"#utility.yul\":20645:20651   */\n      dup4\n        /* \"#utility.yul\":20640:20643   */\n      dup4\n        /* \"#utility.yul\":20636:20652   */\n      add\n        /* \"#utility.yul\":20629:20656   */\n      mstore\n        /* \"#utility.yul\":20508:20662   */\n      pop\n      pop\n      pop\n      jump\t// out\n        /* \"#utility.yul\":20668:20975   */\n    tag_334:\n        /* \"#utility.yul\":20736:20737   */\n      0x00\n        /* \"#utility.yul\":20746:20859   */\n    tag_484:\n        /* \"#utility.yul\":20760:20766   */\n      dup4\n        /* \"#utility.yul\":20757:20758   */\n      dup2\n        /* \"#utility.yul\":20754:20767   */\n      lt\n        /* \"#utility.yul\":20746:20859   */\n      iszero\n      tag_486\n      jumpi\n        /* \"#utility.yul\":20845:20846   */\n      dup1\n        /* \"#utility.yul\":20840:20843   */\n      dup3\n        /* \"#utility.yul\":20836:20847   */\n      add\n        /* \"#utility.yul\":20830:20848   */\n      mload\n        /* \"#utility.yul\":20826:20827   */\n      dup2\n        /* \"#utility.yul\":20821:20824   */\n      dup5\n        /* \"#utility.yul\":20817:20828   */\n      add\n        /* \"#utility.yul\":20810:20849   */\n      mstore\n        /* \"#utility.yul\":20782:20784   */\n      0x20\n        /* \"#utility.yul\":20779:20780   */\n      dup2\n        /* \"#utility.yul\":20775:20785   */\n      add\n        /* \"#utility.yul\":20770:20785   */\n      swap1\n      pop\n        /* \"#utility.yul\":20746:20859   */\n      jump(tag_484)\n    tag_486:\n        /* \"#utility.yul\":20877:20883   */\n      dup4\n        /* \"#utility.yul\":20874:20875   */\n      dup2\n        /* \"#utility.yul\":20871:20884   */\n      gt\n        /* \"#utility.yul\":20868:20969   */\n      iszero\n      tag_487\n      jumpi\n        /* \"#utility.yul\":20957:20958   */\n      0x00\n        /* \"#utility.yul\":20948:20954   */\n      dup5\n        /* \"#utility.yul\":20943:20946   */\n      dup5\n        /* \"#utility.yul\":20939:20955   */\n      add\n        /* \"#utility.yul\":20932:20959   */\n      mstore\n        /* \"#utility.yul\":20868:20969   */\n    tag_487:\n        /* \"#utility.yul\":20717:20975   */\n      pop\n        /* \"#utility.yul\":20668:20975   */\n      pop\n      pop\n      pop\n      jump\t// out\n        /* \"#utility.yul\":20981:21301   */\n    tag_88:\n        /* \"#utility.yul\":21025:21031   */\n      0x00\n        /* \"#utility.yul\":21062:21063   */\n      0x02\n        /* \"#utility.yul\":21056:21060   */\n      dup3\n        /* \"#utility.yul\":21052:21064   */\n      div\n        /* \"#utility.yul\":21042:21064   */\n      swap1\n      pop\n        /* \"#utility.yul\":21109:21110   */\n      0x01\n        /* \"#utility.yul\":21103:21107   */\n      dup3\n        /* \"#utility.yul\":21099:21111   */\n      and\n        /* \"#utility.yul\":21130:21148   */\n      dup1\n        /* \"#utility.yul\":21120:21201   */\n      tag_489\n      jumpi\n        /* \"#utility.yul\":21186:21190   */\n      0x7f\n        /* \"#utility.yul\":21178:21184   */\n      dup3\n        /* \"#utility.yul\":21174:21191   */\n      and\n        /* \"#utility.yul\":21164:21191   */\n      swap2\n      pop\n        /* \"#utility.yul\":21120:21201   */\n    tag_489:\n        /* \"#utility.yul\":21248:21250   */\n      0x20\n        /* \"#utility.yul\":21240:21246   */\n      dup3\n        /* \"#utility.yul\":21237:21251   */\n      lt\n        /* \"#utility.yul\":21217:21235   */\n      dup2\n        /* \"#utility.yul\":21214:21252   */\n      eq\n        /* \"#utility.yul\":21211:21295   */\n      iszero\n      tag_490\n      jumpi\n        /* \"#utility.yul\":21267:21285   */\n      tag_491\n      tag_492\n      jump\t// in\n    tag_491:\n        /* \"#utility.yul\":21211:21295   */\n    tag_490:\n        /* \"#utility.yul\":21032:21301   */\n      pop\n        /* \"#utility.yul\":20981:21301   */\n      swap2\n      swap1\n      pop\n      jump\t// out\n        /* \"#utility.yul\":21307:21588   */\n    tag_452:\n        /* \"#utility.yul\":21390:21417   */\n      tag_494\n        /* \"#utility.yul\":21412:21416   */\n      dup3\n        /* \"#utility.yul\":21390:21417   */\n      tag_336\n      jump\t// in\n    tag_494:\n        /* \"#utility.yul\":21382:21388   */\n      dup2\n        /* \"#utility.yul\":21378:21418   */\n      add\n        /* \"#utility.yul\":21520:21526   */\n      dup2\n        /* \"#utility.yul\":21508:21518   */\n      dup2\n        /* \"#utility.yul\":21505:21527   */\n      lt\n        /* \"#utility.yul\":21484:21502   */\n      0xffffffffffffffff\n        /* \"#utility.yul\":21472:21482   */\n      dup3\n        /* \"#utility.yul\":21469:21503   */\n      gt\n        /* \"#utility.yul\":21466:21528   */\n      or\n        /* \"#utility.yul\":21463:21551   */\n      iszero\n      tag_495\n      jumpi\n        /* \"#utility.yul\":21531:21549   */\n      tag_496\n      tag_193\n      jump\t// in\n    tag_496:\n        /* \"#utility.yul\":21463:21551   */\n    tag_495:\n        /* \"#utility.yul\":21571:21581   */\n      dup1\n        /* \"#utility.yul\":21567:21569   */\n      0x40\n        /* \"#utility.yul\":21560:21582   */\n      mstore\n        /* \"#utility.yul\":21350:21588   */\n      pop\n        /* \"#utility.yul\":21307:21588   */\n      pop\n      pop\n      jump\t// out\n        /* \"#utility.yul\":21594:21774   */\n    tag_468:\n        /* \"#utility.yul\":21642:21719   */\n      0x4e487b7100000000000000000000000000000000000000000000000000000000\n        /* \"#utility.yul\":21639:21640   */\n      0x00\n        /* \"#utility.yul\":21632:21720   */\n      mstore\n        /* \"#utility.yul\":21739:21743   */\n      0x11\n        /* \"#utility.yul\":21736:21737   */\n      0x04\n        /* \"#utility.yul\":21729:21744   */\n      mstore\n        /* \"#utility.yul\":21763:21767   */\n      0x24\n        /* \"#utility.yul\":21760:21761   */\n      0x00\n        /* \"#utility.yul\":21753:21768   */\n      revert\n        /* \"#utility.yul\":21780:21960   */\n    tag_199:\n        /* \"#utility.yul\":21828:21905   */\n      0x4e487b7100000000000000000000000000000000000000000000000000000000\n        /* \"#utility.yul\":21825:21826   */\n      0x00\n        /* \"#utility.yul\":21818:21906   */\n      mstore\n        /* \"#utility.yul\":21925:21929   */\n      0x12\n        /* \"#utility.yul\":21922:21923   */\n      0x04\n        /* \"#utility.yul\":21915:21930   */\n      mstore\n        /* \"#utility.yul\":21949:21953   */\n      0x24\n        /* \"#utility.yul\":21946:21947   */\n      0x00\n        /* \"#utility.yul\":21939:21954   */\n      revert\n        /* \"#utility.yul\":21966:22146   */\n    tag_492:\n        /* \"#utility.yul\":22014:22091   */\n      0x4e487b7100000000000000000000000000000000000000000000000000000000\n        /* \"#utility.yul\":22011:22012   */\n      0x00\n        /* \"#utility.yul\":22004:22092   */\n      mstore\n        /* \"#utility.yul\":22111:22115   */\n      0x22\n        /* \"#utility.yul\":22108:22109   */\n      0x04\n        /* \"#utility.yul\":22101:22116   */\n      mstore\n        /* \"#utility.yul\":22135:22139   */\n      0x24\n        /* \"#utility.yul\":22132:22133   */\n      0x00\n        /* \"#utility.yul\":22125:22140   */\n      revert\n        /* \"#utility.yul\":22152:22332   */\n    tag_193:\n        /* \"#utility.yul\":22200:22277   */\n      0x4e487b7100000000000000000000000000000000000000000000000000000000\n        /* \"#utility.yul\":22197:22198   */\n      0x00\n        /* \"#utility.yul\":22190:22278   */\n      mstore\n        /* \"#utility.yul\":22297:22301   */\n      0x41\n        /* \"#utility.yul\":22294:22295   */\n      0x04\n        /* \"#utility.yul\":22287:22302   */\n      mstore\n        /* \"#utility.yul\":22321:22325   */\n      0x24\n        /* \"#utility.yul\":22318:22319   */\n      0x00\n        /* \"#utility.yul\":22311:22326   */\n      revert\n        /* \"#utility.yul\":22338:22455   */\n    tag_265:\n        /* \"#utility.yul\":22447:22448   */\n      0x00\n        /* \"#utility.yul\":22444:22445   */\n      dup1\n        /* \"#utility.yul\":22437:22449   */\n      revert\n        /* \"#utility.yul\":22461:22578   */\n    tag_243:\n        /* \"#utility.yul\":22570:22571   */\n      0x00\n        /* \"#utility.yul\":22567:22568   */\n      dup1\n        /* \"#utility.yul\":22560:22572   */\n      revert\n        /* \"#utility.yul\":22584:22701   */\n    tag_295:\n        /* \"#utility.yul\":22693:22694   */\n      0x00\n        /* \"#utility.yul\":22690:22691   */\n      dup1\n        /* \"#utility.yul\":22683:22695   */\n      revert\n        /* \"#utility.yul\":22707:22824   */\n    tag_274:\n        /* \"#utility.yul\":22816:22817   */\n      0x00\n        /* \"#utility.yul\":22813:22814   */\n      dup1\n        /* \"#utility.yul\":22806:22818   */\n      revert\n        /* \"#utility.yul\":22830:22932   */\n    tag_336:\n        /* \"#utility.yul\":22871:22877   */\n      0x00\n        /* \"#utility.yul\":22922:22924   */\n      0x1f\n        /* \"#utility.yul\":22918:22925   */\n      not\n        /* \"#utility.yul\":22913:22915   */\n      0x1f\n        /* \"#utility.yul\":22906:22911   */\n      dup4\n        /* \"#utility.yul\":22902:22916   */\n      add\n        /* \"#utility.yul\":22898:22926   */\n      and\n        /* \"#utility.yul\":22888:22926   */\n      swap1\n      pop\n        /* \"#utility.yul\":22830:22932   */\n      swap2\n      swap1\n      pop\n      jump\t// out\n        /* \"#utility.yul\":22938:23108   */\n    tag_355:\n        /* \"#utility.yul\":23078:23100   */\n      0x746f6b656e4964206f7574206f662072616e6765000000000000000000000000\n        /* \"#utility.yul\":23074:23075   */\n      0x00\n        /* \"#utility.yul\":23066:23072   */\n      dup3\n        /* \"#utility.yul\":23062:23076   */\n      add\n        /* \"#utility.yul\":23055:23101   */\n      mstore\n        /* \"#utility.yul\":22938:23108   */\n      pop\n      jump\t// out\n        /* \"#utility.yul\":23114:23286   */\n    tag_360:\n        /* \"#utility.yul\":23254:23278   */\n      0x6e6f74206f776e6572206e6f7220617070726f76656400000000000000000000\n        /* \"#utility.yul\":23250:23251   */\n      0x00\n        /* \"#utility.yul\":23242:23248   */\n      dup3\n        /* \"#utility.yul\":23238:23252   */\n      add\n        /* \"#utility.yul\":23231:23279   */\n      mstore\n        /* \"#utility.yul\":23114:23286   */\n      pop\n      jump\t// out\n        /* \"#utility.yul\":23292:23470   */\n    tag_365:\n        /* \"#utility.yul\":23432:23462   */\n      0x7472616e7366657220746f20746865207a65726f206164647265737300000000\n        /* \"#utility.yul\":23428:23429   */\n      0x00\n        /* \"#utility.yul\":23420:23426   */\n      dup3\n        /* \"#utility.yul\":23416:23430   */\n      add\n        /* \"#utility.yul\":23409:23463   */\n      mstore\n        /* \"#utility.yul\":23292:23470   */\n      pop\n      jump\t// out\n        /* \"#utility.yul\":23476:23656   */\n    tag_370:\n        /* \"#utility.yul\":23616:23648   */\n      0x6e6f74206f776e6572206e6f7220617070726f76656420666f7220616c6c0000\n        /* \"#utility.yul\":23612:23613   */\n      0x00\n        /* \"#utility.yul\":23604:23610   */\n      dup3\n        /* \"#utility.yul\":23600:23614   */\n      add\n        /* \"#utility.yul\":23593:23649   */\n      mstore\n        /* \"#utility.yul\":23476:23656   */\n      pop\n      jump\t// out\n        /* \"#utility.yul\":23662:23832   */\n    tag_375:\n        /* \"#utility.yul\":23802:23824   */\n      0x6d696e7420746f207a65726f2061646472657373000000000000000000000000\n        /* \"#utility.yul\":23798:23799   */\n      0x00\n        /* \"#utility.yul\":23790:23796   */\n      dup3\n        /* \"#utility.yul\":23786:23800   */\n      add\n        /* \"#utility.yul\":23779:23825   */\n      mstore\n        /* \"#utility.yul\":23662:23832   */\n      pop\n      jump\t// out\n        /* \"#utility.yul\":23838:24007   */\n    tag_380:\n        /* \"#utility.yul\":23978:23999   */\n      0x746f6b656e20646f65736e277420657869737400000000000000000000000000\n        /* \"#utility.yul\":23974:23975   */\n      0x00\n        /* \"#utility.yul\":23966:23972   */\n      dup3\n        /* \"#utility.yul\":23962:23976   */\n      add\n        /* \"#utility.yul\":23955:24000   */\n      mstore\n        /* \"#utility.yul\":23838:24007   */\n      pop\n      jump\t// out\n        /* \"#utility.yul\":24013:24183   */\n    tag_385:\n        /* \"#utility.yul\":24153:24175   */\n      0x6f776e6572203d207a65726f2061646472657373000000000000000000000000\n        /* \"#utility.yul\":24149:24150   */\n      0x00\n        /* \"#utility.yul\":24141:24147   */\n      dup3\n        /* \"#utility.yul\":24137:24151   */\n      add\n        /* \"#utility.yul\":24130:24176   */\n      mstore\n        /* \"#utility.yul\":24013:24183   */\n      pop\n      jump\t// out\n        /* \"#utility.yul\":24189:24354   */\n    tag_390:\n        /* \"#utility.yul\":24329:24346   */\n      0x546f6b656e204e6f742045786973740000000000000000000000000000000000\n        /* \"#utility.yul\":24325:24326   */\n      0x00\n        /* \"#utility.yul\":24317:24323   */\n      dup3\n        /* \"#utility.yul\":24313:24327   */\n      add\n        /* \"#utility.yul\":24306:24347   */\n      mstore\n        /* \"#utility.yul\":24189:24354   */\n      pop\n      jump\t// out\n        /* \"#utility.yul\":24360:24530   */\n    tag_395:\n        /* \"#utility.yul\":24500:24522   */\n      0x746f6b656e20616c7265616479206d696e746564000000000000000000000000\n        /* \"#utility.yul\":24496:24497   */\n      0x00\n        /* \"#utility.yul\":24488:24494   */\n      dup3\n        /* \"#utility.yul\":24484:24498   */\n      add\n        /* \"#utility.yul\":24477:24523   */\n      mstore\n        /* \"#utility.yul\":24360:24530   */\n      pop\n      jump\t// out\n        /* \"#utility.yul\":24536:24704   */\n    tag_400:\n        /* \"#utility.yul\":24676:24696   */\n      0x6e6f742045524337323152656365697665720000000000000000000000000000\n        /* \"#utility.yul\":24672:24673   */\n      0x00\n        /* \"#utility.yul\":24664:24670   */\n      dup3\n        /* \"#utility.yul\":24660:24674   */\n      add\n        /* \"#utility.yul\":24653:24697   */\n      mstore\n        /* \"#utility.yul\":24536:24704   */\n      pop\n      jump\t// out\n        /* \"#utility.yul\":24710:24869   */\n    tag_405:\n        /* \"#utility.yul\":24850:24861   */\n      0x6e6f74206f776e65720000000000000000000000000000000000000000000000\n        /* \"#utility.yul\":24846:24847   */\n      0x00\n        /* \"#utility.yul\":24838:24844   */\n      dup3\n        /* \"#utility.yul\":24834:24848   */\n      add\n        /* \"#utility.yul\":24827:24862   */\n      mstore\n        /* \"#utility.yul\":24710:24869   */\n      pop\n      jump\t// out\n        /* \"#utility.yul\":24875:24997   */\n    tag_249:\n        /* \"#utility.yul\":24948:24972   */\n      tag_518\n        /* \"#utility.yul\":24966:24971   */\n      dup2\n        /* \"#utility.yul\":24948:24972   */\n      tag_322\n      jump\t// in\n    tag_518:\n        /* \"#utility.yul\":24941:24946   */\n      dup2\n        /* \"#utility.yul\":24938:24973   */\n      eq\n        /* \"#utility.yul\":24928:24991   */\n      tag_519\n      jumpi\n        /* \"#utility.yul\":24987:24988   */\n      0x00\n        /* \"#utility.yul\":24984:24985   */\n      dup1\n        /* \"#utility.yul\":24977:24989   */\n      revert\n        /* \"#utility.yul\":24928:24991   */\n    tag_519:\n        /* \"#utility.yul\":24875:24997   */\n      pop\n      jump\t// out\n        /* \"#utility.yul\":25003:25119   */\n    tag_253:\n        /* \"#utility.yul\":25073:25094   */\n      tag_521\n        /* \"#utility.yul\":25088:25093   */\n      dup2\n        /* \"#utility.yul\":25073:25094   */\n      tag_326\n      jump\t// in\n    tag_521:\n        /* \"#utility.yul\":25066:25071   */\n      dup2\n        /* \"#utility.yul\":25063:25095   */\n      eq\n        /* \"#utility.yul\":25053:25113   */\n      tag_522\n      jumpi\n        /* \"#utility.yul\":25109:25110   */\n      0x00\n        /* \"#utility.yul\":25106:25107   */\n      dup1\n        /* \"#utility.yul\":25099:25111   */\n      revert\n        /* \"#utility.yul\":25053:25113   */\n    tag_522:\n        /* \"#utility.yul\":25003:25119   */\n      pop\n      jump\t// out\n        /* \"#utility.yul\":25125:25245   */\n    tag_257:\n        /* \"#utility.yul\":25197:25220   */\n      tag_524\n        /* \"#utility.yul\":25214:25219   */\n      dup2\n        /* \"#utility.yul\":25197:25220   */\n      tag_478\n      jump\t// in\n    tag_524:\n        /* \"#utility.yul\":25190:25195   */\n      dup2\n        /* \"#utility.yul\":25187:25221   */\n      eq\n        /* \"#utility.yul\":25177:25239   */\n      tag_525\n      jumpi\n        /* \"#utility.yul\":25235:25236   */\n      0x00\n        /* \"#utility.yul\":25232:25233   */\n      dup1\n        /* \"#utility.yul\":25225:25237   */\n      revert\n        /* \"#utility.yul\":25177:25239   */\n    tag_525:\n        /* \"#utility.yul\":25125:25245   */\n      pop\n      jump\t// out\n        /* \"#utility.yul\":25251:25373   */\n    tag_270:\n        /* \"#utility.yul\":25324:25348   */\n      tag_527\n        /* \"#utility.yul\":25342:25347   */\n      dup2\n        /* \"#utility.yul\":25324:25348   */\n      tag_409\n      jump\t// in\n    tag_527:\n        /* \"#utility.yul\":25317:25322   */\n      dup2\n        /* \"#utility.yul\":25314:25349   */\n      eq\n        /* \"#utility.yul\":25304:25367   */\n      tag_528\n      jumpi\n        /* \"#utility.yul\":25363:25364   */\n      0x00\n        /* \"#utility.yul\":25360:25361   */\n      dup1\n        /* \"#utility.yul\":25353:25365   */\n      revert\n        /* \"#utility.yul\":25304:25367   */\n    tag_528:\n        /* \"#utility.yul\":25251:25373   */\n      pop\n      jump\t// out\n    stop\n    data_8382b382247cd07401a2ef2f394137c3f3b0972798bae0a9c78b0c261acbb56b 697066733a2f2f516d65536a53696e4870506e6d586d73704d6a776958794e367a533445397a63636172694752336a7863615774712f\n\n    auxdata: 0xa2646970667358221220a18dd47cfd2e22f629b89ad7d450f55226843621d3d34c31ea9a00022056f33a64736f6c63430008070033\n}\n",
				"bytecode": {
					"linkReferences": {},
					"object": "60806040526127106006553480156200001757600080fd5b50604051620028343803806200283483398181016040528101906200003d9190620001a9565b81818160009080519060200190620000579291906200007b565b508060019080519060200190620000709291906200007b565b5050505050620003b2565b8280546200008990620002c3565b90600052602060002090601f016020900481019282620000ad5760008555620000f9565b82601f10620000c857805160ff1916838001178555620000f9565b82800160010185558215620000f9579182015b82811115620000f8578251825591602001919060010190620000db565b5b5090506200010891906200010c565b5090565b5b80821115620001275760008160009055506001016200010d565b5090565b6000620001426200013c8462000257565b6200022e565b90508281526020810184848401111562000161576200016062000392565b5b6200016e8482856200028d565b509392505050565b600082601f8301126200018e576200018d6200038d565b5b8151620001a08482602086016200012b565b91505092915050565b60008060408385031215620001c357620001c26200039c565b5b600083015167ffffffffffffffff811115620001e457620001e362000397565b5b620001f28582860162000176565b925050602083015167ffffffffffffffff81111562000216576200021562000397565b5b620002248582860162000176565b9150509250929050565b60006200023a6200024d565b9050620002488282620002f9565b919050565b6000604051905090565b600067ffffffffffffffff8211156200027557620002746200035e565b5b6200028082620003a1565b9050602081019050919050565b60005b83811015620002ad57808201518184015260208101905062000290565b83811115620002bd576000848401525b50505050565b60006002820490506001821680620002dc57607f821691505b60208210811415620002f357620002f26200032f565b5b50919050565b6200030482620003a1565b810181811067ffffffffffffffff821117156200032657620003256200035e565b5b80604052505050565b7f4e487b7100000000000000000000000000000000000000000000000000000000600052602260045260246000fd5b7f4e487b7100000000000000000000000000000000000000000000000000000000600052604160045260246000fd5b600080fd5b600080fd5b600080fd5b600080fd5b6000601f19601f8301169050919050565b61247280620003c26000396000f3fe608060405234801561001057600080fd5b50600436106100f55760003560e01c80636352211e11610097578063b88d4fde11610066578063b88d4fde14610282578063bb8a16bd1461029e578063c87b56dd146102bc578063e985e9c5146102ec576100f5565b80636352211e146101e857806370a082311461021857806395d89b4114610248578063a22cb46514610266576100f5565b8063095ea7b3116100d3578063095ea7b31461017857806323b872dd1461019457806340c10f19146101b057806342842e0e146101cc576100f5565b806301ffc9a7146100fa57806306fdde031461012a578063081812fc14610148575b600080fd5b610114600480360381019061010f91906119af565b61031c565b6040516101219190611d12565b60405180910390f35b610132610456565b60405161013f9190611d2d565b60405180910390f35b610162600480360381019061015d9190611a09565b6104e4565b60405161016f9190611cab565b60405180910390f35b610192600480360381019061018d919061196f565b6105c3565b005b6101ae60048036038101906101a99190611859565b61070a565b005b6101ca60048036038101906101c5919061196f565b610773565b005b6101e660048036038101906101e19190611859565b6107d2565b005b61020260048036038101906101fd9190611a09565b6107f2565b60405161020f9190611cab565b60405180910390f35b610232600480360381019061022d91906117ec565b61089f565b60405161023f9190611eaf565b60405180910390f35b610250610957565b60405161025d9190611d2d565b60405180910390f35b610280600480360381019061027b919061192f565b6109e5565b005b61029c600480360381019061029791906118ac565b610ae2565b005b6102a6610b4d565b6040516102b39190611eaf565b60405180910390f35b6102d660048036038101906102d19190611a09565b610b53565b6040516102e39190611d2d565b60405180910390f35b61030660048036038101906103019190611819565b610c55565b6040516103139190611d12565b60405180910390f35b60007f80ac58cd000000000000000000000000000000000000000000000000000000007bffffffffffffffffffffffffffffffffffffffffffffffffffffffff1916827bffffffffffffffffffffffffffffffffffffffffffffffffffffffff191614806103e757507f01ffc9a7000000000000000000000000000000000000000000000000000000007bffffffffffffffffffffffffffffffffffffffffffffffffffffffff1916827bffffffffffffffffffffffffffffffffffffffffffffffffffffffff1916145b8061044f57507f5b5e139f000000000000000000000000000000000000000000000000000000007bffffffffffffffffffffffffffffffffffffffffffffffffffffffff1916827bffffffffffffffffffffffffffffffffffffffffffffffffffffffff1916145b9050919050565b60008054610463906120a3565b80601f016020809104026020016040519081016040528092919081815260200182805461048f906120a3565b80156104dc5780601f106104b1576101008083540402835291602001916104dc565b820191906000526020600020905b8154815290600101906020018083116104bf57829003601f168201915b505050505081565b60008073ffffffffffffffffffffffffffffffffffffffff166002600084815260200190815260200160002060009054906101000a900473ffffffffffffffffffffffffffffffffffffffff1673ffffffffffffffffffffffffffffffffffffffff161415610588576040517f08c379a000000000000000000000000000000000000000000000000000000000815260040161057f90611def565b60405180910390fd5b6004600083815260200190815260200160002060009054906101000a900473ffffffffffffffffffffffffffffffffffffffff169050919050565b60006002600083815260200190815260200160002060009054906101000a900473ffffffffffffffffffffffffffffffffffffffff1690508073ffffffffffffffffffffffffffffffffffffffff163373ffffffffffffffffffffffffffffffffffffffff1614806106bb5750600560008273ffffffffffffffffffffffffffffffffffffffff1673ffffffffffffffffffffffffffffffffffffffff16815260200190815260200160002060003373ffffffffffffffffffffffffffffffffffffffff1673ffffffffffffffffffffffffffffffffffffffff16815260200190815260200160002060009054906101000a900460ff165b6106fa576040517f08c379a00000000000000000000000000000000000000000000000000000000081526004016106f190611daf565b60405180910390fd5b610705818484610ce9565b505050565b6000610715826107f2565b9050610722813384610d9b565b610761576040517f08c379a000000000000000000000000000000000000000000000000000000000815260040161075890611d6f565b60405180910390fd5b61076d81858585610ecf565b50505050565b60008110158015610785575060065481105b6107c4576040517f08c379a00000000000000000000000000000000000000000000000000000000081526004016107bb90611d4f565b60405180910390fd5b6107ce828261111a565b5050565b6107ed83838360405180602001604052806000815250610ae2565b505050565b60006002600083815260200190815260200160002060009054906101000a900473ffffffffffffffffffffffffffffffffffffffff169050600073ffffffffffffffffffffffffffffffffffffffff168173ffffffffffffffffffffffffffffffffffffffff16141561089a576040517f08c379a000000000000000000000000000000000000000000000000000000000815260040161089190611def565b60405180910390fd5b919050565b60008073ffffffffffffffffffffffffffffffffffffffff168273ffffffffffffffffffffffffffffffffffffffff161415610910576040517f08c379a000000000000000000000000000000000000000000000000000000000815260040161090790611e0f565b60405180910390fd5b600360008373ffffffffffffffffffffffffffffffffffffffff1673ffffffffffffffffffffffffffffffffffffffff168152602001908152602001600020549050919050565b60018054610964906120a3565b80601f0160208091040260200160405190810160405280929190818152602001828054610990906120a3565b80156109dd5780601f106109b2576101008083540402835291602001916109dd565b820191906000526020600020905b8154815290600101906020018083116109c057829003601f168201915b505050505081565b80600560003373ffffffffffffffffffffffffffffffffffffffff1673ffffffffffffffffffffffffffffffffffffffff16815260200190815260200160002060008473ffffffffffffffffffffffffffffffffffffffff1673ffffffffffffffffffffffffffffffffffffffff16815260200190815260200160002060006101000a81548160ff0219169083151502179055508173ffffffffffffffffffffffffffffffffffffffff163373ffffffffffffffffffffffffffffffffffffffff167f17307eab39ab6107e8899845ad3d59bd9653f200f220920489ca2b5937696c3183604051610ad69190611d12565b60405180910390a35050565b6000610aed836107f2565b9050610afa813385610d9b565b610b39576040517f08c379a0000000000000000000000000000000000000000000000000000000008152600401610b3090611d6f565b60405180910390fd5b610b468186868686611335565b5050505050565b60065481565b6060600073ffffffffffffffffffffffffffffffffffffffff166002600084815260200190815260200160002060009054906101000a900473ffffffffffffffffffffffffffffffffffffffff1673ffffffffffffffffffffffffffffffffffffffff161415610bf8576040517f08c379a0000000000000000000000000000000000000000000000000000000008152600401610bef90611e2f565b60405180910390fd5b6000610c02611393565b90506000815111610c225760405180602001604052806000815250610c4d565b80610c2c846113b3565b604051602001610c3d929190611c87565b6040516020818303038152906040525b915050919050565b6000600560008473ffffffffffffffffffffffffffffffffffffffff1673ffffffffffffffffffffffffffffffffffffffff16815260200190815260200160002060008373ffffffffffffffffffffffffffffffffffffffff1673ffffffffffffffffffffffffffffffffffffffff16815260200190815260200160002060009054906101000a900460ff16905092915050565b816004600083815260200190815260200160002060006101000a81548173ffffffffffffffffffffffffffffffffffffffff021916908373ffffffffffffffffffffffffffffffffffffffff160217905550808273ffffffffffffffffffffffffffffffffffffffff168473ffffffffffffffffffffffffffffffffffffffff167f8c5be1e5ebec7d5bd14f71427d1e84f3dd0314c0f7b2291e5b200ac8c7c3b92560405160405180910390a4505050565b60008373ffffffffffffffffffffffffffffffffffffffff168373ffffffffffffffffffffffffffffffffffffffff161480610e3557508273ffffffffffffffffffffffffffffffffffffffff166004600084815260200190815260200160002060009054906101000a900473ffffffffffffffffffffffffffffffffffffffff1673ffffffffffffffffffffffffffffffffffffffff16145b80610ec65750600560008573ffffffffffffffffffffffffffffffffffffffff1673ffffffffffffffffffffffffffffffffffffffff16815260200190815260200160002060008473ffffffffffffffffffffffffffffffffffffffff1673ffffffffffffffffffffffffffffffffffffffff16815260200190815260200160002060009054906101000a900460ff165b90509392505050565b8373ffffffffffffffffffffffffffffffffffffffff168373ffffffffffffffffffffffffffffffffffffffff1614610f3d576040517f08c379a0000000000000000000000000000000000000000000000000000000008152600401610f3490611e8f565b60405180910390fd5b600073ffffffffffffffffffffffffffffffffffffffff168273ffffffffffffffffffffffffffffffffffffffff161415610fad576040517f08c379a0000000000000000000000000000000000000000000000000000000008152600401610fa490611d8f565b60405180910390fd5b610fb984600083610ce9565b6001600360008573ffffffffffffffffffffffffffffffffffffffff1673ffffffffffffffffffffffffffffffffffffffff16815260200190815260200160002060008282546110099190611fb9565b925050819055506001600360008473ffffffffffffffffffffffffffffffffffffffff1673ffffffffffffffffffffffffffffffffffffffff16815260200190815260200160002060008282546110609190611f63565b92505081905550816002600083815260200190815260200160002060006101000a81548173ffffffffffffffffffffffffffffffffffffffff021916908373ffffffffffffffffffffffffffffffffffffffff160217905550808273ffffffffffffffffffffffffffffffffffffffff168473ffffffffffffffffffffffffffffffffffffffff167fddf252ad1be2c89b69c2b068fc378daa952ba7f163c4a11628f55a4df523b3ef60405160405180910390a450505050565b600073ffffffffffffffffffffffffffffffffffffffff168273ffffffffffffffffffffffffffffffffffffffff16141561118a576040517f08c379a000000000000000000000000000000000000000000000000000000000815260040161118190611dcf565b60405180910390fd5b600073ffffffffffffffffffffffffffffffffffffffff166002600083815260200190815260200160002060009054906101000a900473ffffffffffffffffffffffffffffffffffffffff1673ffffffffffffffffffffffffffffffffffffffff161461122c576040517f08c379a000000000000000000000000000000000000000000000000000000000815260040161122390611e4f565b60405180910390fd5b6001600360008473ffffffffffffffffffffffffffffffffffffffff1673ffffffffffffffffffffffffffffffffffffffff168152602001908152602001600020600082825461127c9190611f63565b92505081905550816002600083815260200190815260200160002060006101000a81548173ffffffffffffffffffffffffffffffffffffffff021916908373ffffffffffffffffffffffffffffffffffffffff160217905550808273ffffffffffffffffffffffffffffffffffffffff16600073ffffffffffffffffffffffffffffffffffffffff167fddf252ad1be2c89b69c2b068fc378daa952ba7f163c4a11628f55a4df523b3ef60405160405180910390a45050565b61134185858585610ecf565b61134d8484848461148b565b61138c576040517f08c379a000000000000000000000000000000000000000000000000000000000815260040161138390611e6f565b60405180910390fd5b5050505050565b606060405180606001604052806036815260200161240760369139905090565b6060600060016113c28461159d565b01905060008167ffffffffffffffff8111156113e1576113e0612193565b5b6040519080825280601f01601f1916602001820160405280156114135781602001600182028036833780820191505090505b509050600082602001820190505b600115611480578080600190039150507f3031323334353637383961626364656600000000000000000000000000000000600a86061a8153600a858161146a57611469612135565b5b049450600085141561147b57611480565b611421565b819350505050919050565b60006114ac8473ffffffffffffffffffffffffffffffffffffffff166116f0565b156115905763150b7a0260e01b7bffffffffffffffffffffffffffffffffffffffffffffffffffffffff19168473ffffffffffffffffffffffffffffffffffffffff1663150b7a02338887876040518563ffffffff1660e01b81526004016115179493929190611cc6565b602060405180830381600087803b15801561153157600080fd5b505af1158015611545573d6000803e3d6000fd5b505050506040513d601f19601f8201168201806040525081019061156991906119dc565b7bffffffffffffffffffffffffffffffffffffffffffffffffffffffff1916149050611595565b600190505b949350505050565b600080600090507a184f03e93ff9f4daa797ed6e38ed64bf6a1f01000000000000000083106115fb577a184f03e93ff9f4daa797ed6e38ed64bf6a1f01000000000000000083816115f1576115f0612135565b5b0492506040810190505b6d04ee2d6d415b85acef81000000008310611638576d04ee2d6d415b85acef8100000000838161162e5761162d612135565b5b0492506020810190505b662386f26fc10000831061166757662386f26fc10000838161165d5761165c612135565b5b0492506010810190505b6305f5e1008310611690576305f5e100838161168657611685612135565b5b0492506008810190505b61271083106116b55761271083816116ab576116aa612135565b5b0492506004810190505b606483106116d857606483816116ce576116cd612135565b5b0492506002810190505b600a83106116e7576001810190505b80915050919050565b6000808273ffffffffffffffffffffffffffffffffffffffff163b119050919050565b600061172661172184611eef565b611eca565b905082815260208101848484011115611742576117416121c7565b5b61174d848285612061565b509392505050565b600081359050611764816123aa565b92915050565b600081359050611779816123c1565b92915050565b60008135905061178e816123d8565b92915050565b6000815190506117a3816123d8565b92915050565b600082601f8301126117be576117bd6121c2565b5b81356117ce848260208601611713565b91505092915050565b6000813590506117e6816123ef565b92915050565b600060208284031215611802576118016121d1565b5b600061181084828501611755565b91505092915050565b600080604083850312156118305761182f6121d1565b5b600061183e85828601611755565b925050602061184f85828601611755565b9150509250929050565b600080600060608486031215611872576118716121d1565b5b600061188086828701611755565b935050602061189186828701611755565b92505060406118a2868287016117d7565b9150509250925092565b600080600080608085870312156118c6576118c56121d1565b5b60006118d487828801611755565b94505060206118e587828801611755565b93505060406118f6878288016117d7565b925050606085013567ffffffffffffffff811115611917576119166121cc565b5b611923878288016117a9565b91505092959194509250565b60008060408385031215611946576119456121d1565b5b600061195485828601611755565b92505060206119658582860161176a565b9150509250929050565b60008060408385031215611986576119856121d1565b5b600061199485828601611755565b92505060206119a5858286016117d7565b9150509250929050565b6000602082840312156119c5576119c46121d1565b5b60006119d38482850161177f565b91505092915050565b6000602082840312156119f2576119f16121d1565b5b6000611a0084828501611794565b91505092915050565b600060208284031215611a1f57611a1e6121d1565b5b6000611a2d848285016117d7565b91505092915050565b611a3f81611fed565b82525050565b611a4e81611fff565b82525050565b6000611a5f82611f20565b611a698185611f36565b9350611a79818560208601612070565b611a82816121d6565b840191505092915050565b6000611a9882611f2b565b611aa28185611f47565b9350611ab2818560208601612070565b611abb816121d6565b840191505092915050565b6000611ad182611f2b565b611adb8185611f58565b9350611aeb818560208601612070565b80840191505092915050565b6000611b04601483611f47565b9150611b0f826121e7565b602082019050919050565b6000611b27601683611f47565b9150611b3282612210565b602082019050919050565b6000611b4a601c83611f47565b9150611b5582612239565b602082019050919050565b6000611b6d601e83611f47565b9150611b7882612262565b602082019050919050565b6000611b90601483611f47565b9150611b9b8261228b565b602082019050919050565b6000611bb3601383611f47565b9150611bbe826122b4565b602082019050919050565b6000611bd6601483611f47565b9150611be1826122dd565b602082019050919050565b6000611bf9600f83611f47565b9150611c0482612306565b602082019050919050565b6000611c1c601483611f47565b9150611c278261232f565b602082019050919050565b6000611c3f601283611f47565b9150611c4a82612358565b602082019050919050565b6000611c62600983611f47565b9150611c6d82612381565b602082019050919050565b611c8181612057565b82525050565b6000611c938285611ac6565b9150611c9f8284611ac6565b91508190509392505050565b6000602082019050611cc06000830184611a36565b92915050565b6000608082019050611cdb6000830187611a36565b611ce86020830186611a36565b611cf56040830185611c78565b8181036060830152611d078184611a54565b905095945050505050565b6000602082019050611d276000830184611a45565b92915050565b60006020820190508181036000830152611d478184611a8d565b905092915050565b60006020820190508181036000830152611d6881611af7565b9050919050565b60006020820190508181036000830152611d8881611b1a565b9050919050565b60006020820190508181036000830152611da881611b3d565b9050919050565b60006020820190508181036000830152611dc881611b60565b9050919050565b60006020820190508181036000830152611de881611b83565b9050919050565b60006020820190508181036000830152611e0881611ba6565b9050919050565b60006020820190508181036000830152611e2881611bc9565b9050919050565b60006020820190508181036000830152611e4881611bec565b9050919050565b60006020820190508181036000830152611e6881611c0f565b9050919050565b60006020820190508181036000830152611e8881611c32565b9050919050565b60006020820190508181036000830152611ea881611c55565b9050919050565b6000602082019050611ec46000830184611c78565b92915050565b6000611ed4611ee5565b9050611ee082826120d5565b919050565b6000604051905090565b600067ffffffffffffffff821115611f0a57611f09612193565b5b611f13826121d6565b9050602081019050919050565b600081519050919050565b600081519050919050565b600082825260208201905092915050565b600082825260208201905092915050565b600081905092915050565b6000611f6e82612057565b9150611f7983612057565b9250827fffffffffffffffffffffffffffffffffffffffffffffffffffffffffffffffff03821115611fae57611fad612106565b5b828201905092915050565b6000611fc482612057565b9150611fcf83612057565b925082821015611fe257611fe1612106565b5b828203905092915050565b6000611ff882612037565b9050919050565b60008115159050919050565b60007fffffffff0000000000000000000000000000000000000000000000000000000082169050919050565b600073ffffffffffffffffffffffffffffffffffffffff82169050919050565b6000819050919050565b82818337600083830152505050565b60005b8381101561208e578082015181840152602081019050612073565b8381111561209d576000848401525b50505050565b600060028204905060018216806120bb57607f821691505b602082108114156120cf576120ce612164565b5b50919050565b6120de826121d6565b810181811067ffffffffffffffff821117156120fd576120fc612193565b5b80604052505050565b7f4e487b7100000000000000000000000000000000000000000000000000000000600052601160045260246000fd5b7f4e487b7100000000000000000000000000000000000000000000000000000000600052601260045260246000fd5b7f4e487b7100000000000000000000000000000000000000000000000000000000600052602260045260246000fd5b7f4e487b7100000000000000000000000000000000000000000000000000000000600052604160045260246000fd5b600080fd5b600080fd5b600080fd5b600080fd5b6000601f19601f8301169050919050565b7f746f6b656e4964206f7574206f662072616e6765000000000000000000000000600082015250565b7f6e6f74206f776e6572206e6f7220617070726f76656400000000000000000000600082015250565b7f7472616e7366657220746f20746865207a65726f206164647265737300000000600082015250565b7f6e6f74206f776e6572206e6f7220617070726f76656420666f7220616c6c0000600082015250565b7f6d696e7420746f207a65726f2061646472657373000000000000000000000000600082015250565b7f746f6b656e20646f65736e277420657869737400000000000000000000000000600082015250565b7f6f776e6572203d207a65726f2061646472657373000000000000000000000000600082015250565b7f546f6b656e204e6f742045786973740000000000000000000000000000000000600082015250565b7f746f6b656e20616c7265616479206d696e746564000000000000000000000000600082015250565b7f6e6f742045524337323152656365697665720000000000000000000000000000600082015250565b7f6e6f74206f776e65720000000000000000000000000000000000000000000000600082015250565b6123b381611fed565b81146123be57600080fd5b50565b6123ca81611fff565b81146123d557600080fd5b50565b6123e18161200b565b81146123ec57600080fd5b50565b6123f881612057565b811461240357600080fd5b5056fe697066733a2f2f516d65536a53696e4870506e6d586d73704d6a776958794e367a533445397a63636172694752336a7863615774712fa2646970667358221220a18dd47cfd2e22f629b89ad7d450f55226843621d3d34c31ea9a00022056f33a64736f6c63430008070033",
					"opcodes": "PUSH1 0x80 PUSH1 0x40 MSTORE PUSH2 0x2710 PUSH1 0x6 SSTORE CALLVALUE DUP1 ISZERO PUSH3 0x17 JUMPI PUSH1 0x0 DUP1 REVERT JUMPDEST POP PUSH1 0x40 MLOAD PUSH3 0x2834 CODESIZE SUB DUP1 PUSH3 0x2834 DUP4 CODECOPY DUP2 DUP2 ADD PUSH1 0x40 MSTORE DUP2 ADD SWAP1 PUSH3 0x3D SWAP2 SWAP1 PUSH3 0x1A9 JUMP JUMPDEST DUP2 DUP2 DUP2 PUSH1 0x0 SWAP1 DUP1 MLOAD SWAP1 PUSH1 0x20 ADD SWAP1 PUSH3 0x57 SWAP3 SWAP2 SWAP1 PUSH3 0x7B JUMP JUMPDEST POP DUP1 PUSH1 0x1 SWAP1 DUP1 MLOAD SWAP1 PUSH1 0x20 ADD SWAP1 PUSH3 0x70 SWAP3 SWAP2 SWAP1 PUSH3 0x7B JUMP JUMPDEST POP POP POP POP POP PUSH3 0x3B2 JUMP JUMPDEST DUP3 DUP1 SLOAD PUSH3 0x89 SWAP1 PUSH3 0x2C3 JUMP JUMPDEST SWAP1 PUSH1 0x0 MSTORE PUSH1 0x20 PUSH1 0x0 KECCAK256 SWAP1 PUSH1 0x1F ADD PUSH1 0x20 SWAP1 DIV DUP2 ADD SWAP3 DUP3 PUSH3 0xAD JUMPI PUSH1 0x0 DUP6 SSTORE PUSH3 0xF9 JUMP JUMPDEST DUP3 PUSH1 0x1F LT PUSH3 0xC8 JUMPI DUP1 MLOAD PUSH1 0xFF NOT AND DUP4 DUP1 ADD OR DUP6 SSTORE PUSH3 0xF9 JUMP JUMPDEST DUP3 DUP1 ADD PUSH1 0x1 ADD DUP6 SSTORE DUP3 ISZERO PUSH3 0xF9 JUMPI SWAP2 DUP3 ADD JUMPDEST DUP3 DUP2 GT ISZERO PUSH3 0xF8 JUMPI DUP3 MLOAD DUP3 SSTORE SWAP2 PUSH1 0x20 ADD SWAP2 SWAP1 PUSH1 0x1 ADD SWAP1 PUSH3 0xDB JUMP JUMPDEST JUMPDEST POP SWAP1 POP PUSH3 0x108 SWAP2 SWAP1 PUSH3 0x10C JUMP JUMPDEST POP SWAP1 JUMP JUMPDEST JUMPDEST DUP1 DUP3 GT ISZERO PUSH3 0x127 JUMPI PUSH1 0x0 DUP2 PUSH1 0x0 SWAP1 SSTORE POP PUSH1 0x1 ADD PUSH3 0x10D JUMP JUMPDEST POP SWAP1 JUMP JUMPDEST PUSH1 0x0 PUSH3 0x142 PUSH3 0x13C DUP5 PUSH3 0x257 JUMP JUMPDEST PUSH3 0x22E JUMP JUMPDEST SWAP1 POP DUP3 DUP2 MSTORE PUSH1 0x20 DUP2 ADD DUP5 DUP5 DUP5 ADD GT ISZERO PUSH3 0x161 JUMPI PUSH3 0x160 PUSH3 0x392 JUMP JUMPDEST JUMPDEST PUSH3 0x16E DUP5 DUP3 DUP6 PUSH3 0x28D JUMP JUMPDEST POP SWAP4 SWAP3 POP POP POP JUMP JUMPDEST PUSH1 0x0 DUP3 PUSH1 0x1F DUP4 ADD SLT PUSH3 0x18E JUMPI PUSH3 0x18D PUSH3 0x38D JUMP JUMPDEST JUMPDEST DUP2 MLOAD PUSH3 0x1A0 DUP5 DUP3 PUSH1 0x20 DUP7 ADD PUSH3 0x12B JUMP JUMPDEST SWAP2 POP POP SWAP3 SWAP2 POP POP JUMP JUMPDEST PUSH1 0x0 DUP1 PUSH1 0x40 DUP4 DUP6 SUB SLT ISZERO PUSH3 0x1C3 JUMPI PUSH3 0x1C2 PUSH3 0x39C JUMP JUMPDEST JUMPDEST PUSH1 0x0 DUP4 ADD MLOAD PUSH8 0xFFFFFFFFFFFFFFFF DUP2 GT ISZERO PUSH3 0x1E4 JUMPI PUSH3 0x1E3 PUSH3 0x397 JUMP JUMPDEST JUMPDEST PUSH3 0x1F2 DUP6 DUP3 DUP7 ADD PUSH3 0x176 JUMP JUMPDEST SWAP3 POP POP PUSH1 0x20 DUP4 ADD MLOAD PUSH8 0xFFFFFFFFFFFFFFFF DUP2 GT ISZERO PUSH3 0x216 JUMPI PUSH3 0x215 PUSH3 0x397 JUMP JUMPDEST JUMPDEST PUSH3 0x224 DUP6 DUP3 DUP7 ADD PUSH3 0x176 JUMP JUMPDEST SWAP2 POP POP SWAP3 POP SWAP3 SWAP1 POP JUMP JUMPDEST PUSH1 0x0 PUSH3 0x23A PUSH3 0x24D JUMP JUMPDEST SWAP1 POP PUSH3 0x248 DUP3 DUP3 PUSH3 0x2F9 JUMP JUMPDEST SWAP2 SWAP1 POP JUMP JUMPDEST PUSH1 0x0 PUSH1 0x40 MLOAD SWAP1 POP SWAP1 JUMP JUMPDEST PUSH1 0x0 PUSH8 0xFFFFFFFFFFFFFFFF DUP3 GT ISZERO PUSH3 0x275 JUMPI PUSH3 0x274 PUSH3 0x35E JUMP JUMPDEST JUMPDEST PUSH3 0x280 DUP3 PUSH3 0x3A1 JUMP JUMPDEST SWAP1 POP PUSH1 0x20 DUP2 ADD SWAP1 POP SWAP2 SWAP1 POP JUMP JUMPDEST PUSH1 0x0 JUMPDEST DUP4 DUP2 LT ISZERO PUSH3 0x2AD JUMPI DUP1 DUP3 ADD MLOAD DUP2 DUP5 ADD MSTORE PUSH1 0x20 DUP2 ADD SWAP1 POP PUSH3 0x290 JUMP JUMPDEST DUP4 DUP2 GT ISZERO PUSH3 0x2BD JUMPI PUSH1 0x0 DUP5 DUP5 ADD MSTORE JUMPDEST POP POP POP POP JUMP JUMPDEST PUSH1 0x0 PUSH1 0x2 DUP3 DIV SWAP1 POP PUSH1 0x1 DUP3 AND DUP1 PUSH3 0x2DC JUMPI PUSH1 0x7F DUP3 AND SWAP2 POP JUMPDEST PUSH1 0x20 DUP3 LT DUP2 EQ ISZERO PUSH3 0x2F3 JUMPI PUSH3 0x2F2 PUSH3 0x32F JUMP JUMPDEST JUMPDEST POP SWAP2 SWAP1 POP JUMP JUMPDEST PUSH3 0x304 DUP3 PUSH3 0x3A1 JUMP JUMPDEST DUP2 ADD DUP2 DUP2 LT PUSH8 0xFFFFFFFFFFFFFFFF DUP3 GT OR ISZERO PUSH3 0x326 JUMPI PUSH3 0x325 PUSH3 0x35E JUMP JUMPDEST JUMPDEST DUP1 PUSH1 0x40 MSTORE POP POP POP JUMP JUMPDEST PUSH32 0x4E487B7100000000000000000000000000000000000000000000000000000000 PUSH1 0x0 MSTORE PUSH1 0x22 PUSH1 0x4 MSTORE PUSH1 0x24 PUSH1 0x0 REVERT JUMPDEST PUSH32 0x4E487B7100000000000000000000000000000000000000000000000000000000 PUSH1 0x0 MSTORE PUSH1 0x41 PUSH1 0x4 MSTORE PUSH1 0x24 PUSH1 0x0 REVERT JUMPDEST PUSH1 0x0 DUP1 REVERT JUMPDEST PUSH1 0x0 DUP1 REVERT JUMPDEST PUSH1 0x0 DUP1 REVERT JUMPDEST PUSH1 0x0 DUP1 REVERT JUMPDEST PUSH1 0x0 PUSH1 0x1F NOT PUSH1 0x1F DUP4 ADD AND SWAP1 POP SWAP2 SWAP1 POP JUMP JUMPDEST PUSH2 0x2472 DUP1 PUSH3 0x3C2 PUSH1 0x0 CODECOPY PUSH1 0x0 RETURN INVALID PUSH1 0x80 PUSH1 0x40 MSTORE CALLVALUE DUP1 ISZERO PUSH2 0x10 JUMPI PUSH1 0x0 DUP1 REVERT JUMPDEST POP PUSH1 0x4 CALLDATASIZE LT PUSH2 0xF5 JUMPI PUSH1 0x0 CALLDATALOAD PUSH1 0xE0 SHR DUP1 PUSH4 0x6352211E GT PUSH2 0x97 JUMPI DUP1 PUSH4 0xB88D4FDE GT PUSH2 0x66 JUMPI DUP1 PUSH4 0xB88D4FDE EQ PUSH2 0x282 JUMPI DUP1 PUSH4 0xBB8A16BD EQ PUSH2 0x29E JUMPI DUP1 PUSH4 0xC87B56DD EQ PUSH2 0x2BC JUMPI DUP1 PUSH4 0xE985E9C5 EQ PUSH2 0x2EC JUMPI PUSH2 0xF5 JUMP JUMPDEST DUP1 PUSH4 0x6352211E EQ PUSH2 0x1E8 JUMPI DUP1 PUSH4 0x70A08231 EQ PUSH2 0x218 JUMPI DUP1 PUSH4 0x95D89B41 EQ PUSH2 0x248 JUMPI DUP1 PUSH4 0xA22CB465 EQ PUSH2 0x266 JUMPI PUSH2 0xF5 JUMP JUMPDEST DUP1 PUSH4 0x95EA7B3 GT PUSH2 0xD3 JUMPI DUP1 PUSH4 0x95EA7B3 EQ PUSH2 0x178 JUMPI DUP1 PUSH4 0x23B872DD EQ PUSH2 0x194 JUMPI DUP1 PUSH4 0x40C10F19 EQ PUSH2 0x1B0 JUMPI DUP1 PUSH4 0x42842E0E EQ PUSH2 0x1CC JUMPI PUSH2 0xF5 JUMP JUMPDEST DUP1 PUSH4 0x1FFC9A7 EQ PUSH2 0xFA JUMPI DUP1 PUSH4 0x6FDDE03 EQ PUSH2 0x12A JUMPI DUP1 PUSH4 0x81812FC EQ PUSH2 0x148 JUMPI JUMPDEST PUSH1 0x0 DUP1 REVERT JUMPDEST PUSH2 0x114 PUSH1 0x4 DUP1 CALLDATASIZE SUB DUP2 ADD SWAP1 PUSH2 0x10F SWAP2 SWAP1 PUSH2 0x19AF JUMP JUMPDEST PUSH2 0x31C JUMP JUMPDEST PUSH1 0x40 MLOAD PUSH2 0x121 SWAP2 SWAP1 PUSH2 0x1D12 JUMP JUMPDEST PUSH1 0x40 MLOAD DUP1 SWAP2 SUB SWAP1 RETURN JUMPDEST PUSH2 0x132 PUSH2 0x456 JUMP JUMPDEST PUSH1 0x40 MLOAD PUSH2 0x13F SWAP2 SWAP1 PUSH2 0x1D2D JUMP JUMPDEST PUSH1 0x40 MLOAD DUP1 SWAP2 SUB SWAP1 RETURN JUMPDEST PUSH2 0x162 PUSH1 0x4 DUP1 CALLDATASIZE SUB DUP2 ADD SWAP1 PUSH2 0x15D SWAP2 SWAP1 PUSH2 0x1A09 JUMP JUMPDEST PUSH2 0x4E4 JUMP JUMPDEST PUSH1 0x40 MLOAD PUSH2 0x16F SWAP2 SWAP1 PUSH2 0x1CAB JUMP JUMPDEST PUSH1 0x40 MLOAD DUP1 SWAP2 SUB SWAP1 RETURN JUMPDEST PUSH2 0x192 PUSH1 0x4 DUP1 CALLDATASIZE SUB DUP2 ADD SWAP1 PUSH2 0x18D SWAP2 SWAP1 PUSH2 0x196F JUMP JUMPDEST PUSH2 0x5C3 JUMP JUMPDEST STOP JUMPDEST PUSH2 0x1AE PUSH1 0x4 DUP1 CALLDATASIZE SUB DUP2 ADD SWAP1 PUSH2 0x1A9 SWAP2 SWAP1 PUSH2 0x1859 JUMP JUMPDEST PUSH2 0x70A JUMP JUMPDEST STOP JUMPDEST PUSH2 0x1CA PUSH1 0x4 DUP1 CALLDATASIZE SUB DUP2 ADD SWAP1 PUSH2 0x1C5 SWAP2 SWAP1 PUSH2 0x196F JUMP JUMPDEST PUSH2 0x773 JUMP JUMPDEST STOP JUMPDEST PUSH2 0x1E6 PUSH1 0x4 DUP1 CALLDATASIZE SUB DUP2 ADD SWAP1 PUSH2 0x1E1 SWAP2 SWAP1 PUSH2 0x1859 JUMP JUMPDEST PUSH2 0x7D2 JUMP JUMPDEST STOP JUMPDEST PUSH2 0x202 PUSH1 0x4 DUP1 CALLDATASIZE SUB DUP2 ADD SWAP1 PUSH2 0x1FD SWAP2 SWAP1 PUSH2 0x1A09 JUMP JUMPDEST PUSH2 0x7F2 JUMP JUMPDEST PUSH1 0x40 MLOAD PUSH2 0x20F SWAP2 SWAP1 PUSH2 0x1CAB JUMP JUMPDEST PUSH1 0x40 MLOAD DUP1 SWAP2 SUB SWAP1 RETURN JUMPDEST PUSH2 0x232 PUSH1 0x4 DUP1 CALLDATASIZE SUB DUP2 ADD SWAP1 PUSH2 0x22D SWAP2 SWAP1 PUSH2 0x17EC JUMP JUMPDEST PUSH2 0x89F JUMP JUMPDEST PUSH1 0x40 MLOAD PUSH2 0x23F SWAP2 SWAP1 PUSH2 0x1EAF JUMP JUMPDEST PUSH1 0x40 MLOAD DUP1 SWAP2 SUB SWAP1 RETURN JUMPDEST PUSH2 0x250 PUSH2 0x957 JUMP JUMPDEST PUSH1 0x40 MLOAD PUSH2 0x25D SWAP2 SWAP1 PUSH2 0x1D2D JUMP JUMPDEST PUSH1 0x40 MLOAD DUP1 SWAP2 SUB SWAP1 RETURN JUMPDEST PUSH2 0x280 PUSH1 0x4 DUP1 CALLDATASIZE SUB DUP2 ADD SWAP1 PUSH2 0x27B SWAP2 SWAP1 PUSH2 0x192F JUMP JUMPDEST PUSH2 0x9E5 JUMP JUMPDEST STOP JUMPDEST PUSH2 0x29C PUSH1 0x4 DUP1 CALLDATASIZE SUB DUP2 ADD SWAP1 PUSH2 0x297 SWAP2 SWAP1 PUSH2 0x18AC JUMP JUMPDEST PUSH2 0xAE2 JUMP JUMPDEST STOP JUMPDEST PUSH2 0x2A6 PUSH2 0xB4D JUMP JUMPDEST PUSH1 0x40 MLOAD PUSH2 0x2B3 SWAP2 SWAP1 PUSH2 0x1EAF JUMP JUMPDEST PUSH1 0x40 MLOAD DUP1 SWAP2 SUB SWAP1 RETURN JUMPDEST PUSH2 0x2D6 PUSH1 0x4 DUP1 CALLDATASIZE SUB DUP2 ADD SWAP1 PUSH2 0x2D1 SWAP2 SWAP1 PUSH2 0x1A09 JUMP JUMPDEST PUSH2 0xB53 JUMP JUMPDEST PUSH1 0x40 MLOAD PUSH2 0x2E3 SWAP2 SWAP1 PUSH2 0x1D2D JUMP JUMPDEST PUSH1 0x40 MLOAD DUP1 SWAP2 SUB SWAP1 RETURN JUMPDEST PUSH2 0x306 PUSH1 0x4 DUP1 CALLDATASIZE SUB DUP2 ADD SWAP1 PUSH2 0x301 SWAP2 SWAP1 PUSH2 0x1819 JUMP JUMPDEST PUSH2 0xC55 JUMP JUMPDEST PUSH1 0x40 MLOAD PUSH2 0x313 SWAP2 SWAP1 PUSH2 0x1D12 JUMP JUMPDEST PUSH1 0x40 MLOAD DUP1 SWAP2 SUB SWAP1 RETURN JUMPDEST PUSH1 0x0 PUSH32 0x80AC58CD00000000000000000000000000000000000000000000000000000000 PUSH28 0xFFFFFFFFFFFFFFFFFFFFFFFFFFFFFFFFFFFFFFFFFFFFFFFFFFFFFFFF NOT AND DUP3 PUSH28 0xFFFFFFFFFFFFFFFFFFFFFFFFFFFFFFFFFFFFFFFFFFFFFFFFFFFFFFFF NOT AND EQ DUP1 PUSH2 0x3E7 JUMPI POP PUSH32 0x1FFC9A700000000000000000000000000000000000000000000000000000000 PUSH28 0xFFFFFFFFFFFFFFFFFFFFFFFFFFFFFFFFFFFFFFFFFFFFFFFFFFFFFFFF NOT AND DUP3 PUSH28 0xFFFFFFFFFFFFFFFFFFFFFFFFFFFFFFFFFFFFFFFFFFFFFFFFFFFFFFFF NOT AND EQ JUMPDEST DUP1 PUSH2 0x44F JUMPI POP PUSH32 0x5B5E139F00000000000000000000000000000000000000000000000000000000 PUSH28 0xFFFFFFFFFFFFFFFFFFFFFFFFFFFFFFFFFFFFFFFFFFFFFFFFFFFFFFFF NOT AND DUP3 PUSH28 0xFFFFFFFFFFFFFFFFFFFFFFFFFFFFFFFFFFFFFFFFFFFFFFFFFFFFFFFF NOT AND EQ JUMPDEST SWAP1 POP SWAP2 SWAP1 POP JUMP JUMPDEST PUSH1 0x0 DUP1 SLOAD PUSH2 0x463 SWAP1 PUSH2 0x20A3 JUMP JUMPDEST DUP1 PUSH1 0x1F ADD PUSH1 0x20 DUP1 SWAP2 DIV MUL PUSH1 0x20 ADD PUSH1 0x40 MLOAD SWAP1 DUP2 ADD PUSH1 0x40 MSTORE DUP1 SWAP3 SWAP2 SWAP1 DUP2 DUP2 MSTORE PUSH1 0x20 ADD DUP3 DUP1 SLOAD PUSH2 0x48F SWAP1 PUSH2 0x20A3 JUMP JUMPDEST DUP1 ISZERO PUSH2 0x4DC JUMPI DUP1 PUSH1 0x1F LT PUSH2 0x4B1 JUMPI PUSH2 0x100 DUP1 DUP4 SLOAD DIV MUL DUP4 MSTORE SWAP2 PUSH1 0x20 ADD SWAP2 PUSH2 0x4DC JUMP JUMPDEST DUP3 ADD SWAP2 SWAP1 PUSH1 0x0 MSTORE PUSH1 0x20 PUSH1 0x0 KECCAK256 SWAP1 JUMPDEST DUP2 SLOAD DUP2 MSTORE SWAP1 PUSH1 0x1 ADD SWAP1 PUSH1 0x20 ADD DUP1 DUP4 GT PUSH2 0x4BF JUMPI DUP3 SWAP1 SUB PUSH1 0x1F AND DUP3 ADD SWAP2 JUMPDEST POP POP POP POP POP DUP2 JUMP JUMPDEST PUSH1 0x0 DUP1 PUSH20 0xFFFFFFFFFFFFFFFFFFFFFFFFFFFFFFFFFFFFFFFF AND PUSH1 0x2 PUSH1 0x0 DUP5 DUP2 MSTORE PUSH1 0x20 ADD SWAP1 DUP2 MSTORE PUSH1 0x20 ADD PUSH1 0x0 KECCAK256 PUSH1 0x0 SWAP1 SLOAD SWAP1 PUSH2 0x100 EXP SWAP1 DIV PUSH20 0xFFFFFFFFFFFFFFFFFFFFFFFFFFFFFFFFFFFFFFFF AND PUSH20 0xFFFFFFFFFFFFFFFFFFFFFFFFFFFFFFFFFFFFFFFF AND EQ ISZERO PUSH2 0x588 JUMPI PUSH1 0x40 MLOAD PUSH32 0x8C379A000000000000000000000000000000000000000000000000000000000 DUP2 MSTORE PUSH1 0x4 ADD PUSH2 0x57F SWAP1 PUSH2 0x1DEF JUMP JUMPDEST PUSH1 0x40 MLOAD DUP1 SWAP2 SUB SWAP1 REVERT JUMPDEST PUSH1 0x4 PUSH1 0x0 DUP4 DUP2 MSTORE PUSH1 0x20 ADD SWAP1 DUP2 MSTORE PUSH1 0x20 ADD PUSH1 0x0 KECCAK256 PUSH1 0x0 SWAP1 SLOAD SWAP1 PUSH2 0x100 EXP SWAP1 DIV PUSH20 0xFFFFFFFFFFFFFFFFFFFFFFFFFFFFFFFFFFFFFFFF AND SWAP1 POP SWAP2 SWAP1 POP JUMP JUMPDEST PUSH1 0x0 PUSH1 0x2 PUSH1 0x0 DUP4 DUP2 MSTORE PUSH1 0x20 ADD SWAP1 DUP2 MSTORE PUSH1 0x20 ADD PUSH1 0x0 KECCAK256 PUSH1 0x0 SWAP1 SLOAD SWAP1 PUSH2 0x100 EXP SWAP1 DIV PUSH20 0xFFFFFFFFFFFFFFFFFFFFFFFFFFFFFFFFFFFFFFFF AND SWAP1 POP DUP1 PUSH20 0xFFFFFFFFFFFFFFFFFFFFFFFFFFFFFFFFFFFFFFFF AND CALLER PUSH20 0xFFFFFFFFFFFFFFFFFFFFFFFFFFFFFFFFFFFFFFFF AND EQ DUP1 PUSH2 0x6BB JUMPI POP PUSH1 0x5 PUSH1 0x0 DUP3 PUSH20 0xFFFFFFFFFFFFFFFFFFFFFFFFFFFFFFFFFFFFFFFF AND PUSH20 0xFFFFFFFFFFFFFFFFFFFFFFFFFFFFFFFFFFFFFFFF AND DUP2 MSTORE PUSH1 0x20 ADD SWAP1 DUP2 MSTORE PUSH1 0x20 ADD PUSH1 0x0 KECCAK256 PUSH1 0x0 CALLER PUSH20 0xFFFFFFFFFFFFFFFFFFFFFFFFFFFFFFFFFFFFFFFF AND PUSH20 0xFFFFFFFFFFFFFFFFFFFFFFFFFFFFFFFFFFFFFFFF AND DUP2 MSTORE PUSH1 0x20 ADD SWAP1 DUP2 MSTORE PUSH1 0x20 ADD PUSH1 0x0 KECCAK256 PUSH1 0x0 SWAP1 SLOAD SWAP1 PUSH2 0x100 EXP SWAP1 DIV PUSH1 0xFF AND JUMPDEST PUSH2 0x6FA JUMPI PUSH1 0x40 MLOAD PUSH32 0x8C379A000000000000000000000000000000000000000000000000000000000 DUP2 MSTORE PUSH1 0x4 ADD PUSH2 0x6F1 SWAP1 PUSH2 0x1DAF JUMP JUMPDEST PUSH1 0x40 MLOAD DUP1 SWAP2 SUB SWAP1 REVERT JUMPDEST PUSH2 0x705 DUP2 DUP5 DUP5 PUSH2 0xCE9 JUMP JUMPDEST POP POP POP JUMP JUMPDEST PUSH1 0x0 PUSH2 0x715 DUP3 PUSH2 0x7F2 JUMP JUMPDEST SWAP1 POP PUSH2 0x722 DUP2 CALLER DUP5 PUSH2 0xD9B JUMP JUMPDEST PUSH2 0x761 JUMPI PUSH1 0x40 MLOAD PUSH32 0x8C379A000000000000000000000000000000000000000000000000000000000 DUP2 MSTORE PUSH1 0x4 ADD PUSH2 0x758 SWAP1 PUSH2 0x1D6F JUMP JUMPDEST PUSH1 0x40 MLOAD DUP1 SWAP2 SUB SWAP1 REVERT JUMPDEST PUSH2 0x76D DUP2 DUP6 DUP6 DUP6 PUSH2 0xECF JUMP JUMPDEST POP POP POP POP JUMP JUMPDEST PUSH1 0x0 DUP2 LT ISZERO DUP1 ISZERO PUSH2 0x785 JUMPI POP PUSH1 0x6 SLOAD DUP2 LT JUMPDEST PUSH2 0x7C4 JUMPI PUSH1 0x40 MLOAD PUSH32 0x8C379A000000000000000000000000000000000000000000000000000000000 DUP2 MSTORE PUSH1 0x4 ADD PUSH2 0x7BB SWAP1 PUSH2 0x1D4F JUMP JUMPDEST PUSH1 0x40 MLOAD DUP1 SWAP2 SUB SWAP1 REVERT JUMPDEST PUSH2 0x7CE DUP3 DUP3 PUSH2 0x111A JUMP JUMPDEST POP POP JUMP JUMPDEST PUSH2 0x7ED DUP4 DUP4 DUP4 PUSH1 0x40 MLOAD DUP1 PUSH1 0x20 ADD PUSH1 0x40 MSTORE DUP1 PUSH1 0x0 DUP2 MSTORE POP PUSH2 0xAE2 JUMP JUMPDEST POP POP POP JUMP JUMPDEST PUSH1 0x0 PUSH1 0x2 PUSH1 0x0 DUP4 DUP2 MSTORE PUSH1 0x20 ADD SWAP1 DUP2 MSTORE PUSH1 0x20 ADD PUSH1 0x0 KECCAK256 PUSH1 0x0 SWAP1 SLOAD SWAP1 PUSH2 0x100 EXP SWAP1 DIV PUSH20 0xFFFFFFFFFFFFFFFFFFFFFFFFFFFFFFFFFFFFFFFF AND SWAP1 POP PUSH1 0x0 PUSH20 0xFFFFFFFFFFFFFFFFFFFFFFFFFFFFFFFFFFFFFFFF AND DUP2 PUSH20 0xFFFFFFFFFFFFFFFFFFFFFFFFFFFFFFFFFFFFFFFF AND EQ ISZERO PUSH2 0x89A JUMPI PUSH1 0x40 MLOAD PUSH32 0x8C379A000000000000000000000000000000000000000000000000000000000 DUP2 MSTORE PUSH1 0x4 ADD PUSH2 0x891 SWAP1 PUSH2 0x1DEF JUMP JUMPDEST PUSH1 0x40 MLOAD DUP1 SWAP2 SUB SWAP1 REVERT JUMPDEST SWAP2 SWAP1 POP JUMP JUMPDEST PUSH1 0x0 DUP1 PUSH20 0xFFFFFFFFFFFFFFFFFFFFFFFFFFFFFFFFFFFFFFFF AND DUP3 PUSH20 0xFFFFFFFFFFFFFFFFFFFFFFFFFFFFFFFFFFFFFFFF AND EQ ISZERO PUSH2 0x910 JUMPI PUSH1 0x40 MLOAD PUSH32 0x8C379A000000000000000000000000000000000000000000000000000000000 DUP2 MSTORE PUSH1 0x4 ADD PUSH2 0x907 SWAP1 PUSH2 0x1E0F JUMP JUMPDEST PUSH1 0x40 MLOAD DUP1 SWAP2 SUB SWAP1 REVERT JUMPDEST PUSH1 0x3 PUSH1 0x0 DUP4 PUSH20 0xFFFFFFFFFFFFFFFFFFFFFFFFFFFFFFFFFFFFFFFF AND PUSH20 0xFFFFFFFFFFFFFFFFFFFFFFFFFFFFFFFFFFFFFFFF AND DUP2 MSTORE PUSH1 0x20 ADD SWAP1 DUP2 MSTORE PUSH1 0x20 ADD PUSH1 0x0 KECCAK256 SLOAD SWAP1 POP SWAP2 SWAP1 POP JUMP JUMPDEST PUSH1 0x1 DUP1 SLOAD PUSH2 0x964 SWAP1 PUSH2 0x20A3 JUMP JUMPDEST DUP1 PUSH1 0x1F ADD PUSH1 0x20 DUP1 SWAP2 DIV MUL PUSH1 0x20 ADD PUSH1 0x40 MLOAD SWAP1 DUP2 ADD PUSH1 0x40 MSTORE DUP1 SWAP3 SWAP2 SWAP1 DUP2 DUP2 MSTORE PUSH1 0x20 ADD DUP3 DUP1 SLOAD PUSH2 0x990 SWAP1 PUSH2 0x20A3 JUMP JUMPDEST DUP1 ISZERO PUSH2 0x9DD JUMPI DUP1 PUSH1 0x1F LT PUSH2 0x9B2 JUMPI PUSH2 0x100 DUP1 DUP4 SLOAD DIV MUL DUP4 MSTORE SWAP2 PUSH1 0x20 ADD SWAP2 PUSH2 0x9DD JUMP JUMPDEST DUP3 ADD SWAP2 SWAP1 PUSH1 0x0 MSTORE PUSH1 0x20 PUSH1 0x0 KECCAK256 SWAP1 JUMPDEST DUP2 SLOAD DUP2 MSTORE SWAP1 PUSH1 0x1 ADD SWAP1 PUSH1 0x20 ADD DUP1 DUP4 GT PUSH2 0x9C0 JUMPI DUP3 SWAP1 SUB PUSH1 0x1F AND DUP3 ADD SWAP2 JUMPDEST POP POP POP POP POP DUP2 JUMP JUMPDEST DUP1 PUSH1 0x5 PUSH1 0x0 CALLER PUSH20 0xFFFFFFFFFFFFFFFFFFFFFFFFFFFFFFFFFFFFFFFF AND PUSH20 0xFFFFFFFFFFFFFFFFFFFFFFFFFFFFFFFFFFFFFFFF AND DUP2 MSTORE PUSH1 0x20 ADD SWAP1 DUP2 MSTORE PUSH1 0x20 ADD PUSH1 0x0 KECCAK256 PUSH1 0x0 DUP5 PUSH20 0xFFFFFFFFFFFFFFFFFFFFFFFFFFFFFFFFFFFFFFFF AND PUSH20 0xFFFFFFFFFFFFFFFFFFFFFFFFFFFFFFFFFFFFFFFF AND DUP2 MSTORE PUSH1 0x20 ADD SWAP1 DUP2 MSTORE PUSH1 0x20 ADD PUSH1 0x0 KECCAK256 PUSH1 0x0 PUSH2 0x100 EXP DUP2 SLOAD DUP2 PUSH1 0xFF MUL NOT AND SWAP1 DUP4 ISZERO ISZERO MUL OR SWAP1 SSTORE POP DUP2 PUSH20 0xFFFFFFFFFFFFFFFFFFFFFFFFFFFFFFFFFFFFFFFF AND CALLER PUSH20 0xFFFFFFFFFFFFFFFFFFFFFFFFFFFFFFFFFFFFFFFF AND PUSH32 0x17307EAB39AB6107E8899845AD3D59BD9653F200F220920489CA2B5937696C31 DUP4 PUSH1 0x40 MLOAD PUSH2 0xAD6 SWAP2 SWAP1 PUSH2 0x1D12 JUMP JUMPDEST PUSH1 0x40 MLOAD DUP1 SWAP2 SUB SWAP1 LOG3 POP POP JUMP JUMPDEST PUSH1 0x0 PUSH2 0xAED DUP4 PUSH2 0x7F2 JUMP JUMPDEST SWAP1 POP PUSH2 0xAFA DUP2 CALLER DUP6 PUSH2 0xD9B JUMP JUMPDEST PUSH2 0xB39 JUMPI PUSH1 0x40 MLOAD PUSH32 0x8C379A000000000000000000000000000000000000000000000000000000000 DUP2 MSTORE PUSH1 0x4 ADD PUSH2 0xB30 SWAP1 PUSH2 0x1D6F JUMP JUMPDEST PUSH1 0x40 MLOAD DUP1 SWAP2 SUB SWAP1 REVERT JUMPDEST PUSH2 0xB46 DUP2 DUP7 DUP7 DUP7 DUP7 PUSH2 0x1335 JUMP JUMPDEST POP POP POP POP POP JUMP JUMPDEST PUSH1 0x6 SLOAD DUP2 JUMP JUMPDEST PUSH1 0x60 PUSH1 0x0 PUSH20 0xFFFFFFFFFFFFFFFFFFFFFFFFFFFFFFFFFFFFFFFF AND PUSH1 0x2 PUSH1 0x0 DUP5 DUP2 MSTORE PUSH1 0x20 ADD SWAP1 DUP2 MSTORE PUSH1 0x20 ADD PUSH1 0x0 KECCAK256 PUSH1 0x0 SWAP1 SLOAD SWAP1 PUSH2 0x100 EXP SWAP1 DIV PUSH20 0xFFFFFFFFFFFFFFFFFFFFFFFFFFFFFFFFFFFFFFFF AND PUSH20 0xFFFFFFFFFFFFFFFFFFFFFFFFFFFFFFFFFFFFFFFF AND EQ ISZERO PUSH2 0xBF8 JUMPI PUSH1 0x40 MLOAD PUSH32 0x8C379A000000000000000000000000000000000000000000000000000000000 DUP2 MSTORE PUSH1 0x4 ADD PUSH2 0xBEF SWAP1 PUSH2 0x1E2F JUMP JUMPDEST PUSH1 0x40 MLOAD DUP1 SWAP2 SUB SWAP1 REVERT JUMPDEST PUSH1 0x0 PUSH2 0xC02 PUSH2 0x1393 JUMP JUMPDEST SWAP1 POP PUSH1 0x0 DUP2 MLOAD GT PUSH2 0xC22 JUMPI PUSH1 0x40 MLOAD DUP1 PUSH1 0x20 ADD PUSH1 0x40 MSTORE DUP1 PUSH1 0x0 DUP2 MSTORE POP PUSH2 0xC4D JUMP JUMPDEST DUP1 PUSH2 0xC2C DUP5 PUSH2 0x13B3 JUMP JUMPDEST PUSH1 0x40 MLOAD PUSH1 0x20 ADD PUSH2 0xC3D SWAP3 SWAP2 SWAP1 PUSH2 0x1C87 JUMP JUMPDEST PUSH1 0x40 MLOAD PUSH1 0x20 DUP2 DUP4 SUB SUB DUP2 MSTORE SWAP1 PUSH1 0x40 MSTORE JUMPDEST SWAP2 POP POP SWAP2 SWAP1 POP JUMP JUMPDEST PUSH1 0x0 PUSH1 0x5 PUSH1 0x0 DUP5 PUSH20 0xFFFFFFFFFFFFFFFFFFFFFFFFFFFFFFFFFFFFFFFF AND PUSH20 0xFFFFFFFFFFFFFFFFFFFFFFFFFFFFFFFFFFFFFFFF AND DUP2 MSTORE PUSH1 0x20 ADD SWAP1 DUP2 MSTORE PUSH1 0x20 ADD PUSH1 0x0 KECCAK256 PUSH1 0x0 DUP4 PUSH20 0xFFFFFFFFFFFFFFFFFFFFFFFFFFFFFFFFFFFFFFFF AND PUSH20 0xFFFFFFFFFFFFFFFFFFFFFFFFFFFFFFFFFFFFFFFF AND DUP2 MSTORE PUSH1 0x20 ADD SWAP1 DUP2 MSTORE PUSH1 0x20 ADD PUSH1 0x0 KECCAK256 PUSH1 0x0 SWAP1 SLOAD SWAP1 PUSH2 0x100 EXP SWAP1 DIV PUSH1 0xFF AND SWAP1 POP SWAP3 SWAP2 POP POP JUMP JUMPDEST DUP2 PUSH1 0x4 PUSH1 0x0 DUP4 DUP2 MSTORE PUSH1 0x20 ADD SWAP1 DUP2 MSTORE PUSH1 0x20 ADD PUSH1 0x0 KECCAK256 PUSH1 0x0 PUSH2 0x100 EXP DUP2 SLOAD DUP2 PUSH20 0xFFFFFFFFFFFFFFFFFFFFFFFFFFFFFFFFFFFFFFFF MUL NOT AND SWAP1 DUP4 PUSH20 0xFFFFFFFFFFFFFFFFFFFFFFFFFFFFFFFFFFFFFFFF AND MUL OR SWAP1 SSTORE POP DUP1 DUP3 PUSH20 0xFFFFFFFFFFFFFFFFFFFFFFFFFFFFFFFFFFFFFFFF AND DUP5 PUSH20 0xFFFFFFFFFFFFFFFFFFFFFFFFFFFFFFFFFFFFFFFF AND PUSH32 0x8C5BE1E5EBEC7D5BD14F71427D1E84F3DD0314C0F7B2291E5B200AC8C7C3B925 PUSH1 0x40 MLOAD PUSH1 0x40 MLOAD DUP1 SWAP2 SUB SWAP1 LOG4 POP POP POP JUMP JUMPDEST PUSH1 0x0 DUP4 PUSH20 0xFFFFFFFFFFFFFFFFFFFFFFFFFFFFFFFFFFFFFFFF AND DUP4 PUSH20 0xFFFFFFFFFFFFFFFFFFFFFFFFFFFFFFFFFFFFFFFF AND EQ DUP1 PUSH2 0xE35 JUMPI POP DUP3 PUSH20 0xFFFFFFFFFFFFFFFFFFFFFFFFFFFFFFFFFFFFFFFF AND PUSH1 0x4 PUSH1 0x0 DUP5 DUP2 MSTORE PUSH1 0x20 ADD SWAP1 DUP2 MSTORE PUSH1 0x20 ADD PUSH1 0x0 KECCAK256 PUSH1 0x0 SWAP1 SLOAD SWAP1 PUSH2 0x100 EXP SWAP1 DIV PUSH20 0xFFFFFFFFFFFFFFFFFFFFFFFFFFFFFFFFFFFFFFFF AND PUSH20 0xFFFFFFFFFFFFFFFFFFFFFFFFFFFFFFFFFFFFFFFF AND EQ JUMPDEST DUP1 PUSH2 0xEC6 JUMPI POP PUSH1 0x5 PUSH1 0x0 DUP6 PUSH20 0xFFFFFFFFFFFFFFFFFFFFFFFFFFFFFFFFFFFFFFFF AND PUSH20 0xFFFFFFFFFFFFFFFFFFFFFFFFFFFFFFFFFFFFFFFF AND DUP2 MSTORE PUSH1 0x20 ADD SWAP1 DUP2 MSTORE PUSH1 0x20 ADD PUSH1 0x0 KECCAK256 PUSH1 0x0 DUP5 PUSH20 0xFFFFFFFFFFFFFFFFFFFFFFFFFFFFFFFFFFFFFFFF AND PUSH20 0xFFFFFFFFFFFFFFFFFFFFFFFFFFFFFFFFFFFFFFFF AND DUP2 MSTORE PUSH1 0x20 ADD SWAP1 DUP2 MSTORE PUSH1 0x20 ADD PUSH1 0x0 KECCAK256 PUSH1 0x0 SWAP1 SLOAD SWAP1 PUSH2 0x100 EXP SWAP1 DIV PUSH1 0xFF AND JUMPDEST SWAP1 POP SWAP4 SWAP3 POP POP POP JUMP JUMPDEST DUP4 PUSH20 0xFFFFFFFFFFFFFFFFFFFFFFFFFFFFFFFFFFFFFFFF AND DUP4 PUSH20 0xFFFFFFFFFFFFFFFFFFFFFFFFFFFFFFFFFFFFFFFF AND EQ PUSH2 0xF3D JUMPI PUSH1 0x40 MLOAD PUSH32 0x8C379A000000000000000000000000000000000000000000000000000000000 DUP2 MSTORE PUSH1 0x4 ADD PUSH2 0xF34 SWAP1 PUSH2 0x1E8F JUMP JUMPDEST PUSH1 0x40 MLOAD DUP1 SWAP2 SUB SWAP1 REVERT JUMPDEST PUSH1 0x0 PUSH20 0xFFFFFFFFFFFFFFFFFFFFFFFFFFFFFFFFFFFFFFFF AND DUP3 PUSH20 0xFFFFFFFFFFFFFFFFFFFFFFFFFFFFFFFFFFFFFFFF AND EQ ISZERO PUSH2 0xFAD JUMPI PUSH1 0x40 MLOAD PUSH32 0x8C379A000000000000000000000000000000000000000000000000000000000 DUP2 MSTORE PUSH1 0x4 ADD PUSH2 0xFA4 SWAP1 PUSH2 0x1D8F JUMP JUMPDEST PUSH1 0x40 MLOAD DUP1 SWAP2 SUB SWAP1 REVERT JUMPDEST PUSH2 0xFB9 DUP5 PUSH1 0x0 DUP4 PUSH2 0xCE9 JUMP JUMPDEST PUSH1 0x1 PUSH1 0x3 PUSH1 0x0 DUP6 PUSH20 0xFFFFFFFFFFFFFFFFFFFFFFFFFFFFFFFFFFFFFFFF AND PUSH20 0xFFFFFFFFFFFFFFFFFFFFFFFFFFFFFFFFFFFFFFFF AND DUP2 MSTORE PUSH1 0x20 ADD SWAP1 DUP2 MSTORE PUSH1 0x20 ADD PUSH1 0x0 KECCAK256 PUSH1 0x0 DUP3 DUP3 SLOAD PUSH2 0x1009 SWAP2 SWAP1 PUSH2 0x1FB9 JUMP JUMPDEST SWAP3 POP POP DUP2 SWAP1 SSTORE POP PUSH1 0x1 PUSH1 0x3 PUSH1 0x0 DUP5 PUSH20 0xFFFFFFFFFFFFFFFFFFFFFFFFFFFFFFFFFFFFFFFF AND PUSH20 0xFFFFFFFFFFFFFFFFFFFFFFFFFFFFFFFFFFFFFFFF AND DUP2 MSTORE PUSH1 0x20 ADD SWAP1 DUP2 MSTORE PUSH1 0x20 ADD PUSH1 0x0 KECCAK256 PUSH1 0x0 DUP3 DUP3 SLOAD PUSH2 0x1060 SWAP2 SWAP1 PUSH2 0x1F63 JUMP JUMPDEST SWAP3 POP POP DUP2 SWAP1 SSTORE POP DUP2 PUSH1 0x2 PUSH1 0x0 DUP4 DUP2 MSTORE PUSH1 0x20 ADD SWAP1 DUP2 MSTORE PUSH1 0x20 ADD PUSH1 0x0 KECCAK256 PUSH1 0x0 PUSH2 0x100 EXP DUP2 SLOAD DUP2 PUSH20 0xFFFFFFFFFFFFFFFFFFFFFFFFFFFFFFFFFFFFFFFF MUL NOT AND SWAP1 DUP4 PUSH20 0xFFFFFFFFFFFFFFFFFFFFFFFFFFFFFFFFFFFFFFFF AND MUL OR SWAP1 SSTORE POP DUP1 DUP3 PUSH20 0xFFFFFFFFFFFFFFFFFFFFFFFFFFFFFFFFFFFFFFFF AND DUP5 PUSH20 0xFFFFFFFFFFFFFFFFFFFFFFFFFFFFFFFFFFFFFFFF AND PUSH32 0xDDF252AD1BE2C89B69C2B068FC378DAA952BA7F163C4A11628F55A4DF523B3EF PUSH1 0x40 MLOAD PUSH1 0x40 MLOAD DUP1 SWAP2 SUB SWAP1 LOG4 POP POP POP POP JUMP JUMPDEST PUSH1 0x0 PUSH20 0xFFFFFFFFFFFFFFFFFFFFFFFFFFFFFFFFFFFFFFFF AND DUP3 PUSH20 0xFFFFFFFFFFFFFFFFFFFFFFFFFFFFFFFFFFFFFFFF AND EQ ISZERO PUSH2 0x118A JUMPI PUSH1 0x40 MLOAD PUSH32 0x8C379A000000000000000000000000000000000000000000000000000000000 DUP2 MSTORE PUSH1 0x4 ADD PUSH2 0x1181 SWAP1 PUSH2 0x1DCF JUMP JUMPDEST PUSH1 0x40 MLOAD DUP1 SWAP2 SUB SWAP1 REVERT JUMPDEST PUSH1 0x0 PUSH20 0xFFFFFFFFFFFFFFFFFFFFFFFFFFFFFFFFFFFFFFFF AND PUSH1 0x2 PUSH1 0x0 DUP4 DUP2 MSTORE PUSH1 0x20 ADD SWAP1 DUP2 MSTORE PUSH1 0x20 ADD PUSH1 0x0 KECCAK256 PUSH1 0x0 SWAP1 SLOAD SWAP1 PUSH2 0x100 EXP SWAP1 DIV PUSH20 0xFFFFFFFFFFFFFFFFFFFFFFFFFFFFFFFFFFFFFFFF AND PUSH20 0xFFFFFFFFFFFFFFFFFFFFFFFFFFFFFFFFFFFFFFFF AND EQ PUSH2 0x122C JUMPI PUSH1 0x40 MLOAD PUSH32 0x8C379A000000000000000000000000000000000000000000000000000000000 DUP2 MSTORE PUSH1 0x4 ADD PUSH2 0x1223 SWAP1 PUSH2 0x1E4F JUMP JUMPDEST PUSH1 0x40 MLOAD DUP1 SWAP2 SUB SWAP1 REVERT JUMPDEST PUSH1 0x1 PUSH1 0x3 PUSH1 0x0 DUP5 PUSH20 0xFFFFFFFFFFFFFFFFFFFFFFFFFFFFFFFFFFFFFFFF AND PUSH20 0xFFFFFFFFFFFFFFFFFFFFFFFFFFFFFFFFFFFFFFFF AND DUP2 MSTORE PUSH1 0x20 ADD SWAP1 DUP2 MSTORE PUSH1 0x20 ADD PUSH1 0x0 KECCAK256 PUSH1 0x0 DUP3 DUP3 SLOAD PUSH2 0x127C SWAP2 SWAP1 PUSH2 0x1F63 JUMP JUMPDEST SWAP3 POP POP DUP2 SWAP1 SSTORE POP DUP2 PUSH1 0x2 PUSH1 0x0 DUP4 DUP2 MSTORE PUSH1 0x20 ADD SWAP1 DUP2 MSTORE PUSH1 0x20 ADD PUSH1 0x0 KECCAK256 PUSH1 0x0 PUSH2 0x100 EXP DUP2 SLOAD DUP2 PUSH20 0xFFFFFFFFFFFFFFFFFFFFFFFFFFFFFFFFFFFFFFFF MUL NOT AND SWAP1 DUP4 PUSH20 0xFFFFFFFFFFFFFFFFFFFFFFFFFFFFFFFFFFFFFFFF AND MUL OR SWAP1 SSTORE POP DUP1 DUP3 PUSH20 0xFFFFFFFFFFFFFFFFFFFFFFFFFFFFFFFFFFFFFFFF AND PUSH1 0x0 PUSH20 0xFFFFFFFFFFFFFFFFFFFFFFFFFFFFFFFFFFFFFFFF AND PUSH32 0xDDF252AD1BE2C89B69C2B068FC378DAA952BA7F163C4A11628F55A4DF523B3EF PUSH1 0x40 MLOAD PUSH1 0x40 MLOAD DUP1 SWAP2 SUB SWAP1 LOG4 POP POP JUMP JUMPDEST PUSH2 0x1341 DUP6 DUP6 DUP6 DUP6 PUSH2 0xECF JUMP JUMPDEST PUSH2 0x134D DUP5 DUP5 DUP5 DUP5 PUSH2 0x148B JUMP JUMPDEST PUSH2 0x138C JUMPI PUSH1 0x40 MLOAD PUSH32 0x8C379A000000000000000000000000000000000000000000000000000000000 DUP2 MSTORE PUSH1 0x4 ADD PUSH2 0x1383 SWAP1 PUSH2 0x1E6F JUMP JUMPDEST PUSH1 0x40 MLOAD DUP1 SWAP2 SUB SWAP1 REVERT JUMPDEST POP POP POP POP POP JUMP JUMPDEST PUSH1 0x60 PUSH1 0x40 MLOAD DUP1 PUSH1 0x60 ADD PUSH1 0x40 MSTORE DUP1 PUSH1 0x36 DUP2 MSTORE PUSH1 0x20 ADD PUSH2 0x2407 PUSH1 0x36 SWAP2 CODECOPY SWAP1 POP SWAP1 JUMP JUMPDEST PUSH1 0x60 PUSH1 0x0 PUSH1 0x1 PUSH2 0x13C2 DUP5 PUSH2 0x159D JUMP JUMPDEST ADD SWAP1 POP PUSH1 0x0 DUP2 PUSH8 0xFFFFFFFFFFFFFFFF DUP2 GT ISZERO PUSH2 0x13E1 JUMPI PUSH2 0x13E0 PUSH2 0x2193 JUMP JUMPDEST JUMPDEST PUSH1 0x40 MLOAD SWAP1 DUP1 DUP3 MSTORE DUP1 PUSH1 0x1F ADD PUSH1 0x1F NOT AND PUSH1 0x20 ADD DUP3 ADD PUSH1 0x40 MSTORE DUP1 ISZERO PUSH2 0x1413 JUMPI DUP2 PUSH1 0x20 ADD PUSH1 0x1 DUP3 MUL DUP1 CALLDATASIZE DUP4 CALLDATACOPY DUP1 DUP3 ADD SWAP2 POP POP SWAP1 POP JUMPDEST POP SWAP1 POP PUSH1 0x0 DUP3 PUSH1 0x20 ADD DUP3 ADD SWAP1 POP JUMPDEST PUSH1 0x1 ISZERO PUSH2 0x1480 JUMPI DUP1 DUP1 PUSH1 0x1 SWAP1 SUB SWAP2 POP POP PUSH32 0x3031323334353637383961626364656600000000000000000000000000000000 PUSH1 0xA DUP7 MOD BYTE DUP2 MSTORE8 PUSH1 0xA DUP6 DUP2 PUSH2 0x146A JUMPI PUSH2 0x1469 PUSH2 0x2135 JUMP JUMPDEST JUMPDEST DIV SWAP5 POP PUSH1 0x0 DUP6 EQ ISZERO PUSH2 0x147B JUMPI PUSH2 0x1480 JUMP JUMPDEST PUSH2 0x1421 JUMP JUMPDEST DUP2 SWAP4 POP POP POP POP SWAP2 SWAP1 POP JUMP JUMPDEST PUSH1 0x0 PUSH2 0x14AC DUP5 PUSH20 0xFFFFFFFFFFFFFFFFFFFFFFFFFFFFFFFFFFFFFFFF AND PUSH2 0x16F0 JUMP JUMPDEST ISZERO PUSH2 0x1590 JUMPI PUSH4 0x150B7A02 PUSH1 0xE0 SHL PUSH28 0xFFFFFFFFFFFFFFFFFFFFFFFFFFFFFFFFFFFFFFFFFFFFFFFFFFFFFFFF NOT AND DUP5 PUSH20 0xFFFFFFFFFFFFFFFFFFFFFFFFFFFFFFFFFFFFFFFF AND PUSH4 0x150B7A02 CALLER DUP9 DUP8 DUP8 PUSH1 0x40 MLOAD DUP6 PUSH4 0xFFFFFFFF AND PUSH1 0xE0 SHL DUP2 MSTORE PUSH1 0x4 ADD PUSH2 0x1517 SWAP5 SWAP4 SWAP3 SWAP2 SWAP1 PUSH2 0x1CC6 JUMP JUMPDEST PUSH1 0x20 PUSH1 0x40 MLOAD DUP1 DUP4 SUB DUP2 PUSH1 0x0 DUP8 DUP1 EXTCODESIZE ISZERO DUP1 ISZERO PUSH2 0x1531 JUMPI PUSH1 0x0 DUP1 REVERT JUMPDEST POP GAS CALL ISZERO DUP1 ISZERO PUSH2 0x1545 JUMPI RETURNDATASIZE PUSH1 0x0 DUP1 RETURNDATACOPY RETURNDATASIZE PUSH1 0x0 REVERT JUMPDEST POP POP POP POP PUSH1 0x40 MLOAD RETURNDATASIZE PUSH1 0x1F NOT PUSH1 0x1F DUP3 ADD AND DUP3 ADD DUP1 PUSH1 0x40 MSTORE POP DUP2 ADD SWAP1 PUSH2 0x1569 SWAP2 SWAP1 PUSH2 0x19DC JUMP JUMPDEST PUSH28 0xFFFFFFFFFFFFFFFFFFFFFFFFFFFFFFFFFFFFFFFFFFFFFFFFFFFFFFFF NOT AND EQ SWAP1 POP PUSH2 0x1595 JUMP JUMPDEST PUSH1 0x1 SWAP1 POP JUMPDEST SWAP5 SWAP4 POP POP POP POP JUMP JUMPDEST PUSH1 0x0 DUP1 PUSH1 0x0 SWAP1 POP PUSH27 0x184F03E93FF9F4DAA797ED6E38ED64BF6A1F010000000000000000 DUP4 LT PUSH2 0x15FB JUMPI PUSH27 0x184F03E93FF9F4DAA797ED6E38ED64BF6A1F010000000000000000 DUP4 DUP2 PUSH2 0x15F1 JUMPI PUSH2 0x15F0 PUSH2 0x2135 JUMP JUMPDEST JUMPDEST DIV SWAP3 POP PUSH1 0x40 DUP2 ADD SWAP1 POP JUMPDEST PUSH14 0x4EE2D6D415B85ACEF8100000000 DUP4 LT PUSH2 0x1638 JUMPI PUSH14 0x4EE2D6D415B85ACEF8100000000 DUP4 DUP2 PUSH2 0x162E JUMPI PUSH2 0x162D PUSH2 0x2135 JUMP JUMPDEST JUMPDEST DIV SWAP3 POP PUSH1 0x20 DUP2 ADD SWAP1 POP JUMPDEST PUSH7 0x2386F26FC10000 DUP4 LT PUSH2 0x1667 JUMPI PUSH7 0x2386F26FC10000 DUP4 DUP2 PUSH2 0x165D JUMPI PUSH2 0x165C PUSH2 0x2135 JUMP JUMPDEST JUMPDEST DIV SWAP3 POP PUSH1 0x10 DUP2 ADD SWAP1 POP JUMPDEST PUSH4 0x5F5E100 DUP4 LT PUSH2 0x1690 JUMPI PUSH4 0x5F5E100 DUP4 DUP2 PUSH2 0x1686 JUMPI PUSH2 0x1685 PUSH2 0x2135 JUMP JUMPDEST JUMPDEST DIV SWAP3 POP PUSH1 0x8 DUP2 ADD SWAP1 POP JUMPDEST PUSH2 0x2710 DUP4 LT PUSH2 0x16B5 JUMPI PUSH2 0x2710 DUP4 DUP2 PUSH2 0x16AB JUMPI PUSH2 0x16AA PUSH2 0x2135 JUMP JUMPDEST JUMPDEST DIV SWAP3 POP PUSH1 0x4 DUP2 ADD SWAP1 POP JUMPDEST PUSH1 0x64 DUP4 LT PUSH2 0x16D8 JUMPI PUSH1 0x64 DUP4 DUP2 PUSH2 0x16CE JUMPI PUSH2 0x16CD PUSH2 0x2135 JUMP JUMPDEST JUMPDEST DIV SWAP3 POP PUSH1 0x2 DUP2 ADD SWAP1 POP JUMPDEST PUSH1 0xA DUP4 LT PUSH2 0x16E7 JUMPI PUSH1 0x1 DUP2 ADD SWAP1 POP JUMPDEST DUP1 SWAP2 POP POP SWAP2 SWAP1 POP JUMP JUMPDEST PUSH1 0x0 DUP1 DUP3 PUSH20 0xFFFFFFFFFFFFFFFFFFFFFFFFFFFFFFFFFFFFFFFF AND EXTCODESIZE GT SWAP1 POP SWAP2 SWAP1 POP JUMP JUMPDEST PUSH1 0x0 PUSH2 0x1726 PUSH2 0x1721 DUP5 PUSH2 0x1EEF JUMP JUMPDEST PUSH2 0x1ECA JUMP JUMPDEST SWAP1 POP DUP3 DUP2 MSTORE PUSH1 0x20 DUP2 ADD DUP5 DUP5 DUP5 ADD GT ISZERO PUSH2 0x1742 JUMPI PUSH2 0x1741 PUSH2 0x21C7 JUMP JUMPDEST JUMPDEST PUSH2 0x174D DUP5 DUP3 DUP6 PUSH2 0x2061 JUMP JUMPDEST POP SWAP4 SWAP3 POP POP POP JUMP JUMPDEST PUSH1 0x0 DUP2 CALLDATALOAD SWAP1 POP PUSH2 0x1764 DUP2 PUSH2 0x23AA JUMP JUMPDEST SWAP3 SWAP2 POP POP JUMP JUMPDEST PUSH1 0x0 DUP2 CALLDATALOAD SWAP1 POP PUSH2 0x1779 DUP2 PUSH2 0x23C1 JUMP JUMPDEST SWAP3 SWAP2 POP POP JUMP JUMPDEST PUSH1 0x0 DUP2 CALLDATALOAD SWAP1 POP PUSH2 0x178E DUP2 PUSH2 0x23D8 JUMP JUMPDEST SWAP3 SWAP2 POP POP JUMP JUMPDEST PUSH1 0x0 DUP2 MLOAD SWAP1 POP PUSH2 0x17A3 DUP2 PUSH2 0x23D8 JUMP JUMPDEST SWAP3 SWAP2 POP POP JUMP JUMPDEST PUSH1 0x0 DUP3 PUSH1 0x1F DUP4 ADD SLT PUSH2 0x17BE JUMPI PUSH2 0x17BD PUSH2 0x21C2 JUMP JUMPDEST JUMPDEST DUP2 CALLDATALOAD PUSH2 0x17CE DUP5 DUP3 PUSH1 0x20 DUP7 ADD PUSH2 0x1713 JUMP JUMPDEST SWAP2 POP POP SWAP3 SWAP2 POP POP JUMP JUMPDEST PUSH1 0x0 DUP2 CALLDATALOAD SWAP1 POP PUSH2 0x17E6 DUP2 PUSH2 0x23EF JUMP JUMPDEST SWAP3 SWAP2 POP POP JUMP JUMPDEST PUSH1 0x0 PUSH1 0x20 DUP3 DUP5 SUB SLT ISZERO PUSH2 0x1802 JUMPI PUSH2 0x1801 PUSH2 0x21D1 JUMP JUMPDEST JUMPDEST PUSH1 0x0 PUSH2 0x1810 DUP5 DUP3 DUP6 ADD PUSH2 0x1755 JUMP JUMPDEST SWAP2 POP POP SWAP3 SWAP2 POP POP JUMP JUMPDEST PUSH1 0x0 DUP1 PUSH1 0x40 DUP4 DUP6 SUB SLT ISZERO PUSH2 0x1830 JUMPI PUSH2 0x182F PUSH2 0x21D1 JUMP JUMPDEST JUMPDEST PUSH1 0x0 PUSH2 0x183E DUP6 DUP3 DUP7 ADD PUSH2 0x1755 JUMP JUMPDEST SWAP3 POP POP PUSH1 0x20 PUSH2 0x184F DUP6 DUP3 DUP7 ADD PUSH2 0x1755 JUMP JUMPDEST SWAP2 POP POP SWAP3 POP SWAP3 SWAP1 POP JUMP JUMPDEST PUSH1 0x0 DUP1 PUSH1 0x0 PUSH1 0x60 DUP5 DUP7 SUB SLT ISZERO PUSH2 0x1872 JUMPI PUSH2 0x1871 PUSH2 0x21D1 JUMP JUMPDEST JUMPDEST PUSH1 0x0 PUSH2 0x1880 DUP7 DUP3 DUP8 ADD PUSH2 0x1755 JUMP JUMPDEST SWAP4 POP POP PUSH1 0x20 PUSH2 0x1891 DUP7 DUP3 DUP8 ADD PUSH2 0x1755 JUMP JUMPDEST SWAP3 POP POP PUSH1 0x40 PUSH2 0x18A2 DUP7 DUP3 DUP8 ADD PUSH2 0x17D7 JUMP JUMPDEST SWAP2 POP POP SWAP3 POP SWAP3 POP SWAP3 JUMP JUMPDEST PUSH1 0x0 DUP1 PUSH1 0x0 DUP1 PUSH1 0x80 DUP6 DUP8 SUB SLT ISZERO PUSH2 0x18C6 JUMPI PUSH2 0x18C5 PUSH2 0x21D1 JUMP JUMPDEST JUMPDEST PUSH1 0x0 PUSH2 0x18D4 DUP8 DUP3 DUP9 ADD PUSH2 0x1755 JUMP JUMPDEST SWAP5 POP POP PUSH1 0x20 PUSH2 0x18E5 DUP8 DUP3 DUP9 ADD PUSH2 0x1755 JUMP JUMPDEST SWAP4 POP POP PUSH1 0x40 PUSH2 0x18F6 DUP8 DUP3 DUP9 ADD PUSH2 0x17D7 JUMP JUMPDEST SWAP3 POP POP PUSH1 0x60 DUP6 ADD CALLDATALOAD PUSH8 0xFFFFFFFFFFFFFFFF DUP2 GT ISZERO PUSH2 0x1917 JUMPI PUSH2 0x1916 PUSH2 0x21CC JUMP JUMPDEST JUMPDEST PUSH2 0x1923 DUP8 DUP3 DUP9 ADD PUSH2 0x17A9 JUMP JUMPDEST SWAP2 POP POP SWAP3 SWAP6 SWAP2 SWAP5 POP SWAP3 POP JUMP JUMPDEST PUSH1 0x0 DUP1 PUSH1 0x40 DUP4 DUP6 SUB SLT ISZERO PUSH2 0x1946 JUMPI PUSH2 0x1945 PUSH2 0x21D1 JUMP JUMPDEST JUMPDEST PUSH1 0x0 PUSH2 0x1954 DUP6 DUP3 DUP7 ADD PUSH2 0x1755 JUMP JUMPDEST SWAP3 POP POP PUSH1 0x20 PUSH2 0x1965 DUP6 DUP3 DUP7 ADD PUSH2 0x176A JUMP JUMPDEST SWAP2 POP POP SWAP3 POP SWAP3 SWAP1 POP JUMP JUMPDEST PUSH1 0x0 DUP1 PUSH1 0x40 DUP4 DUP6 SUB SLT ISZERO PUSH2 0x1986 JUMPI PUSH2 0x1985 PUSH2 0x21D1 JUMP JUMPDEST JUMPDEST PUSH1 0x0 PUSH2 0x1994 DUP6 DUP3 DUP7 ADD PUSH2 0x1755 JUMP JUMPDEST SWAP3 POP POP PUSH1 0x20 PUSH2 0x19A5 DUP6 DUP3 DUP7 ADD PUSH2 0x17D7 JUMP JUMPDEST SWAP2 POP POP SWAP3 POP SWAP3 SWAP1 POP JUMP JUMPDEST PUSH1 0x0 PUSH1 0x20 DUP3 DUP5 SUB SLT ISZERO PUSH2 0x19C5 JUMPI PUSH2 0x19C4 PUSH2 0x21D1 JUMP JUMPDEST JUMPDEST PUSH1 0x0 PUSH2 0x19D3 DUP5 DUP3 DUP6 ADD PUSH2 0x177F JUMP JUMPDEST SWAP2 POP POP SWAP3 SWAP2 POP POP JUMP JUMPDEST PUSH1 0x0 PUSH1 0x20 DUP3 DUP5 SUB SLT ISZERO PUSH2 0x19F2 JUMPI PUSH2 0x19F1 PUSH2 0x21D1 JUMP JUMPDEST JUMPDEST PUSH1 0x0 PUSH2 0x1A00 DUP5 DUP3 DUP6 ADD PUSH2 0x1794 JUMP JUMPDEST SWAP2 POP POP SWAP3 SWAP2 POP POP JUMP JUMPDEST PUSH1 0x0 PUSH1 0x20 DUP3 DUP5 SUB SLT ISZERO PUSH2 0x1A1F JUMPI PUSH2 0x1A1E PUSH2 0x21D1 JUMP JUMPDEST JUMPDEST PUSH1 0x0 PUSH2 0x1A2D DUP5 DUP3 DUP6 ADD PUSH2 0x17D7 JUMP JUMPDEST SWAP2 POP POP SWAP3 SWAP2 POP POP JUMP JUMPDEST PUSH2 0x1A3F DUP2 PUSH2 0x1FED JUMP JUMPDEST DUP3 MSTORE POP POP JUMP JUMPDEST PUSH2 0x1A4E DUP2 PUSH2 0x1FFF JUMP JUMPDEST DUP3 MSTORE POP POP JUMP JUMPDEST PUSH1 0x0 PUSH2 0x1A5F DUP3 PUSH2 0x1F20 JUMP JUMPDEST PUSH2 0x1A69 DUP2 DUP6 PUSH2 0x1F36 JUMP JUMPDEST SWAP4 POP PUSH2 0x1A79 DUP2 DUP6 PUSH1 0x20 DUP7 ADD PUSH2 0x2070 JUMP JUMPDEST PUSH2 0x1A82 DUP2 PUSH2 0x21D6 JUMP JUMPDEST DUP5 ADD SWAP2 POP POP SWAP3 SWAP2 POP POP JUMP JUMPDEST PUSH1 0x0 PUSH2 0x1A98 DUP3 PUSH2 0x1F2B JUMP JUMPDEST PUSH2 0x1AA2 DUP2 DUP6 PUSH2 0x1F47 JUMP JUMPDEST SWAP4 POP PUSH2 0x1AB2 DUP2 DUP6 PUSH1 0x20 DUP7 ADD PUSH2 0x2070 JUMP JUMPDEST PUSH2 0x1ABB DUP2 PUSH2 0x21D6 JUMP JUMPDEST DUP5 ADD SWAP2 POP POP SWAP3 SWAP2 POP POP JUMP JUMPDEST PUSH1 0x0 PUSH2 0x1AD1 DUP3 PUSH2 0x1F2B JUMP JUMPDEST PUSH2 0x1ADB DUP2 DUP6 PUSH2 0x1F58 JUMP JUMPDEST SWAP4 POP PUSH2 0x1AEB DUP2 DUP6 PUSH1 0x20 DUP7 ADD PUSH2 0x2070 JUMP JUMPDEST DUP1 DUP5 ADD SWAP2 POP POP SWAP3 SWAP2 POP POP JUMP JUMPDEST PUSH1 0x0 PUSH2 0x1B04 PUSH1 0x14 DUP4 PUSH2 0x1F47 JUMP JUMPDEST SWAP2 POP PUSH2 0x1B0F DUP3 PUSH2 0x21E7 JUMP JUMPDEST PUSH1 0x20 DUP3 ADD SWAP1 POP SWAP2 SWAP1 POP JUMP JUMPDEST PUSH1 0x0 PUSH2 0x1B27 PUSH1 0x16 DUP4 PUSH2 0x1F47 JUMP JUMPDEST SWAP2 POP PUSH2 0x1B32 DUP3 PUSH2 0x2210 JUMP JUMPDEST PUSH1 0x20 DUP3 ADD SWAP1 POP SWAP2 SWAP1 POP JUMP JUMPDEST PUSH1 0x0 PUSH2 0x1B4A PUSH1 0x1C DUP4 PUSH2 0x1F47 JUMP JUMPDEST SWAP2 POP PUSH2 0x1B55 DUP3 PUSH2 0x2239 JUMP JUMPDEST PUSH1 0x20 DUP3 ADD SWAP1 POP SWAP2 SWAP1 POP JUMP JUMPDEST PUSH1 0x0 PUSH2 0x1B6D PUSH1 0x1E DUP4 PUSH2 0x1F47 JUMP JUMPDEST SWAP2 POP PUSH2 0x1B78 DUP3 PUSH2 0x2262 JUMP JUMPDEST PUSH1 0x20 DUP3 ADD SWAP1 POP SWAP2 SWAP1 POP JUMP JUMPDEST PUSH1 0x0 PUSH2 0x1B90 PUSH1 0x14 DUP4 PUSH2 0x1F47 JUMP JUMPDEST SWAP2 POP PUSH2 0x1B9B DUP3 PUSH2 0x228B JUMP JUMPDEST PUSH1 0x20 DUP3 ADD SWAP1 POP SWAP2 SWAP1 POP JUMP JUMPDEST PUSH1 0x0 PUSH2 0x1BB3 PUSH1 0x13 DUP4 PUSH2 0x1F47 JUMP JUMPDEST SWAP2 POP PUSH2 0x1BBE DUP3 PUSH2 0x22B4 JUMP JUMPDEST PUSH1 0x20 DUP3 ADD SWAP1 POP SWAP2 SWAP1 POP JUMP JUMPDEST PUSH1 0x0 PUSH2 0x1BD6 PUSH1 0x14 DUP4 PUSH2 0x1F47 JUMP JUMPDEST SWAP2 POP PUSH2 0x1BE1 DUP3 PUSH2 0x22DD JUMP JUMPDEST PUSH1 0x20 DUP3 ADD SWAP1 POP SWAP2 SWAP1 POP JUMP JUMPDEST PUSH1 0x0 PUSH2 0x1BF9 PUSH1 0xF DUP4 PUSH2 0x1F47 JUMP JUMPDEST SWAP2 POP PUSH2 0x1C04 DUP3 PUSH2 0x2306 JUMP JUMPDEST PUSH1 0x20 DUP3 ADD SWAP1 POP SWAP2 SWAP1 POP JUMP JUMPDEST PUSH1 0x0 PUSH2 0x1C1C PUSH1 0x14 DUP4 PUSH2 0x1F47 JUMP JUMPDEST SWAP2 POP PUSH2 0x1C27 DUP3 PUSH2 0x232F JUMP JUMPDEST PUSH1 0x20 DUP3 ADD SWAP1 POP SWAP2 SWAP1 POP JUMP JUMPDEST PUSH1 0x0 PUSH2 0x1C3F PUSH1 0x12 DUP4 PUSH2 0x1F47 JUMP JUMPDEST SWAP2 POP PUSH2 0x1C4A DUP3 PUSH2 0x2358 JUMP JUMPDEST PUSH1 0x20 DUP3 ADD SWAP1 POP SWAP2 SWAP1 POP JUMP JUMPDEST PUSH1 0x0 PUSH2 0x1C62 PUSH1 0x9 DUP4 PUSH2 0x1F47 JUMP JUMPDEST SWAP2 POP PUSH2 0x1C6D DUP3 PUSH2 0x2381 JUMP JUMPDEST PUSH1 0x20 DUP3 ADD SWAP1 POP SWAP2 SWAP1 POP JUMP JUMPDEST PUSH2 0x1C81 DUP2 PUSH2 0x2057 JUMP JUMPDEST DUP3 MSTORE POP POP JUMP JUMPDEST PUSH1 0x0 PUSH2 0x1C93 DUP3 DUP6 PUSH2 0x1AC6 JUMP JUMPDEST SWAP2 POP PUSH2 0x1C9F DUP3 DUP5 PUSH2 0x1AC6 JUMP JUMPDEST SWAP2 POP DUP2 SWAP1 POP SWAP4 SWAP3 POP POP POP JUMP JUMPDEST PUSH1 0x0 PUSH1 0x20 DUP3 ADD SWAP1 POP PUSH2 0x1CC0 PUSH1 0x0 DUP4 ADD DUP5 PUSH2 0x1A36 JUMP JUMPDEST SWAP3 SWAP2 POP POP JUMP JUMPDEST PUSH1 0x0 PUSH1 0x80 DUP3 ADD SWAP1 POP PUSH2 0x1CDB PUSH1 0x0 DUP4 ADD DUP8 PUSH2 0x1A36 JUMP JUMPDEST PUSH2 0x1CE8 PUSH1 0x20 DUP4 ADD DUP7 PUSH2 0x1A36 JUMP JUMPDEST PUSH2 0x1CF5 PUSH1 0x40 DUP4 ADD DUP6 PUSH2 0x1C78 JUMP JUMPDEST DUP2 DUP2 SUB PUSH1 0x60 DUP4 ADD MSTORE PUSH2 0x1D07 DUP2 DUP5 PUSH2 0x1A54 JUMP JUMPDEST SWAP1 POP SWAP6 SWAP5 POP POP POP POP POP JUMP JUMPDEST PUSH1 0x0 PUSH1 0x20 DUP3 ADD SWAP1 POP PUSH2 0x1D27 PUSH1 0x0 DUP4 ADD DUP5 PUSH2 0x1A45 JUMP JUMPDEST SWAP3 SWAP2 POP POP JUMP JUMPDEST PUSH1 0x0 PUSH1 0x20 DUP3 ADD SWAP1 POP DUP2 DUP2 SUB PUSH1 0x0 DUP4 ADD MSTORE PUSH2 0x1D47 DUP2 DUP5 PUSH2 0x1A8D JUMP JUMPDEST SWAP1 POP SWAP3 SWAP2 POP POP JUMP JUMPDEST PUSH1 0x0 PUSH1 0x20 DUP3 ADD SWAP1 POP DUP2 DUP2 SUB PUSH1 0x0 DUP4 ADD MSTORE PUSH2 0x1D68 DUP2 PUSH2 0x1AF7 JUMP JUMPDEST SWAP1 POP SWAP2 SWAP1 POP JUMP JUMPDEST PUSH1 0x0 PUSH1 0x20 DUP3 ADD SWAP1 POP DUP2 DUP2 SUB PUSH1 0x0 DUP4 ADD MSTORE PUSH2 0x1D88 DUP2 PUSH2 0x1B1A JUMP JUMPDEST SWAP1 POP SWAP2 SWAP1 POP JUMP JUMPDEST PUSH1 0x0 PUSH1 0x20 DUP3 ADD SWAP1 POP DUP2 DUP2 SUB PUSH1 0x0 DUP4 ADD MSTORE PUSH2 0x1DA8 DUP2 PUSH2 0x1B3D JUMP JUMPDEST SWAP1 POP SWAP2 SWAP1 POP JUMP JUMPDEST PUSH1 0x0 PUSH1 0x20 DUP3 ADD SWAP1 POP DUP2 DUP2 SUB PUSH1 0x0 DUP4 ADD MSTORE PUSH2 0x1DC8 DUP2 PUSH2 0x1B60 JUMP JUMPDEST SWAP1 POP SWAP2 SWAP1 POP JUMP JUMPDEST PUSH1 0x0 PUSH1 0x20 DUP3 ADD SWAP1 POP DUP2 DUP2 SUB PUSH1 0x0 DUP4 ADD MSTORE PUSH2 0x1DE8 DUP2 PUSH2 0x1B83 JUMP JUMPDEST SWAP1 POP SWAP2 SWAP1 POP JUMP JUMPDEST PUSH1 0x0 PUSH1 0x20 DUP3 ADD SWAP1 POP DUP2 DUP2 SUB PUSH1 0x0 DUP4 ADD MSTORE PUSH2 0x1E08 DUP2 PUSH2 0x1BA6 JUMP JUMPDEST SWAP1 POP SWAP2 SWAP1 POP JUMP JUMPDEST PUSH1 0x0 PUSH1 0x20 DUP3 ADD SWAP1 POP DUP2 DUP2 SUB PUSH1 0x0 DUP4 ADD MSTORE PUSH2 0x1E28 DUP2 PUSH2 0x1BC9 JUMP JUMPDEST SWAP1 POP SWAP2 SWAP1 POP JUMP JUMPDEST PUSH1 0x0 PUSH1 0x20 DUP3 ADD SWAP1 POP DUP2 DUP2 SUB PUSH1 0x0 DUP4 ADD MSTORE PUSH2 0x1E48 DUP2 PUSH2 0x1BEC JUMP JUMPDEST SWAP1 POP SWAP2 SWAP1 POP JUMP JUMPDEST PUSH1 0x0 PUSH1 0x20 DUP3 ADD SWAP1 POP DUP2 DUP2 SUB PUSH1 0x0 DUP4 ADD MSTORE PUSH2 0x1E68 DUP2 PUSH2 0x1C0F JUMP JUMPDEST SWAP1 POP SWAP2 SWAP1 POP JUMP JUMPDEST PUSH1 0x0 PUSH1 0x20 DUP3 ADD SWAP1 POP DUP2 DUP2 SUB PUSH1 0x0 DUP4 ADD MSTORE PUSH2 0x1E88 DUP2 PUSH2 0x1C32 JUMP JUMPDEST SWAP1 POP SWAP2 SWAP1 POP JUMP JUMPDEST PUSH1 0x0 PUSH1 0x20 DUP3 ADD SWAP1 POP DUP2 DUP2 SUB PUSH1 0x0 DUP4 ADD MSTORE PUSH2 0x1EA8 DUP2 PUSH2 0x1C55 JUMP JUMPDEST SWAP1 POP SWAP2 SWAP1 POP JUMP JUMPDEST PUSH1 0x0 PUSH1 0x20 DUP3 ADD SWAP1 POP PUSH2 0x1EC4 PUSH1 0x0 DUP4 ADD DUP5 PUSH2 0x1C78 JUMP JUMPDEST SWAP3 SWAP2 POP POP JUMP JUMPDEST PUSH1 0x0 PUSH2 0x1ED4 PUSH2 0x1EE5 JUMP JUMPDEST SWAP1 POP PUSH2 0x1EE0 DUP3 DUP3 PUSH2 0x20D5 JUMP JUMPDEST SWAP2 SWAP1 POP JUMP JUMPDEST PUSH1 0x0 PUSH1 0x40 MLOAD SWAP1 POP SWAP1 JUMP JUMPDEST PUSH1 0x0 PUSH8 0xFFFFFFFFFFFFFFFF DUP3 GT ISZERO PUSH2 0x1F0A JUMPI PUSH2 0x1F09 PUSH2 0x2193 JUMP JUMPDEST JUMPDEST PUSH2 0x1F13 DUP3 PUSH2 0x21D6 JUMP JUMPDEST SWAP1 POP PUSH1 0x20 DUP2 ADD SWAP1 POP SWAP2 SWAP1 POP JUMP JUMPDEST PUSH1 0x0 DUP2 MLOAD SWAP1 POP SWAP2 SWAP1 POP JUMP JUMPDEST PUSH1 0x0 DUP2 MLOAD SWAP1 POP SWAP2 SWAP1 POP JUMP JUMPDEST PUSH1 0x0 DUP3 DUP3 MSTORE PUSH1 0x20 DUP3 ADD SWAP1 POP SWAP3 SWAP2 POP POP JUMP JUMPDEST PUSH1 0x0 DUP3 DUP3 MSTORE PUSH1 0x20 DUP3 ADD SWAP1 POP SWAP3 SWAP2 POP POP JUMP JUMPDEST PUSH1 0x0 DUP2 SWAP1 POP SWAP3 SWAP2 POP POP JUMP JUMPDEST PUSH1 0x0 PUSH2 0x1F6E DUP3 PUSH2 0x2057 JUMP JUMPDEST SWAP2 POP PUSH2 0x1F79 DUP4 PUSH2 0x2057 JUMP JUMPDEST SWAP3 POP DUP3 PUSH32 0xFFFFFFFFFFFFFFFFFFFFFFFFFFFFFFFFFFFFFFFFFFFFFFFFFFFFFFFFFFFFFFFF SUB DUP3 GT ISZERO PUSH2 0x1FAE JUMPI PUSH2 0x1FAD PUSH2 0x2106 JUMP JUMPDEST JUMPDEST DUP3 DUP3 ADD SWAP1 POP SWAP3 SWAP2 POP POP JUMP JUMPDEST PUSH1 0x0 PUSH2 0x1FC4 DUP3 PUSH2 0x2057 JUMP JUMPDEST SWAP2 POP PUSH2 0x1FCF DUP4 PUSH2 0x2057 JUMP JUMPDEST SWAP3 POP DUP3 DUP3 LT ISZERO PUSH2 0x1FE2 JUMPI PUSH2 0x1FE1 PUSH2 0x2106 JUMP JUMPDEST JUMPDEST DUP3 DUP3 SUB SWAP1 POP SWAP3 SWAP2 POP POP JUMP JUMPDEST PUSH1 0x0 PUSH2 0x1FF8 DUP3 PUSH2 0x2037 JUMP JUMPDEST SWAP1 POP SWAP2 SWAP1 POP JUMP JUMPDEST PUSH1 0x0 DUP2 ISZERO ISZERO SWAP1 POP SWAP2 SWAP1 POP JUMP JUMPDEST PUSH1 0x0 PUSH32 0xFFFFFFFF00000000000000000000000000000000000000000000000000000000 DUP3 AND SWAP1 POP SWAP2 SWAP1 POP JUMP JUMPDEST PUSH1 0x0 PUSH20 0xFFFFFFFFFFFFFFFFFFFFFFFFFFFFFFFFFFFFFFFF DUP3 AND SWAP1 POP SWAP2 SWAP1 POP JUMP JUMPDEST PUSH1 0x0 DUP2 SWAP1 POP SWAP2 SWAP1 POP JUMP JUMPDEST DUP3 DUP2 DUP4 CALLDATACOPY PUSH1 0x0 DUP4 DUP4 ADD MSTORE POP POP POP JUMP JUMPDEST PUSH1 0x0 JUMPDEST DUP4 DUP2 LT ISZERO PUSH2 0x208E JUMPI DUP1 DUP3 ADD MLOAD DUP2 DUP5 ADD MSTORE PUSH1 0x20 DUP2 ADD SWAP1 POP PUSH2 0x2073 JUMP JUMPDEST DUP4 DUP2 GT ISZERO PUSH2 0x209D JUMPI PUSH1 0x0 DUP5 DUP5 ADD MSTORE JUMPDEST POP POP POP POP JUMP JUMPDEST PUSH1 0x0 PUSH1 0x2 DUP3 DIV SWAP1 POP PUSH1 0x1 DUP3 AND DUP1 PUSH2 0x20BB JUMPI PUSH1 0x7F DUP3 AND SWAP2 POP JUMPDEST PUSH1 0x20 DUP3 LT DUP2 EQ ISZERO PUSH2 0x20CF JUMPI PUSH2 0x20CE PUSH2 0x2164 JUMP JUMPDEST JUMPDEST POP SWAP2 SWAP1 POP JUMP JUMPDEST PUSH2 0x20DE DUP3 PUSH2 0x21D6 JUMP JUMPDEST DUP2 ADD DUP2 DUP2 LT PUSH8 0xFFFFFFFFFFFFFFFF DUP3 GT OR ISZERO PUSH2 0x20FD JUMPI PUSH2 0x20FC PUSH2 0x2193 JUMP JUMPDEST JUMPDEST DUP1 PUSH1 0x40 MSTORE POP POP POP JUMP JUMPDEST PUSH32 0x4E487B7100000000000000000000000000000000000000000000000000000000 PUSH1 0x0 MSTORE PUSH1 0x11 PUSH1 0x4 MSTORE PUSH1 0x24 PUSH1 0x0 REVERT JUMPDEST PUSH32 0x4E487B7100000000000000000000000000000000000000000000000000000000 PUSH1 0x0 MSTORE PUSH1 0x12 PUSH1 0x4 MSTORE PUSH1 0x24 PUSH1 0x0 REVERT JUMPDEST PUSH32 0x4E487B7100000000000000000000000000000000000000000000000000000000 PUSH1 0x0 MSTORE PUSH1 0x22 PUSH1 0x4 MSTORE PUSH1 0x24 PUSH1 0x0 REVERT JUMPDEST PUSH32 0x4E487B7100000000000000000000000000000000000000000000000000000000 PUSH1 0x0 MSTORE PUSH1 0x41 PUSH1 0x4 MSTORE PUSH1 0x24 PUSH1 0x0 REVERT JUMPDEST PUSH1 0x0 DUP1 REVERT JUMPDEST PUSH1 0x0 DUP1 REVERT JUMPDEST PUSH1 0x0 DUP1 REVERT JUMPDEST PUSH1 0x0 DUP1 REVERT JUMPDEST PUSH1 0x0 PUSH1 0x1F NOT PUSH1 0x1F DUP4 ADD AND SWAP1 POP SWAP2 SWAP1 POP JUMP JUMPDEST PUSH32 0x746F6B656E4964206F7574206F662072616E6765000000000000000000000000 PUSH1 0x0 DUP3 ADD MSTORE POP JUMP JUMPDEST PUSH32 0x6E6F74206F776E6572206E6F7220617070726F76656400000000000000000000 PUSH1 0x0 DUP3 ADD MSTORE POP JUMP JUMPDEST PUSH32 0x7472616E7366657220746F20746865207A65726F206164647265737300000000 PUSH1 0x0 DUP3 ADD MSTORE POP JUMP JUMPDEST PUSH32 0x6E6F74206F776E6572206E6F7220617070726F76656420666F7220616C6C0000 PUSH1 0x0 DUP3 ADD MSTORE POP JUMP JUMPDEST PUSH32 0x6D696E7420746F207A65726F2061646472657373000000000000000000000000 PUSH1 0x0 DUP3 ADD MSTORE POP JUMP JUMPDEST PUSH32 0x746F6B656E20646F65736E277420657869737400000000000000000000000000 PUSH1 0x0 DUP3 ADD MSTORE POP JUMP JUMPDEST PUSH32 0x6F776E6572203D207A65726F2061646472657373000000000000000000000000 PUSH1 0x0 DUP3 ADD MSTORE POP JUMP JUMPDEST PUSH32 0x546F6B656E204E6F742045786973740000000000000000000000000000000000 PUSH1 0x0 DUP3 ADD MSTORE POP JUMP JUMPDEST PUSH32 0x746F6B656E20616C7265616479206D696E746564000000000000000000000000 PUSH1 0x0 DUP3 ADD MSTORE POP JUMP JUMPDEST PUSH32 0x6E6F742045524337323152656365697665720000000000000000000000000000 PUSH1 0x0 DUP3 ADD MSTORE POP JUMP JUMPDEST PUSH32 0x6E6F74206F776E65720000000000000000000000000000000000000000000000 PUSH1 0x0 DUP3 ADD MSTORE POP JUMP JUMPDEST PUSH2 0x23B3 DUP2 PUSH2 0x1FED JUMP JUMPDEST DUP2 EQ PUSH2 0x23BE JUMPI PUSH1 0x0 DUP1 REVERT JUMPDEST POP JUMP JUMPDEST PUSH2 0x23CA DUP2 PUSH2 0x1FFF JUMP JUMPDEST DUP2 EQ PUSH2 0x23D5 JUMPI PUSH1 0x0 DUP1 REVERT JUMPDEST POP JUMP JUMPDEST PUSH2 0x23E1 DUP2 PUSH2 0x200B JUMP JUMPDEST DUP2 EQ PUSH2 0x23EC JUMPI PUSH1 0x0 DUP1 REVERT JUMPDEST POP JUMP JUMPDEST PUSH2 0x23F8 DUP2 PUSH2 0x2057 JUMP JUMPDEST DUP2 EQ PUSH2 0x2403 JUMPI PUSH1 0x0 DUP1 REVERT JUMPDEST POP JUMP INVALID PUSH10 0x7066733A2F2F516D6553 PUSH11 0x53696E4870506E6D586D73 PUSH17 0x4D6A776958794E367A533445397A636361 PUSH19 0x694752336A7863615774712FA2646970667358 0x22 SLT KECCAK256 LOG1 DUP14 0xD4 PUSH29 0xFD2E22F629B89AD7D450F55226843621D3D34C31EA9A00022056F33A64 PUSH20 0x6F6C634300080700330000000000000000000000 "
				},
				"gasEstimates": {
					"creation": {
						"codeDepositCost": "1866000",
						"executionCost": "infinite",
						"totalCost": "infinite"
					},
					"external": {
						"MAX_APES()": "2473",
						"approve(address,uint256)": "31556",
						"balanceOf(address)": "2924",
						"getApproved(uint256)": "5185",
						"isApprovedForAll(address,address)": "infinite",
						"mint(address,uint256)": "infinite",
						"name()": "infinite",
						"ownerOf(uint256)": "2979",
						"safeTransferFrom(address,address,uint256)": "infinite",
						"safeTransferFrom(address,address,uint256,bytes)": "infinite",
						"setApprovalForAll(address,bool)": "infinite",
						"supportsInterface(bytes4)": "754",
						"symbol()": "infinite",
						"tokenURI(uint256)": "infinite",
						"transferFrom(address,address,uint256)": "infinite"
					},
					"internal": {
						"_baseURI()": "infinite"
					}
				},
				"methodIdentifiers": {
					"MAX_APES()": "bb8a16bd",
					"approve(address,uint256)": "095ea7b3",
					"balanceOf(address)": "70a08231",
					"getApproved(uint256)": "081812fc",
					"isApprovedForAll(address,address)": "e985e9c5",
					"mint(address,uint256)": "40c10f19",
					"name()": "06fdde03",
					"ownerOf(uint256)": "6352211e",
					"safeTransferFrom(address,address,uint256)": "42842e0e",
					"safeTransferFrom(address,address,uint256,bytes)": "b88d4fde",
					"setApprovalForAll(address,bool)": "a22cb465",
					"supportsInterface(bytes4)": "01ffc9a7",
					"symbol()": "95d89b41",
					"tokenURI(uint256)": "c87b56dd",
					"transferFrom(address,address,uint256)": "23b872dd"
				}
			},
			"storageLayout": {
				"storage": [
					{
						"astId": 1390,
						"contract": "contracts/ERC721/WXRApe.sol:WXRApe",
						"label": "name",
						"offset": 0,
						"slot": "0",
						"type": "t_string_storage"
					},
					{
						"astId": 1393,
						"contract": "contracts/ERC721/WXRApe.sol:WXRApe",
						"label": "symbol",
						"offset": 0,
						"slot": "1",
						"type": "t_string_storage"
					},
					{
						"astId": 1397,
						"contract": "contracts/ERC721/WXRApe.sol:WXRApe",
						"label": "_owners",
						"offset": 0,
						"slot": "2",
						"type": "t_mapping(t_uint256,t_address)"
					},
					{
						"astId": 1401,
						"contract": "contracts/ERC721/WXRApe.sol:WXRApe",
						"label": "_balances",
						"offset": 0,
						"slot": "3",
						"type": "t_mapping(t_address,t_uint256)"
					},
					{
						"astId": 1405,
						"contract": "contracts/ERC721/WXRApe.sol:WXRApe",
						"label": "_tokenApprovals",
						"offset": 0,
						"slot": "4",
						"type": "t_mapping(t_uint256,t_address)"
					},
					{
						"astId": 1411,
						"contract": "contracts/ERC721/WXRApe.sol:WXRApe",
						"label": "_operatorApprovals",
						"offset": 0,
						"slot": "5",
						"type": "t_mapping(t_address,t_mapping(t_address,t_bool))"
					},
					{
						"astId": 2203,
						"contract": "contracts/ERC721/WXRApe.sol:WXRApe",
						"label": "MAX_APES",
						"offset": 0,
						"slot": "6",
						"type": "t_uint256"
					}
				],
				"types": {
					"t_address": {
						"encoding": "inplace",
						"label": "address",
						"numberOfBytes": "20"
					},
					"t_bool": {
						"encoding": "inplace",
						"label": "bool",
						"numberOfBytes": "1"
					},
					"t_mapping(t_address,t_bool)": {
						"encoding": "mapping",
						"key": "t_address",
						"label": "mapping(address => bool)",
						"numberOfBytes": "32",
						"value": "t_bool"
					},
					"t_mapping(t_address,t_mapping(t_address,t_bool))": {
						"encoding": "mapping",
						"key": "t_address",
						"label": "mapping(address => mapping(address => bool))",
						"numberOfBytes": "32",
						"value": "t_mapping(t_address,t_bool)"
					},
					"t_mapping(t_address,t_uint256)": {
						"encoding": "mapping",
						"key": "t_address",
						"label": "mapping(address => uint256)",
						"numberOfBytes": "32",
						"value": "t_uint256"
					},
					"t_mapping(t_uint256,t_address)": {
						"encoding": "mapping",
						"key": "t_uint256",
						"label": "mapping(uint256 => address)",
						"numberOfBytes": "32",
						"value": "t_address"
					},
					"t_string_storage": {
						"encoding": "bytes",
						"label": "string",
						"numberOfBytes": "32"
					},
					"t_uint256": {
						"encoding": "inplace",
						"label": "uint256",
						"numberOfBytes": "32"
					}
				}
			},
			"userdoc": {
				"kind": "user",
				"methods": {
					"safeTransferFrom(address,address,uint256,bytes)": {
						"notice": "实现IERC721的safeTransferFrom，安全转账，调用了_safeTransfer函数。"
					},
					"tokenURI(uint256)": {
						"notice": "实现IERC721Metadata的tokenURI函数，查询metadata。"
					}
				},
				"version": 1
			}
		}
	}
}