{
	"contracts/NFTSwap/NFTSwap.sol": {
		"NFTSwap": {
			"abi": [
				{
					"anonymous": false,
					"inputs": [
						{
							"indexed": true,
							"internalType": "address",
							"name": "seller",
							"type": "address"
						},
						{
							"indexed": true,
							"internalType": "address",
							"name": "nftAddr",
							"type": "address"
						},
						{
							"indexed": true,
							"internalType": "uint256",
							"name": "tokenId",
							"type": "uint256"
						},
						{
							"indexed": false,
							"internalType": "uint256",
							"name": "price",
							"type": "uint256"
						}
					],
					"name": "List",
					"type": "event"
				},
				{
					"anonymous": false,
					"inputs": [
						{
							"indexed": true,
							"internalType": "address",
							"name": "buyer",
							"type": "address"
						},
						{
							"indexed": true,
							"internalType": "address",
							"name": "nftAddr",
							"type": "address"
						},
						{
							"indexed": true,
							"internalType": "uint256",
							"name": "tokenId",
							"type": "uint256"
						},
						{
							"indexed": false,
							"internalType": "uint256",
							"name": "price",
							"type": "uint256"
						}
					],
					"name": "Purchase",
					"type": "event"
				},
				{
					"anonymous": false,
					"inputs": [
						{
							"indexed": true,
							"internalType": "address",
							"name": "seller",
							"type": "address"
						},
						{
							"indexed": true,
							"internalType": "address",
							"name": "nftAddr",
							"type": "address"
						},
						{
							"indexed": true,
							"internalType": "uint256",
							"name": "tokenId",
							"type": "uint256"
						}
					],
					"name": "Revoke",
					"type": "event"
				},
				{
					"anonymous": false,
					"inputs": [
						{
							"indexed": true,
							"internalType": "address",
							"name": "seller",
							"type": "address"
						},
						{
							"indexed": true,
							"internalType": "address",
							"name": "nftAddr",
							"type": "address"
						},
						{
							"indexed": true,
							"internalType": "uint256",
							"name": "tokenId",
							"type": "uint256"
						},
						{
							"indexed": false,
							"internalType": "uint256",
							"name": "newPrice",
							"type": "uint256"
						}
					],
					"name": "Update",
					"type": "event"
				},
				{
					"stateMutability": "payable",
					"type": "fallback"
				},
				{
					"inputs": [
						{
							"internalType": "address",
							"name": "_nftAddr",
							"type": "address"
						},
						{
							"internalType": "uint256",
							"name": "_tokenId",
							"type": "uint256"
						},
						{
							"internalType": "uint256",
							"name": "_price",
							"type": "uint256"
						}
					],
					"name": "list",
					"outputs": [],
					"stateMutability": "nonpayable",
					"type": "function"
				},
				{
					"inputs": [
						{
							"internalType": "address",
							"name": "",
							"type": "address"
						},
						{
							"internalType": "uint256",
							"name": "",
							"type": "uint256"
						}
					],
					"name": "nftList",
					"outputs": [
						{
							"internalType": "address",
							"name": "owner",
							"type": "address"
						},
						{
							"internalType": "uint256",
							"name": "price",
							"type": "uint256"
						}
					],
					"stateMutability": "view",
					"type": "function"
				},
				{
					"inputs": [
						{
							"internalType": "address",
							"name": "operator",
							"type": "address"
						},
						{
							"internalType": "address",
							"name": "from",
							"type": "address"
						},
						{
							"internalType": "uint256",
							"name": "tokenId",
							"type": "uint256"
						},
						{
							"internalType": "bytes",
							"name": "data",
							"type": "bytes"
						}
					],
					"name": "onERC721Received",
					"outputs": [
						{
							"internalType": "bytes4",
							"name": "",
							"type": "bytes4"
						}
					],
					"stateMutability": "nonpayable",
					"type": "function"
				},
				{
					"inputs": [
						{
							"internalType": "address",
							"name": "_nftAddr",
							"type": "address"
						},
						{
							"internalType": "uint256",
							"name": "_tokenId",
							"type": "uint256"
						}
					],
					"name": "purchase",
					"outputs": [],
					"stateMutability": "payable",
					"type": "function"
				},
				{
					"inputs": [
						{
							"internalType": "address",
							"name": "_nftAddr",
							"type": "address"
						},
						{
							"internalType": "uint256",
							"name": "_tokenId",
							"type": "uint256"
						}
					],
					"name": "revoke",
					"outputs": [],
					"stateMutability": "nonpayable",
					"type": "function"
				},
				{
					"inputs": [
						{
							"internalType": "address",
							"name": "_nftAddr",
							"type": "address"
						},
						{
							"internalType": "uint256",
							"name": "_tokenId",
							"type": "uint256"
						},
						{
							"internalType": "uint256",
							"name": "_newPrice",
							"type": "uint256"
						}
					],
					"name": "update",
					"outputs": [],
					"stateMutability": "nonpayable",
					"type": "function"
				}
			],
			"devdoc": {
				"kind": "dev",
				"methods": {},
				"version": 1
			},
			"evm": {
				"assembly": "    /* \"contracts/NFTSwap/NFTSwap.sol\":135:4478  contract NFTSwap is IERC721Receiver{\r... */\n  mstore(0x40, 0x80)\n  callvalue\n  dup1\n  iszero\n  tag_1\n  jumpi\n  0x00\n  dup1\n  revert\ntag_1:\n  pop\n  dataSize(sub_0)\n  dup1\n  dataOffset(sub_0)\n  0x00\n  codecopy\n  0x00\n  return\nstop\n\nsub_0: assembly {\n        /* \"contracts/NFTSwap/NFTSwap.sol\":135:4478  contract NFTSwap is IERC721Receiver{\r... */\n      mstore(0x40, 0x80)\n      jumpi(tag_1, lt(calldatasize, 0x04))\n      shr(0xe0, calldataload(0x00))\n      dup1\n      0x150b7a02\n      eq\n      tag_3\n      jumpi\n      dup1\n      0x8de93222\n      eq\n      tag_4\n      jumpi\n      dup1\n      0xba5f4fb2\n      eq\n      tag_5\n      jumpi\n      dup1\n      0xd09b6d43\n      eq\n      tag_6\n      jumpi\n      dup1\n      0xdda342bb\n      eq\n      tag_7\n      jumpi\n      dup1\n      0xeac449d9\n      eq\n      tag_8\n      jumpi\n      jump(tag_2)\n    tag_1:\n    tag_2:\n      stop\n        /* \"contracts/NFTSwap/NFTSwap.sol\":916:1153  function onERC721Received(\r... */\n    tag_3:\n      callvalue\n      dup1\n      iszero\n      tag_11\n      jumpi\n      0x00\n      dup1\n      revert\n    tag_11:\n      pop\n      tag_12\n      0x04\n      dup1\n      calldatasize\n      sub\n      dup2\n      add\n      swap1\n      tag_13\n      swap2\n      swap1\n      tag_14\n      jump\t// in\n    tag_13:\n      tag_15\n      jump\t// in\n    tag_12:\n      mload(0x40)\n      tag_16\n      swap2\n      swap1\n      tag_17\n      jump\t// in\n    tag_16:\n      mload(0x40)\n      dup1\n      swap2\n      sub\n      swap1\n      return\n        /* \"contracts/NFTSwap/NFTSwap.sol\":3526:4475  function purchase(address _nftAddr, uint256 _tokenId) payable public {\r... */\n    tag_4:\n      tag_18\n      0x04\n      dup1\n      calldatasize\n      sub\n      dup2\n      add\n      swap1\n      tag_19\n      swap2\n      swap1\n      tag_20\n      jump\t// in\n    tag_19:\n      tag_21\n      jump\t// in\n    tag_18:\n      stop\n        /* \"contracts/NFTSwap/NFTSwap.sol\":732:792  mapping(address => mapping(uint256 => Order)) public nftList */\n    tag_5:\n      callvalue\n      dup1\n      iszero\n      tag_22\n      jumpi\n      0x00\n      dup1\n      revert\n    tag_22:\n      pop\n      tag_23\n      0x04\n      dup1\n      calldatasize\n      sub\n      dup2\n      add\n      swap1\n      tag_24\n      swap2\n      swap1\n      tag_20\n      jump\t// in\n    tag_24:\n      tag_25\n      jump\t// in\n    tag_23:\n      mload(0x40)\n      tag_26\n      swap3\n      swap2\n      swap1\n      tag_27\n      jump\t// in\n    tag_26:\n      mload(0x40)\n      dup1\n      swap2\n      sub\n      swap1\n      return\n        /* \"contracts/NFTSwap/NFTSwap.sol\":2729:3415  function update(address _nftAddr, uint256 _tokenId, uint256 _newPrice) public {\r... */\n    tag_6:\n      callvalue\n      dup1\n      iszero\n      tag_28\n      jumpi\n      0x00\n      dup1\n      revert\n    tag_28:\n      pop\n      tag_29\n      0x04\n      dup1\n      calldatasize\n      sub\n      dup2\n      add\n      swap1\n      tag_30\n      swap2\n      swap1\n      tag_31\n      jump\t// in\n    tag_30:\n      tag_32\n      jump\t// in\n    tag_29:\n      stop\n        /* \"contracts/NFTSwap/NFTSwap.sol\":1285:1946  function list(address _nftAddr, uint256 _tokenId, uint256 _price) public{\r... */\n    tag_7:\n      callvalue\n      dup1\n      iszero\n      tag_33\n      jumpi\n      0x00\n      dup1\n      revert\n    tag_33:\n      pop\n      tag_34\n      0x04\n      dup1\n      calldatasize\n      sub\n      dup2\n      add\n      swap1\n      tag_35\n      swap2\n      swap1\n      tag_31\n      jump\t// in\n    tag_35:\n      tag_36\n      jump\t// in\n    tag_34:\n      stop\n        /* \"contracts/NFTSwap/NFTSwap.sol\":1991:2674  function revoke(address _nftAddr, uint256 _tokenId) public {\r... */\n    tag_8:\n      callvalue\n      dup1\n      iszero\n      tag_37\n      jumpi\n      0x00\n      dup1\n      revert\n    tag_37:\n      pop\n      tag_38\n      0x04\n      dup1\n      calldatasize\n      sub\n      dup2\n      add\n      swap1\n      tag_39\n      swap2\n      swap1\n      tag_20\n      jump\t// in\n    tag_39:\n      tag_40\n      jump\t// in\n    tag_38:\n      stop\n        /* \"contracts/NFTSwap/NFTSwap.sol\":916:1153  function onERC721Received(\r... */\n    tag_15:\n        /* \"contracts/NFTSwap/NFTSwap.sol\":1079:1085  bytes4 */\n      0x00\n        /* \"contracts/NFTSwap/NFTSwap.sol\":1104:1145  IERC721Receiver.onERC721Received.selector */\n      shl(0xe0, 0x150b7a02)\n        /* \"contracts/NFTSwap/NFTSwap.sol\":1097:1145  return IERC721Receiver.onERC721Received.selector */\n      swap1\n      pop\n        /* \"contracts/NFTSwap/NFTSwap.sol\":916:1153  function onERC721Received(\r... */\n      swap6\n      swap5\n      pop\n      pop\n      pop\n      pop\n      pop\n      jump\t// out\n        /* \"contracts/NFTSwap/NFTSwap.sol\":3526:4475  function purchase(address _nftAddr, uint256 _tokenId) payable public {\r... */\n    tag_21:\n        /* \"contracts/NFTSwap/NFTSwap.sol\":3606:3626  Order storage _order */\n      0x00\n        /* \"contracts/NFTSwap/NFTSwap.sol\":3629:3636  nftList */\n      dup1\n        /* \"contracts/NFTSwap/NFTSwap.sol\":3629:3646  nftList[_nftAddr] */\n      0x00\n        /* \"contracts/NFTSwap/NFTSwap.sol\":3637:3645  _nftAddr */\n      dup5\n        /* \"contracts/NFTSwap/NFTSwap.sol\":3629:3646  nftList[_nftAddr] */\n      0xffffffffffffffffffffffffffffffffffffffff\n      and\n      0xffffffffffffffffffffffffffffffffffffffff\n      and\n      dup2\n      mstore\n      0x20\n      add\n      swap1\n      dup2\n      mstore\n      0x20\n      add\n      0x00\n      keccak256\n        /* \"contracts/NFTSwap/NFTSwap.sol\":3629:3656  nftList[_nftAddr][_tokenId] */\n      0x00\n        /* \"contracts/NFTSwap/NFTSwap.sol\":3647:3655  _tokenId */\n      dup4\n        /* \"contracts/NFTSwap/NFTSwap.sol\":3629:3656  nftList[_nftAddr][_tokenId] */\n      dup2\n      mstore\n      0x20\n      add\n      swap1\n      dup2\n      mstore\n      0x20\n      add\n      0x00\n      keccak256\n        /* \"contracts/NFTSwap/NFTSwap.sol\":3606:3656  Order storage _order = nftList[_nftAddr][_tokenId] */\n      swap1\n      pop\n        /* \"contracts/NFTSwap/NFTSwap.sol\":3713:3714  0 */\n      0x00\n        /* \"contracts/NFTSwap/NFTSwap.sol\":3698:3704  _order */\n      dup2\n        /* \"contracts/NFTSwap/NFTSwap.sol\":3698:3710  _order.price */\n      0x01\n      add\n      sload\n        /* \"contracts/NFTSwap/NFTSwap.sol\":3698:3714  _order.price > 0 */\n      gt\n        /* \"contracts/NFTSwap/NFTSwap.sol\":3690:3732  require(_order.price > 0, \"Invalid Price\") */\n      tag_43\n      jumpi\n      mload(0x40)\n      0x08c379a000000000000000000000000000000000000000000000000000000000\n      dup2\n      mstore\n      0x04\n      add\n      tag_44\n      swap1\n      tag_45\n      jump\t// in\n    tag_44:\n      mload(0x40)\n      dup1\n      swap2\n      sub\n      swap1\n      revert\n    tag_43:\n        /* \"contracts/NFTSwap/NFTSwap.sol\":3784:3790  _order */\n      dup1\n        /* \"contracts/NFTSwap/NFTSwap.sol\":3784:3796  _order.price */\n      0x01\n      add\n      sload\n        /* \"contracts/NFTSwap/NFTSwap.sol\":3771:3780  msg.value */\n      callvalue\n        /* \"contracts/NFTSwap/NFTSwap.sol\":3771:3796  msg.value >= _order.price */\n      lt\n      iszero\n        /* \"contracts/NFTSwap/NFTSwap.sol\":3763:3815  require(msg.value >= _order.price, \"Increase price\") */\n      tag_46\n      jumpi\n      mload(0x40)\n      0x08c379a000000000000000000000000000000000000000000000000000000000\n      dup2\n      mstore\n      0x04\n      add\n      tag_47\n      swap1\n      tag_48\n      jump\t// in\n    tag_47:\n      mload(0x40)\n      dup1\n      swap2\n      sub\n      swap1\n      revert\n    tag_46:\n        /* \"contracts/NFTSwap/NFTSwap.sol\":3898:3910  IERC721 _nft */\n      0x00\n        /* \"contracts/NFTSwap/NFTSwap.sol\":3921:3929  _nftAddr */\n      dup4\n        /* \"contracts/NFTSwap/NFTSwap.sol\":3898:3930  IERC721 _nft = IERC721(_nftAddr) */\n      swap1\n      pop\n        /* \"contracts/NFTSwap/NFTSwap.sol\":3983:3987  this */\n      address\n        /* \"contracts/NFTSwap/NFTSwap.sol\":3949:3988  _nft.ownerOf(_tokenId) == address(this) */\n      0xffffffffffffffffffffffffffffffffffffffff\n      and\n        /* \"contracts/NFTSwap/NFTSwap.sol\":3949:3953  _nft */\n      dup2\n        /* \"contracts/NFTSwap/NFTSwap.sol\":3949:3961  _nft.ownerOf */\n      0xffffffffffffffffffffffffffffffffffffffff\n      and\n      0x6352211e\n        /* \"contracts/NFTSwap/NFTSwap.sol\":3962:3970  _tokenId */\n      dup6\n        /* \"contracts/NFTSwap/NFTSwap.sol\":3949:3971  _nft.ownerOf(_tokenId) */\n      mload(0x40)\n      dup3\n      0xffffffff\n      and\n      0xe0\n      shl\n      dup2\n      mstore\n      0x04\n      add\n      tag_49\n      swap2\n      swap1\n      tag_50\n      jump\t// in\n    tag_49:\n      0x20\n      mload(0x40)\n      dup1\n      dup4\n      sub\n      dup2\n      dup7\n      dup1\n      extcodesize\n      iszero\n      dup1\n      iszero\n      tag_51\n      jumpi\n      0x00\n      dup1\n      revert\n    tag_51:\n      pop\n      gas\n      staticcall\n      iszero\n      dup1\n      iszero\n      tag_53\n      jumpi\n      returndatasize\n      0x00\n      dup1\n      returndatacopy\n      revert(0x00, returndatasize)\n    tag_53:\n      pop\n      pop\n      pop\n      pop\n      mload(0x40)\n      returndatasize\n      not(0x1f)\n      0x1f\n      dup3\n      add\n      and\n      dup3\n      add\n      dup1\n      0x40\n      mstore\n      pop\n      dup2\n      add\n      swap1\n      tag_54\n      swap2\n      swap1\n      tag_55\n      jump\t// in\n    tag_54:\n        /* \"contracts/NFTSwap/NFTSwap.sol\":3949:3988  _nft.ownerOf(_tokenId) == address(this) */\n      0xffffffffffffffffffffffffffffffffffffffff\n      and\n      eq\n        /* \"contracts/NFTSwap/NFTSwap.sol\":3941:4006  require(_nft.ownerOf(_tokenId) == address(this), \"Invalid Order\") */\n      tag_56\n      jumpi\n      mload(0x40)\n      0x08c379a000000000000000000000000000000000000000000000000000000000\n      dup2\n      mstore\n      0x04\n      add\n      tag_57\n      swap1\n      tag_58\n      jump\t// in\n    tag_57:\n      mload(0x40)\n      dup1\n      swap2\n      sub\n      swap1\n      revert\n    tag_56:\n        /* \"contracts/NFTSwap/NFTSwap.sol\":4069:4073  _nft */\n      dup1\n        /* \"contracts/NFTSwap/NFTSwap.sol\":4069:4090  _nft.safeTransferFrom */\n      0xffffffffffffffffffffffffffffffffffffffff\n      and\n      0x42842e0e\n        /* \"contracts/NFTSwap/NFTSwap.sol\":4099:4103  this */\n      address\n        /* \"contracts/NFTSwap/NFTSwap.sol\":4106:4116  msg.sender */\n      caller\n        /* \"contracts/NFTSwap/NFTSwap.sol\":4118:4126  _tokenId */\n      dup7\n        /* \"contracts/NFTSwap/NFTSwap.sol\":4069:4127  _nft.safeTransferFrom(address(this), msg.sender, _tokenId) */\n      mload(0x40)\n      dup5\n      0xffffffff\n      and\n      0xe0\n      shl\n      dup2\n      mstore\n      0x04\n      add\n      tag_59\n      swap4\n      swap3\n      swap2\n      swap1\n      tag_60\n      jump\t// in\n    tag_59:\n      0x00\n      mload(0x40)\n      dup1\n      dup4\n      sub\n      dup2\n      0x00\n      dup8\n      dup1\n      extcodesize\n      iszero\n      dup1\n      iszero\n      tag_61\n      jumpi\n      0x00\n      dup1\n      revert\n    tag_61:\n      pop\n      gas\n      call\n      iszero\n      dup1\n      iszero\n      tag_63\n      jumpi\n      returndatasize\n      0x00\n      dup1\n      returndatacopy\n      revert(0x00, returndatasize)\n    tag_63:\n      pop\n      pop\n      pop\n      pop\n        /* \"contracts/NFTSwap/NFTSwap.sol\":4204:4210  _order */\n      dup2\n        /* \"contracts/NFTSwap/NFTSwap.sol\":4204:4216  _order.owner */\n      0x00\n      add\n      0x00\n      swap1\n      sload\n      swap1\n      0x0100\n      exp\n      swap1\n      div\n      0xffffffffffffffffffffffffffffffffffffffff\n      and\n        /* \"contracts/NFTSwap/NFTSwap.sol\":4196:4226  payable(_order.owner).transfer */\n      0xffffffffffffffffffffffffffffffffffffffff\n      and\n        /* \"contracts/NFTSwap/NFTSwap.sol\":4196:4240  payable(_order.owner).transfer(_order.price) */\n      0x08fc\n        /* \"contracts/NFTSwap/NFTSwap.sol\":4227:4233  _order */\n      dup4\n        /* \"contracts/NFTSwap/NFTSwap.sol\":4227:4239  _order.price */\n      0x01\n      add\n      sload\n        /* \"contracts/NFTSwap/NFTSwap.sol\":4196:4240  payable(_order.owner).transfer(_order.price) */\n      swap1\n      dup2\n      iszero\n      mul\n      swap1\n      mload(0x40)\n      0x00\n      mload(0x40)\n      dup1\n      dup4\n      sub\n      dup2\n      dup6\n      dup9\n      dup9\n      call\n      swap4\n      pop\n      pop\n      pop\n      pop\n      iszero\n      dup1\n      iszero\n      tag_65\n      jumpi\n      returndatasize\n      0x00\n      dup1\n      returndatacopy\n      revert(0x00, returndatasize)\n    tag_65:\n      pop\n        /* \"contracts/NFTSwap/NFTSwap.sol\":4259:4269  msg.sender */\n      caller\n        /* \"contracts/NFTSwap/NFTSwap.sol\":4251:4279  payable(msg.sender).transfer */\n      0xffffffffffffffffffffffffffffffffffffffff\n      and\n        /* \"contracts/NFTSwap/NFTSwap.sol\":4251:4303  payable(msg.sender).transfer(msg.value-_order.price) */\n      0x08fc\n        /* \"contracts/NFTSwap/NFTSwap.sol\":4290:4296  _order */\n      dup4\n        /* \"contracts/NFTSwap/NFTSwap.sol\":4290:4302  _order.price */\n      0x01\n      add\n      sload\n        /* \"contracts/NFTSwap/NFTSwap.sol\":4280:4289  msg.value */\n      callvalue\n        /* \"contracts/NFTSwap/NFTSwap.sol\":4280:4302  msg.value-_order.price */\n      tag_66\n      swap2\n      swap1\n      tag_67\n      jump\t// in\n    tag_66:\n        /* \"contracts/NFTSwap/NFTSwap.sol\":4251:4303  payable(msg.sender).transfer(msg.value-_order.price) */\n      swap1\n      dup2\n      iszero\n      mul\n      swap1\n      mload(0x40)\n      0x00\n      mload(0x40)\n      dup1\n      dup4\n      sub\n      dup2\n      dup6\n      dup9\n      dup9\n      call\n      swap4\n      pop\n      pop\n      pop\n      pop\n      iszero\n      dup1\n      iszero\n      tag_69\n      jumpi\n      returndatasize\n      0x00\n      dup1\n      returndatacopy\n      revert(0x00, returndatasize)\n    tag_69:\n      pop\n        /* \"contracts/NFTSwap/NFTSwap.sol\":4323:4330  nftList */\n      0x00\n        /* \"contracts/NFTSwap/NFTSwap.sol\":4323:4340  nftList[_nftAddr] */\n      dup1\n        /* \"contracts/NFTSwap/NFTSwap.sol\":4331:4339  _nftAddr */\n      dup6\n        /* \"contracts/NFTSwap/NFTSwap.sol\":4323:4340  nftList[_nftAddr] */\n      0xffffffffffffffffffffffffffffffffffffffff\n      and\n      0xffffffffffffffffffffffffffffffffffffffff\n      and\n      dup2\n      mstore\n      0x20\n      add\n      swap1\n      dup2\n      mstore\n      0x20\n      add\n      0x00\n      keccak256\n        /* \"contracts/NFTSwap/NFTSwap.sol\":4323:4350  nftList[_nftAddr][_tokenId] */\n      0x00\n        /* \"contracts/NFTSwap/NFTSwap.sol\":4341:4349  _tokenId */\n      dup5\n        /* \"contracts/NFTSwap/NFTSwap.sol\":4323:4350  nftList[_nftAddr][_tokenId] */\n      dup2\n      mstore\n      0x20\n      add\n      swap1\n      dup2\n      mstore\n      0x20\n      add\n      0x00\n      keccak256\n      0x00\n        /* \"contracts/NFTSwap/NFTSwap.sol\":4316:4350  delete nftList[_nftAddr][_tokenId] */\n      dup1\n      dup3\n      add\n      exp(0x0100, 0x00)\n      dup2\n      sload\n      swap1\n      0xffffffffffffffffffffffffffffffffffffffff\n      mul\n      not\n      and\n      swap1\n      sstore\n      0x01\n      dup3\n      add\n      0x00\n      swap1\n      sstore\n      pop\n      pop\n        /* \"contracts/NFTSwap/NFTSwap.sol\":4447:4455  _tokenId */\n      dup3\n        /* \"contracts/NFTSwap/NFTSwap.sol\":4437:4445  _nftAddr */\n      dup5\n        /* \"contracts/NFTSwap/NFTSwap.sol\":4416:4467  Purchase(msg.sender, _nftAddr, _tokenId, msg.value) */\n      0xffffffffffffffffffffffffffffffffffffffff\n      and\n        /* \"contracts/NFTSwap/NFTSwap.sol\":4425:4435  msg.sender */\n      caller\n        /* \"contracts/NFTSwap/NFTSwap.sol\":4416:4467  Purchase(msg.sender, _nftAddr, _tokenId, msg.value) */\n      0xffffffffffffffffffffffffffffffffffffffff\n      and\n      0x46661dab58311a6838247afecbee792192b4f27fc8b3e7168c66bc55ec2e404e\n        /* \"contracts/NFTSwap/NFTSwap.sol\":4457:4466  msg.value */\n      callvalue\n        /* \"contracts/NFTSwap/NFTSwap.sol\":4416:4467  Purchase(msg.sender, _nftAddr, _tokenId, msg.value) */\n      mload(0x40)\n      tag_70\n      swap2\n      swap1\n      tag_50\n      jump\t// in\n    tag_70:\n      mload(0x40)\n      dup1\n      swap2\n      sub\n      swap1\n      log4\n        /* \"contracts/NFTSwap/NFTSwap.sol\":3595:4475  {\r... */\n      pop\n      pop\n        /* \"contracts/NFTSwap/NFTSwap.sol\":3526:4475  function purchase(address _nftAddr, uint256 _tokenId) payable public {\r... */\n      pop\n      pop\n      jump\t// out\n        /* \"contracts/NFTSwap/NFTSwap.sol\":732:792  mapping(address => mapping(uint256 => Order)) public nftList */\n    tag_25:\n      mstore(0x20, 0x00)\n      dup2\n      0x00\n      mstore\n      mstore(0x20, keccak256(0x00, 0x40))\n      dup1\n      0x00\n      mstore\n      keccak256(0x00, 0x40)\n      0x00\n      swap2\n      pop\n      swap2\n      pop\n      pop\n      dup1\n      0x00\n      add\n      0x00\n      swap1\n      sload\n      swap1\n      0x0100\n      exp\n      swap1\n      div\n      0xffffffffffffffffffffffffffffffffffffffff\n      and\n      swap1\n      dup1\n      0x01\n      add\n      sload\n      swap1\n      pop\n      dup3\n      jump\t// out\n        /* \"contracts/NFTSwap/NFTSwap.sol\":2729:3415  function update(address _nftAddr, uint256 _tokenId, uint256 _newPrice) public {\r... */\n    tag_32:\n        /* \"contracts/NFTSwap/NFTSwap.sol\":2838:2839  0 */\n      0x00\n        /* \"contracts/NFTSwap/NFTSwap.sol\":2826:2835  _newPrice */\n      dup2\n        /* \"contracts/NFTSwap/NFTSwap.sol\":2826:2839  _newPrice > 0 */\n      gt\n        /* \"contracts/NFTSwap/NFTSwap.sol\":2818:2857  require(_newPrice > 0, \"Invalid Price\") */\n      tag_72\n      jumpi\n      mload(0x40)\n      0x08c379a000000000000000000000000000000000000000000000000000000000\n      dup2\n      mstore\n      0x04\n      add\n      tag_73\n      swap1\n      tag_45\n      jump\t// in\n    tag_73:\n      mload(0x40)\n      dup1\n      swap2\n      sub\n      swap1\n      revert\n    tag_72:\n        /* \"contracts/NFTSwap/NFTSwap.sol\":2888:2908  Order storage _order */\n      0x00\n        /* \"contracts/NFTSwap/NFTSwap.sol\":2911:2918  nftList */\n      dup1\n        /* \"contracts/NFTSwap/NFTSwap.sol\":2911:2928  nftList[_nftAddr] */\n      0x00\n        /* \"contracts/NFTSwap/NFTSwap.sol\":2919:2927  _nftAddr */\n      dup6\n        /* \"contracts/NFTSwap/NFTSwap.sol\":2911:2928  nftList[_nftAddr] */\n      0xffffffffffffffffffffffffffffffffffffffff\n      and\n      0xffffffffffffffffffffffffffffffffffffffff\n      and\n      dup2\n      mstore\n      0x20\n      add\n      swap1\n      dup2\n      mstore\n      0x20\n      add\n      0x00\n      keccak256\n        /* \"contracts/NFTSwap/NFTSwap.sol\":2911:2938  nftList[_nftAddr][_tokenId] */\n      0x00\n        /* \"contracts/NFTSwap/NFTSwap.sol\":2929:2937  _tokenId */\n      dup5\n        /* \"contracts/NFTSwap/NFTSwap.sol\":2911:2938  nftList[_nftAddr][_tokenId] */\n      dup2\n      mstore\n      0x20\n      add\n      swap1\n      dup2\n      mstore\n      0x20\n      add\n      0x00\n      keccak256\n        /* \"contracts/NFTSwap/NFTSwap.sol\":2888:2938  Order storage _order = nftList[_nftAddr][_tokenId] */\n      swap1\n      pop\n        /* \"contracts/NFTSwap/NFTSwap.sol\":2996:3006  msg.sender */\n      caller\n        /* \"contracts/NFTSwap/NFTSwap.sol\":2980:3006  _order.owner == msg.sender */\n      0xffffffffffffffffffffffffffffffffffffffff\n      and\n        /* \"contracts/NFTSwap/NFTSwap.sol\":2980:2986  _order */\n      dup2\n        /* \"contracts/NFTSwap/NFTSwap.sol\":2980:2992  _order.owner */\n      0x00\n      add\n      0x00\n      swap1\n      sload\n      swap1\n      0x0100\n      exp\n      swap1\n      div\n      0xffffffffffffffffffffffffffffffffffffffff\n      and\n        /* \"contracts/NFTSwap/NFTSwap.sol\":2980:3006  _order.owner == msg.sender */\n      0xffffffffffffffffffffffffffffffffffffffff\n      and\n      eq\n        /* \"contracts/NFTSwap/NFTSwap.sol\":2972:3020  require(_order.owner == msg.sender, \"Not Owner\") */\n      tag_74\n      jumpi\n      mload(0x40)\n      0x08c379a000000000000000000000000000000000000000000000000000000000\n      dup2\n      mstore\n      0x04\n      add\n      tag_75\n      swap1\n      tag_76\n      jump\t// in\n    tag_75:\n      mload(0x40)\n      dup1\n      swap2\n      sub\n      swap1\n      revert\n    tag_74:\n        /* \"contracts/NFTSwap/NFTSwap.sol\":3103:3115  IERC721 _nft */\n      0x00\n        /* \"contracts/NFTSwap/NFTSwap.sol\":3126:3134  _nftAddr */\n      dup5\n        /* \"contracts/NFTSwap/NFTSwap.sol\":3103:3135  IERC721 _nft = IERC721(_nftAddr) */\n      swap1\n      pop\n        /* \"contracts/NFTSwap/NFTSwap.sol\":3188:3192  this */\n      address\n        /* \"contracts/NFTSwap/NFTSwap.sol\":3154:3193  _nft.ownerOf(_tokenId) == address(this) */\n      0xffffffffffffffffffffffffffffffffffffffff\n      and\n        /* \"contracts/NFTSwap/NFTSwap.sol\":3154:3158  _nft */\n      dup2\n        /* \"contracts/NFTSwap/NFTSwap.sol\":3154:3166  _nft.ownerOf */\n      0xffffffffffffffffffffffffffffffffffffffff\n      and\n      0x6352211e\n        /* \"contracts/NFTSwap/NFTSwap.sol\":3167:3175  _tokenId */\n      dup7\n        /* \"contracts/NFTSwap/NFTSwap.sol\":3154:3176  _nft.ownerOf(_tokenId) */\n      mload(0x40)\n      dup3\n      0xffffffff\n      and\n      0xe0\n      shl\n      dup2\n      mstore\n      0x04\n      add\n      tag_77\n      swap2\n      swap1\n      tag_50\n      jump\t// in\n    tag_77:\n      0x20\n      mload(0x40)\n      dup1\n      dup4\n      sub\n      dup2\n      dup7\n      dup1\n      extcodesize\n      iszero\n      dup1\n      iszero\n      tag_78\n      jumpi\n      0x00\n      dup1\n      revert\n    tag_78:\n      pop\n      gas\n      staticcall\n      iszero\n      dup1\n      iszero\n      tag_80\n      jumpi\n      returndatasize\n      0x00\n      dup1\n      returndatacopy\n      revert(0x00, returndatasize)\n    tag_80:\n      pop\n      pop\n      pop\n      pop\n      mload(0x40)\n      returndatasize\n      not(0x1f)\n      0x1f\n      dup3\n      add\n      and\n      dup3\n      add\n      dup1\n      0x40\n      mstore\n      pop\n      dup2\n      add\n      swap1\n      tag_81\n      swap2\n      swap1\n      tag_55\n      jump\t// in\n    tag_81:\n        /* \"contracts/NFTSwap/NFTSwap.sol\":3154:3193  _nft.ownerOf(_tokenId) == address(this) */\n      0xffffffffffffffffffffffffffffffffffffffff\n      and\n      eq\n        /* \"contracts/NFTSwap/NFTSwap.sol\":3146:3211  require(_nft.ownerOf(_tokenId) == address(this), \"Invalid Order\") */\n      tag_82\n      jumpi\n      mload(0x40)\n      0x08c379a000000000000000000000000000000000000000000000000000000000\n      dup2\n      mstore\n      0x04\n      add\n      tag_83\n      swap1\n      tag_58\n      jump\t// in\n    tag_83:\n      mload(0x40)\n      dup1\n      swap2\n      sub\n      swap1\n      revert\n    tag_82:\n        /* \"contracts/NFTSwap/NFTSwap.sol\":3294:3303  _newPrice */\n      dup3\n        /* \"contracts/NFTSwap/NFTSwap.sol\":3279:3285  _order */\n      dup3\n        /* \"contracts/NFTSwap/NFTSwap.sol\":3279:3291  _order.price */\n      0x01\n      add\n        /* \"contracts/NFTSwap/NFTSwap.sol\":3279:3303  _order.price = _newPrice */\n      dup2\n      swap1\n      sstore\n      pop\n        /* \"contracts/NFTSwap/NFTSwap.sol\":3387:3395  _tokenId */\n      dup4\n        /* \"contracts/NFTSwap/NFTSwap.sol\":3377:3385  _nftAddr */\n      dup6\n        /* \"contracts/NFTSwap/NFTSwap.sol\":3358:3407  Update(msg.sender, _nftAddr, _tokenId, _newPrice) */\n      0xffffffffffffffffffffffffffffffffffffffff\n      and\n        /* \"contracts/NFTSwap/NFTSwap.sol\":3365:3375  msg.sender */\n      caller\n        /* \"contracts/NFTSwap/NFTSwap.sol\":3358:3407  Update(msg.sender, _nftAddr, _tokenId, _newPrice) */\n      0xffffffffffffffffffffffffffffffffffffffff\n      and\n      0xb7f0ca7cd5b24651672216886135b99ff40342bcf549009a4c6fc74f059fb9a0\n        /* \"contracts/NFTSwap/NFTSwap.sol\":3397:3406  _newPrice */\n      dup7\n        /* \"contracts/NFTSwap/NFTSwap.sol\":3358:3407  Update(msg.sender, _nftAddr, _tokenId, _newPrice) */\n      mload(0x40)\n      tag_84\n      swap2\n      swap1\n      tag_50\n      jump\t// in\n    tag_84:\n      mload(0x40)\n      dup1\n      swap2\n      sub\n      swap1\n      log4\n        /* \"contracts/NFTSwap/NFTSwap.sol\":2807:3415  {\r... */\n      pop\n      pop\n        /* \"contracts/NFTSwap/NFTSwap.sol\":2729:3415  function update(address _nftAddr, uint256 _tokenId, uint256 _newPrice) public {\r... */\n      pop\n      pop\n      pop\n      jump\t// out\n        /* \"contracts/NFTSwap/NFTSwap.sol\":1285:1946  function list(address _nftAddr, uint256 _tokenId, uint256 _price) public{\r... */\n    tag_36:\n        /* \"contracts/NFTSwap/NFTSwap.sol\":1368:1380  IERC721 _nft */\n      0x00\n        /* \"contracts/NFTSwap/NFTSwap.sol\":1391:1399  _nftAddr */\n      dup4\n        /* \"contracts/NFTSwap/NFTSwap.sol\":1368:1400  IERC721 _nft = IERC721(_nftAddr) */\n      swap1\n      pop\n        /* \"contracts/NFTSwap/NFTSwap.sol\":1492:1496  this */\n      address\n        /* \"contracts/NFTSwap/NFTSwap.sol\":1454:1497  _nft.getApproved(_tokenId) == address(this) */\n      0xffffffffffffffffffffffffffffffffffffffff\n      and\n        /* \"contracts/NFTSwap/NFTSwap.sol\":1454:1458  _nft */\n      dup2\n        /* \"contracts/NFTSwap/NFTSwap.sol\":1454:1470  _nft.getApproved */\n      0xffffffffffffffffffffffffffffffffffffffff\n      and\n      0x081812fc\n        /* \"contracts/NFTSwap/NFTSwap.sol\":1471:1479  _tokenId */\n      dup6\n        /* \"contracts/NFTSwap/NFTSwap.sol\":1454:1480  _nft.getApproved(_tokenId) */\n      mload(0x40)\n      dup3\n      0xffffffff\n      and\n      0xe0\n      shl\n      dup2\n      mstore\n      0x04\n      add\n      tag_86\n      swap2\n      swap1\n      tag_50\n      jump\t// in\n    tag_86:\n      0x20\n      mload(0x40)\n      dup1\n      dup4\n      sub\n      dup2\n      dup7\n      dup1\n      extcodesize\n      iszero\n      dup1\n      iszero\n      tag_87\n      jumpi\n      0x00\n      dup1\n      revert\n    tag_87:\n      pop\n      gas\n      staticcall\n      iszero\n      dup1\n      iszero\n      tag_89\n      jumpi\n      returndatasize\n      0x00\n      dup1\n      returndatacopy\n      revert(0x00, returndatasize)\n    tag_89:\n      pop\n      pop\n      pop\n      pop\n      mload(0x40)\n      returndatasize\n      not(0x1f)\n      0x1f\n      dup3\n      add\n      and\n      dup3\n      add\n      dup1\n      0x40\n      mstore\n      pop\n      dup2\n      add\n      swap1\n      tag_90\n      swap2\n      swap1\n      tag_55\n      jump\t// in\n    tag_90:\n        /* \"contracts/NFTSwap/NFTSwap.sol\":1454:1497  _nft.getApproved(_tokenId) == address(this) */\n      0xffffffffffffffffffffffffffffffffffffffff\n      and\n      eq\n        /* \"contracts/NFTSwap/NFTSwap.sol\":1446:1515  require(_nft.getApproved(_tokenId) == address(this), \"Need Approval\") */\n      tag_91\n      jumpi\n      mload(0x40)\n      0x08c379a000000000000000000000000000000000000000000000000000000000\n      dup2\n      mstore\n      0x04\n      add\n      tag_92\n      swap1\n      tag_93\n      jump\t// in\n    tag_92:\n      mload(0x40)\n      dup1\n      swap2\n      sub\n      swap1\n      revert\n    tag_91:\n        /* \"contracts/NFTSwap/NFTSwap.sol\":1565:1566  0 */\n      0x00\n        /* \"contracts/NFTSwap/NFTSwap.sol\":1556:1562  _price */\n      dup3\n        /* \"contracts/NFTSwap/NFTSwap.sol\":1556:1566  _price > 0 */\n      gt\n        /* \"contracts/NFTSwap/NFTSwap.sol\":1548:1567  require(_price > 0) */\n      tag_94\n      jumpi\n      0x00\n      dup1\n      revert\n    tag_94:\n        /* \"contracts/NFTSwap/NFTSwap.sol\":1597:1617  Order storage _order */\n      0x00\n        /* \"contracts/NFTSwap/NFTSwap.sol\":1620:1627  nftList */\n      dup1\n        /* \"contracts/NFTSwap/NFTSwap.sol\":1620:1637  nftList[_nftAddr] */\n      0x00\n        /* \"contracts/NFTSwap/NFTSwap.sol\":1628:1636  _nftAddr */\n      dup7\n        /* \"contracts/NFTSwap/NFTSwap.sol\":1620:1637  nftList[_nftAddr] */\n      0xffffffffffffffffffffffffffffffffffffffff\n      and\n      0xffffffffffffffffffffffffffffffffffffffff\n      and\n      dup2\n      mstore\n      0x20\n      add\n      swap1\n      dup2\n      mstore\n      0x20\n      add\n      0x00\n      keccak256\n        /* \"contracts/NFTSwap/NFTSwap.sol\":1620:1647  nftList[_nftAddr][_tokenId] */\n      0x00\n        /* \"contracts/NFTSwap/NFTSwap.sol\":1638:1646  _tokenId */\n      dup6\n        /* \"contracts/NFTSwap/NFTSwap.sol\":1620:1647  nftList[_nftAddr][_tokenId] */\n      dup2\n      mstore\n      0x20\n      add\n      swap1\n      dup2\n      mstore\n      0x20\n      add\n      0x00\n      keccak256\n        /* \"contracts/NFTSwap/NFTSwap.sol\":1597:1647  Order storage _order = nftList[_nftAddr][_tokenId] */\n      swap1\n      pop\n        /* \"contracts/NFTSwap/NFTSwap.sol\":1702:1712  msg.sender */\n      caller\n        /* \"contracts/NFTSwap/NFTSwap.sol\":1687:1693  _order */\n      dup2\n        /* \"contracts/NFTSwap/NFTSwap.sol\":1687:1699  _order.owner */\n      0x00\n      add\n      0x00\n        /* \"contracts/NFTSwap/NFTSwap.sol\":1687:1712  _order.owner = msg.sender */\n      0x0100\n      exp\n      dup2\n      sload\n      dup2\n      0xffffffffffffffffffffffffffffffffffffffff\n      mul\n      not\n      and\n      swap1\n      dup4\n      0xffffffffffffffffffffffffffffffffffffffff\n      and\n      mul\n      or\n      swap1\n      sstore\n      pop\n        /* \"contracts/NFTSwap/NFTSwap.sol\":1738:1744  _price */\n      dup3\n        /* \"contracts/NFTSwap/NFTSwap.sol\":1723:1729  _order */\n      dup2\n        /* \"contracts/NFTSwap/NFTSwap.sol\":1723:1735  _order.price */\n      0x01\n      add\n        /* \"contracts/NFTSwap/NFTSwap.sol\":1723:1744  _order.price = _price */\n      dup2\n      swap1\n      sstore\n      pop\n        /* \"contracts/NFTSwap/NFTSwap.sol\":1789:1793  _nft */\n      dup2\n        /* \"contracts/NFTSwap/NFTSwap.sol\":1789:1810  _nft.safeTransferFrom */\n      0xffffffffffffffffffffffffffffffffffffffff\n      and\n      0x42842e0e\n        /* \"contracts/NFTSwap/NFTSwap.sol\":1811:1821  msg.sender */\n      caller\n        /* \"contracts/NFTSwap/NFTSwap.sol\":1831:1835  this */\n      address\n        /* \"contracts/NFTSwap/NFTSwap.sol\":1838:1846  _tokenId */\n      dup8\n        /* \"contracts/NFTSwap/NFTSwap.sol\":1789:1847  _nft.safeTransferFrom(msg.sender, address(this), _tokenId) */\n      mload(0x40)\n      dup5\n      0xffffffff\n      and\n      0xe0\n      shl\n      dup2\n      mstore\n      0x04\n      add\n      tag_95\n      swap4\n      swap3\n      swap2\n      swap1\n      tag_60\n      jump\t// in\n    tag_95:\n      0x00\n      mload(0x40)\n      dup1\n      dup4\n      sub\n      dup2\n      0x00\n      dup8\n      dup1\n      extcodesize\n      iszero\n      dup1\n      iszero\n      tag_96\n      jumpi\n      0x00\n      dup1\n      revert\n    tag_96:\n      pop\n      gas\n      call\n      iszero\n      dup1\n      iszero\n      tag_98\n      jumpi\n      returndatasize\n      0x00\n      dup1\n      returndatacopy\n      revert(0x00, returndatasize)\n    tag_98:\n      pop\n      pop\n      pop\n      pop\n        /* \"contracts/NFTSwap/NFTSwap.sol\":1921:1929  _tokenId */\n      dup4\n        /* \"contracts/NFTSwap/NFTSwap.sol\":1911:1919  _nftAddr */\n      dup6\n        /* \"contracts/NFTSwap/NFTSwap.sol\":1894:1938  List(msg.sender, _nftAddr, _tokenId, _price) */\n      0xffffffffffffffffffffffffffffffffffffffff\n      and\n        /* \"contracts/NFTSwap/NFTSwap.sol\":1899:1909  msg.sender */\n      caller\n        /* \"contracts/NFTSwap/NFTSwap.sol\":1894:1938  List(msg.sender, _nftAddr, _tokenId, _price) */\n      0xffffffffffffffffffffffffffffffffffffffff\n      and\n      0xedbdf022944a3291f4b30148903a84720506f48e10478ec5812e5caf30e1fab0\n        /* \"contracts/NFTSwap/NFTSwap.sol\":1931:1937  _price */\n      dup7\n        /* \"contracts/NFTSwap/NFTSwap.sol\":1894:1938  List(msg.sender, _nftAddr, _tokenId, _price) */\n      mload(0x40)\n      tag_99\n      swap2\n      swap1\n      tag_50\n      jump\t// in\n    tag_99:\n      mload(0x40)\n      dup1\n      swap2\n      sub\n      swap1\n      log4\n        /* \"contracts/NFTSwap/NFTSwap.sol\":1357:1946  {\r... */\n      pop\n      pop\n        /* \"contracts/NFTSwap/NFTSwap.sol\":1285:1946  function list(address _nftAddr, uint256 _tokenId, uint256 _price) public{\r... */\n      pop\n      pop\n      pop\n      jump\t// out\n        /* \"contracts/NFTSwap/NFTSwap.sol\":1991:2674  function revoke(address _nftAddr, uint256 _tokenId) public {\r... */\n    tag_40:\n        /* \"contracts/NFTSwap/NFTSwap.sol\":2061:2081  Order storage _order */\n      0x00\n        /* \"contracts/NFTSwap/NFTSwap.sol\":2084:2091  nftList */\n      dup1\n        /* \"contracts/NFTSwap/NFTSwap.sol\":2084:2101  nftList[_nftAddr] */\n      0x00\n        /* \"contracts/NFTSwap/NFTSwap.sol\":2092:2100  _nftAddr */\n      dup5\n        /* \"contracts/NFTSwap/NFTSwap.sol\":2084:2101  nftList[_nftAddr] */\n      0xffffffffffffffffffffffffffffffffffffffff\n      and\n      0xffffffffffffffffffffffffffffffffffffffff\n      and\n      dup2\n      mstore\n      0x20\n      add\n      swap1\n      dup2\n      mstore\n      0x20\n      add\n      0x00\n      keccak256\n        /* \"contracts/NFTSwap/NFTSwap.sol\":2084:2111  nftList[_nftAddr][_tokenId] */\n      0x00\n        /* \"contracts/NFTSwap/NFTSwap.sol\":2102:2110  _tokenId */\n      dup4\n        /* \"contracts/NFTSwap/NFTSwap.sol\":2084:2111  nftList[_nftAddr][_tokenId] */\n      dup2\n      mstore\n      0x20\n      add\n      swap1\n      dup2\n      mstore\n      0x20\n      add\n      0x00\n      keccak256\n        /* \"contracts/NFTSwap/NFTSwap.sol\":2061:2111  Order storage _order = nftList[_nftAddr][_tokenId] */\n      swap1\n      pop\n        /* \"contracts/NFTSwap/NFTSwap.sol\":2169:2179  msg.sender */\n      caller\n        /* \"contracts/NFTSwap/NFTSwap.sol\":2153:2179  _order.owner == msg.sender */\n      0xffffffffffffffffffffffffffffffffffffffff\n      and\n        /* \"contracts/NFTSwap/NFTSwap.sol\":2153:2159  _order */\n      dup2\n        /* \"contracts/NFTSwap/NFTSwap.sol\":2153:2165  _order.owner */\n      0x00\n      add\n      0x00\n      swap1\n      sload\n      swap1\n      0x0100\n      exp\n      swap1\n      div\n      0xffffffffffffffffffffffffffffffffffffffff\n      and\n        /* \"contracts/NFTSwap/NFTSwap.sol\":2153:2179  _order.owner == msg.sender */\n      0xffffffffffffffffffffffffffffffffffffffff\n      and\n      eq\n        /* \"contracts/NFTSwap/NFTSwap.sol\":2145:2193  require(_order.owner == msg.sender, \"Not Owner\") */\n      tag_101\n      jumpi\n      mload(0x40)\n      0x08c379a000000000000000000000000000000000000000000000000000000000\n      dup2\n      mstore\n      0x04\n      add\n      tag_102\n      swap1\n      tag_76\n      jump\t// in\n    tag_102:\n      mload(0x40)\n      dup1\n      swap2\n      sub\n      swap1\n      revert\n    tag_101:\n        /* \"contracts/NFTSwap/NFTSwap.sol\":2276:2288  IERC721 _nft */\n      0x00\n        /* \"contracts/NFTSwap/NFTSwap.sol\":2299:2307  _nftAddr */\n      dup4\n        /* \"contracts/NFTSwap/NFTSwap.sol\":2276:2308  IERC721 _nft = IERC721(_nftAddr) */\n      swap1\n      pop\n        /* \"contracts/NFTSwap/NFTSwap.sol\":2361:2365  this */\n      address\n        /* \"contracts/NFTSwap/NFTSwap.sol\":2327:2366  _nft.ownerOf(_tokenId) == address(this) */\n      0xffffffffffffffffffffffffffffffffffffffff\n      and\n        /* \"contracts/NFTSwap/NFTSwap.sol\":2327:2331  _nft */\n      dup2\n        /* \"contracts/NFTSwap/NFTSwap.sol\":2327:2339  _nft.ownerOf */\n      0xffffffffffffffffffffffffffffffffffffffff\n      and\n      0x6352211e\n        /* \"contracts/NFTSwap/NFTSwap.sol\":2340:2348  _tokenId */\n      dup6\n        /* \"contracts/NFTSwap/NFTSwap.sol\":2327:2349  _nft.ownerOf(_tokenId) */\n      mload(0x40)\n      dup3\n      0xffffffff\n      and\n      0xe0\n      shl\n      dup2\n      mstore\n      0x04\n      add\n      tag_103\n      swap2\n      swap1\n      tag_50\n      jump\t// in\n    tag_103:\n      0x20\n      mload(0x40)\n      dup1\n      dup4\n      sub\n      dup2\n      dup7\n      dup1\n      extcodesize\n      iszero\n      dup1\n      iszero\n      tag_104\n      jumpi\n      0x00\n      dup1\n      revert\n    tag_104:\n      pop\n      gas\n      staticcall\n      iszero\n      dup1\n      iszero\n      tag_106\n      jumpi\n      returndatasize\n      0x00\n      dup1\n      returndatacopy\n      revert(0x00, returndatasize)\n    tag_106:\n      pop\n      pop\n      pop\n      pop\n      mload(0x40)\n      returndatasize\n      not(0x1f)\n      0x1f\n      dup3\n      add\n      and\n      dup3\n      add\n      dup1\n      0x40\n      mstore\n      pop\n      dup2\n      add\n      swap1\n      tag_107\n      swap2\n      swap1\n      tag_55\n      jump\t// in\n    tag_107:\n        /* \"contracts/NFTSwap/NFTSwap.sol\":2327:2366  _nft.ownerOf(_tokenId) == address(this) */\n      0xffffffffffffffffffffffffffffffffffffffff\n      and\n      eq\n        /* \"contracts/NFTSwap/NFTSwap.sol\":2319:2384  require(_nft.ownerOf(_tokenId) == address(this), \"Invalid Order\") */\n      tag_108\n      jumpi\n      mload(0x40)\n      0x08c379a000000000000000000000000000000000000000000000000000000000\n      dup2\n      mstore\n      0x04\n      add\n      tag_109\n      swap1\n      tag_58\n      jump\t// in\n    tag_109:\n      mload(0x40)\n      dup1\n      swap2\n      sub\n      swap1\n      revert\n    tag_108:\n        /* \"contracts/NFTSwap/NFTSwap.sol\":2455:2459  _nft */\n      dup1\n        /* \"contracts/NFTSwap/NFTSwap.sol\":2455:2476  _nft.safeTransferFrom */\n      0xffffffffffffffffffffffffffffffffffffffff\n      and\n      0x42842e0e\n        /* \"contracts/NFTSwap/NFTSwap.sol\":2485:2489  this */\n      address\n        /* \"contracts/NFTSwap/NFTSwap.sol\":2492:2502  msg.sender */\n      caller\n        /* \"contracts/NFTSwap/NFTSwap.sol\":2504:2512  _tokenId */\n      dup7\n        /* \"contracts/NFTSwap/NFTSwap.sol\":2455:2513  _nft.safeTransferFrom(address(this), msg.sender, _tokenId) */\n      mload(0x40)\n      dup5\n      0xffffffff\n      and\n      0xe0\n      shl\n      dup2\n      mstore\n      0x04\n      add\n      tag_110\n      swap4\n      swap3\n      swap2\n      swap1\n      tag_60\n      jump\t// in\n    tag_110:\n      0x00\n      mload(0x40)\n      dup1\n      dup4\n      sub\n      dup2\n      0x00\n      dup8\n      dup1\n      extcodesize\n      iszero\n      dup1\n      iszero\n      tag_111\n      jumpi\n      0x00\n      dup1\n      revert\n    tag_111:\n      pop\n      gas\n      call\n      iszero\n      dup1\n      iszero\n      tag_113\n      jumpi\n      returndatasize\n      0x00\n      dup1\n      returndatacopy\n      revert(0x00, returndatasize)\n    tag_113:\n      pop\n      pop\n      pop\n      pop\n        /* \"contracts/NFTSwap/NFTSwap.sol\":2531:2538  nftList */\n      0x00\n        /* \"contracts/NFTSwap/NFTSwap.sol\":2531:2548  nftList[_nftAddr] */\n      dup1\n        /* \"contracts/NFTSwap/NFTSwap.sol\":2539:2547  _nftAddr */\n      dup6\n        /* \"contracts/NFTSwap/NFTSwap.sol\":2531:2548  nftList[_nftAddr] */\n      0xffffffffffffffffffffffffffffffffffffffff\n      and\n      0xffffffffffffffffffffffffffffffffffffffff\n      and\n      dup2\n      mstore\n      0x20\n      add\n      swap1\n      dup2\n      mstore\n      0x20\n      add\n      0x00\n      keccak256\n        /* \"contracts/NFTSwap/NFTSwap.sol\":2531:2558  nftList[_nftAddr][_tokenId] */\n      0x00\n        /* \"contracts/NFTSwap/NFTSwap.sol\":2549:2557  _tokenId */\n      dup5\n        /* \"contracts/NFTSwap/NFTSwap.sol\":2531:2558  nftList[_nftAddr][_tokenId] */\n      dup2\n      mstore\n      0x20\n      add\n      swap1\n      dup2\n      mstore\n      0x20\n      add\n      0x00\n      keccak256\n      0x00\n        /* \"contracts/NFTSwap/NFTSwap.sol\":2524:2558  delete nftList[_nftAddr][_tokenId] */\n      dup1\n      dup3\n      add\n      exp(0x0100, 0x00)\n      dup2\n      sload\n      swap1\n      0xffffffffffffffffffffffffffffffffffffffff\n      mul\n      not\n      and\n      swap1\n      sstore\n      0x01\n      dup3\n      add\n      0x00\n      swap1\n      sstore\n      pop\n      pop\n        /* \"contracts/NFTSwap/NFTSwap.sol\":2657:2665  _tokenId */\n      dup3\n        /* \"contracts/NFTSwap/NFTSwap.sol\":2647:2655  _nftAddr */\n      dup5\n        /* \"contracts/NFTSwap/NFTSwap.sol\":2628:2666  Revoke(msg.sender, _nftAddr, _tokenId) */\n      0xffffffffffffffffffffffffffffffffffffffff\n      and\n        /* \"contracts/NFTSwap/NFTSwap.sol\":2635:2645  msg.sender */\n      caller\n        /* \"contracts/NFTSwap/NFTSwap.sol\":2628:2666  Revoke(msg.sender, _nftAddr, _tokenId) */\n      0xffffffffffffffffffffffffffffffffffffffff\n      and\n      0xb698e31a2abee5824d0d7bcfd2339aead7f9e9ae413fba50bf554ff3fa470b7b\n      mload(0x40)\n      mload(0x40)\n      dup1\n      swap2\n      sub\n      swap1\n      log4\n        /* \"contracts/NFTSwap/NFTSwap.sol\":2050:2674  {\r... */\n      pop\n      pop\n        /* \"contracts/NFTSwap/NFTSwap.sol\":1991:2674  function revoke(address _nftAddr, uint256 _tokenId) public {\r... */\n      pop\n      pop\n      jump\t// out\n        /* \"#utility.yul\":7:146   */\n    tag_115:\n        /* \"#utility.yul\":53:58   */\n      0x00\n        /* \"#utility.yul\":91:97   */\n      dup2\n        /* \"#utility.yul\":78:98   */\n      calldataload\n        /* \"#utility.yul\":69:98   */\n      swap1\n      pop\n        /* \"#utility.yul\":107:140   */\n      tag_117\n        /* \"#utility.yul\":134:139   */\n      dup2\n        /* \"#utility.yul\":107:140   */\n      tag_118\n      jump\t// in\n    tag_117:\n        /* \"#utility.yul\":7:146   */\n      swap3\n      swap2\n      pop\n      pop\n      jump\t// out\n        /* \"#utility.yul\":152:295   */\n    tag_119:\n        /* \"#utility.yul\":209:214   */\n      0x00\n        /* \"#utility.yul\":240:246   */\n      dup2\n        /* \"#utility.yul\":234:247   */\n      mload\n        /* \"#utility.yul\":225:247   */\n      swap1\n      pop\n        /* \"#utility.yul\":256:289   */\n      tag_121\n        /* \"#utility.yul\":283:288   */\n      dup2\n        /* \"#utility.yul\":256:289   */\n      tag_118\n      jump\t// in\n    tag_121:\n        /* \"#utility.yul\":152:295   */\n      swap3\n      swap2\n      pop\n      pop\n      jump\t// out\n        /* \"#utility.yul\":314:866   */\n    tag_122:\n        /* \"#utility.yul\":371:379   */\n      0x00\n        /* \"#utility.yul\":381:387   */\n      dup1\n        /* \"#utility.yul\":431:434   */\n      dup4\n        /* \"#utility.yul\":424:428   */\n      0x1f\n        /* \"#utility.yul\":416:422   */\n      dup5\n        /* \"#utility.yul\":412:429   */\n      add\n        /* \"#utility.yul\":408:435   */\n      slt\n        /* \"#utility.yul\":398:520   */\n      tag_124\n      jumpi\n        /* \"#utility.yul\":439:518   */\n      tag_125\n      tag_126\n      jump\t// in\n    tag_125:\n        /* \"#utility.yul\":398:520   */\n    tag_124:\n        /* \"#utility.yul\":552:558   */\n      dup3\n        /* \"#utility.yul\":539:559   */\n      calldataload\n        /* \"#utility.yul\":529:559   */\n      swap1\n      pop\n        /* \"#utility.yul\":582:600   */\n      0xffffffffffffffff\n        /* \"#utility.yul\":574:580   */\n      dup2\n        /* \"#utility.yul\":571:601   */\n      gt\n        /* \"#utility.yul\":568:685   */\n      iszero\n      tag_127\n      jumpi\n        /* \"#utility.yul\":604:683   */\n      tag_128\n      tag_129\n      jump\t// in\n    tag_128:\n        /* \"#utility.yul\":568:685   */\n    tag_127:\n        /* \"#utility.yul\":718:722   */\n      0x20\n        /* \"#utility.yul\":710:716   */\n      dup4\n        /* \"#utility.yul\":706:723   */\n      add\n        /* \"#utility.yul\":694:723   */\n      swap2\n      pop\n        /* \"#utility.yul\":772:775   */\n      dup4\n        /* \"#utility.yul\":764:768   */\n      0x01\n        /* \"#utility.yul\":756:762   */\n      dup3\n        /* \"#utility.yul\":752:769   */\n      mul\n        /* \"#utility.yul\":742:750   */\n      dup4\n        /* \"#utility.yul\":738:770   */\n      add\n        /* \"#utility.yul\":735:776   */\n      gt\n        /* \"#utility.yul\":732:860   */\n      iszero\n      tag_130\n      jumpi\n        /* \"#utility.yul\":779:858   */\n      tag_131\n      tag_132\n      jump\t// in\n    tag_131:\n        /* \"#utility.yul\":732:860   */\n    tag_130:\n        /* \"#utility.yul\":314:866   */\n      swap3\n      pop\n      swap3\n      swap1\n      pop\n      jump\t// out\n        /* \"#utility.yul\":872:1011   */\n    tag_133:\n        /* \"#utility.yul\":918:923   */\n      0x00\n        /* \"#utility.yul\":956:962   */\n      dup2\n        /* \"#utility.yul\":943:963   */\n      calldataload\n        /* \"#utility.yul\":934:963   */\n      swap1\n      pop\n        /* \"#utility.yul\":972:1005   */\n      tag_135\n        /* \"#utility.yul\":999:1004   */\n      dup2\n        /* \"#utility.yul\":972:1005   */\n      tag_136\n      jump\t// in\n    tag_135:\n        /* \"#utility.yul\":872:1011   */\n      swap3\n      swap2\n      pop\n      pop\n      jump\t// out\n        /* \"#utility.yul\":1017:1368   */\n    tag_55:\n        /* \"#utility.yul\":1087:1093   */\n      0x00\n        /* \"#utility.yul\":1136:1138   */\n      0x20\n        /* \"#utility.yul\":1124:1133   */\n      dup3\n        /* \"#utility.yul\":1115:1122   */\n      dup5\n        /* \"#utility.yul\":1111:1134   */\n      sub\n        /* \"#utility.yul\":1107:1139   */\n      slt\n        /* \"#utility.yul\":1104:1223   */\n      iszero\n      tag_138\n      jumpi\n        /* \"#utility.yul\":1142:1221   */\n      tag_139\n      tag_140\n      jump\t// in\n    tag_139:\n        /* \"#utility.yul\":1104:1223   */\n    tag_138:\n        /* \"#utility.yul\":1262:1263   */\n      0x00\n        /* \"#utility.yul\":1287:1351   */\n      tag_141\n        /* \"#utility.yul\":1343:1350   */\n      dup5\n        /* \"#utility.yul\":1334:1340   */\n      dup3\n        /* \"#utility.yul\":1323:1332   */\n      dup6\n        /* \"#utility.yul\":1319:1341   */\n      add\n        /* \"#utility.yul\":1287:1351   */\n      tag_119\n      jump\t// in\n    tag_141:\n        /* \"#utility.yul\":1277:1351   */\n      swap2\n      pop\n        /* \"#utility.yul\":1233:1361   */\n      pop\n        /* \"#utility.yul\":1017:1368   */\n      swap3\n      swap2\n      pop\n      pop\n      jump\t// out\n        /* \"#utility.yul\":1374:2337   */\n    tag_14:\n        /* \"#utility.yul\":1471:1477   */\n      0x00\n        /* \"#utility.yul\":1479:1485   */\n      dup1\n        /* \"#utility.yul\":1487:1493   */\n      0x00\n        /* \"#utility.yul\":1495:1501   */\n      dup1\n        /* \"#utility.yul\":1503:1509   */\n      0x00\n        /* \"#utility.yul\":1552:1555   */\n      0x80\n        /* \"#utility.yul\":1540:1549   */\n      dup7\n        /* \"#utility.yul\":1531:1538   */\n      dup9\n        /* \"#utility.yul\":1527:1550   */\n      sub\n        /* \"#utility.yul\":1523:1556   */\n      slt\n        /* \"#utility.yul\":1520:1640   */\n      iszero\n      tag_143\n      jumpi\n        /* \"#utility.yul\":1559:1638   */\n      tag_144\n      tag_140\n      jump\t// in\n    tag_144:\n        /* \"#utility.yul\":1520:1640   */\n    tag_143:\n        /* \"#utility.yul\":1679:1680   */\n      0x00\n        /* \"#utility.yul\":1704:1757   */\n      tag_145\n        /* \"#utility.yul\":1749:1756   */\n      dup9\n        /* \"#utility.yul\":1740:1746   */\n      dup3\n        /* \"#utility.yul\":1729:1738   */\n      dup10\n        /* \"#utility.yul\":1725:1747   */\n      add\n        /* \"#utility.yul\":1704:1757   */\n      tag_115\n      jump\t// in\n    tag_145:\n        /* \"#utility.yul\":1694:1757   */\n      swap6\n      pop\n        /* \"#utility.yul\":1650:1767   */\n      pop\n        /* \"#utility.yul\":1806:1808   */\n      0x20\n        /* \"#utility.yul\":1832:1885   */\n      tag_146\n        /* \"#utility.yul\":1877:1884   */\n      dup9\n        /* \"#utility.yul\":1868:1874   */\n      dup3\n        /* \"#utility.yul\":1857:1866   */\n      dup10\n        /* \"#utility.yul\":1853:1875   */\n      add\n        /* \"#utility.yul\":1832:1885   */\n      tag_115\n      jump\t// in\n    tag_146:\n        /* \"#utility.yul\":1822:1885   */\n      swap5\n      pop\n        /* \"#utility.yul\":1777:1895   */\n      pop\n        /* \"#utility.yul\":1934:1936   */\n      0x40\n        /* \"#utility.yul\":1960:2013   */\n      tag_147\n        /* \"#utility.yul\":2005:2012   */\n      dup9\n        /* \"#utility.yul\":1996:2002   */\n      dup3\n        /* \"#utility.yul\":1985:1994   */\n      dup10\n        /* \"#utility.yul\":1981:2003   */\n      add\n        /* \"#utility.yul\":1960:2013   */\n      tag_133\n      jump\t// in\n    tag_147:\n        /* \"#utility.yul\":1950:2013   */\n      swap4\n      pop\n        /* \"#utility.yul\":1905:2023   */\n      pop\n        /* \"#utility.yul\":2090:2092   */\n      0x60\n        /* \"#utility.yul\":2079:2088   */\n      dup7\n        /* \"#utility.yul\":2075:2093   */\n      add\n        /* \"#utility.yul\":2062:2094   */\n      calldataload\n        /* \"#utility.yul\":2121:2139   */\n      0xffffffffffffffff\n        /* \"#utility.yul\":2113:2119   */\n      dup2\n        /* \"#utility.yul\":2110:2140   */\n      gt\n        /* \"#utility.yul\":2107:2224   */\n      iszero\n      tag_148\n      jumpi\n        /* \"#utility.yul\":2143:2222   */\n      tag_149\n      tag_150\n      jump\t// in\n    tag_149:\n        /* \"#utility.yul\":2107:2224   */\n    tag_148:\n        /* \"#utility.yul\":2256:2320   */\n      tag_151\n        /* \"#utility.yul\":2312:2319   */\n      dup9\n        /* \"#utility.yul\":2303:2309   */\n      dup3\n        /* \"#utility.yul\":2292:2301   */\n      dup10\n        /* \"#utility.yul\":2288:2310   */\n      add\n        /* \"#utility.yul\":2256:2320   */\n      tag_122\n      jump\t// in\n    tag_151:\n        /* \"#utility.yul\":2238:2320   */\n      swap3\n      pop\n      swap3\n      pop\n        /* \"#utility.yul\":2033:2330   */\n      pop\n        /* \"#utility.yul\":1374:2337   */\n      swap3\n      swap6\n      pop\n      swap3\n      swap6\n      swap1\n      swap4\n      pop\n      jump\t// out\n        /* \"#utility.yul\":2343:2817   */\n    tag_20:\n        /* \"#utility.yul\":2411:2417   */\n      0x00\n        /* \"#utility.yul\":2419:2425   */\n      dup1\n        /* \"#utility.yul\":2468:2470   */\n      0x40\n        /* \"#utility.yul\":2456:2465   */\n      dup4\n        /* \"#utility.yul\":2447:2454   */\n      dup6\n        /* \"#utility.yul\":2443:2466   */\n      sub\n        /* \"#utility.yul\":2439:2471   */\n      slt\n        /* \"#utility.yul\":2436:2555   */\n      iszero\n      tag_153\n      jumpi\n        /* \"#utility.yul\":2474:2553   */\n      tag_154\n      tag_140\n      jump\t// in\n    tag_154:\n        /* \"#utility.yul\":2436:2555   */\n    tag_153:\n        /* \"#utility.yul\":2594:2595   */\n      0x00\n        /* \"#utility.yul\":2619:2672   */\n      tag_155\n        /* \"#utility.yul\":2664:2671   */\n      dup6\n        /* \"#utility.yul\":2655:2661   */\n      dup3\n        /* \"#utility.yul\":2644:2653   */\n      dup7\n        /* \"#utility.yul\":2640:2662   */\n      add\n        /* \"#utility.yul\":2619:2672   */\n      tag_115\n      jump\t// in\n    tag_155:\n        /* \"#utility.yul\":2609:2672   */\n      swap3\n      pop\n        /* \"#utility.yul\":2565:2682   */\n      pop\n        /* \"#utility.yul\":2721:2723   */\n      0x20\n        /* \"#utility.yul\":2747:2800   */\n      tag_156\n        /* \"#utility.yul\":2792:2799   */\n      dup6\n        /* \"#utility.yul\":2783:2789   */\n      dup3\n        /* \"#utility.yul\":2772:2781   */\n      dup7\n        /* \"#utility.yul\":2768:2790   */\n      add\n        /* \"#utility.yul\":2747:2800   */\n      tag_133\n      jump\t// in\n    tag_156:\n        /* \"#utility.yul\":2737:2800   */\n      swap2\n      pop\n        /* \"#utility.yul\":2692:2810   */\n      pop\n        /* \"#utility.yul\":2343:2817   */\n      swap3\n      pop\n      swap3\n      swap1\n      pop\n      jump\t// out\n        /* \"#utility.yul\":2823:3442   */\n    tag_31:\n        /* \"#utility.yul\":2900:2906   */\n      0x00\n        /* \"#utility.yul\":2908:2914   */\n      dup1\n        /* \"#utility.yul\":2916:2922   */\n      0x00\n        /* \"#utility.yul\":2965:2967   */\n      0x60\n        /* \"#utility.yul\":2953:2962   */\n      dup5\n        /* \"#utility.yul\":2944:2951   */\n      dup7\n        /* \"#utility.yul\":2940:2963   */\n      sub\n        /* \"#utility.yul\":2936:2968   */\n      slt\n        /* \"#utility.yul\":2933:3052   */\n      iszero\n      tag_158\n      jumpi\n        /* \"#utility.yul\":2971:3050   */\n      tag_159\n      tag_140\n      jump\t// in\n    tag_159:\n        /* \"#utility.yul\":2933:3052   */\n    tag_158:\n        /* \"#utility.yul\":3091:3092   */\n      0x00\n        /* \"#utility.yul\":3116:3169   */\n      tag_160\n        /* \"#utility.yul\":3161:3168   */\n      dup7\n        /* \"#utility.yul\":3152:3158   */\n      dup3\n        /* \"#utility.yul\":3141:3150   */\n      dup8\n        /* \"#utility.yul\":3137:3159   */\n      add\n        /* \"#utility.yul\":3116:3169   */\n      tag_115\n      jump\t// in\n    tag_160:\n        /* \"#utility.yul\":3106:3169   */\n      swap4\n      pop\n        /* \"#utility.yul\":3062:3179   */\n      pop\n        /* \"#utility.yul\":3218:3220   */\n      0x20\n        /* \"#utility.yul\":3244:3297   */\n      tag_161\n        /* \"#utility.yul\":3289:3296   */\n      dup7\n        /* \"#utility.yul\":3280:3286   */\n      dup3\n        /* \"#utility.yul\":3269:3278   */\n      dup8\n        /* \"#utility.yul\":3265:3287   */\n      add\n        /* \"#utility.yul\":3244:3297   */\n      tag_133\n      jump\t// in\n    tag_161:\n        /* \"#utility.yul\":3234:3297   */\n      swap3\n      pop\n        /* \"#utility.yul\":3189:3307   */\n      pop\n        /* \"#utility.yul\":3346:3348   */\n      0x40\n        /* \"#utility.yul\":3372:3425   */\n      tag_162\n        /* \"#utility.yul\":3417:3424   */\n      dup7\n        /* \"#utility.yul\":3408:3414   */\n      dup3\n        /* \"#utility.yul\":3397:3406   */\n      dup8\n        /* \"#utility.yul\":3393:3415   */\n      add\n        /* \"#utility.yul\":3372:3425   */\n      tag_133\n      jump\t// in\n    tag_162:\n        /* \"#utility.yul\":3362:3425   */\n      swap2\n      pop\n        /* \"#utility.yul\":3317:3435   */\n      pop\n        /* \"#utility.yul\":2823:3442   */\n      swap3\n      pop\n      swap3\n      pop\n      swap3\n      jump\t// out\n        /* \"#utility.yul\":3448:3566   */\n    tag_163:\n        /* \"#utility.yul\":3535:3559   */\n      tag_165\n        /* \"#utility.yul\":3553:3558   */\n      dup2\n        /* \"#utility.yul\":3535:3559   */\n      tag_166\n      jump\t// in\n    tag_165:\n        /* \"#utility.yul\":3530:3533   */\n      dup3\n        /* \"#utility.yul\":3523:3560   */\n      mstore\n        /* \"#utility.yul\":3448:3566   */\n      pop\n      pop\n      jump\t// out\n        /* \"#utility.yul\":3572:3687   */\n    tag_167:\n        /* \"#utility.yul\":3657:3680   */\n      tag_169\n        /* \"#utility.yul\":3674:3679   */\n      dup2\n        /* \"#utility.yul\":3657:3680   */\n      tag_170\n      jump\t// in\n    tag_169:\n        /* \"#utility.yul\":3652:3655   */\n      dup3\n        /* \"#utility.yul\":3645:3681   */\n      mstore\n        /* \"#utility.yul\":3572:3687   */\n      pop\n      pop\n      jump\t// out\n        /* \"#utility.yul\":3693:4059   */\n    tag_171:\n        /* \"#utility.yul\":3835:3838   */\n      0x00\n        /* \"#utility.yul\":3856:3923   */\n      tag_173\n        /* \"#utility.yul\":3920:3922   */\n      0x0e\n        /* \"#utility.yul\":3915:3918   */\n      dup4\n        /* \"#utility.yul\":3856:3923   */\n      tag_174\n      jump\t// in\n    tag_173:\n        /* \"#utility.yul\":3849:3923   */\n      swap2\n      pop\n        /* \"#utility.yul\":3932:4025   */\n      tag_175\n        /* \"#utility.yul\":4021:4024   */\n      dup3\n        /* \"#utility.yul\":3932:4025   */\n      tag_176\n      jump\t// in\n    tag_175:\n        /* \"#utility.yul\":4050:4052   */\n      0x20\n        /* \"#utility.yul\":4045:4048   */\n      dup3\n        /* \"#utility.yul\":4041:4053   */\n      add\n        /* \"#utility.yul\":4034:4053   */\n      swap1\n      pop\n        /* \"#utility.yul\":3693:4059   */\n      swap2\n      swap1\n      pop\n      jump\t// out\n        /* \"#utility.yul\":4065:4431   */\n    tag_177:\n        /* \"#utility.yul\":4207:4210   */\n      0x00\n        /* \"#utility.yul\":4228:4295   */\n      tag_179\n        /* \"#utility.yul\":4292:4294   */\n      0x0d\n        /* \"#utility.yul\":4287:4290   */\n      dup4\n        /* \"#utility.yul\":4228:4295   */\n      tag_174\n      jump\t// in\n    tag_179:\n        /* \"#utility.yul\":4221:4295   */\n      swap2\n      pop\n        /* \"#utility.yul\":4304:4397   */\n      tag_180\n        /* \"#utility.yul\":4393:4396   */\n      dup3\n        /* \"#utility.yul\":4304:4397   */\n      tag_181\n      jump\t// in\n    tag_180:\n        /* \"#utility.yul\":4422:4424   */\n      0x20\n        /* \"#utility.yul\":4417:4420   */\n      dup3\n        /* \"#utility.yul\":4413:4425   */\n      add\n        /* \"#utility.yul\":4406:4425   */\n      swap1\n      pop\n        /* \"#utility.yul\":4065:4431   */\n      swap2\n      swap1\n      pop\n      jump\t// out\n        /* \"#utility.yul\":4437:4802   */\n    tag_182:\n        /* \"#utility.yul\":4579:4582   */\n      0x00\n        /* \"#utility.yul\":4600:4666   */\n      tag_184\n        /* \"#utility.yul\":4664:4665   */\n      0x09\n        /* \"#utility.yul\":4659:4662   */\n      dup4\n        /* \"#utility.yul\":4600:4666   */\n      tag_174\n      jump\t// in\n    tag_184:\n        /* \"#utility.yul\":4593:4666   */\n      swap2\n      pop\n        /* \"#utility.yul\":4675:4768   */\n      tag_185\n        /* \"#utility.yul\":4764:4767   */\n      dup3\n        /* \"#utility.yul\":4675:4768   */\n      tag_186\n      jump\t// in\n    tag_185:\n        /* \"#utility.yul\":4793:4795   */\n      0x20\n        /* \"#utility.yul\":4788:4791   */\n      dup3\n        /* \"#utility.yul\":4784:4796   */\n      add\n        /* \"#utility.yul\":4777:4796   */\n      swap1\n      pop\n        /* \"#utility.yul\":4437:4802   */\n      swap2\n      swap1\n      pop\n      jump\t// out\n        /* \"#utility.yul\":4808:5174   */\n    tag_187:\n        /* \"#utility.yul\":4950:4953   */\n      0x00\n        /* \"#utility.yul\":4971:5038   */\n      tag_189\n        /* \"#utility.yul\":5035:5037   */\n      0x0d\n        /* \"#utility.yul\":5030:5033   */\n      dup4\n        /* \"#utility.yul\":4971:5038   */\n      tag_174\n      jump\t// in\n    tag_189:\n        /* \"#utility.yul\":4964:5038   */\n      swap2\n      pop\n        /* \"#utility.yul\":5047:5140   */\n      tag_190\n        /* \"#utility.yul\":5136:5139   */\n      dup3\n        /* \"#utility.yul\":5047:5140   */\n      tag_191\n      jump\t// in\n    tag_190:\n        /* \"#utility.yul\":5165:5167   */\n      0x20\n        /* \"#utility.yul\":5160:5163   */\n      dup3\n        /* \"#utility.yul\":5156:5168   */\n      add\n        /* \"#utility.yul\":5149:5168   */\n      swap1\n      pop\n        /* \"#utility.yul\":4808:5174   */\n      swap2\n      swap1\n      pop\n      jump\t// out\n        /* \"#utility.yul\":5180:5546   */\n    tag_192:\n        /* \"#utility.yul\":5322:5325   */\n      0x00\n        /* \"#utility.yul\":5343:5410   */\n      tag_194\n        /* \"#utility.yul\":5407:5409   */\n      0x0d\n        /* \"#utility.yul\":5402:5405   */\n      dup4\n        /* \"#utility.yul\":5343:5410   */\n      tag_174\n      jump\t// in\n    tag_194:\n        /* \"#utility.yul\":5336:5410   */\n      swap2\n      pop\n        /* \"#utility.yul\":5419:5512   */\n      tag_195\n        /* \"#utility.yul\":5508:5511   */\n      dup3\n        /* \"#utility.yul\":5419:5512   */\n      tag_196\n      jump\t// in\n    tag_195:\n        /* \"#utility.yul\":5537:5539   */\n      0x20\n        /* \"#utility.yul\":5532:5535   */\n      dup3\n        /* \"#utility.yul\":5528:5540   */\n      add\n        /* \"#utility.yul\":5521:5540   */\n      swap1\n      pop\n        /* \"#utility.yul\":5180:5546   */\n      swap2\n      swap1\n      pop\n      jump\t// out\n        /* \"#utility.yul\":5552:5670   */\n    tag_197:\n        /* \"#utility.yul\":5639:5663   */\n      tag_199\n        /* \"#utility.yul\":5657:5662   */\n      dup2\n        /* \"#utility.yul\":5639:5663   */\n      tag_200\n      jump\t// in\n    tag_199:\n        /* \"#utility.yul\":5634:5637   */\n      dup3\n        /* \"#utility.yul\":5627:5664   */\n      mstore\n        /* \"#utility.yul\":5552:5670   */\n      pop\n      pop\n      jump\t// out\n        /* \"#utility.yul\":5676:6118   */\n    tag_60:\n        /* \"#utility.yul\":5825:5829   */\n      0x00\n        /* \"#utility.yul\":5863:5865   */\n      0x60\n        /* \"#utility.yul\":5852:5861   */\n      dup3\n        /* \"#utility.yul\":5848:5866   */\n      add\n        /* \"#utility.yul\":5840:5866   */\n      swap1\n      pop\n        /* \"#utility.yul\":5876:5947   */\n      tag_202\n        /* \"#utility.yul\":5944:5945   */\n      0x00\n        /* \"#utility.yul\":5933:5942   */\n      dup4\n        /* \"#utility.yul\":5929:5946   */\n      add\n        /* \"#utility.yul\":5920:5926   */\n      dup7\n        /* \"#utility.yul\":5876:5947   */\n      tag_163\n      jump\t// in\n    tag_202:\n        /* \"#utility.yul\":5957:6029   */\n      tag_203\n        /* \"#utility.yul\":6025:6027   */\n      0x20\n        /* \"#utility.yul\":6014:6023   */\n      dup4\n        /* \"#utility.yul\":6010:6028   */\n      add\n        /* \"#utility.yul\":6001:6007   */\n      dup6\n        /* \"#utility.yul\":5957:6029   */\n      tag_163\n      jump\t// in\n    tag_203:\n        /* \"#utility.yul\":6039:6111   */\n      tag_204\n        /* \"#utility.yul\":6107:6109   */\n      0x40\n        /* \"#utility.yul\":6096:6105   */\n      dup4\n        /* \"#utility.yul\":6092:6110   */\n      add\n        /* \"#utility.yul\":6083:6089   */\n      dup5\n        /* \"#utility.yul\":6039:6111   */\n      tag_197\n      jump\t// in\n    tag_204:\n        /* \"#utility.yul\":5676:6118   */\n      swap5\n      swap4\n      pop\n      pop\n      pop\n      pop\n      jump\t// out\n        /* \"#utility.yul\":6124:6456   */\n    tag_27:\n        /* \"#utility.yul\":6245:6249   */\n      0x00\n        /* \"#utility.yul\":6283:6285   */\n      0x40\n        /* \"#utility.yul\":6272:6281   */\n      dup3\n        /* \"#utility.yul\":6268:6286   */\n      add\n        /* \"#utility.yul\":6260:6286   */\n      swap1\n      pop\n        /* \"#utility.yul\":6296:6367   */\n      tag_206\n        /* \"#utility.yul\":6364:6365   */\n      0x00\n        /* \"#utility.yul\":6353:6362   */\n      dup4\n        /* \"#utility.yul\":6349:6366   */\n      add\n        /* \"#utility.yul\":6340:6346   */\n      dup6\n        /* \"#utility.yul\":6296:6367   */\n      tag_163\n      jump\t// in\n    tag_206:\n        /* \"#utility.yul\":6377:6449   */\n      tag_207\n        /* \"#utility.yul\":6445:6447   */\n      0x20\n        /* \"#utility.yul\":6434:6443   */\n      dup4\n        /* \"#utility.yul\":6430:6448   */\n      add\n        /* \"#utility.yul\":6421:6427   */\n      dup5\n        /* \"#utility.yul\":6377:6449   */\n      tag_197\n      jump\t// in\n    tag_207:\n        /* \"#utility.yul\":6124:6456   */\n      swap4\n      swap3\n      pop\n      pop\n      pop\n      jump\t// out\n        /* \"#utility.yul\":6462:6680   */\n    tag_17:\n        /* \"#utility.yul\":6553:6557   */\n      0x00\n        /* \"#utility.yul\":6591:6593   */\n      0x20\n        /* \"#utility.yul\":6580:6589   */\n      dup3\n        /* \"#utility.yul\":6576:6594   */\n      add\n        /* \"#utility.yul\":6568:6594   */\n      swap1\n      pop\n        /* \"#utility.yul\":6604:6673   */\n      tag_209\n        /* \"#utility.yul\":6670:6671   */\n      0x00\n        /* \"#utility.yul\":6659:6668   */\n      dup4\n        /* \"#utility.yul\":6655:6672   */\n      add\n        /* \"#utility.yul\":6646:6652   */\n      dup5\n        /* \"#utility.yul\":6604:6673   */\n      tag_167\n      jump\t// in\n    tag_209:\n        /* \"#utility.yul\":6462:6680   */\n      swap3\n      swap2\n      pop\n      pop\n      jump\t// out\n        /* \"#utility.yul\":6686:7105   */\n    tag_48:\n        /* \"#utility.yul\":6852:6856   */\n      0x00\n        /* \"#utility.yul\":6890:6892   */\n      0x20\n        /* \"#utility.yul\":6879:6888   */\n      dup3\n        /* \"#utility.yul\":6875:6893   */\n      add\n        /* \"#utility.yul\":6867:6893   */\n      swap1\n      pop\n        /* \"#utility.yul\":6939:6948   */\n      dup2\n        /* \"#utility.yul\":6933:6937   */\n      dup2\n        /* \"#utility.yul\":6929:6949   */\n      sub\n        /* \"#utility.yul\":6925:6926   */\n      0x00\n        /* \"#utility.yul\":6914:6923   */\n      dup4\n        /* \"#utility.yul\":6910:6927   */\n      add\n        /* \"#utility.yul\":6903:6950   */\n      mstore\n        /* \"#utility.yul\":6967:7098   */\n      tag_211\n        /* \"#utility.yul\":7093:7097   */\n      dup2\n        /* \"#utility.yul\":6967:7098   */\n      tag_171\n      jump\t// in\n    tag_211:\n        /* \"#utility.yul\":6959:7098   */\n      swap1\n      pop\n        /* \"#utility.yul\":6686:7105   */\n      swap2\n      swap1\n      pop\n      jump\t// out\n        /* \"#utility.yul\":7111:7530   */\n    tag_58:\n        /* \"#utility.yul\":7277:7281   */\n      0x00\n        /* \"#utility.yul\":7315:7317   */\n      0x20\n        /* \"#utility.yul\":7304:7313   */\n      dup3\n        /* \"#utility.yul\":7300:7318   */\n      add\n        /* \"#utility.yul\":7292:7318   */\n      swap1\n      pop\n        /* \"#utility.yul\":7364:7373   */\n      dup2\n        /* \"#utility.yul\":7358:7362   */\n      dup2\n        /* \"#utility.yul\":7354:7374   */\n      sub\n        /* \"#utility.yul\":7350:7351   */\n      0x00\n        /* \"#utility.yul\":7339:7348   */\n      dup4\n        /* \"#utility.yul\":7335:7352   */\n      add\n        /* \"#utility.yul\":7328:7375   */\n      mstore\n        /* \"#utility.yul\":7392:7523   */\n      tag_213\n        /* \"#utility.yul\":7518:7522   */\n      dup2\n        /* \"#utility.yul\":7392:7523   */\n      tag_177\n      jump\t// in\n    tag_213:\n        /* \"#utility.yul\":7384:7523   */\n      swap1\n      pop\n        /* \"#utility.yul\":7111:7530   */\n      swap2\n      swap1\n      pop\n      jump\t// out\n        /* \"#utility.yul\":7536:7955   */\n    tag_76:\n        /* \"#utility.yul\":7702:7706   */\n      0x00\n        /* \"#utility.yul\":7740:7742   */\n      0x20\n        /* \"#utility.yul\":7729:7738   */\n      dup3\n        /* \"#utility.yul\":7725:7743   */\n      add\n        /* \"#utility.yul\":7717:7743   */\n      swap1\n      pop\n        /* \"#utility.yul\":7789:7798   */\n      dup2\n        /* \"#utility.yul\":7783:7787   */\n      dup2\n        /* \"#utility.yul\":7779:7799   */\n      sub\n        /* \"#utility.yul\":7775:7776   */\n      0x00\n        /* \"#utility.yul\":7764:7773   */\n      dup4\n        /* \"#utility.yul\":7760:7777   */\n      add\n        /* \"#utility.yul\":7753:7800   */\n      mstore\n        /* \"#utility.yul\":7817:7948   */\n      tag_215\n        /* \"#utility.yul\":7943:7947   */\n      dup2\n        /* \"#utility.yul\":7817:7948   */\n      tag_182\n      jump\t// in\n    tag_215:\n        /* \"#utility.yul\":7809:7948   */\n      swap1\n      pop\n        /* \"#utility.yul\":7536:7955   */\n      swap2\n      swap1\n      pop\n      jump\t// out\n        /* \"#utility.yul\":7961:8380   */\n    tag_45:\n        /* \"#utility.yul\":8127:8131   */\n      0x00\n        /* \"#utility.yul\":8165:8167   */\n      0x20\n        /* \"#utility.yul\":8154:8163   */\n      dup3\n        /* \"#utility.yul\":8150:8168   */\n      add\n        /* \"#utility.yul\":8142:8168   */\n      swap1\n      pop\n        /* \"#utility.yul\":8214:8223   */\n      dup2\n        /* \"#utility.yul\":8208:8212   */\n      dup2\n        /* \"#utility.yul\":8204:8224   */\n      sub\n        /* \"#utility.yul\":8200:8201   */\n      0x00\n        /* \"#utility.yul\":8189:8198   */\n      dup4\n        /* \"#utility.yul\":8185:8202   */\n      add\n        /* \"#utility.yul\":8178:8225   */\n      mstore\n        /* \"#utility.yul\":8242:8373   */\n      tag_217\n        /* \"#utility.yul\":8368:8372   */\n      dup2\n        /* \"#utility.yul\":8242:8373   */\n      tag_187\n      jump\t// in\n    tag_217:\n        /* \"#utility.yul\":8234:8373   */\n      swap1\n      pop\n        /* \"#utility.yul\":7961:8380   */\n      swap2\n      swap1\n      pop\n      jump\t// out\n        /* \"#utility.yul\":8386:8805   */\n    tag_93:\n        /* \"#utility.yul\":8552:8556   */\n      0x00\n        /* \"#utility.yul\":8590:8592   */\n      0x20\n        /* \"#utility.yul\":8579:8588   */\n      dup3\n        /* \"#utility.yul\":8575:8593   */\n      add\n        /* \"#utility.yul\":8567:8593   */\n      swap1\n      pop\n        /* \"#utility.yul\":8639:8648   */\n      dup2\n        /* \"#utility.yul\":8633:8637   */\n      dup2\n        /* \"#utility.yul\":8629:8649   */\n      sub\n        /* \"#utility.yul\":8625:8626   */\n      0x00\n        /* \"#utility.yul\":8614:8623   */\n      dup4\n        /* \"#utility.yul\":8610:8627   */\n      add\n        /* \"#utility.yul\":8603:8650   */\n      mstore\n        /* \"#utility.yul\":8667:8798   */\n      tag_219\n        /* \"#utility.yul\":8793:8797   */\n      dup2\n        /* \"#utility.yul\":8667:8798   */\n      tag_192\n      jump\t// in\n    tag_219:\n        /* \"#utility.yul\":8659:8798   */\n      swap1\n      pop\n        /* \"#utility.yul\":8386:8805   */\n      swap2\n      swap1\n      pop\n      jump\t// out\n        /* \"#utility.yul\":8811:9033   */\n    tag_50:\n        /* \"#utility.yul\":8904:8908   */\n      0x00\n        /* \"#utility.yul\":8942:8944   */\n      0x20\n        /* \"#utility.yul\":8931:8940   */\n      dup3\n        /* \"#utility.yul\":8927:8945   */\n      add\n        /* \"#utility.yul\":8919:8945   */\n      swap1\n      pop\n        /* \"#utility.yul\":8955:9026   */\n      tag_221\n        /* \"#utility.yul\":9023:9024   */\n      0x00\n        /* \"#utility.yul\":9012:9021   */\n      dup4\n        /* \"#utility.yul\":9008:9025   */\n      add\n        /* \"#utility.yul\":8999:9005   */\n      dup5\n        /* \"#utility.yul\":8955:9026   */\n      tag_197\n      jump\t// in\n    tag_221:\n        /* \"#utility.yul\":8811:9033   */\n      swap3\n      swap2\n      pop\n      pop\n      jump\t// out\n        /* \"#utility.yul\":9120:9289   */\n    tag_174:\n        /* \"#utility.yul\":9204:9215   */\n      0x00\n        /* \"#utility.yul\":9238:9244   */\n      dup3\n        /* \"#utility.yul\":9233:9236   */\n      dup3\n        /* \"#utility.yul\":9226:9245   */\n      mstore\n        /* \"#utility.yul\":9278:9282   */\n      0x20\n        /* \"#utility.yul\":9273:9276   */\n      dup3\n        /* \"#utility.yul\":9269:9283   */\n      add\n        /* \"#utility.yul\":9254:9283   */\n      swap1\n      pop\n        /* \"#utility.yul\":9120:9289   */\n      swap3\n      swap2\n      pop\n      pop\n      jump\t// out\n        /* \"#utility.yul\":9295:9486   */\n    tag_67:\n        /* \"#utility.yul\":9335:9339   */\n      0x00\n        /* \"#utility.yul\":9355:9375   */\n      tag_226\n        /* \"#utility.yul\":9373:9374   */\n      dup3\n        /* \"#utility.yul\":9355:9375   */\n      tag_200\n      jump\t// in\n    tag_226:\n        /* \"#utility.yul\":9350:9375   */\n      swap2\n      pop\n        /* \"#utility.yul\":9389:9409   */\n      tag_227\n        /* \"#utility.yul\":9407:9408   */\n      dup4\n        /* \"#utility.yul\":9389:9409   */\n      tag_200\n      jump\t// in\n    tag_227:\n        /* \"#utility.yul\":9384:9409   */\n      swap3\n      pop\n        /* \"#utility.yul\":9428:9429   */\n      dup3\n        /* \"#utility.yul\":9425:9426   */\n      dup3\n        /* \"#utility.yul\":9422:9430   */\n      lt\n        /* \"#utility.yul\":9419:9453   */\n      iszero\n      tag_228\n      jumpi\n        /* \"#utility.yul\":9433:9451   */\n      tag_229\n      tag_230\n      jump\t// in\n    tag_229:\n        /* \"#utility.yul\":9419:9453   */\n    tag_228:\n        /* \"#utility.yul\":9478:9479   */\n      dup3\n        /* \"#utility.yul\":9475:9476   */\n      dup3\n        /* \"#utility.yul\":9471:9480   */\n      sub\n        /* \"#utility.yul\":9463:9480   */\n      swap1\n      pop\n        /* \"#utility.yul\":9295:9486   */\n      swap3\n      swap2\n      pop\n      pop\n      jump\t// out\n        /* \"#utility.yul\":9492:9588   */\n    tag_166:\n        /* \"#utility.yul\":9529:9536   */\n      0x00\n        /* \"#utility.yul\":9558:9582   */\n      tag_232\n        /* \"#utility.yul\":9576:9581   */\n      dup3\n        /* \"#utility.yul\":9558:9582   */\n      tag_233\n      jump\t// in\n    tag_232:\n        /* \"#utility.yul\":9547:9582   */\n      swap1\n      pop\n        /* \"#utility.yul\":9492:9588   */\n      swap2\n      swap1\n      pop\n      jump\t// out\n        /* \"#utility.yul\":9594:9743   */\n    tag_170:\n        /* \"#utility.yul\":9630:9637   */\n      0x00\n        /* \"#utility.yul\":9670:9736   */\n      0xffffffff00000000000000000000000000000000000000000000000000000000\n        /* \"#utility.yul\":9663:9668   */\n      dup3\n        /* \"#utility.yul\":9659:9737   */\n      and\n        /* \"#utility.yul\":9648:9737   */\n      swap1\n      pop\n        /* \"#utility.yul\":9594:9743   */\n      swap2\n      swap1\n      pop\n      jump\t// out\n        /* \"#utility.yul\":9749:9875   */\n    tag_233:\n        /* \"#utility.yul\":9786:9793   */\n      0x00\n        /* \"#utility.yul\":9826:9868   */\n      0xffffffffffffffffffffffffffffffffffffffff\n        /* \"#utility.yul\":9819:9824   */\n      dup3\n        /* \"#utility.yul\":9815:9869   */\n      and\n        /* \"#utility.yul\":9804:9869   */\n      swap1\n      pop\n        /* \"#utility.yul\":9749:9875   */\n      swap2\n      swap1\n      pop\n      jump\t// out\n        /* \"#utility.yul\":9881:9958   */\n    tag_200:\n        /* \"#utility.yul\":9918:9925   */\n      0x00\n        /* \"#utility.yul\":9947:9952   */\n      dup2\n        /* \"#utility.yul\":9936:9952   */\n      swap1\n      pop\n        /* \"#utility.yul\":9881:9958   */\n      swap2\n      swap1\n      pop\n      jump\t// out\n        /* \"#utility.yul\":9964:10144   */\n    tag_230:\n        /* \"#utility.yul\":10012:10089   */\n      0x4e487b7100000000000000000000000000000000000000000000000000000000\n        /* \"#utility.yul\":10009:10010   */\n      0x00\n        /* \"#utility.yul\":10002:10090   */\n      mstore\n        /* \"#utility.yul\":10109:10113   */\n      0x11\n        /* \"#utility.yul\":10106:10107   */\n      0x04\n        /* \"#utility.yul\":10099:10114   */\n      mstore\n        /* \"#utility.yul\":10133:10137   */\n      0x24\n        /* \"#utility.yul\":10130:10131   */\n      0x00\n        /* \"#utility.yul\":10123:10138   */\n      revert\n        /* \"#utility.yul\":10150:10267   */\n    tag_129:\n        /* \"#utility.yul\":10259:10260   */\n      0x00\n        /* \"#utility.yul\":10256:10257   */\n      dup1\n        /* \"#utility.yul\":10249:10261   */\n      revert\n        /* \"#utility.yul\":10273:10390   */\n    tag_126:\n        /* \"#utility.yul\":10382:10383   */\n      0x00\n        /* \"#utility.yul\":10379:10380   */\n      dup1\n        /* \"#utility.yul\":10372:10384   */\n      revert\n        /* \"#utility.yul\":10396:10513   */\n    tag_132:\n        /* \"#utility.yul\":10505:10506   */\n      0x00\n        /* \"#utility.yul\":10502:10503   */\n      dup1\n        /* \"#utility.yul\":10495:10507   */\n      revert\n        /* \"#utility.yul\":10519:10636   */\n    tag_150:\n        /* \"#utility.yul\":10628:10629   */\n      0x00\n        /* \"#utility.yul\":10625:10626   */\n      dup1\n        /* \"#utility.yul\":10618:10630   */\n      revert\n        /* \"#utility.yul\":10642:10759   */\n    tag_140:\n        /* \"#utility.yul\":10751:10752   */\n      0x00\n        /* \"#utility.yul\":10748:10749   */\n      dup1\n        /* \"#utility.yul\":10741:10753   */\n      revert\n        /* \"#utility.yul\":10765:10929   */\n    tag_176:\n        /* \"#utility.yul\":10905:10921   */\n      0x496e637265617365207072696365000000000000000000000000000000000000\n        /* \"#utility.yul\":10901:10902   */\n      0x00\n        /* \"#utility.yul\":10893:10899   */\n      dup3\n        /* \"#utility.yul\":10889:10903   */\n      add\n        /* \"#utility.yul\":10882:10922   */\n      mstore\n        /* \"#utility.yul\":10765:10929   */\n      pop\n      jump\t// out\n        /* \"#utility.yul\":10935:11098   */\n    tag_181:\n        /* \"#utility.yul\":11075:11090   */\n      0x496e76616c6964204f7264657200000000000000000000000000000000000000\n        /* \"#utility.yul\":11071:11072   */\n      0x00\n        /* \"#utility.yul\":11063:11069   */\n      dup3\n        /* \"#utility.yul\":11059:11073   */\n      add\n        /* \"#utility.yul\":11052:11091   */\n      mstore\n        /* \"#utility.yul\":10935:11098   */\n      pop\n      jump\t// out\n        /* \"#utility.yul\":11104:11263   */\n    tag_186:\n        /* \"#utility.yul\":11244:11255   */\n      0x4e6f74204f776e65720000000000000000000000000000000000000000000000\n        /* \"#utility.yul\":11240:11241   */\n      0x00\n        /* \"#utility.yul\":11232:11238   */\n      dup3\n        /* \"#utility.yul\":11228:11242   */\n      add\n        /* \"#utility.yul\":11221:11256   */\n      mstore\n        /* \"#utility.yul\":11104:11263   */\n      pop\n      jump\t// out\n        /* \"#utility.yul\":11269:11432   */\n    tag_191:\n        /* \"#utility.yul\":11409:11424   */\n      0x496e76616c696420507269636500000000000000000000000000000000000000\n        /* \"#utility.yul\":11405:11406   */\n      0x00\n        /* \"#utility.yul\":11397:11403   */\n      dup3\n        /* \"#utility.yul\":11393:11407   */\n      add\n        /* \"#utility.yul\":11386:11425   */\n      mstore\n        /* \"#utility.yul\":11269:11432   */\n      pop\n      jump\t// out\n        /* \"#utility.yul\":11438:11601   */\n    tag_196:\n        /* \"#utility.yul\":11578:11593   */\n      0x4e65656420417070726f76616c00000000000000000000000000000000000000\n        /* \"#utility.yul\":11574:11575   */\n      0x00\n        /* \"#utility.yul\":11566:11572   */\n      dup3\n        /* \"#utility.yul\":11562:11576   */\n      add\n        /* \"#utility.yul\":11555:11594   */\n      mstore\n        /* \"#utility.yul\":11438:11601   */\n      pop\n      jump\t// out\n        /* \"#utility.yul\":11607:11729   */\n    tag_118:\n        /* \"#utility.yul\":11680:11704   */\n      tag_249\n        /* \"#utility.yul\":11698:11703   */\n      dup2\n        /* \"#utility.yul\":11680:11704   */\n      tag_166\n      jump\t// in\n    tag_249:\n        /* \"#utility.yul\":11673:11678   */\n      dup2\n        /* \"#utility.yul\":11670:11705   */\n      eq\n        /* \"#utility.yul\":11660:11723   */\n      tag_250\n      jumpi\n        /* \"#utility.yul\":11719:11720   */\n      0x00\n        /* \"#utility.yul\":11716:11717   */\n      dup1\n        /* \"#utility.yul\":11709:11721   */\n      revert\n        /* \"#utility.yul\":11660:11723   */\n    tag_250:\n        /* \"#utility.yul\":11607:11729   */\n      pop\n      jump\t// out\n        /* \"#utility.yul\":11735:11857   */\n    tag_136:\n        /* \"#utility.yul\":11808:11832   */\n      tag_252\n        /* \"#utility.yul\":11826:11831   */\n      dup2\n        /* \"#utility.yul\":11808:11832   */\n      tag_200\n      jump\t// in\n    tag_252:\n        /* \"#utility.yul\":11801:11806   */\n      dup2\n        /* \"#utility.yul\":11798:11833   */\n      eq\n        /* \"#utility.yul\":11788:11851   */\n      tag_253\n      jumpi\n        /* \"#utility.yul\":11847:11848   */\n      0x00\n        /* \"#utility.yul\":11844:11845   */\n      dup1\n        /* \"#utility.yul\":11837:11849   */\n      revert\n        /* \"#utility.yul\":11788:11851   */\n    tag_253:\n        /* \"#utility.yul\":11735:11857   */\n      pop\n      jump\t// out\n\n    auxdata: 0xa26469706673582212205c7a27599990eacdd8cdcd49a4fadfc47fd1528e029ab002133a595aa3b2170064736f6c63430008070033\n}\n",
				"bytecode": {
					"linkReferences": {},
					"object": "608060405234801561001057600080fd5b50611433806100206000396000f3fe6080604052600436106100595760003560e01c8063150b7a021461005c5780638de9322214610099578063ba5f4fb2146100b5578063d09b6d43146100f3578063dda342bb1461011c578063eac449d9146101455761005a565b5b005b34801561006857600080fd5b50610083600480360381019061007e9190610ee0565b61016e565b6040516100909190611137565b60405180910390f35b6100b360048036038101906100ae9190610f68565b610183565b005b3480156100c157600080fd5b506100dc60048036038101906100d79190610f68565b610580565b6040516100ea92919061110e565b60405180910390f35b3480156100ff57600080fd5b5061011a60048036038101906101159190610fa8565b6105d1565b005b34801561012857600080fd5b50610143600480360381019061013e9190610fa8565b61086a565b005b34801561015157600080fd5b5061016c60048036038101906101679190610f68565b610aed565b005b600063150b7a0260e01b905095945050505050565b60008060008473ffffffffffffffffffffffffffffffffffffffff1673ffffffffffffffffffffffffffffffffffffffff16815260200190815260200160002060008381526020019081526020016000209050600081600101541161021d576040517f08c379a0000000000000000000000000000000000000000000000000000000008152600401610214906111b2565b60405180910390fd5b8060010154341015610264576040517f08c379a000000000000000000000000000000000000000000000000000000000815260040161025b90611152565b60405180910390fd5b60008390503073ffffffffffffffffffffffffffffffffffffffff168173ffffffffffffffffffffffffffffffffffffffff16636352211e856040518263ffffffff1660e01b81526004016102b991906111f2565b60206040518083038186803b1580156102d157600080fd5b505afa1580156102e5573d6000803e3d6000fd5b505050506040513d601f19601f820116820180604052508101906103099190610eb3565b73ffffffffffffffffffffffffffffffffffffffff161461035f576040517f08c379a000000000000000000000000000000000000000000000000000000000815260040161035690611172565b60405180910390fd5b8073ffffffffffffffffffffffffffffffffffffffff166342842e0e3033866040518463ffffffff1660e01b815260040161039c939291906110d7565b600060405180830381600087803b1580156103b657600080fd5b505af11580156103ca573d6000803e3d6000fd5b505050508160000160009054906101000a900473ffffffffffffffffffffffffffffffffffffffff1673ffffffffffffffffffffffffffffffffffffffff166108fc83600101549081150290604051600060405180830381858888f1935050505015801561043c573d6000803e3d6000fd5b503373ffffffffffffffffffffffffffffffffffffffff166108fc836001015434610467919061121e565b9081150290604051600060405180830381858888f19350505050158015610492573d6000803e3d6000fd5b506000808573ffffffffffffffffffffffffffffffffffffffff1673ffffffffffffffffffffffffffffffffffffffff1681526020019081526020016000206000848152602001908152602001600020600080820160006101000a81549073ffffffffffffffffffffffffffffffffffffffff021916905560018201600090555050828473ffffffffffffffffffffffffffffffffffffffff163373ffffffffffffffffffffffffffffffffffffffff167f46661dab58311a6838247afecbee792192b4f27fc8b3e7168c66bc55ec2e404e3460405161057291906111f2565b60405180910390a450505050565b6000602052816000526040600020602052806000526040600020600091509150508060000160009054906101000a900473ffffffffffffffffffffffffffffffffffffffff16908060010154905082565b60008111610614576040517f08c379a000000000000000000000000000000000000000000000000000000000815260040161060b906111b2565b60405180910390fd5b60008060008573ffffffffffffffffffffffffffffffffffffffff1673ffffffffffffffffffffffffffffffffffffffff168152602001908152602001600020600084815260200190815260200160002090503373ffffffffffffffffffffffffffffffffffffffff168160000160009054906101000a900473ffffffffffffffffffffffffffffffffffffffff1673ffffffffffffffffffffffffffffffffffffffff16146106f9576040517f08c379a00000000000000000000000000000000000000000000000000000000081526004016106f090611192565b60405180910390fd5b60008490503073ffffffffffffffffffffffffffffffffffffffff168173ffffffffffffffffffffffffffffffffffffffff16636352211e866040518263ffffffff1660e01b815260040161074e91906111f2565b60206040518083038186803b15801561076657600080fd5b505afa15801561077a573d6000803e3d6000fd5b505050506040513d601f19601f8201168201806040525081019061079e9190610eb3565b73ffffffffffffffffffffffffffffffffffffffff16146107f4576040517f08c379a00000000000000000000000000000000000000000000000000000000081526004016107eb90611172565b60405180910390fd5b828260010181905550838573ffffffffffffffffffffffffffffffffffffffff163373ffffffffffffffffffffffffffffffffffffffff167fb7f0ca7cd5b24651672216886135b99ff40342bcf549009a4c6fc74f059fb9a08660405161085b91906111f2565b60405180910390a45050505050565b60008390503073ffffffffffffffffffffffffffffffffffffffff168173ffffffffffffffffffffffffffffffffffffffff1663081812fc856040518263ffffffff1660e01b81526004016108bf91906111f2565b60206040518083038186803b1580156108d757600080fd5b505afa1580156108eb573d6000803e3d6000fd5b505050506040513d601f19601f8201168201806040525081019061090f9190610eb3565b73ffffffffffffffffffffffffffffffffffffffff1614610965576040517f08c379a000000000000000000000000000000000000000000000000000000000815260040161095c906111d2565b60405180910390fd5b6000821161097257600080fd5b60008060008673ffffffffffffffffffffffffffffffffffffffff1673ffffffffffffffffffffffffffffffffffffffff16815260200190815260200160002060008581526020019081526020016000209050338160000160006101000a81548173ffffffffffffffffffffffffffffffffffffffff021916908373ffffffffffffffffffffffffffffffffffffffff1602179055508281600101819055508173ffffffffffffffffffffffffffffffffffffffff166342842e0e3330876040518463ffffffff1660e01b8152600401610a4e939291906110d7565b600060405180830381600087803b158015610a6857600080fd5b505af1158015610a7c573d6000803e3d6000fd5b50505050838573ffffffffffffffffffffffffffffffffffffffff163373ffffffffffffffffffffffffffffffffffffffff167fedbdf022944a3291f4b30148903a84720506f48e10478ec5812e5caf30e1fab086604051610ade91906111f2565b60405180910390a45050505050565b60008060008473ffffffffffffffffffffffffffffffffffffffff1673ffffffffffffffffffffffffffffffffffffffff168152602001908152602001600020600083815260200190815260200160002090503373ffffffffffffffffffffffffffffffffffffffff168160000160009054906101000a900473ffffffffffffffffffffffffffffffffffffffff1673ffffffffffffffffffffffffffffffffffffffff1614610bd2576040517f08c379a0000000000000000000000000000000000000000000000000000000008152600401610bc990611192565b60405180910390fd5b60008390503073ffffffffffffffffffffffffffffffffffffffff168173ffffffffffffffffffffffffffffffffffffffff16636352211e856040518263ffffffff1660e01b8152600401610c2791906111f2565b60206040518083038186803b158015610c3f57600080fd5b505afa158015610c53573d6000803e3d6000fd5b505050506040513d601f19601f82011682018060405250810190610c779190610eb3565b73ffffffffffffffffffffffffffffffffffffffff1614610ccd576040517f08c379a0000000000000000000000000000000000000000000000000000000008152600401610cc490611172565b60405180910390fd5b8073ffffffffffffffffffffffffffffffffffffffff166342842e0e3033866040518463ffffffff1660e01b8152600401610d0a939291906110d7565b600060405180830381600087803b158015610d2457600080fd5b505af1158015610d38573d6000803e3d6000fd5b505050506000808573ffffffffffffffffffffffffffffffffffffffff1673ffffffffffffffffffffffffffffffffffffffff1681526020019081526020016000206000848152602001908152602001600020600080820160006101000a81549073ffffffffffffffffffffffffffffffffffffffff021916905560018201600090555050828473ffffffffffffffffffffffffffffffffffffffff163373ffffffffffffffffffffffffffffffffffffffff167fb698e31a2abee5824d0d7bcfd2339aead7f9e9ae413fba50bf554ff3fa470b7b60405160405180910390a450505050565b600081359050610e2d816113cf565b92915050565b600081519050610e42816113cf565b92915050565b60008083601f840112610e5e57610e5d6112ee565b5b8235905067ffffffffffffffff811115610e7b57610e7a6112e9565b5b602083019150836001820283011115610e9757610e966112f3565b5b9250929050565b600081359050610ead816113e6565b92915050565b600060208284031215610ec957610ec86112fd565b5b6000610ed784828501610e33565b91505092915050565b600080600080600060808688031215610efc57610efb6112fd565b5b6000610f0a88828901610e1e565b9550506020610f1b88828901610e1e565b9450506040610f2c88828901610e9e565b935050606086013567ffffffffffffffff811115610f4d57610f4c6112f8565b5b610f5988828901610e48565b92509250509295509295909350565b60008060408385031215610f7f57610f7e6112fd565b5b6000610f8d85828601610e1e565b9250506020610f9e85828601610e9e565b9150509250929050565b600080600060608486031215610fc157610fc06112fd565b5b6000610fcf86828701610e1e565b9350506020610fe086828701610e9e565b9250506040610ff186828701610e9e565b9150509250925092565b61100481611252565b82525050565b61101381611264565b82525050565b6000611026600e8361120d565b915061103182611302565b602082019050919050565b6000611049600d8361120d565b91506110548261132b565b602082019050919050565b600061106c60098361120d565b915061107782611354565b602082019050919050565b600061108f600d8361120d565b915061109a8261137d565b602082019050919050565b60006110b2600d8361120d565b91506110bd826113a6565b602082019050919050565b6110d1816112b0565b82525050565b60006060820190506110ec6000830186610ffb565b6110f96020830185610ffb565b61110660408301846110c8565b949350505050565b60006040820190506111236000830185610ffb565b61113060208301846110c8565b9392505050565b600060208201905061114c600083018461100a565b92915050565b6000602082019050818103600083015261116b81611019565b9050919050565b6000602082019050818103600083015261118b8161103c565b9050919050565b600060208201905081810360008301526111ab8161105f565b9050919050565b600060208201905081810360008301526111cb81611082565b9050919050565b600060208201905081810360008301526111eb816110a5565b9050919050565b600060208201905061120760008301846110c8565b92915050565b600082825260208201905092915050565b6000611229826112b0565b9150611234836112b0565b925082821015611247576112466112ba565b5b828203905092915050565b600061125d82611290565b9050919050565b60007fffffffff0000000000000000000000000000000000000000000000000000000082169050919050565b600073ffffffffffffffffffffffffffffffffffffffff82169050919050565b6000819050919050565b7f4e487b7100000000000000000000000000000000000000000000000000000000600052601160045260246000fd5b600080fd5b600080fd5b600080fd5b600080fd5b600080fd5b7f496e637265617365207072696365000000000000000000000000000000000000600082015250565b7f496e76616c6964204f7264657200000000000000000000000000000000000000600082015250565b7f4e6f74204f776e65720000000000000000000000000000000000000000000000600082015250565b7f496e76616c696420507269636500000000000000000000000000000000000000600082015250565b7f4e65656420417070726f76616c00000000000000000000000000000000000000600082015250565b6113d881611252565b81146113e357600080fd5b50565b6113ef816112b0565b81146113fa57600080fd5b5056fea26469706673582212205c7a27599990eacdd8cdcd49a4fadfc47fd1528e029ab002133a595aa3b2170064736f6c63430008070033",
					"opcodes": "PUSH1 0x80 PUSH1 0x40 MSTORE CALLVALUE DUP1 ISZERO PUSH2 0x10 JUMPI PUSH1 0x0 DUP1 REVERT JUMPDEST POP PUSH2 0x1433 DUP1 PUSH2 0x20 PUSH1 0x0 CODECOPY PUSH1 0x0 RETURN INVALID PUSH1 0x80 PUSH1 0x40 MSTORE PUSH1 0x4 CALLDATASIZE LT PUSH2 0x59 JUMPI PUSH1 0x0 CALLDATALOAD PUSH1 0xE0 SHR DUP1 PUSH4 0x150B7A02 EQ PUSH2 0x5C JUMPI DUP1 PUSH4 0x8DE93222 EQ PUSH2 0x99 JUMPI DUP1 PUSH4 0xBA5F4FB2 EQ PUSH2 0xB5 JUMPI DUP1 PUSH4 0xD09B6D43 EQ PUSH2 0xF3 JUMPI DUP1 PUSH4 0xDDA342BB EQ PUSH2 0x11C JUMPI DUP1 PUSH4 0xEAC449D9 EQ PUSH2 0x145 JUMPI PUSH2 0x5A JUMP JUMPDEST JUMPDEST STOP JUMPDEST CALLVALUE DUP1 ISZERO PUSH2 0x68 JUMPI PUSH1 0x0 DUP1 REVERT JUMPDEST POP PUSH2 0x83 PUSH1 0x4 DUP1 CALLDATASIZE SUB DUP2 ADD SWAP1 PUSH2 0x7E SWAP2 SWAP1 PUSH2 0xEE0 JUMP JUMPDEST PUSH2 0x16E JUMP JUMPDEST PUSH1 0x40 MLOAD PUSH2 0x90 SWAP2 SWAP1 PUSH2 0x1137 JUMP JUMPDEST PUSH1 0x40 MLOAD DUP1 SWAP2 SUB SWAP1 RETURN JUMPDEST PUSH2 0xB3 PUSH1 0x4 DUP1 CALLDATASIZE SUB DUP2 ADD SWAP1 PUSH2 0xAE SWAP2 SWAP1 PUSH2 0xF68 JUMP JUMPDEST PUSH2 0x183 JUMP JUMPDEST STOP JUMPDEST CALLVALUE DUP1 ISZERO PUSH2 0xC1 JUMPI PUSH1 0x0 DUP1 REVERT JUMPDEST POP PUSH2 0xDC PUSH1 0x4 DUP1 CALLDATASIZE SUB DUP2 ADD SWAP1 PUSH2 0xD7 SWAP2 SWAP1 PUSH2 0xF68 JUMP JUMPDEST PUSH2 0x580 JUMP JUMPDEST PUSH1 0x40 MLOAD PUSH2 0xEA SWAP3 SWAP2 SWAP1 PUSH2 0x110E JUMP JUMPDEST PUSH1 0x40 MLOAD DUP1 SWAP2 SUB SWAP1 RETURN JUMPDEST CALLVALUE DUP1 ISZERO PUSH2 0xFF JUMPI PUSH1 0x0 DUP1 REVERT JUMPDEST POP PUSH2 0x11A PUSH1 0x4 DUP1 CALLDATASIZE SUB DUP2 ADD SWAP1 PUSH2 0x115 SWAP2 SWAP1 PUSH2 0xFA8 JUMP JUMPDEST PUSH2 0x5D1 JUMP JUMPDEST STOP JUMPDEST CALLVALUE DUP1 ISZERO PUSH2 0x128 JUMPI PUSH1 0x0 DUP1 REVERT JUMPDEST POP PUSH2 0x143 PUSH1 0x4 DUP1 CALLDATASIZE SUB DUP2 ADD SWAP1 PUSH2 0x13E SWAP2 SWAP1 PUSH2 0xFA8 JUMP JUMPDEST PUSH2 0x86A JUMP JUMPDEST STOP JUMPDEST CALLVALUE DUP1 ISZERO PUSH2 0x151 JUMPI PUSH1 0x0 DUP1 REVERT JUMPDEST POP PUSH2 0x16C PUSH1 0x4 DUP1 CALLDATASIZE SUB DUP2 ADD SWAP1 PUSH2 0x167 SWAP2 SWAP1 PUSH2 0xF68 JUMP JUMPDEST PUSH2 0xAED JUMP JUMPDEST STOP JUMPDEST PUSH1 0x0 PUSH4 0x150B7A02 PUSH1 0xE0 SHL SWAP1 POP SWAP6 SWAP5 POP POP POP POP POP JUMP JUMPDEST PUSH1 0x0 DUP1 PUSH1 0x0 DUP5 PUSH20 0xFFFFFFFFFFFFFFFFFFFFFFFFFFFFFFFFFFFFFFFF AND PUSH20 0xFFFFFFFFFFFFFFFFFFFFFFFFFFFFFFFFFFFFFFFF AND DUP2 MSTORE PUSH1 0x20 ADD SWAP1 DUP2 MSTORE PUSH1 0x20 ADD PUSH1 0x0 KECCAK256 PUSH1 0x0 DUP4 DUP2 MSTORE PUSH1 0x20 ADD SWAP1 DUP2 MSTORE PUSH1 0x20 ADD PUSH1 0x0 KECCAK256 SWAP1 POP PUSH1 0x0 DUP2 PUSH1 0x1 ADD SLOAD GT PUSH2 0x21D JUMPI PUSH1 0x40 MLOAD PUSH32 0x8C379A000000000000000000000000000000000000000000000000000000000 DUP2 MSTORE PUSH1 0x4 ADD PUSH2 0x214 SWAP1 PUSH2 0x11B2 JUMP JUMPDEST PUSH1 0x40 MLOAD DUP1 SWAP2 SUB SWAP1 REVERT JUMPDEST DUP1 PUSH1 0x1 ADD SLOAD CALLVALUE LT ISZERO PUSH2 0x264 JUMPI PUSH1 0x40 MLOAD PUSH32 0x8C379A000000000000000000000000000000000000000000000000000000000 DUP2 MSTORE PUSH1 0x4 ADD PUSH2 0x25B SWAP1 PUSH2 0x1152 JUMP JUMPDEST PUSH1 0x40 MLOAD DUP1 SWAP2 SUB SWAP1 REVERT JUMPDEST PUSH1 0x0 DUP4 SWAP1 POP ADDRESS PUSH20 0xFFFFFFFFFFFFFFFFFFFFFFFFFFFFFFFFFFFFFFFF AND DUP2 PUSH20 0xFFFFFFFFFFFFFFFFFFFFFFFFFFFFFFFFFFFFFFFF AND PUSH4 0x6352211E DUP6 PUSH1 0x40 MLOAD DUP3 PUSH4 0xFFFFFFFF AND PUSH1 0xE0 SHL DUP2 MSTORE PUSH1 0x4 ADD PUSH2 0x2B9 SWAP2 SWAP1 PUSH2 0x11F2 JUMP JUMPDEST PUSH1 0x20 PUSH1 0x40 MLOAD DUP1 DUP4 SUB DUP2 DUP7 DUP1 EXTCODESIZE ISZERO DUP1 ISZERO PUSH2 0x2D1 JUMPI PUSH1 0x0 DUP1 REVERT JUMPDEST POP GAS STATICCALL ISZERO DUP1 ISZERO PUSH2 0x2E5 JUMPI RETURNDATASIZE PUSH1 0x0 DUP1 RETURNDATACOPY RETURNDATASIZE PUSH1 0x0 REVERT JUMPDEST POP POP POP POP PUSH1 0x40 MLOAD RETURNDATASIZE PUSH1 0x1F NOT PUSH1 0x1F DUP3 ADD AND DUP3 ADD DUP1 PUSH1 0x40 MSTORE POP DUP2 ADD SWAP1 PUSH2 0x309 SWAP2 SWAP1 PUSH2 0xEB3 JUMP JUMPDEST PUSH20 0xFFFFFFFFFFFFFFFFFFFFFFFFFFFFFFFFFFFFFFFF AND EQ PUSH2 0x35F JUMPI PUSH1 0x40 MLOAD PUSH32 0x8C379A000000000000000000000000000000000000000000000000000000000 DUP2 MSTORE PUSH1 0x4 ADD PUSH2 0x356 SWAP1 PUSH2 0x1172 JUMP JUMPDEST PUSH1 0x40 MLOAD DUP1 SWAP2 SUB SWAP1 REVERT JUMPDEST DUP1 PUSH20 0xFFFFFFFFFFFFFFFFFFFFFFFFFFFFFFFFFFFFFFFF AND PUSH4 0x42842E0E ADDRESS CALLER DUP7 PUSH1 0x40 MLOAD DUP5 PUSH4 0xFFFFFFFF AND PUSH1 0xE0 SHL DUP2 MSTORE PUSH1 0x4 ADD PUSH2 0x39C SWAP4 SWAP3 SWAP2 SWAP1 PUSH2 0x10D7 JUMP JUMPDEST PUSH1 0x0 PUSH1 0x40 MLOAD DUP1 DUP4 SUB DUP2 PUSH1 0x0 DUP8 DUP1 EXTCODESIZE ISZERO DUP1 ISZERO PUSH2 0x3B6 JUMPI PUSH1 0x0 DUP1 REVERT JUMPDEST POP GAS CALL ISZERO DUP1 ISZERO PUSH2 0x3CA JUMPI RETURNDATASIZE PUSH1 0x0 DUP1 RETURNDATACOPY RETURNDATASIZE PUSH1 0x0 REVERT JUMPDEST POP POP POP POP DUP2 PUSH1 0x0 ADD PUSH1 0x0 SWAP1 SLOAD SWAP1 PUSH2 0x100 EXP SWAP1 DIV PUSH20 0xFFFFFFFFFFFFFFFFFFFFFFFFFFFFFFFFFFFFFFFF AND PUSH20 0xFFFFFFFFFFFFFFFFFFFFFFFFFFFFFFFFFFFFFFFF AND PUSH2 0x8FC DUP4 PUSH1 0x1 ADD SLOAD SWAP1 DUP2 ISZERO MUL SWAP1 PUSH1 0x40 MLOAD PUSH1 0x0 PUSH1 0x40 MLOAD DUP1 DUP4 SUB DUP2 DUP6 DUP9 DUP9 CALL SWAP4 POP POP POP POP ISZERO DUP1 ISZERO PUSH2 0x43C JUMPI RETURNDATASIZE PUSH1 0x0 DUP1 RETURNDATACOPY RETURNDATASIZE PUSH1 0x0 REVERT JUMPDEST POP CALLER PUSH20 0xFFFFFFFFFFFFFFFFFFFFFFFFFFFFFFFFFFFFFFFF AND PUSH2 0x8FC DUP4 PUSH1 0x1 ADD SLOAD CALLVALUE PUSH2 0x467 SWAP2 SWAP1 PUSH2 0x121E JUMP JUMPDEST SWAP1 DUP2 ISZERO MUL SWAP1 PUSH1 0x40 MLOAD PUSH1 0x0 PUSH1 0x40 MLOAD DUP1 DUP4 SUB DUP2 DUP6 DUP9 DUP9 CALL SWAP4 POP POP POP POP ISZERO DUP1 ISZERO PUSH2 0x492 JUMPI RETURNDATASIZE PUSH1 0x0 DUP1 RETURNDATACOPY RETURNDATASIZE PUSH1 0x0 REVERT JUMPDEST POP PUSH1 0x0 DUP1 DUP6 PUSH20 0xFFFFFFFFFFFFFFFFFFFFFFFFFFFFFFFFFFFFFFFF AND PUSH20 0xFFFFFFFFFFFFFFFFFFFFFFFFFFFFFFFFFFFFFFFF AND DUP2 MSTORE PUSH1 0x20 ADD SWAP1 DUP2 MSTORE PUSH1 0x20 ADD PUSH1 0x0 KECCAK256 PUSH1 0x0 DUP5 DUP2 MSTORE PUSH1 0x20 ADD SWAP1 DUP2 MSTORE PUSH1 0x20 ADD PUSH1 0x0 KECCAK256 PUSH1 0x0 DUP1 DUP3 ADD PUSH1 0x0 PUSH2 0x100 EXP DUP2 SLOAD SWAP1 PUSH20 0xFFFFFFFFFFFFFFFFFFFFFFFFFFFFFFFFFFFFFFFF MUL NOT AND SWAP1 SSTORE PUSH1 0x1 DUP3 ADD PUSH1 0x0 SWAP1 SSTORE POP POP DUP3 DUP5 PUSH20 0xFFFFFFFFFFFFFFFFFFFFFFFFFFFFFFFFFFFFFFFF AND CALLER PUSH20 0xFFFFFFFFFFFFFFFFFFFFFFFFFFFFFFFFFFFFFFFF AND PUSH32 0x46661DAB58311A6838247AFECBEE792192B4F27FC8B3E7168C66BC55EC2E404E CALLVALUE PUSH1 0x40 MLOAD PUSH2 0x572 SWAP2 SWAP1 PUSH2 0x11F2 JUMP JUMPDEST PUSH1 0x40 MLOAD DUP1 SWAP2 SUB SWAP1 LOG4 POP POP POP POP JUMP JUMPDEST PUSH1 0x0 PUSH1 0x20 MSTORE DUP2 PUSH1 0x0 MSTORE PUSH1 0x40 PUSH1 0x0 KECCAK256 PUSH1 0x20 MSTORE DUP1 PUSH1 0x0 MSTORE PUSH1 0x40 PUSH1 0x0 KECCAK256 PUSH1 0x0 SWAP2 POP SWAP2 POP POP DUP1 PUSH1 0x0 ADD PUSH1 0x0 SWAP1 SLOAD SWAP1 PUSH2 0x100 EXP SWAP1 DIV PUSH20 0xFFFFFFFFFFFFFFFFFFFFFFFFFFFFFFFFFFFFFFFF AND SWAP1 DUP1 PUSH1 0x1 ADD SLOAD SWAP1 POP DUP3 JUMP JUMPDEST PUSH1 0x0 DUP2 GT PUSH2 0x614 JUMPI PUSH1 0x40 MLOAD PUSH32 0x8C379A000000000000000000000000000000000000000000000000000000000 DUP2 MSTORE PUSH1 0x4 ADD PUSH2 0x60B SWAP1 PUSH2 0x11B2 JUMP JUMPDEST PUSH1 0x40 MLOAD DUP1 SWAP2 SUB SWAP1 REVERT JUMPDEST PUSH1 0x0 DUP1 PUSH1 0x0 DUP6 PUSH20 0xFFFFFFFFFFFFFFFFFFFFFFFFFFFFFFFFFFFFFFFF AND PUSH20 0xFFFFFFFFFFFFFFFFFFFFFFFFFFFFFFFFFFFFFFFF AND DUP2 MSTORE PUSH1 0x20 ADD SWAP1 DUP2 MSTORE PUSH1 0x20 ADD PUSH1 0x0 KECCAK256 PUSH1 0x0 DUP5 DUP2 MSTORE PUSH1 0x20 ADD SWAP1 DUP2 MSTORE PUSH1 0x20 ADD PUSH1 0x0 KECCAK256 SWAP1 POP CALLER PUSH20 0xFFFFFFFFFFFFFFFFFFFFFFFFFFFFFFFFFFFFFFFF AND DUP2 PUSH1 0x0 ADD PUSH1 0x0 SWAP1 SLOAD SWAP1 PUSH2 0x100 EXP SWAP1 DIV PUSH20 0xFFFFFFFFFFFFFFFFFFFFFFFFFFFFFFFFFFFFFFFF AND PUSH20 0xFFFFFFFFFFFFFFFFFFFFFFFFFFFFFFFFFFFFFFFF AND EQ PUSH2 0x6F9 JUMPI PUSH1 0x40 MLOAD PUSH32 0x8C379A000000000000000000000000000000000000000000000000000000000 DUP2 MSTORE PUSH1 0x4 ADD PUSH2 0x6F0 SWAP1 PUSH2 0x1192 JUMP JUMPDEST PUSH1 0x40 MLOAD DUP1 SWAP2 SUB SWAP1 REVERT JUMPDEST PUSH1 0x0 DUP5 SWAP1 POP ADDRESS PUSH20 0xFFFFFFFFFFFFFFFFFFFFFFFFFFFFFFFFFFFFFFFF AND DUP2 PUSH20 0xFFFFFFFFFFFFFFFFFFFFFFFFFFFFFFFFFFFFFFFF AND PUSH4 0x6352211E DUP7 PUSH1 0x40 MLOAD DUP3 PUSH4 0xFFFFFFFF AND PUSH1 0xE0 SHL DUP2 MSTORE PUSH1 0x4 ADD PUSH2 0x74E SWAP2 SWAP1 PUSH2 0x11F2 JUMP JUMPDEST PUSH1 0x20 PUSH1 0x40 MLOAD DUP1 DUP4 SUB DUP2 DUP7 DUP1 EXTCODESIZE ISZERO DUP1 ISZERO PUSH2 0x766 JUMPI PUSH1 0x0 DUP1 REVERT JUMPDEST POP GAS STATICCALL ISZERO DUP1 ISZERO PUSH2 0x77A JUMPI RETURNDATASIZE PUSH1 0x0 DUP1 RETURNDATACOPY RETURNDATASIZE PUSH1 0x0 REVERT JUMPDEST POP POP POP POP PUSH1 0x40 MLOAD RETURNDATASIZE PUSH1 0x1F NOT PUSH1 0x1F DUP3 ADD AND DUP3 ADD DUP1 PUSH1 0x40 MSTORE POP DUP2 ADD SWAP1 PUSH2 0x79E SWAP2 SWAP1 PUSH2 0xEB3 JUMP JUMPDEST PUSH20 0xFFFFFFFFFFFFFFFFFFFFFFFFFFFFFFFFFFFFFFFF AND EQ PUSH2 0x7F4 JUMPI PUSH1 0x40 MLOAD PUSH32 0x8C379A000000000000000000000000000000000000000000000000000000000 DUP2 MSTORE PUSH1 0x4 ADD PUSH2 0x7EB SWAP1 PUSH2 0x1172 JUMP JUMPDEST PUSH1 0x40 MLOAD DUP1 SWAP2 SUB SWAP1 REVERT JUMPDEST DUP3 DUP3 PUSH1 0x1 ADD DUP2 SWAP1 SSTORE POP DUP4 DUP6 PUSH20 0xFFFFFFFFFFFFFFFFFFFFFFFFFFFFFFFFFFFFFFFF AND CALLER PUSH20 0xFFFFFFFFFFFFFFFFFFFFFFFFFFFFFFFFFFFFFFFF AND PUSH32 0xB7F0CA7CD5B24651672216886135B99FF40342BCF549009A4C6FC74F059FB9A0 DUP7 PUSH1 0x40 MLOAD PUSH2 0x85B SWAP2 SWAP1 PUSH2 0x11F2 JUMP JUMPDEST PUSH1 0x40 MLOAD DUP1 SWAP2 SUB SWAP1 LOG4 POP POP POP POP POP JUMP JUMPDEST PUSH1 0x0 DUP4 SWAP1 POP ADDRESS PUSH20 0xFFFFFFFFFFFFFFFFFFFFFFFFFFFFFFFFFFFFFFFF AND DUP2 PUSH20 0xFFFFFFFFFFFFFFFFFFFFFFFFFFFFFFFFFFFFFFFF AND PUSH4 0x81812FC DUP6 PUSH1 0x40 MLOAD DUP3 PUSH4 0xFFFFFFFF AND PUSH1 0xE0 SHL DUP2 MSTORE PUSH1 0x4 ADD PUSH2 0x8BF SWAP2 SWAP1 PUSH2 0x11F2 JUMP JUMPDEST PUSH1 0x20 PUSH1 0x40 MLOAD DUP1 DUP4 SUB DUP2 DUP7 DUP1 EXTCODESIZE ISZERO DUP1 ISZERO PUSH2 0x8D7 JUMPI PUSH1 0x0 DUP1 REVERT JUMPDEST POP GAS STATICCALL ISZERO DUP1 ISZERO PUSH2 0x8EB JUMPI RETURNDATASIZE PUSH1 0x0 DUP1 RETURNDATACOPY RETURNDATASIZE PUSH1 0x0 REVERT JUMPDEST POP POP POP POP PUSH1 0x40 MLOAD RETURNDATASIZE PUSH1 0x1F NOT PUSH1 0x1F DUP3 ADD AND DUP3 ADD DUP1 PUSH1 0x40 MSTORE POP DUP2 ADD SWAP1 PUSH2 0x90F SWAP2 SWAP1 PUSH2 0xEB3 JUMP JUMPDEST PUSH20 0xFFFFFFFFFFFFFFFFFFFFFFFFFFFFFFFFFFFFFFFF AND EQ PUSH2 0x965 JUMPI PUSH1 0x40 MLOAD PUSH32 0x8C379A000000000000000000000000000000000000000000000000000000000 DUP2 MSTORE PUSH1 0x4 ADD PUSH2 0x95C SWAP1 PUSH2 0x11D2 JUMP JUMPDEST PUSH1 0x40 MLOAD DUP1 SWAP2 SUB SWAP1 REVERT JUMPDEST PUSH1 0x0 DUP3 GT PUSH2 0x972 JUMPI PUSH1 0x0 DUP1 REVERT JUMPDEST PUSH1 0x0 DUP1 PUSH1 0x0 DUP7 PUSH20 0xFFFFFFFFFFFFFFFFFFFFFFFFFFFFFFFFFFFFFFFF AND PUSH20 0xFFFFFFFFFFFFFFFFFFFFFFFFFFFFFFFFFFFFFFFF AND DUP2 MSTORE PUSH1 0x20 ADD SWAP1 DUP2 MSTORE PUSH1 0x20 ADD PUSH1 0x0 KECCAK256 PUSH1 0x0 DUP6 DUP2 MSTORE PUSH1 0x20 ADD SWAP1 DUP2 MSTORE PUSH1 0x20 ADD PUSH1 0x0 KECCAK256 SWAP1 POP CALLER DUP2 PUSH1 0x0 ADD PUSH1 0x0 PUSH2 0x100 EXP DUP2 SLOAD DUP2 PUSH20 0xFFFFFFFFFFFFFFFFFFFFFFFFFFFFFFFFFFFFFFFF MUL NOT AND SWAP1 DUP4 PUSH20 0xFFFFFFFFFFFFFFFFFFFFFFFFFFFFFFFFFFFFFFFF AND MUL OR SWAP1 SSTORE POP DUP3 DUP2 PUSH1 0x1 ADD DUP2 SWAP1 SSTORE POP DUP2 PUSH20 0xFFFFFFFFFFFFFFFFFFFFFFFFFFFFFFFFFFFFFFFF AND PUSH4 0x42842E0E CALLER ADDRESS DUP8 PUSH1 0x40 MLOAD DUP5 PUSH4 0xFFFFFFFF AND PUSH1 0xE0 SHL DUP2 MSTORE PUSH1 0x4 ADD PUSH2 0xA4E SWAP4 SWAP3 SWAP2 SWAP1 PUSH2 0x10D7 JUMP JUMPDEST PUSH1 0x0 PUSH1 0x40 MLOAD DUP1 DUP4 SUB DUP2 PUSH1 0x0 DUP8 DUP1 EXTCODESIZE ISZERO DUP1 ISZERO PUSH2 0xA68 JUMPI PUSH1 0x0 DUP1 REVERT JUMPDEST POP GAS CALL ISZERO DUP1 ISZERO PUSH2 0xA7C JUMPI RETURNDATASIZE PUSH1 0x0 DUP1 RETURNDATACOPY RETURNDATASIZE PUSH1 0x0 REVERT JUMPDEST POP POP POP POP DUP4 DUP6 PUSH20 0xFFFFFFFFFFFFFFFFFFFFFFFFFFFFFFFFFFFFFFFF AND CALLER PUSH20 0xFFFFFFFFFFFFFFFFFFFFFFFFFFFFFFFFFFFFFFFF AND PUSH32 0xEDBDF022944A3291F4B30148903A84720506F48E10478EC5812E5CAF30E1FAB0 DUP7 PUSH1 0x40 MLOAD PUSH2 0xADE SWAP2 SWAP1 PUSH2 0x11F2 JUMP JUMPDEST PUSH1 0x40 MLOAD DUP1 SWAP2 SUB SWAP1 LOG4 POP POP POP POP POP JUMP JUMPDEST PUSH1 0x0 DUP1 PUSH1 0x0 DUP5 PUSH20 0xFFFFFFFFFFFFFFFFFFFFFFFFFFFFFFFFFFFFFFFF AND PUSH20 0xFFFFFFFFFFFFFFFFFFFFFFFFFFFFFFFFFFFFFFFF AND DUP2 MSTORE PUSH1 0x20 ADD SWAP1 DUP2 MSTORE PUSH1 0x20 ADD PUSH1 0x0 KECCAK256 PUSH1 0x0 DUP4 DUP2 MSTORE PUSH1 0x20 ADD SWAP1 DUP2 MSTORE PUSH1 0x20 ADD PUSH1 0x0 KECCAK256 SWAP1 POP CALLER PUSH20 0xFFFFFFFFFFFFFFFFFFFFFFFFFFFFFFFFFFFFFFFF AND DUP2 PUSH1 0x0 ADD PUSH1 0x0 SWAP1 SLOAD SWAP1 PUSH2 0x100 EXP SWAP1 DIV PUSH20 0xFFFFFFFFFFFFFFFFFFFFFFFFFFFFFFFFFFFFFFFF AND PUSH20 0xFFFFFFFFFFFFFFFFFFFFFFFFFFFFFFFFFFFFFFFF AND EQ PUSH2 0xBD2 JUMPI PUSH1 0x40 MLOAD PUSH32 0x8C379A000000000000000000000000000000000000000000000000000000000 DUP2 MSTORE PUSH1 0x4 ADD PUSH2 0xBC9 SWAP1 PUSH2 0x1192 JUMP JUMPDEST PUSH1 0x40 MLOAD DUP1 SWAP2 SUB SWAP1 REVERT JUMPDEST PUSH1 0x0 DUP4 SWAP1 POP ADDRESS PUSH20 0xFFFFFFFFFFFFFFFFFFFFFFFFFFFFFFFFFFFFFFFF AND DUP2 PUSH20 0xFFFFFFFFFFFFFFFFFFFFFFFFFFFFFFFFFFFFFFFF AND PUSH4 0x6352211E DUP6 PUSH1 0x40 MLOAD DUP3 PUSH4 0xFFFFFFFF AND PUSH1 0xE0 SHL DUP2 MSTORE PUSH1 0x4 ADD PUSH2 0xC27 SWAP2 SWAP1 PUSH2 0x11F2 JUMP JUMPDEST PUSH1 0x20 PUSH1 0x40 MLOAD DUP1 DUP4 SUB DUP2 DUP7 DUP1 EXTCODESIZE ISZERO DUP1 ISZERO PUSH2 0xC3F JUMPI PUSH1 0x0 DUP1 REVERT JUMPDEST POP GAS STATICCALL ISZERO DUP1 ISZERO PUSH2 0xC53 JUMPI RETURNDATASIZE PUSH1 0x0 DUP1 RETURNDATACOPY RETURNDATASIZE PUSH1 0x0 REVERT JUMPDEST POP POP POP POP PUSH1 0x40 MLOAD RETURNDATASIZE PUSH1 0x1F NOT PUSH1 0x1F DUP3 ADD AND DUP3 ADD DUP1 PUSH1 0x40 MSTORE POP DUP2 ADD SWAP1 PUSH2 0xC77 SWAP2 SWAP1 PUSH2 0xEB3 JUMP JUMPDEST PUSH20 0xFFFFFFFFFFFFFFFFFFFFFFFFFFFFFFFFFFFFFFFF AND EQ PUSH2 0xCCD JUMPI PUSH1 0x40 MLOAD PUSH32 0x8C379A000000000000000000000000000000000000000000000000000000000 DUP2 MSTORE PUSH1 0x4 ADD PUSH2 0xCC4 SWAP1 PUSH2 0x1172 JUMP JUMPDEST PUSH1 0x40 MLOAD DUP1 SWAP2 SUB SWAP1 REVERT JUMPDEST DUP1 PUSH20 0xFFFFFFFFFFFFFFFFFFFFFFFFFFFFFFFFFFFFFFFF AND PUSH4 0x42842E0E ADDRESS CALLER DUP7 PUSH1 0x40 MLOAD DUP5 PUSH4 0xFFFFFFFF AND PUSH1 0xE0 SHL DUP2 MSTORE PUSH1 0x4 ADD PUSH2 0xD0A SWAP4 SWAP3 SWAP2 SWAP1 PUSH2 0x10D7 JUMP JUMPDEST PUSH1 0x0 PUSH1 0x40 MLOAD DUP1 DUP4 SUB DUP2 PUSH1 0x0 DUP8 DUP1 EXTCODESIZE ISZERO DUP1 ISZERO PUSH2 0xD24 JUMPI PUSH1 0x0 DUP1 REVERT JUMPDEST POP GAS CALL ISZERO DUP1 ISZERO PUSH2 0xD38 JUMPI RETURNDATASIZE PUSH1 0x0 DUP1 RETURNDATACOPY RETURNDATASIZE PUSH1 0x0 REVERT JUMPDEST POP POP POP POP PUSH1 0x0 DUP1 DUP6 PUSH20 0xFFFFFFFFFFFFFFFFFFFFFFFFFFFFFFFFFFFFFFFF AND PUSH20 0xFFFFFFFFFFFFFFFFFFFFFFFFFFFFFFFFFFFFFFFF AND DUP2 MSTORE PUSH1 0x20 ADD SWAP1 DUP2 MSTORE PUSH1 0x20 ADD PUSH1 0x0 KECCAK256 PUSH1 0x0 DUP5 DUP2 MSTORE PUSH1 0x20 ADD SWAP1 DUP2 MSTORE PUSH1 0x20 ADD PUSH1 0x0 KECCAK256 PUSH1 0x0 DUP1 DUP3 ADD PUSH1 0x0 PUSH2 0x100 EXP DUP2 SLOAD SWAP1 PUSH20 0xFFFFFFFFFFFFFFFFFFFFFFFFFFFFFFFFFFFFFFFF MUL NOT AND SWAP1 SSTORE PUSH1 0x1 DUP3 ADD PUSH1 0x0 SWAP1 SSTORE POP POP DUP3 DUP5 PUSH20 0xFFFFFFFFFFFFFFFFFFFFFFFFFFFFFFFFFFFFFFFF AND CALLER PUSH20 0xFFFFFFFFFFFFFFFFFFFFFFFFFFFFFFFFFFFFFFFF AND PUSH32 0xB698E31A2ABEE5824D0D7BCFD2339AEAD7F9E9AE413FBA50BF554FF3FA470B7B PUSH1 0x40 MLOAD PUSH1 0x40 MLOAD DUP1 SWAP2 SUB SWAP1 LOG4 POP POP POP POP JUMP JUMPDEST PUSH1 0x0 DUP2 CALLDATALOAD SWAP1 POP PUSH2 0xE2D DUP2 PUSH2 0x13CF JUMP JUMPDEST SWAP3 SWAP2 POP POP JUMP JUMPDEST PUSH1 0x0 DUP2 MLOAD SWAP1 POP PUSH2 0xE42 DUP2 PUSH2 0x13CF JUMP JUMPDEST SWAP3 SWAP2 POP POP JUMP JUMPDEST PUSH1 0x0 DUP1 DUP4 PUSH1 0x1F DUP5 ADD SLT PUSH2 0xE5E JUMPI PUSH2 0xE5D PUSH2 0x12EE JUMP JUMPDEST JUMPDEST DUP3 CALLDATALOAD SWAP1 POP PUSH8 0xFFFFFFFFFFFFFFFF DUP2 GT ISZERO PUSH2 0xE7B JUMPI PUSH2 0xE7A PUSH2 0x12E9 JUMP JUMPDEST JUMPDEST PUSH1 0x20 DUP4 ADD SWAP2 POP DUP4 PUSH1 0x1 DUP3 MUL DUP4 ADD GT ISZERO PUSH2 0xE97 JUMPI PUSH2 0xE96 PUSH2 0x12F3 JUMP JUMPDEST JUMPDEST SWAP3 POP SWAP3 SWAP1 POP JUMP JUMPDEST PUSH1 0x0 DUP2 CALLDATALOAD SWAP1 POP PUSH2 0xEAD DUP2 PUSH2 0x13E6 JUMP JUMPDEST SWAP3 SWAP2 POP POP JUMP JUMPDEST PUSH1 0x0 PUSH1 0x20 DUP3 DUP5 SUB SLT ISZERO PUSH2 0xEC9 JUMPI PUSH2 0xEC8 PUSH2 0x12FD JUMP JUMPDEST JUMPDEST PUSH1 0x0 PUSH2 0xED7 DUP5 DUP3 DUP6 ADD PUSH2 0xE33 JUMP JUMPDEST SWAP2 POP POP SWAP3 SWAP2 POP POP JUMP JUMPDEST PUSH1 0x0 DUP1 PUSH1 0x0 DUP1 PUSH1 0x0 PUSH1 0x80 DUP7 DUP9 SUB SLT ISZERO PUSH2 0xEFC JUMPI PUSH2 0xEFB PUSH2 0x12FD JUMP JUMPDEST JUMPDEST PUSH1 0x0 PUSH2 0xF0A DUP9 DUP3 DUP10 ADD PUSH2 0xE1E JUMP JUMPDEST SWAP6 POP POP PUSH1 0x20 PUSH2 0xF1B DUP9 DUP3 DUP10 ADD PUSH2 0xE1E JUMP JUMPDEST SWAP5 POP POP PUSH1 0x40 PUSH2 0xF2C DUP9 DUP3 DUP10 ADD PUSH2 0xE9E JUMP JUMPDEST SWAP4 POP POP PUSH1 0x60 DUP7 ADD CALLDATALOAD PUSH8 0xFFFFFFFFFFFFFFFF DUP2 GT ISZERO PUSH2 0xF4D JUMPI PUSH2 0xF4C PUSH2 0x12F8 JUMP JUMPDEST JUMPDEST PUSH2 0xF59 DUP9 DUP3 DUP10 ADD PUSH2 0xE48 JUMP JUMPDEST SWAP3 POP SWAP3 POP POP SWAP3 SWAP6 POP SWAP3 SWAP6 SWAP1 SWAP4 POP JUMP JUMPDEST PUSH1 0x0 DUP1 PUSH1 0x40 DUP4 DUP6 SUB SLT ISZERO PUSH2 0xF7F JUMPI PUSH2 0xF7E PUSH2 0x12FD JUMP JUMPDEST JUMPDEST PUSH1 0x0 PUSH2 0xF8D DUP6 DUP3 DUP7 ADD PUSH2 0xE1E JUMP JUMPDEST SWAP3 POP POP PUSH1 0x20 PUSH2 0xF9E DUP6 DUP3 DUP7 ADD PUSH2 0xE9E JUMP JUMPDEST SWAP2 POP POP SWAP3 POP SWAP3 SWAP1 POP JUMP JUMPDEST PUSH1 0x0 DUP1 PUSH1 0x0 PUSH1 0x60 DUP5 DUP7 SUB SLT ISZERO PUSH2 0xFC1 JUMPI PUSH2 0xFC0 PUSH2 0x12FD JUMP JUMPDEST JUMPDEST PUSH1 0x0 PUSH2 0xFCF DUP7 DUP3 DUP8 ADD PUSH2 0xE1E JUMP JUMPDEST SWAP4 POP POP PUSH1 0x20 PUSH2 0xFE0 DUP7 DUP3 DUP8 ADD PUSH2 0xE9E JUMP JUMPDEST SWAP3 POP POP PUSH1 0x40 PUSH2 0xFF1 DUP7 DUP3 DUP8 ADD PUSH2 0xE9E JUMP JUMPDEST SWAP2 POP POP SWAP3 POP SWAP3 POP SWAP3 JUMP JUMPDEST PUSH2 0x1004 DUP2 PUSH2 0x1252 JUMP JUMPDEST DUP3 MSTORE POP POP JUMP JUMPDEST PUSH2 0x1013 DUP2 PUSH2 0x1264 JUMP JUMPDEST DUP3 MSTORE POP POP JUMP JUMPDEST PUSH1 0x0 PUSH2 0x1026 PUSH1 0xE DUP4 PUSH2 0x120D JUMP JUMPDEST SWAP2 POP PUSH2 0x1031 DUP3 PUSH2 0x1302 JUMP JUMPDEST PUSH1 0x20 DUP3 ADD SWAP1 POP SWAP2 SWAP1 POP JUMP JUMPDEST PUSH1 0x0 PUSH2 0x1049 PUSH1 0xD DUP4 PUSH2 0x120D JUMP JUMPDEST SWAP2 POP PUSH2 0x1054 DUP3 PUSH2 0x132B JUMP JUMPDEST PUSH1 0x20 DUP3 ADD SWAP1 POP SWAP2 SWAP1 POP JUMP JUMPDEST PUSH1 0x0 PUSH2 0x106C PUSH1 0x9 DUP4 PUSH2 0x120D JUMP JUMPDEST SWAP2 POP PUSH2 0x1077 DUP3 PUSH2 0x1354 JUMP JUMPDEST PUSH1 0x20 DUP3 ADD SWAP1 POP SWAP2 SWAP1 POP JUMP JUMPDEST PUSH1 0x0 PUSH2 0x108F PUSH1 0xD DUP4 PUSH2 0x120D JUMP JUMPDEST SWAP2 POP PUSH2 0x109A DUP3 PUSH2 0x137D JUMP JUMPDEST PUSH1 0x20 DUP3 ADD SWAP1 POP SWAP2 SWAP1 POP JUMP JUMPDEST PUSH1 0x0 PUSH2 0x10B2 PUSH1 0xD DUP4 PUSH2 0x120D JUMP JUMPDEST SWAP2 POP PUSH2 0x10BD DUP3 PUSH2 0x13A6 JUMP JUMPDEST PUSH1 0x20 DUP3 ADD SWAP1 POP SWAP2 SWAP1 POP JUMP JUMPDEST PUSH2 0x10D1 DUP2 PUSH2 0x12B0 JUMP JUMPDEST DUP3 MSTORE POP POP JUMP JUMPDEST PUSH1 0x0 PUSH1 0x60 DUP3 ADD SWAP1 POP PUSH2 0x10EC PUSH1 0x0 DUP4 ADD DUP7 PUSH2 0xFFB JUMP JUMPDEST PUSH2 0x10F9 PUSH1 0x20 DUP4 ADD DUP6 PUSH2 0xFFB JUMP JUMPDEST PUSH2 0x1106 PUSH1 0x40 DUP4 ADD DUP5 PUSH2 0x10C8 JUMP JUMPDEST SWAP5 SWAP4 POP POP POP POP JUMP JUMPDEST PUSH1 0x0 PUSH1 0x40 DUP3 ADD SWAP1 POP PUSH2 0x1123 PUSH1 0x0 DUP4 ADD DUP6 PUSH2 0xFFB JUMP JUMPDEST PUSH2 0x1130 PUSH1 0x20 DUP4 ADD DUP5 PUSH2 0x10C8 JUMP JUMPDEST SWAP4 SWAP3 POP POP POP JUMP JUMPDEST PUSH1 0x0 PUSH1 0x20 DUP3 ADD SWAP1 POP PUSH2 0x114C PUSH1 0x0 DUP4 ADD DUP5 PUSH2 0x100A JUMP JUMPDEST SWAP3 SWAP2 POP POP JUMP JUMPDEST PUSH1 0x0 PUSH1 0x20 DUP3 ADD SWAP1 POP DUP2 DUP2 SUB PUSH1 0x0 DUP4 ADD MSTORE PUSH2 0x116B DUP2 PUSH2 0x1019 JUMP JUMPDEST SWAP1 POP SWAP2 SWAP1 POP JUMP JUMPDEST PUSH1 0x0 PUSH1 0x20 DUP3 ADD SWAP1 POP DUP2 DUP2 SUB PUSH1 0x0 DUP4 ADD MSTORE PUSH2 0x118B DUP2 PUSH2 0x103C JUMP JUMPDEST SWAP1 POP SWAP2 SWAP1 POP JUMP JUMPDEST PUSH1 0x0 PUSH1 0x20 DUP3 ADD SWAP1 POP DUP2 DUP2 SUB PUSH1 0x0 DUP4 ADD MSTORE PUSH2 0x11AB DUP2 PUSH2 0x105F JUMP JUMPDEST SWAP1 POP SWAP2 SWAP1 POP JUMP JUMPDEST PUSH1 0x0 PUSH1 0x20 DUP3 ADD SWAP1 POP DUP2 DUP2 SUB PUSH1 0x0 DUP4 ADD MSTORE PUSH2 0x11CB DUP2 PUSH2 0x1082 JUMP JUMPDEST SWAP1 POP SWAP2 SWAP1 POP JUMP JUMPDEST PUSH1 0x0 PUSH1 0x20 DUP3 ADD SWAP1 POP DUP2 DUP2 SUB PUSH1 0x0 DUP4 ADD MSTORE PUSH2 0x11EB DUP2 PUSH2 0x10A5 JUMP JUMPDEST SWAP1 POP SWAP2 SWAP1 POP JUMP JUMPDEST PUSH1 0x0 PUSH1 0x20 DUP3 ADD SWAP1 POP PUSH2 0x1207 PUSH1 0x0 DUP4 ADD DUP5 PUSH2 0x10C8 JUMP JUMPDEST SWAP3 SWAP2 POP POP JUMP JUMPDEST PUSH1 0x0 DUP3 DUP3 MSTORE PUSH1 0x20 DUP3 ADD SWAP1 POP SWAP3 SWAP2 POP POP JUMP JUMPDEST PUSH1 0x0 PUSH2 0x1229 DUP3 PUSH2 0x12B0 JUMP JUMPDEST SWAP2 POP PUSH2 0x1234 DUP4 PUSH2 0x12B0 JUMP JUMPDEST SWAP3 POP DUP3 DUP3 LT ISZERO PUSH2 0x1247 JUMPI PUSH2 0x1246 PUSH2 0x12BA JUMP JUMPDEST JUMPDEST DUP3 DUP3 SUB SWAP1 POP SWAP3 SWAP2 POP POP JUMP JUMPDEST PUSH1 0x0 PUSH2 0x125D DUP3 PUSH2 0x1290 JUMP JUMPDEST SWAP1 POP SWAP2 SWAP1 POP JUMP JUMPDEST PUSH1 0x0 PUSH32 0xFFFFFFFF00000000000000000000000000000000000000000000000000000000 DUP3 AND SWAP1 POP SWAP2 SWAP1 POP JUMP JUMPDEST PUSH1 0x0 PUSH20 0xFFFFFFFFFFFFFFFFFFFFFFFFFFFFFFFFFFFFFFFF DUP3 AND SWAP1 POP SWAP2 SWAP1 POP JUMP JUMPDEST PUSH1 0x0 DUP2 SWAP1 POP SWAP2 SWAP1 POP JUMP JUMPDEST PUSH32 0x4E487B7100000000000000000000000000000000000000000000000000000000 PUSH1 0x0 MSTORE PUSH1 0x11 PUSH1 0x4 MSTORE PUSH1 0x24 PUSH1 0x0 REVERT JUMPDEST PUSH1 0x0 DUP1 REVERT JUMPDEST PUSH1 0x0 DUP1 REVERT JUMPDEST PUSH1 0x0 DUP1 REVERT JUMPDEST PUSH1 0x0 DUP1 REVERT JUMPDEST PUSH1 0x0 DUP1 REVERT JUMPDEST PUSH32 0x496E637265617365207072696365000000000000000000000000000000000000 PUSH1 0x0 DUP3 ADD MSTORE POP JUMP JUMPDEST PUSH32 0x496E76616C6964204F7264657200000000000000000000000000000000000000 PUSH1 0x0 DUP3 ADD MSTORE POP JUMP JUMPDEST PUSH32 0x4E6F74204F776E65720000000000000000000000000000000000000000000000 PUSH1 0x0 DUP3 ADD MSTORE POP JUMP JUMPDEST PUSH32 0x496E76616C696420507269636500000000000000000000000000000000000000 PUSH1 0x0 DUP3 ADD MSTORE POP JUMP JUMPDEST PUSH32 0x4E65656420417070726F76616C00000000000000000000000000000000000000 PUSH1 0x0 DUP3 ADD MSTORE POP JUMP JUMPDEST PUSH2 0x13D8 DUP2 PUSH2 0x1252 JUMP JUMPDEST DUP2 EQ PUSH2 0x13E3 JUMPI PUSH1 0x0 DUP1 REVERT JUMPDEST POP JUMP JUMPDEST PUSH2 0x13EF DUP2 PUSH2 0x12B0 JUMP JUMPDEST DUP2 EQ PUSH2 0x13FA JUMPI PUSH1 0x0 DUP1 REVERT JUMPDEST POP JUMP INVALID LOG2 PUSH5 0x6970667358 0x22 SLT KECCAK256 0x5C PUSH27 0x27599990EACDD8CDCD49A4FADFC47FD1528E029AB002133A595AA3 0xB2 OR STOP PUSH5 0x736F6C6343 STOP ADDMOD SMOD STOP CALLER "
				},
				"gasEstimates": {
					"creation": {
						"codeDepositCost": "1034200",
						"executionCost": "1074",
						"totalCost": "1035274"
					},
					"external": {
						"": "195",
						"list(address,uint256,uint256)": "infinite",
						"nftList(address,uint256)": "infinite",
						"onERC721Received(address,address,uint256,bytes)": "infinite",
						"purchase(address,uint256)": "infinite",
						"revoke(address,uint256)": "infinite",
						"update(address,uint256,uint256)": "infinite"
					}
				},
				"methodIdentifiers": {
					"list(address,uint256,uint256)": "dda342bb",
					"nftList(address,uint256)": "ba5f4fb2",
					"onERC721Received(address,address,uint256,bytes)": "150b7a02",
					"purchase(address,uint256)": "8de93222",
					"revoke(address,uint256)": "eac449d9",
					"update(address,uint256,uint256)": "d09b6d43"
				}
			},
			"storageLayout": {
				"storage": [
					{
						"astId": 2251,
						"contract": "contracts/NFTSwap/NFTSwap.sol:NFTSwap",
						"label": "nftList",
						"offset": 0,
						"slot": "0",
						"type": "t_mapping(t_address,t_mapping(t_uint256,t_struct(Order)2244_storage))"
					}
				],
				"types": {
					"t_address": {
						"encoding": "inplace",
						"label": "address",
						"numberOfBytes": "20"
					},
					"t_mapping(t_address,t_mapping(t_uint256,t_struct(Order)2244_storage))": {
						"encoding": "mapping",
						"key": "t_address",
						"label": "mapping(address => mapping(uint256 => struct NFTSwap.Order))",
						"numberOfBytes": "32",
						"value": "t_mapping(t_uint256,t_struct(Order)2244_storage)"
					},
					"t_mapping(t_uint256,t_struct(Order)2244_storage)": {
						"encoding": "mapping",
						"key": "t_uint256",
						"label": "mapping(uint256 => struct NFTSwap.Order)",
						"numberOfBytes": "32",
						"value": "t_struct(Order)2244_storage"
					},
					"t_struct(Order)2244_storage": {
						"encoding": "inplace",
						"label": "struct NFTSwap.Order",
						"members": [
							{
								"astId": 2241,
								"contract": "contracts/NFTSwap/NFTSwap.sol:NFTSwap",
								"label": "owner",
								"offset": 0,
								"slot": "0",
								"type": "t_address"
							},
							{
								"astId": 2243,
								"contract": "contracts/NFTSwap/NFTSwap.sol:NFTSwap",
								"label": "price",
								"offset": 0,
								"slot": "1",
								"type": "t_uint256"
							}
						],
						"numberOfBytes": "64"
					},
					"t_uint256": {
						"encoding": "inplace",
						"label": "uint256",
						"numberOfBytes": "32"
					}
				}
			},
			"userdoc": {
				"kind": "user",
				"methods": {},
				"version": 1
			}
		}
	}
}