{
	"data": {
		"bytecode": {
			"linkReferences": {},
			"object": "608060405234801561001057600080fd5b50610258806100206000396000f3fe608060405234801561001057600080fd5b50600436106100365760003560e01c80633dece5111461003b5780638552dc081461005b575b600080fd5b61004361007b565b604051610052939291906101a8565b60405180910390f35b6100636100b3565b604051610072939291906101a8565b60405180910390f35b6000806100866100ea565b60029250600091506040518060600160405280600381526020016002815260200160018152509050909192565b6000806100be6100ea565b600180604051806060016040528060038152602001600281526020016001815250925092509250909192565b6040518060600160405280600390602082028036833780820191505090505090565b6000610118838361018a565b60208301905092915050565b61012d816101e9565b6101378184610201565b9250610142826101df565b8060005b8381101561017357815161015a878261010c565b9650610165836101f4565b925050600181019050610146565b505050505050565b6101848161020c565b82525050565b61019381610218565b82525050565b6101a281610218565b82525050565b600060a0820190506101bd6000830186610199565b6101ca602083018561017b565b6101d76040830184610124565b949350505050565b6000819050919050565b600060039050919050565b6000602082019050919050565b600081905092915050565b60008115159050919050565b600081905091905056fea2646970667358221220ba4119dc86770998d461b40512594f1e09a10734ccfbbf38c95de2b4444d085e64736f6c63430008070033",
			"opcodes": "PUSH1 0x80 PUSH1 0x40 MSTORE CALLVALUE DUP1 ISZERO PUSH2 0x10 JUMPI PUSH1 0x0 DUP1 REVERT JUMPDEST POP PUSH2 0x258 DUP1 PUSH2 0x20 PUSH1 0x0 CODECOPY PUSH1 0x0 RETURN INVALID PUSH1 0x80 PUSH1 0x40 MSTORE CALLVALUE DUP1 ISZERO PUSH2 0x10 JUMPI PUSH1 0x0 DUP1 REVERT JUMPDEST POP PUSH1 0x4 CALLDATASIZE LT PUSH2 0x36 JUMPI PUSH1 0x0 CALLDATALOAD PUSH1 0xE0 SHR DUP1 PUSH4 0x3DECE511 EQ PUSH2 0x3B JUMPI DUP1 PUSH4 0x8552DC08 EQ PUSH2 0x5B JUMPI JUMPDEST PUSH1 0x0 DUP1 REVERT JUMPDEST PUSH2 0x43 PUSH2 0x7B JUMP JUMPDEST PUSH1 0x40 MLOAD PUSH2 0x52 SWAP4 SWAP3 SWAP2 SWAP1 PUSH2 0x1A8 JUMP JUMPDEST PUSH1 0x40 MLOAD DUP1 SWAP2 SUB SWAP1 RETURN JUMPDEST PUSH2 0x63 PUSH2 0xB3 JUMP JUMPDEST PUSH1 0x40 MLOAD PUSH2 0x72 SWAP4 SWAP3 SWAP2 SWAP1 PUSH2 0x1A8 JUMP JUMPDEST PUSH1 0x40 MLOAD DUP1 SWAP2 SUB SWAP1 RETURN JUMPDEST PUSH1 0x0 DUP1 PUSH2 0x86 PUSH2 0xEA JUMP JUMPDEST PUSH1 0x2 SWAP3 POP PUSH1 0x0 SWAP2 POP PUSH1 0x40 MLOAD DUP1 PUSH1 0x60 ADD PUSH1 0x40 MSTORE DUP1 PUSH1 0x3 DUP2 MSTORE PUSH1 0x20 ADD PUSH1 0x2 DUP2 MSTORE PUSH1 0x20 ADD PUSH1 0x1 DUP2 MSTORE POP SWAP1 POP SWAP1 SWAP2 SWAP3 JUMP JUMPDEST PUSH1 0x0 DUP1 PUSH2 0xBE PUSH2 0xEA JUMP JUMPDEST PUSH1 0x1 DUP1 PUSH1 0x40 MLOAD DUP1 PUSH1 0x60 ADD PUSH1 0x40 MSTORE DUP1 PUSH1 0x3 DUP2 MSTORE PUSH1 0x20 ADD PUSH1 0x2 DUP2 MSTORE PUSH1 0x20 ADD PUSH1 0x1 DUP2 MSTORE POP SWAP3 POP SWAP3 POP SWAP3 POP SWAP1 SWAP2 SWAP3 JUMP JUMPDEST PUSH1 0x40 MLOAD DUP1 PUSH1 0x60 ADD PUSH1 0x40 MSTORE DUP1 PUSH1 0x3 SWAP1 PUSH1 0x20 DUP3 MUL DUP1 CALLDATASIZE DUP4 CALLDATACOPY DUP1 DUP3 ADD SWAP2 POP POP SWAP1 POP POP SWAP1 JUMP JUMPDEST PUSH1 0x0 PUSH2 0x118 DUP4 DUP4 PUSH2 0x18A JUMP JUMPDEST PUSH1 0x20 DUP4 ADD SWAP1 POP SWAP3 SWAP2 POP POP JUMP JUMPDEST PUSH2 0x12D DUP2 PUSH2 0x1E9 JUMP JUMPDEST PUSH2 0x137 DUP2 DUP5 PUSH2 0x201 JUMP JUMPDEST SWAP3 POP PUSH2 0x142 DUP3 PUSH2 0x1DF JUMP JUMPDEST DUP1 PUSH1 0x0 JUMPDEST DUP4 DUP2 LT ISZERO PUSH2 0x173 JUMPI DUP2 MLOAD PUSH2 0x15A DUP8 DUP3 PUSH2 0x10C JUMP JUMPDEST SWAP7 POP PUSH2 0x165 DUP4 PUSH2 0x1F4 JUMP JUMPDEST SWAP3 POP POP PUSH1 0x1 DUP2 ADD SWAP1 POP PUSH2 0x146 JUMP JUMPDEST POP POP POP POP POP POP JUMP JUMPDEST PUSH2 0x184 DUP2 PUSH2 0x20C JUMP JUMPDEST DUP3 MSTORE POP POP JUMP JUMPDEST PUSH2 0x193 DUP2 PUSH2 0x218 JUMP JUMPDEST DUP3 MSTORE POP POP JUMP JUMPDEST PUSH2 0x1A2 DUP2 PUSH2 0x218 JUMP JUMPDEST DUP3 MSTORE POP POP JUMP JUMPDEST PUSH1 0x0 PUSH1 0xA0 DUP3 ADD SWAP1 POP PUSH2 0x1BD PUSH1 0x0 DUP4 ADD DUP7 PUSH2 0x199 JUMP JUMPDEST PUSH2 0x1CA PUSH1 0x20 DUP4 ADD DUP6 PUSH2 0x17B JUMP JUMPDEST PUSH2 0x1D7 PUSH1 0x40 DUP4 ADD DUP5 PUSH2 0x124 JUMP JUMPDEST SWAP5 SWAP4 POP POP POP POP JUMP JUMPDEST PUSH1 0x0 DUP2 SWAP1 POP SWAP2 SWAP1 POP JUMP JUMPDEST PUSH1 0x0 PUSH1 0x3 SWAP1 POP SWAP2 SWAP1 POP JUMP JUMPDEST PUSH1 0x0 PUSH1 0x20 DUP3 ADD SWAP1 POP SWAP2 SWAP1 POP JUMP JUMPDEST PUSH1 0x0 DUP2 SWAP1 POP SWAP3 SWAP2 POP POP JUMP JUMPDEST PUSH1 0x0 DUP2 ISZERO ISZERO SWAP1 POP SWAP2 SWAP1 POP JUMP JUMPDEST PUSH1 0x0 DUP2 SWAP1 POP SWAP2 SWAP1 POP JUMP INVALID LOG2 PUSH5 0x6970667358 0x22 SLT KECCAK256 0xBA COINBASE NOT 0xDC DUP7 PUSH24 0x998D461B40512594F1E09A10734CCFBBF38C95DE2B4444D ADDMOD 0x5E PUSH5 0x736F6C6343 STOP ADDMOD SMOD STOP CALLER "
		},
		"gasEstimates": {
			"creation": {
				"codeDepositCost": "120000",
				"executionCost": "165",
				"totalCost": "120165"
			},
			"external": {
				"returnNamed()": "infinite",
				"returnNamed2()": "infinite"
			}
		},
		"methodIdentifiers": {
			"returnNamed()": "3dece511",
			"returnNamed2()": "8552dc08"
		}
	},
	"abi": [
		{
			"inputs": [],
			"name": "returnNamed",
			"outputs": [
				{
					"internalType": "uint256",
					"name": "_number",
					"type": "uint256"
				},
				{
					"internalType": "bool",
					"name": "_bool",
					"type": "bool"
				},
				{
					"internalType": "uint256[3]",
					"name": "_array",
					"type": "uint256[3]"
				}
			],
			"stateMutability": "pure",
			"type": "function"
		},
		{
			"inputs": [],
			"name": "returnNamed2",
			"outputs": [
				{
					"internalType": "uint256",
					"name": "_number",
					"type": "uint256"
				},
				{
					"internalType": "bool",
					"name": "_bool",
					"type": "bool"
				},
				{
					"internalType": "uint256[3]",
					"name": "_array",
					"type": "uint256[3]"
				}
			],
			"stateMutability": "pure",
			"type": "function"
		}
	]
}